:020000040800F2
:1000000040370020CD5A0008B1020008B3020008B2
:10001000B7020008BB020008BF0200080000000091
:10002000000000000000000000000000C302000803
:10003000C502000800000000C7020008C90200084D
:10004000E75A0008E75A0008E75A0008E75A00088C
:10005000E75A0008E75A0008E75A0008E75A00087C
:1000600057240008E75A0008E75A0008E75A000832
:10007000E75A0008E75A0008E75A0008E75A00085C
:10008000E75A0008E75A0008E75A0008E75A00084C
:10009000E75A0008E75A0008E75A0008350B00083D
:1000A000E75A0008E75A0008E75A0008E75A00082C
:1000B0007D1100080F25000865110008E75A0008A7
:1000C000E75A0008E75A0008E75A0008E75A00080C
:1000D000E75A000897060008E75A00084714000886
:1000E000E75A0008E75A0008E75A000800F002F84B
:1000F00000F066F80AA090E8000C82448344AAF15C
:100100000107DA4501D100F05BF8AFF2090EBAE859
:100110000F0013F0010F18BFFB1A43F0010318473B
:1001200078B1000098B1000010F8013B0A4413F0C8
:10013000030408BF10F8014B1D1108BF10F8015B44
:10014000641E05D010F8016B641E01F8016BF9D133
:10015000002D15D010F8014B03F00C030C2BA1EB74
:1001600004040ABF10F8013BA4EB8314A4EB03249E
:1001700005F1010314F8016B5B1E01F8016BF9D561
:10018000914238BF10F8013BD1D3704700230024BF
:1001900000250026103A28BF78C1FBD8520728BF97
:1001A00030C148BF0B607047642907F0BF847829CD
:1001B00007F0F884002070471FB51FBD10B510BDB3
:1001C00007F06AFF1146FFF7F7FF00F009F807F0A4
:1001D00088FF03B4FFF7F2FF03BC00F00FFA000042
:1001E00000F09EFA01F05EFA00F0CCFA00F05EF941
:1001F0004FF4FA3000F011FA4FF4165001F0E2F823
:10020000642000F090F920A001F0AAF920A001F0EC
:10021000A7F9642000F087F922A001F0A1F9642079
:1002200000F081F94FF4E13001F0CCF800F0A8F9CA
:1002300001F0B6F900F0DAFE00F025FF41F61F41AB
:1002400041F2883002F04EF901F0C7FF01F04DFB9A
:1002500002F0F3F904F020FC02F0CEF8002141F6A0
:100260001F4001F05BF84FF47A7000F05CF94FF436
:100270007A7000F058F900F095FF00F0AFFA01E055
:1002800000F060FDFCE7000041540D0A0000000092
:1002900041542B4E414D45647975426C697A0D0A83
:1002A0000000000041542B42415544380D0A000023
:1002B000704700BFFEE700BFFEE700BFFEE700BFDC
:1002C000FEE7704770477047704700000CB500208C
:1002D000019000906C48006840F480306A490860E2
:1002E00000BF6948006800F4003000900198401C8D
:1002F0000190009818B90198B0F5A06FF1D162484B
:10030000006800F4003010B10120009001E00020EE
:1003100000900098012843D15C48006840F010002C
:100320005A4908600846006820F003000860084643
:10033000006840F002000860534840685249486035
:100340000846406848600846406840F4806048605D
:100350000846406820F47C1048600846406840F435
:10036000E81048600846006840F08070086000BFF0
:100370004548006800F000700028F9D04248406805
:1003800020F00300404948600846406840F0020001
:10039000486000BF3C48406800F00C000828F9D1D4
:1003A0000CBD10B5FFF792FF10BD10B536480068C0
:1003B00040F001003449086008464068344908406C
:1003C0003149486008460068324908402E490860B3
:1003D0000846006820F4802008600846406820F441
:1003E000FE0048604FF41F008860FFF7DAFF4FF00F
:1003F00000602949086010BD10B5002100200022CE
:10040000214B5B6803F00C0121B1042906D00829B7
:1004100028D107E0214B224C236027E01F4B204CC2
:10042000236023E0184B5B6803F47010164B5B6885
:1004300003F48032022303EB904022B9194B43436B
:10044000174C23600DE0104B5B6803F4003323B1BD
:10045000144B4343124C236003E0104B4343104CB6
:10046000236003E00D4B0E4C236000BF00BF064B22
:100470005B68C3F303130C4CE15C094B1B68CB4076
:10048000074C236010BD0000001002400020024015
:100490000000FFF8FFFFF6FE08ED00E000127A0012
:1004A0004800002000093D004C00002010B56FF00E
:1004B000040005F07AFB2E4800682E49B0FBF1F0ED
:1004C0002D4908700846007800EB4001C1EBC010D0
:1004D0004FF6FF7101EAC0002849088010BD0146AF
:1004E000254A12784A434FF0E0235A6100229A616C
:1004F0001A46126942F001021A6100BF4FF0E02271
:10050000106900F001021AB100F48032002AF5D01F
:100510004FF0E022126922F001024FF0E0231A614D
:1005200000229A6170470146144A12884A434FF0EC
:10053000E0235A6100229A611A46126942F00102D0
:100540001A6100BF4FF0E022106900F001021AB1F9
:1005500000F48032002AF5D04FF0E022126922F038
:1005600001024FF0E0231A6100229A6170470000F7
:100570004800002000127A005C0000205E0000208D
:1005800008B54FF4A06005F0C1FA1D208DF80000F9
:1005900001208DF801008DF802008DF803006846F7
:1005A00005F0B9FA08208DF8000001208DF801004F
:1005B00002208DF8020001208DF80300684605F046
:1005C000AAFA25208DF8000002208DF801008DF890
:1005D000020001208DF80300684605F09CFA2720F0
:1005E0008DF8000002208DF801008DF80200012036
:1005F0008DF80300684605F08EFA08BD014600BF7D
:10060000704700BF424A128802F04002002AF9D027
:10061000C2B23F4B1B1D1A80704710B586B004460E
:10062000012144F2050006F0B1F84FF40070ADF876
:10063000140003208DF8160018208DF8170005A966
:10064000344805F0E7FD4FF48060ADF81400042055
:100650008DF8170005A92F4805F0DCFD0194002056
:10066000ADF80800ADF80A00ADF80C00ADF81000C8
:100670000C20ADF80E0001A9254807F03CF8012236
:1006800040F22551224807F0CEF80121204807F01A
:10069000BEF806B010BD10B540F225511C4807F059
:1006A000A7F910B31A4807F023F9C4B21A48007822
:1006B00000F08000C8B91848007800F0400060B130
:1006C0000A2C03D000201449087020E0124800785A
:1006D00040F080001049087019E00D2C06D10E483A
:1006E000007840F040000C49087010E00A4800789B
:1006F00000F03F0009490C5407480078401C0649A7
:100700000870084600783F2801DD0020087010BD01
:100710000038014000080140640000208C300020B7
:1007200008B50121102006F031F84FF48040ADF8F3
:10073000000010208DF8030003208DF802006946A8
:100740000C4805F067FD08BD18B900210A4A116080
:100750000FE00A490968491C084A1160814208D122
:1007600005490968C943064AC2F8B8110021034A7D
:100770001160704700100140B8012242680000205B
:100780000000224208B50121102005F0FFFF4FF4C0
:100790000040ADF8000048208DF8030069460C4881
:1007A00005F038FD08BD0B48007838B10A480068EC
:1007B00020B90020074908700120704706480068EA
:1007C000012803D1034908700020F6E700BFF4E7D1
:1007D000001001406C0000203C0122421FB50121A5
:1007E000084605F0D3FF0121082005F0CFFF2020A7
:1007F000ADF80C0048208DF80F0003A9114805F052
:1008000009FD0521012005F01BFE2020019000209C
:100810008DF808000C208DF8090001208DF80A00E1
:1008200001A805F017FC17208DF8000000208DF8B6
:10083000010001208DF802008DF80300684605F0E4
:100840006AF91FBD000C01402DE9F84F05460E4620
:100850009146FE4CDFF8F8A34FF0000BFD4800680E
:10086000012803D0FC480068012834D14FF07E51A4
:10087000FA48006808F036FEF849074608604FF06D
:100880007E5108F05FFF07D1A81900F0ABFC0746C6
:1008900008F0C8FFF2490860F1480168F14808F023
:1008A0008FFEF14908600846006808F0EFFD074632
:1008B0004FF03332ED4B08F09DFA02D2EC48EA4992
:1008C0000860EC49E848006809F0D8F80BD2E9481C
:1008D000E549086007E0E848E34908600020DF498F
:1008E0000860DF490860DB480068012808D1DE485D
:1008F0000168E248006809F0F3F8E04908600FE099
:10090000D5480068012808D1D7480168DB4800684D
:1009100008F0E8FDD949086002E00020D7490860E6
:100920002146D648006809F0A9F801D2D3480460EE
:1009300084F00047D1480168384609F09FF803D297
:1009400084F00040CD490860CD480068012803D0FC
:10095000CC480068012802D14FF07C5B01E04FF0E9
:10096000000B5946484608F0BDFF0090C348006898
:1009700080F000485146404608F0B4FF0746009911
:1009800009F0AEF8C04908600846006808F00EFF9C
:10099000BDE8F88F2DE9F05FB9480068012806D15D
:1009A0000020BA490870AA48B949086027E0B5484C
:1009B0000068012806D10020B4490870B548B44940
:1009C00008601CE0B449B548006808F057FF11D230
:1009D000A849B248006809F051F80BD20120AB4990
:1009E00008704FF04041AD48006808F07BFFA8490F
:1009F000086004E00020A5490870A5490860A849DE
:100A00000968A84A12681144084608F00BFFA64975
:100A10000860A648006808F039FD0646A44AA54BC0
:100A200008F024FA044607F017FFA04908609E4822
:100A3000006808F02BFD80469D4A9F4B08F016FA8F
:100A400004460D469948006808F020FD06462246F7
:100A50002B4607F033FF824607F0FEFE93490860FD
:100A6000084601689548006808F03CFD9349086015
:100A7000874801689148006809F032F88F4908609A
:100A80008F498E48006808F0F9FF02D28C488B49E4
:100A900008608C498948006808F0F0FE02D2894855
:100AA00086490860884801688448006808F01AFF91
:100AB0000446864801687D48006808F013FF054633
:100AC000214608F00FFD824908608249824800688B
:100AD00008F0D4FE05D381497F48006808F0CEFFB6
:100AE00002D20020754908607948006808F05EFE6F
:100AF000BDE8F09F2DE9F05F05460E4614463146ED
:100B0000284608F0EDFF814621467548006808F048
:100B1000E9FE824649467348006808F0E3FE8346D2
:100B2000514608F0DFFC804608F040FE0746384694
:100B3000BDE8F09F2DE9F0416B48006800287DD1A9
:100B400020206A4908606A4A6A49634803F0EFFF57
:100B5000694A6A496A4801F012FE022000F0DDFA93
:100B600040424F490860042000F0D7FA4D49086020
:100B700064480078401C63490870084600780A28D9
:100B800007D10020087000F064FD5F49086001F0A3
:100B900094FC5A48B0F9000008F044FE044622468E
:100BA0005A4801684C480068FFF7A4FF584908609C
:100BB0003C4801683A480068FFF7ECFE5549086078
:100BC00024480068012803D02348006801280FD179
:100BD0004948B0F9000008F025FE04462246314895
:100BE00001682F480068FFF72FFE4B4908600EE0B0
:100BF0004148B0F9000008F0D2F806460022474B01
:100C000008F034F9044608F06DF84349086040489C
:100C1000006840490968401A3F490968401A40493C
:100C200008603B4800683B490968401A3A4909682E
:100C300008443C49086000F011FB00E07CE000F053
:100C400041FD31480168244800686DE000003042F1
:100C50000000A041380000203C000020B800002027
:100C6000B000002000005C42B40000203333E33FBA
:100C70009A99193F000040406666663FA800002030
:100C80003000002034000020AC0000204000002094
:100C9000A00000200000A0C1000020411C00002096
:100CA0002000002024000020980000209C0000204C
:100CB0009A9999999999E93F9999C93FA400002077
:100CC00000401C4600401CC68C000020880000200C
:100CD00094000020000020C20400002000002042F8
:100CE000840000208000002014812142140401406F
:100CF0000C000020080000201A000020180000202E
:100D00001600002090000020000000207C00002041
:100D10007000002074000020780000200000E0BF78
:100D2000280000202C00002000F0BBFA03480168D6
:100D30000348006800F05DFABDE8F0812C00002057
:100D40002800002038B5FFF72EFD904908700846AE
:100D5000007801280AD18E480078401C8C49087020
:100D600008460078032801DD0020087088480078D4
:100D700078B98848007800280AD08748082380225C
:100D800000210090084600F0DCFE00208149087038
:100D9000FAE07F48007801287DD18048006801286A
:100DA0000FD17C4800780128F2D07D4808238022AA
:100DB00000210090084600F0C4FE0120754908702B
:100DC000E2E07848006808F061FB0446764A774B19
:100DD00008F04AF90FD86F4800786428D8D07448D2
:100DE0000823802200210090084600F0AAFE64201B
:100DF00068490870C8E06B48006808F047FB044683
:100E00004FF066326B4B08F02FF90FD8614800782D
:100E10005028BDD068480823802200210090084651
:100E200000F08FFE50205B490870ADE05D4800681F
:100E300008F02CFB04460022604B08F015F90FD88F
:100E4000544800783C28A3D05D4808238022002124
:100E50000090084600F075FE3C204E49087093E073
:100E60005048006808F012FB04464FF03332554BEF
:100E700008F0FAF810D847480078282888D0524857
:100E80000823802200210090084600F05AFE282006
:100E90004049087078E02AE04248006808F0F6FA15
:100EA00004464FF06632494B08F0DEF80FD8394857
:100EB0000078142868D0464808238022002100903A
:100EC000084600F03EFE1420324908705CE03148CC
:100ED0000078C82858D03F4808238022002100907D
:100EE000084600F02EFEC8202A4908704CE0284829
:100EF0000078022837D13848007801280FD12548DA
:100F00000078152840D03548082380220021009021
:100F1000084600F016FE15201E49087034E03048DF
:100F2000007801280FD11B48007815282CD02D48B7
:100F30000823802200210090084600F002FE1520C0
:100F40001449087020E01348007816281CD0264861
:100F50000823802200210090084600F0F2FD1620B0
:100F60000C49087010E00A48007803280CD10948A1
:100F70000078032806D000F0B8FC01F0C1F9032086
:100F80000449087001F0D6F938BD00004200002085
:100F90004300002044000020BC24002004812142A2
:100FA000BC18002000000020CDCCCCCCCCCC104014
:100FB000BC14002066661040BC10002000001040E9
:100FC000BC0C002033330F40BC08002066660E4086
:100FD000BC040020BC00002040000020BC200020F9
:100FE00041000020BC280020BC1C002000B587B0B8
:100FF0000121084605F0D7FB0121042005F0C6FBBE
:101000000320ADF8000004208DF803006946614814
:1010100005F000F904A806F01DF80020ADF8100056
:101020004FF6FF70ADF814000020ADF81600ADF8D3
:10103000120004A94FF0804005F0E0FC00231A469E
:1010400003214FF0804006F0E8F801A806F015F8FB
:101050000A20ADF80C0001A9400705F062FF01214C
:10106000880706F0EDFA01221146900706F03DF8D8
:1010700000214FF0804006F0B1FA0121880706F008
:1010800019F807B000BD00B587B00121042005F0B4
:101090008AFB0121082005F079FBC020ADF8000093
:1010A00004208DF8030069463B4805F0B3F804A816
:1010B00005F0D0FF0020ADF810004FF6FF70ADF83E
:1010C00014000020ADF81600ADF8120004A9334852
:1010D00005F094FC00231A460321304806F09DF8E1
:1010E00001A805F0CAFF0A20ADF80C0001A92B48A1
:1010F00005F017FF0121294806F0A2FA0122114646
:10110000264805F0F2FF0021244806F067FA012185
:10111000224805F0CFFF07B000BD0146022904D0E8
:1011200003290BD0042919D10FE04FF08042928C93
:1011300010B200224FF080439A8411E0184A1288BE
:1011400010B20022164B1A800AE0144A2432128888
:1011500010B20022114B24331A8001E0002000BF9E
:1011600000BF70470D48103000880C4810300088D0
:1011700020F0010009491031088070474FF080408D
:10118000008A4FF08040008A20F001004FF080413B
:101190000882704700080140000C01400008004030
:1011A0002404004008B50121082005F0EFFA4FF4AF
:1011B0007040ADF8000010208DF8030003208DF87A
:1011C00002006946494805F025F8002048490860B2
:1011D0004849C1F8BC014649091F08604549C1F8A2
:1011E000B40108BD0146002901DA484200E0084682
:1011F000704700B503460A46002B08DA01203C4937
:10120000091D086000203B49C1F8B80107E0002033
:101210003749091D086001203649C1F8B801184650
:10122000FFF7E0FF34490880002A08DA002030493F
:10123000091F086001202F49C1F8B00107E0012013
:101240002B49091F086000202A49C1F8B001104647
:10125000FFF7C8FF28490C31088000BD2748006807
:101260002749884202DA0846244908602348006872
:1012700041F65831884202DD08462049086021487D
:1012800000681F49884202DA08461E4908601D4866
:10129000006841F65831884202DD08461949086065
:1012A00070472DE9F04105460C461749284608F0DD
:1012B000E5FA0DD31549284608F0E0FB08D320468F
:1012C00008F0E4F80646124A124B07F093FD08D2E4
:1012D00000200A4908600B49086001200E49087087
:1012E00002E000200C490870BDE8F081000C0140CC
:1012F000B881214200802142342C01402800002086
:10130000A8E4FFFF2C000020000020C200002042C3
:10131000CDCCCCCCCCCC0C404100002030B589B039
:1013200005460C460121C80205F030FA01210420CF
:1013300005F02CFA4FF41060ADF8200018208DF85D
:10134000230003208DF8220008A91C4804F062FF46
:10135000ADF81850ADF814400020ADF81A00ADF803
:10136000160005A9164805F049FB6020ADF80400F9
:101370000120ADF806000020ADF80A00ADF80C0021
:1013800001A90F4805F077FB01A90D4805F04DFCB8
:1013900001210B4805F09AFE0821094805F0BAFF23
:1013A0000821074805F0D5FF0121054805F082FF17
:1013B0000121034805F07EFE09B030BD0008014060
:1013C000002C014010B586B004460121082005F02C
:1013D000DDF90121880405F0E6F94FF48060ADF8ED
:1013E000140003208DF8160018208DF8170005A9A9
:1013F000644804F00FFF4FF40060ADF814000420BF
:101400008DF8170005A95F4804F004FF019400203F
:10141000ADF80800ADF80A00ADF80C00ADF810000A
:101420000C20ADF80E0001A9574806F064F901221E
:1014300040F22551544806F0F6F90121524806F0D1
:10144000E6F906B010BD10B540F225514E4806F041
:10145000CFFA002867D04C4806F04AFA4B4908609A
:101460000846006848B900204949086049490860B1
:10147000494908604949086055E044480068012826
:1014800009D1434908600020424908604249086088
:101490004249086047E03D48006805280BD100201C
:1014A0003B49086001203B49086000203A49086038
:1014B0003A49086037E035480068022807D03348C9
:1014C0000068032803D03148006804280AD10020AE
:1014D0002F4908602F4908602F49086001202F49D3
:1014E000086020E029480068062807D027480068DF
:1014F000072803D02548006808280BD1002024497C
:10150000086024490860012023490860002023491D
:10151000086008E000201E4908601E4908601E4956
:1015200008601E49086010BD10B5044621461648E3
:1015300006F0DAF900BF4021134806F043FA01280B
:10154000F9D110BD70B504460D46002605E014F82B
:10155000010BFFF7E9FF701C86B2AE42F7DB70BDEE
:1015600070B50446204606F011FC86B2002505E061
:1015700014F8010BFFF7D8FF681C85B2B542F7DB02
:1015800070BD0000000C014000480040BC2C002051
:101590003000002034000020380000203C000020F3
:1015A00000B587B001214FF4027005F0EFF84FF459
:1015B000004005F04FF80120ADF8040000208DF840
:1015C000070001A9324804F025FE324804F00CFB64
:1015D000002002908DF80C008DF80D004FF4602073
:1015E00004900020059001208DF8180002A92948D8
:1015F00004F021FB0121274804F049FB254804F0B1
:1016000068FB00BF234804F069FB0028FAD1214899
:1016100004F06EFB00BF1F4804F06FFB0028FAD1F6
:1016200007B000BD10B50446072301222146194822
:1016300004F099FB0121174804F069FB00BF022167
:10164000144804F0D5FC0028F9D0124804F0F2FB4D
:1016500010BD2DE9FC5F0820FFF7E4FF009007F0C4
:10166000B5FB80464FF066320B4B07F0FFFB06469A
:1016700000220A4B07F0FAFB04460022084B07F051
:10168000D9F9824607F0E8F801900198BDE8FC9F7F
:10169000000C01400024014066660A40000026401C
:1016A0000000B04008B50121082005F06FF80220C5
:1016B000ADF8000028208DF803006946074804F0C3
:1016C000A9FD08BD06480068012804D1002005498D
:1016D000086005490860024800687047000C014036
:1016E00004812142280000202C00002010B54FF476
:1016F0008071F84804F03BFE4FF40071F54804F0A7
:1017000036FE4FF40071F34804F033FE4FF480715D
:10171000F04804F02EFE10BD10B54FF48071ED4876
:1017200004F025FE4FF40071EA4804F022FE4FF465
:101730000071E84804F01BFE10BD10B54FF4807135
:10174000E44804F014FE4FF48071E24804F011FE06
:1017500010BD2DE9F04105462C464FF48071DD485F
:1017600004F007FE00261CE0274607F08007802FC4
:1017700004D1B900D74804F0FAFD04E04FF4007139
:10178000D44804F0F6FD6006040E4FF48071D14891
:1017900004F0EDFD4FF48071CE4804F0EAFD701CBA
:1017A000C6B2082EE0DBBDE8F08110B50446FFF7B5
:1017B0009DFF7820FFF7CDFFFFF7BFFF0020FFF769
:1017C000C8FFFFF7BAFF2046FFF7C3FFFFF7B5FFDB
:1017D000FFF7A2FF10BD10B50446FFF787FF782082
:1017E000FFF7B7FFFFF7A9FF4020FFF7B2FFFFF7B2
:1017F000A4FF2046FFF7ADFFFFF79FFFFFF78CFF29
:1018000010BD70B504460D461DB1E0B2FFF7E3FF11
:1018100002E0E0B2FFF7C9FF70BD70B506460024D4
:1018200018E004F1B0000021FFF7EBFF00210846AB
:10183000FFF7E7FF00211020FFF7E3FF002505E099
:1018400001213046FFF7DDFF681CC5B2802DF7DBB4
:10185000601CC4B2082CE4DB70BD06E041F66501F3
:1018600000E0491E0029FCD1401E0028F6D1704737
:10187000014605E0002001E0421CD0B27B28FBDBE2
:101880000A1EA1F10101F5D1704770B504460D465D
:1018900005F1B0000021FFF7B4FF102141EA141058
:1018A0000021FFF7AEFF04F00F000021FFF7A9FFB2
:1018B00070BD10B500218D20FFF7A3FF002114207B
:1018C000FFF79FFF0021AF20FFF79BFF10BD10B572
:1018D00000218D20FFF795FF00211020FFF791FFD9
:1018E0000021AE20FFF78DFF10BD70B5002418E079
:1018F00004F1B0000021FFF784FF00210846FFF744
:1019000080FF00211020FFF77CFF002505E001216A
:101910000020FFF776FF681CC5B2802DF7DB601C46
:10192000C4B2082CE4DB70BD70B5002418E004F1EB
:10193000B0000021FFF765FF00210846FFF761FFB7
:1019400000211020FFF75DFF002505E0012108467A
:10195000FFF757FF681CC5B2802DF7DB601CC4B2CF
:10196000082CE4DB70BD2DE9F04707460E46904693
:10197000994600250024A8F12000C5B27F2F02DD82
:101980000027B01CC6B2B9F1100F24D13146384639
:10199000FFF77BFF002408E004EB05114E4A505C82
:1019A0000121FFF72EFF601CC4B2082CF4DB701C71
:1019B000C1B23846FFF769FF002409E004EB0511C6
:1019C0000831454A505C0121FFF71BFF601CC4B27F
:1019D000082CF3DB12E031463846FFF756FF0024AF
:1019E0000AE005EB45013D4A02EB4101085D01219A
:1019F000FFF707FF601CC4B2062CF2DBBDE8F087DE
:101A000010B50246012000E050430B1EA1F1010475
:101A1000E1B2F9D110BD2DE9FF5F074691461E46A0
:101A20000E9D4FF0000A002435E0301B401EC1B26D
:101A30000A20FFF7E5FFB9FBF0F00A21B0FBF1F255
:101A400001FB1208BAF1000F14D1701EA04211DD83
:101A5000B8F1000F0CD1AB4605EBDB71491001FB6F
:101A60000471C8B22B4620220199FFF77CFF10E0D9
:101A70004FF0010AAB4605EBDB71491001FB047125
:101A8000C8B208F13001CAB22B460199FFF76BFFCB
:101A900000BF601CC4B2B442C7DBBDE8FF9F2DE9A4
:101AA000F04105460E4614461F460EE022783B469E
:101AB00031462846FFF757FF05F10800C5B2782DDB
:101AC00002DD0025B01CC6B2641C20780028EDD1D0
:101AD000BDE8F081000C0140E29E0008BA9C0008BD
:101AE0002DE9F04180460E46154600273146404616
:101AF000FFF7CBFE00240AE0F74A02EB8511085DF0
:101B00000121FFF77EFE781CC7B2601CC4B2102C06
:101B1000F2DB701CC1B24046FFF7B7FE00240CE0B8
:101B20006900491CEC4A02EB4111085D0121FFF7F5
:101B300068FE781CC7B2601CC4B2102CF0DBBDE894
:101B4000F0812DE9F05F06460F4690461C46DDF811
:101B500028A04FF0000BE11704EB5171C910A4EB62
:101B6000C10131B92046E11704EB5171C1F3C7053A
:101B700006E02046E11704EB5171C910491CCDB2B3
:101B80003D4615E029463046FFF77FFEB1460BE0A3
:101B900059460BF1010B1AF801000121FFF731FE44
:101BA00009F1010000F0FF09C145F1DB681CC5B275
:101BB000A542E7DBBDE8F09F2DE9FF5F86B0144644
:101BC0001D464FF0010A00200390049005904FF04D
:101BD0000109002600BF83460022134620462946FD
:101BE00007F008F909D285F00040CDE90040204611
:101BF000019907F077F8064604E02046294607F0E9
:101C000071F80646304607F0CAF822462B46CDE961
:101C1000000107F05FFA074688460022AF4B3846BE
:101C2000414607F023F9CDE9000107F08BF8834620
:101C300007E009EB89004FEA40090AF1010000F0D2
:101C4000FF0A0A2096FBF0F090FBF9F00028F0D193
:101C500042F2107096FBF0F00A2190FBF1F201FBCA
:101C60001200C0B28DF80C004FF47A7096FBF0F0C1
:101C700090FBF1F201FB1200C0B28DF80D00642060
:101C800096FBF0F090FBF1F201FB1200C0B28DF870
:101C90000E000A2096FBF0F090FBF1F201FB12001F
:101CA000C0B28DF80F000A2096FBF0F100FB116026
:101CB000C0B28DF810002E208DF811004FF47A700C
:101CC000BBFBF0F00A21B0FBF1F201FB12008DF832
:101CD00012006420BBFBF0F0B0FBF1F201FB12003C
:101CE0008DF813000A20BBFBF0F0B0FBF1F201FB12
:101CF00012008DF814000A20BBFBF0F100FB11B0BC
:101D00008DF8150000211498801D03AA11548946EE
:101D100008E003A810F80900303003A901F8090011
:101D200009F10109B9F10A0FF3DB0022134620463D
:101D3000294607F05FF808D20AF1010000F0FF0A17
:101D40002D20CAF1050103AA50542E208DF8110050
:101D500000211498801D03AA1154CAF1050003A99B
:101D600042180C23DDE90610FFF799FE0AB0BDE822
:101D7000F09F2DE9F04F89B0824689461746984674
:101D8000DDF84CB0012007900020049005900690EB
:101D90000124002500BF00264FEAC9604FEA106900
:101DA0003846414606F09EFF0546284607F00EF8E5
:101DB0003A464346CDE9000107F08CF9CDE902012E
:101DC0000022464BDDE9020107F050F8CDE90001A1
:101DD00006F0B8FF064606E004EB840044000798CE
:101DE000401CC0B207900A20B5FBF0F0B0FBF4F045
:101DF0000028F1D142F21070B5FBF0F00A21B0FBDF
:101E0000F1F201FB12008DF810004FF47A70B5FB6F
:101E1000F0F0B0FBF1F201FB12008DF8110064202C
:101E2000B5FBF0F0B0FBF1F201FB12008DF81200EF
:101E30000A20B5FBF0F0B0FBF1F201FB12008DF8C7
:101E400013002E208DF815004FF47A70B6FBF0F0D9
:101E5000B0FBF1F201FB12008DF816006420B6FB16
:101E6000F0F0B0FBF1F201FB12008DF817000A2030
:101E7000B6FBF0F0B0FBF1F201FB12008DF8180098
:101E80000A20B6FBF0F100FB11608DF8190000216B
:101E90000BF1060004AA1154002405E004A8005D1B
:101EA000303004A90855641C0A2CF7DB2E208DF86D
:101EB000150000210BF1060004AA11541298C0F17C
:101EC000050004A942180C2351464846FFF7E7FDD8
:101ED00009B0BDE8F08F0000C02C00200088C3408E
:101EE0002DE9F04105460F46164600BF05EB4501BA
:101EF0004906080E3946FFF7C8FC00240BE006F13E
:101F0000100101EB4101FB4A02EB4101085D012197
:101F1000FFF777FC641C062CF1DBBDE8F0812DE9AE
:101F2000F04105460F46164600BF05EB4501490640
:101F3000080E3946FFF7A9FC002409E006EB46012C
:101F4000EC4A02EB4101085D0121FFF75AFC641CD9
:101F5000062CF3DBBDE8F0812DE9F0470546894604
:101F600016463446002C22DA6442642094FBF0F1D9
:101F700000FB11400A2190FBF1F0C7B20A2094FB4C
:101F8000F0F100FB114000F0FF080D224946284601
:101F9000FFF7C5FF691CC8B23A464946FFF7A0FFE4
:101FA000A91CC8B242464946FFF79AFF20E06420C8
:101FB00094FBF0F100FB11400A2190FBF1F0C7B255
:101FC0000A2094FBF0F100FB114000F0FF080B2207
:101FD00049462846FFF7A3FF691CC8B23A4649465E
:101FE000FFF77EFFA91CC8B242464946FFF778FFBB
:101FF000BDE8F0872DE9F04705468A461646344687
:10200000002C2DDA64420D2251462846FFF787FF47
:102010000A2094FBF0F100FB1140C7B20A2094FBA8
:10202000F0F00A2190FBF1F201FB120000F0FF0832
:10203000642094FBF0F000F0FF09E91CC8B23A46B6
:102040005146FFF74DFFA91CC8B242465146FFF763
:1020500047FF691CC8B24A465146FFF741FF2BE0D3
:102060000B2251462846FFF75AFF0A2094FBF0F155
:1020700000FB1140C7B20A2094FBF0F00A2190FB4C
:10208000F1F201FB120000F0FF08642094FBF0F075
:1020900000F0FF09E91CC8B23A465146FFF720FF9D
:1020A000A91CC8B242465146FFF71AFF691CC8B2C4
:1020B0004A465146FFF714FFBDE8F0872DE9F05F6F
:1020C00005468B4616463446002C00DA64424FF42F
:1020D0007A7094FBF0F0C7B24FF47A7094FBF0F191
:1020E00000FB1140642190FBF1F000F0FF08642038
:1020F00094FBF0F100FB11400A2190FBF1F000F09D
:10210000FF090A2094FBF0F100FB114000F0FF0AE8
:102110003A4659462846FFF7E3FE691CC8B24246D4
:102120005946FFF7DDFEA91CC8B24A465946FFF7DB
:10213000D7FEE91CC8B252465946FFF7D1FEBDE8AA
:10214000F09F2DE9F05F05460E46144642F21070EE
:10215000B4FBF0F0C7B242F21070B4FBF0F100FB38
:1021600011404FF47A71B0FBF1F000F0FF0808461F
:10217000B4FBF0F100FB11406421B0FBF1F000F082
:10218000FF096420B4FBF0F100FB11400A21B0FB11
:10219000F1FA0A20B4FBF0F100FB114B3A4631464C
:1021A0002846FFF79DFE691CC8B242463146FFF73C
:1021B00097FEA91CC8B24A463146FFF791FEE91CBA
:1021C000C8B252463146FFF78BFE291DC8B25A46A7
:1021D0003146FFF785FEBDE8F09F08B501210920D3
:1021E00004F0D4FA0121444804F0E5F84FF44070BB
:1021F000ADF8000010208DF8030003208DF80200D8
:1022000069463E4804F006F84FF440713B4804F03C
:10221000AEF84FF44870FEF786F90021AE20FFF7C4
:10222000F0FA00210846FFF7ECFA00211020FFF732
:10223000E8FA00214020FFF7E4FA0021B020FFF780
:10224000E0FA00218120FFF7DCFA0021FF20FFF7F0
:10225000D8FA0021A120FFF7D4FA0021A620FFF729
:10226000D0FA0021A820FFF7CCFA00213F20FFF789
:10227000C8FA0021C820FFF7C4FA0021D320FFF7D5
:10228000C0FA00210846FFF7BCFA0021D520FFF76D
:10229000B8FA00218020FFF7B4FA0021D820FFF718
:1022A000B0FA00210520FFF7ACFA0021D920FFF792
:1022B000A8FA0021F120FFF7A4FA0021DA20FFF7A5
:1022C000A0FA00211220FFF79CFA0021DB20FFF783
:1022D00098FA00213020FFF794FA00218D20FFF7B3
:1022E00090FA00211420FFF78CFA0021AF20FFF7AD
:1022F00088FA08BDBA9C000800023000000C0140BA
:1023000010B50C2329A200210846FFF7C8FB0C23B7
:1023100028A202210020FFF7C2FB0C2327A20221E2
:102320005A20FFF7BCFB0C2325A204210020FFF755
:10233000B6FB10BD38B52548006807F0A7F804467D
:10234000032022460B46302100900020FFF734FC8A
:102350001F48006807F09AF80446032022460B46FF
:10236000302100900220FFF727FC1A48006807F090
:102370008DF80446032022460B4646210090042097
:10238000FFF71AFC14480068012805D10C2313A29A
:1023900006210020FFF783FB0F48006828B90C23B3
:1023A00011A206210020FFF77AFB38BD414E474CB1
:1023B000453A0000424154203A0000005600000017
:1023C00044697374616E63653A0000000400002084
:1023D000000000201C00002004812142436861723B
:1023E00067696E672E2E2E002020202020202020BE
:1023F00020202020000000000EB50121052004F05F
:10240000C5F90820ADF8080010208DF80B00032056
:102410008DF80A0002A92F4803F0FCFE0420ADF855
:10242000080028208DF80B0002A92A4803F0F2FECC
:102430000221002004F004F80420009000208DF810
:10244000040008208DF8050001208DF8060068467C
:1024500003F000FE0EBD2DE9F0410A20FEF73FF823
:10246000042003F05DFE30B300211B4805F0B6F8F0
:102470000121194804F01EFE00BF0421154803F095
:102480005CFF0028F9D10021134804F013FE124824
:1024900005F0C7F8804606F099FC06464FF0333247
:1024A0000E4B06F0E3FC044606F0D6F90C49086032
:1024B000042003F046FEBDE8F08110B50821054870
:1024C00003F055FF1420FEF70AF80821014803F035
:1024D00050FF10BD00080140000400403333FB3FB3
:1024E0001C0000203EB505460C460121022004F0E8
:1024F0005AF9ADF80450ADF800400020ADF80600E0
:10250000ADF802006946074804F078FA3EBD10B500
:102510000121044805F097F818B10121014805F0A0
:10252000A3F810BD0004004070B505460C4600F04D
:10253000C7F9D02000F06EFA00F0FFF918B100F0F2
:10254000DDF9012070BD284600F064FA00F0F5F9CD
:10255000204600F05FFA00F0F0F918B100F0CEF973
:102560000120EFE700F0CAF90020EBE770B5044660
:102570000025BC2C01DB012510E0622C01DB0225CB
:102580000CE02A2C01DB032508E0142C01DB0425D8
:1025900004E00A2C01DB052500E0062529461A2067
:1025A000FFF7C2FF70BD70B50446B4F57A7F01DD58
:1025B0004FF47A74042C00DA04244FF47A7090FB00
:1025C000F4F0401EC5B229461920FFF7ADFF0546BD
:1025D000264604EBD671C1F34F00FFF7C7FF70BD6D
:1025E00070B5044600F06CF9D02000F013FA00F04A
:1025F000A4F9204600F00EFA00F09FF900F060F90F
:10260000D12000F007FA00F098F9002000F02BFA32
:10261000054600F073F9284670BD10B50446E00683
:10262000010E1C20FFF780FF10BD10B50446E00628
:10263000010E1B20FFF778FF10BD10B500F02DF93B
:1026400080216B20FFF770FF6420FDF76CFF0021F5
:102650006B20FFF769FF0320FFF7E7FF0020FFF77C
:10266000DCFFC820FFF79FFF00213820FFF75CFF49
:1026700000216A20FFF758FF00212320FFF754FFB5
:1026800080213720FFF750FF7520FFF7A9FF044690
:10269000682C0BD101216B20FFF746FF00216C2035
:1026A000FFF742FFC820FFF77EFF01E0012010BDC9
:1026B0000020FCE72DE9F04106460F4614461D4672
:1026C00000F0FEF8002141EA4601C8B200F0A2F98C
:1026D00000F033F920B100F011F90120BDE8F081DC
:1026E000384600F097F900F028F900F0E9F80121E8
:1026F00001EB4601C8B200F08DF900F01EF90DE0C3
:10270000012C04D1002000F0AEF9287003E0012074
:1027100000F0A9F92870601EC4B26D1C002CEFD126
:1027200000F0ECF80020D9E72DE9F84F6B460222C3
:1027300041216820FFF7BEFF9DF801009DF80010C1
:1027400040EA01200FFA80FA504606F028FB804646
:1027500000224B4B06F06EF906464A4A4A4B06F0F9
:10276000ADF8044606F078F883464849584607F025
:10277000B9F8044607F01AF800B2BDE8F88F2DE961
:10278000FC4104460D4616466B460622432168204E
:10279000FFF790FF0746BFB99DF801009DF80010B4
:1027A00040EA012000B220809DF803009DF802104D
:1027B00040EA012000B228809DF805009DF8041031
:1027C00040EA012000B230803846BDE8FC812DE9A6
:1027D000FC4104460D4616466B4606223B21682006
:1027E000FFF768FF0746BFB99DF801009DF800108C
:1027F00040EA012000B220809DF803009DF80210FD
:1028000040EA012000B228809DF805009DF80410E0
:1028100040EA012000B230803846BDE8FC812DE955
:10282000F04105460E461746984600F049F800214B
:1028300041EA4501C8B200F0EDF800F07EF820B1A1
:1028400000F05CF80120BDE8F081304600F0E2F8CD
:1028500000F073F800240CE018F8040000F0DAF837
:1028600000F06BF818B100F049F80120EBE7601CAC
:10287000C4B2BC42F0DB00F041F80020E3E7000006
:1028800000407540A4703D0AD74342400000C84252
:1028900010B50220FDF723FE10BD08B50121082068
:1028A00003F074FF1820ADF8000010208DF803002D
:1028B00003208DF802006946834803F0ABFC08BD95
:1028C00010B58148006820F470407F4908600846D0
:1028D000006840F44050086001207C4908607C4951
:1028E000C1F89001FFF7D4FF002078490860FFF796
:1028F000CFFF00207649C1F8900110BD10B5724895
:10290000006820F47040704908600846006840F490
:102910004050086000206D49091D08606C49C1F8ED
:102920008C01FFF7B5FF01206849091D086068495F
:10293000C1F88C01FFF7ACFF10BD10B50024624850
:10294000006820F47040604908600846006840F460
:102950000040086001205D490860FFF799FF0120F1
:102960005B49C1F89001FFF793FF07E0601CC4B218
:10297000FA2C03DDFFF7C2FF012010BD5348803859
:1029800000680028F2D15149091D086000BFF4E732
:1029900010B500204D49091D08604B48006820F41F
:1029A0007040494908600846006840F4405008609B
:1029B00000204749C1F88C01FFF76AFF0120434915
:1029C000091D0860FFF764FF00204149C1F890012C
:1029D00010BD10B500203D49091D08603A48006847
:1029E00020F47040384908600846006840F44050C0
:1029F000086001203649C1F88C01FFF749FF01202A
:102A00003249091D0860FFF743FF00203049C1F833
:102A1000900110BD70B504462B48006820F470404A
:102A2000294908600846006840F4405008600020CA
:102A30002649091D0860002512E0E00923490860C5
:102A40006006040E01202249C1F89001FFF720FF23
:102A500000201E49091D0860FFF71AFF681CC5B257
:102A6000082DEADB70BD70B50546002416480068E5
:102A700020F47040144908600846006840F40040A3
:102A80000860002615E000201049091D0860FFF7C6
:102A9000FFFE01200E49C1F890016006040E0B48AC
:102AA0008038006808B1601CC4B2FFF7F1FE701CEA
:102AB000C6B2082EE7DB15B9FFF78BFF01E0FFF781
:102AC00067FF204670BD0000000C01408C81214250
:102AD0000080214238B50446F74890F82400C0B180
:102AE00014B10220009001E000200090F24A126828
:102AF000D17BF14A526810786B460122FFF78FFEB6
:102B000010B14FF0FF3038BD9DF80010EA48417415
:102B100023E0E948807A10B94FF0FF30F3E724B1A1
:102B2000E548407C08B10020EDE714B10120009099
:102B300001E000200090E04A1268D17BDE4A526832
:102B400010786B460122FFF76AFE10B14FF0FF309C
:102B5000D9E79DF80010D84841740020D3E738B574
:102B600000241FE0D4480068C07AA04204D0D248B4
:102B70000068407DA04200D112E0CF494968087842
:102B80006B4601222146FFF795FD10B14FF0FF3053
:102B900038BD9DF800202146C8A004F093FF00BF77
:102BA000601CC4B2C44840680079A042DADC00204E
:102BB000EEE770B504460D46BF480068C07AA042F3
:102BC00004D0BD480068407DA04202D14FF0FF30E4
:102BD00070BDB94840680079A04202DC4FF0FF3078
:102BE000F6E7B549496808782B4601222146FFF7E8
:102BF00061FDEDE738B50446AF4890F82300A042E8
:102C000001D1002038BD14B13020009001E0002037
:102C10000090A948807C20B19DF8000040F002009F
:102C20000090A54890F8220020B19DF8000040F0E7
:102C300080000090A04A1268117D9F4A5268107867
:102C40006B460122FFF7EBFD10B14FF0FF30D9E7E3
:102C5000994880F823400020D4E738B5044604F0B2
:102C6000700010B10120009005E014B10020009028
:102C700001E040200090904A1268917C8E4A526890
:102C800010786B460122FFF7CAFD20B100218A4867
:102C90008172481E38BD9DF8000020F04001864832
:102CA00001730020009004F0400020B99DF800005E
:102CB00040F00400009004F0200020B99DF80000CE
:102CC00040F00200009004F0100020B99DF80000D0
:102CD00040F00100009004F0080020B99DF80000C9
:102CE00040F038000090744A1268D17C724A5268F1
:102CF00010786B460122FFF792FD20B100216E484B
:102D00008172481EC6E724B1082C02D00020FFF7CC
:102D100071FF69488472002101753220FDF703FCC0
:102D20000020B7E738B504466348807CA04201D153
:102D3000002038BD002C46D05F4A126811795E4AE7
:102D4000526810786B460122FFF7B4FC10B14FF0C7
:102D5000FF30EEE79DF8000020F020000090564A7A
:102D600012681179544A526810786B460122FFF7B5
:102D700056FD10B14FF0FF30DBE70320FDF7D3FB2A
:102D8000022000904C4890F8220020B19DF80000ED
:102D900040F080000090484890F8230020B19DF852
:102DA000000040F030000090434A1268117D424A12
:102DB000526810786B460122FFF731FD002851D090
:102DC0004FF0FF30B5E73C4A126811793A4A526831
:102DD00010786B460122FFF76DFC10B14FF0FF3009
:102DE000A7E73548807A00F0010028B19DF800007F
:102DF00040F02000009004E09DF8000020F020004A
:102E000000902D4A126811792B4A526810786B464F
:102E10000122FFF704FD10B14FF0FF3089E70320D6
:102E2000FDF781FB244890F8220010B1802000902B
:102E300001E000200090204890F8230020B19DF888
:102E4000000040F0300000901B4A1268117D1A4AC1
:102E5000526810786B460122FFF7E1FC10B14FF089
:102E6000FF3066E714488474002062E708B5124812
:102E7000807A10B94FF0FF3008BD002000900E4A54
:102E80001268D17B0C4A526810786B460122FFF71A
:102E9000C6FC10B14FF0FF30EEE7074A12685179D7
:102EA000054A526810786B460122FFF7B8FC68B1FA
:102EB0004FF0FF30E0E70000403000202523357858
:102EC0003A20252335780D0A00000000F84A1268E0
:102ED0001179F74A526810786B460122FFF79FFC80
:102EE00010B14FF0FF30C7E7F14890F824000028F8
:102EF00053D00C200090EE4A12681179EC4A5268C7
:102F000010786B460122FFF78AFC10B14FF0FF30BA
:102F1000B2E73220FDF707FBC0200090E448807A3A
:102F200000F0010020B19DF8000040F0200000906A
:102F3000DF4A12681179DE4A526810786B46012226
:102F4000FFF76DFC10B14FF0FF3095E7D848407C9B
:102F500010B10220009001E000200090D44A1268D5
:102F6000D17BD34A526810786B460122FFF757FC99
:102F700010B14FF0FF307FE700200090CC4A12687C
:102F80005179CB4A526810786B460122FFF747FC13
:102F9000002855D04FF0FF306EE704200090C44A5F
:102FA00012681179C24A526810786B460122FFF705
:102FB00036FC10B14FF0FF305EE7BD48807C20B991
:102FC000BB48807A00F0010010B94020009001E079
:102FD00060200090B64A12681179B54A526810789C
:102FE0006B460122FFF71BFC10B14FF0FF3043E7A7
:102FF0003220FDF798FAAE48407C10B101200090D5
:1030000001E000200090AA4A1268D17BA84A5268C9
:1030100010786B460122FFF702FC10B14FF0FF3031
:103020002AE7A34A12685179A14A52681078A04B46
:1030300010330122FFF7F3FB10B14FF0FF301BE715
:10304000002019E770B50446002624F001049848D2
:1030500090F8240008B1002070BD9548807A10B91E
:103060004FF0FF30F8E79248057C807A2040904985
:1030700008740846007CA04202D04FF0FF3600E002
:10308000002614B98A48007D18B10120FFF722FDFF
:1030900002E00020FFF71EFD3CB1FFF7E7FE20B184
:1030A000834805744FF0FF30D6E73046D4E738B593
:1030B00004467F48807A10B94FF0FF3038BDBC2CF1
:1030C00002DB0120009015E0622C02DB0220009060
:1030D00010E02A2C02DB032000900BE0142C02DB12
:1030E0000420009006E00A2C02DB0520009001E09D
:1030F000062000906E48C07A9DF80010884201D1E9
:103100000020DBE76A4A12689178694A52681078B1
:103110006B460122FFF783FB10B14FF0FF30CDE784
:103120009DF800106248C1720020C7E738B5044618
:10313000282C02DD4FF0FF3038BDDCB90020FFF74E
:1031400059FD00208DF8000007208DF80100584A35
:103150001268917C564A526810786B460222FFF73B
:103160005EFB10B14FF0FF30E6E7002150480175DB
:103170000020E1E70120FFF73DFD20208DF8000051
:10318000012C06D100208DF801000520FFF78FFFEC
:1031900017E0052C06DC01208DF801000520FFF763
:1031A00086FF0EE0142C06DC02208DF801000A20B8
:1031B000FFF77DFF05E003208DF801001420FFF7E5
:1031C00076FF9DF80100072101EB8010C0B28DF859
:1031D0000100374A1268917C354A526810786B4674
:1031E0000222FFF71CFB10B14FF0FF30A4E70821CB
:1031F0002F48817200210173012101750020FFF722
:1032000021FF002098E738B504462948807A10B994
:103210004FF0FF3038BD264890F8240010B14FF031
:10322000FF30F7E72248007D50B134B1282C04DC90
:10323000E0B2FFF77BFF0020ECE70020FFF776FF0E
:10324000042C01DA042404E0B4F57A7F01DD4FF4A4
:103250007A744FF47A7090FBF4F0401EC0B2009084
:10326000134A12685178124A526810786B4601224C
:10327000FFF7D5FA10B14FF0FF30CBE79DF8000013
:10328000401C4FF47A7191FBF0F081B20848C18183
:103290000146C9894810FFF70AFF0020BAE738B590
:1032A00004460348807A28B94FF0FF3038BD00004B
:1032B00040300020022C06D0042C07D0082C08D067
:1032C000102C0CD108E0002000900BE008200090AA
:1032D00008E01020009005E01820009002E04FF078
:1032E000FF30E3E700BFF948407A9DF80010B0EBEB
:1032F000E10F01D10020D9E7F44A1268D179F34AED
:10330000526810786B460122FFF789FA10B14FF02E
:10331000FF30CBE79DF80000C110EC48417200205F
:10332000C4E738B50446E948807A10B94FF0FF3059
:1033300038BDFA2C09D0B4F5FA7F09D0B4F57A7FFC
:1033400009D0B4F5FA6F0CD108E0002000900BE032
:103350000820009008E01020009005E01820009060
:1033600002E04FF0FF30E3E700BFD848007A9DF855
:103370000010B0EBE10F01D10020D9E7D34A126869
:103380009179D24A526810786B460122FFF747FACA
:1033900010B14FF0FF30CBE79DF80000C010CB49D3
:1033A00008720020C4E71CB580208DF80000C74AD1
:1033B0001268917CC54A526810786B460122FFF76B
:1033C0002EFA10B14FF0FF301CBD6420FDF7ABF8B2
:1033D00000208DF80000BD4A1268917CBB4A5268FB
:1033E00010786B460122FFF71AFA10B14FF0FF3048
:1033F000EAE7B64A1268917DB44A526810786B4683
:103400000622FFF757F910B14FF0FF30DCE79DF8C7
:103410000500C007400F9DF8031001F0010140EACC
:1034200041009DF8011001F0010140EA010494B14E
:10343000012C03D10121A548C17431E0022C03D134
:103440000021A248C1742BE02146A1A004F03AFB60
:103450004FF0FF30B8E79D4A1268D1789B4A526816
:1034600010786B460122FFF725F910B14FF0FF30BD
:10347000AAE79DF8000000F00F042CB99E4804F064
:1034800021FB4FF0FF309FE7042C06D19BA004F0F6
:1034900019FB01218D48C17402E000218B48C174E1
:1034A000FF218A488172FF2088490872FF218748DE
:1034B0004172C1724FF6FF71C181FF2101748174A5
:1034C0000121017380F82210002180F8231041753A
:1034D00001751630016041608160163880F8241053
:1034E00080F82510C1844FF4FA60FFF71AFF10B17D
:1034F0004FF0FF3068E70220FFF7D1FE10B14FF028
:10350000FF3061E72A20FFF7D2FD10B14FF0FF3006
:103510005AE73220FFF777FE10B14FF0FF3053E744
:103520000020FFF78FFD10B14FF0FF304CE7002077
:10353000FFF7F8FB10B14FF0FF3045E70020FFF731
:103540008CFB002040E770477CB504460D465F4881
:10355000807A00F0700010B94FF0FF307CBD5B4AFC
:103560001268117B594A526810786B460622FFF7A1
:10357000A1F810B14FF0FF30F0E79DF801009DF881
:10358000001040EA012000B220809DF803009DF861
:10359000021040EA012000B260809DF805009DF80D
:1035A000041040EA012000B2A08015B12846FFF7C0
:1035B000CAFF0020D2E77CB504460D464348807A16
:1035C00000F0080010B94FF0FF307CBD3F4A126890
:1035D000517B3E4A526810786B460622FFF76AF824
:1035E00010B14FF0FF30F0E79DF801009DF800109A
:1035F00040EA012000B220809DF803009DF80210EF
:1036000040EA012000B260809DF805009DF804109A
:1036100040EA012000B2A08015B12846FFF793FFD1
:103620000020D2E72DE9FE4F05460C462748807A58
:1036300018B94FF0FF30BDE8FE8F244A1268917B25
:10364000224A5268107802AB0222FFF733F810B119
:103650004FF0FF30EFE79DF809009DF8081040EAB1
:10366000012006B214B12046FFF76DFF17494968E3
:10367000C88806F0EFF8154901904968B1F90800CB
:1036800006F0D0F88346304606F0CCF85946009054
:1036900006F026FA8246019905F092FF81461F49FD
:1036A00005F020FF80464FF08F4106F01BF90746DA
:1036B00006F07CF828600020BDE710B588B004460D
:1036C0001CB94FF0FF3008B010BD29E04030002099
:1036D000556E737570706F7274656420736F667465
:1036E000776172652070726F64756374207265769D
:1036F0002025642E0A00000048B2000848616C666C
:103700002073656E7369746976697479207061726B
:103710007420666F756E642E0A00000000000C4273
:10372000206830B9606820B9A06810B9002008B0DE
:1037300010BDFA494968087806AB03221146FEF726
:10374000B9FF10B14FF0FF30F1E79DF818000821E4
:1037500001EB201000F00F00ADF800009DF81900FB
:1037600001EB201000F00F00ADF802009DF81A00E8
:1037700001EB201000F00F00ADF8040020684100BC
:10378000BDF90000403091FBF0F000B2ADF8100040
:1037900060684100BDF90200403091FBF0F000B2DA
:1037A000ADF81200A0684100BDF90400403091FB63
:1037B000F0F000B2ADF81400D8494968087806ABBB
:1037C00006221146FEF776FF10B14FF0FF30AEE74C
:1037D0009DF819009DF8181040EA012000B2ADF8DC
:1037E00008009DF81B009DF81A1040EA012000B265
:1037F000ADF80A009DF81D009DF81C1040EA01205C
:1038000000B2ADF80C00BDF81000BDF80810084477
:1038100000B2ADF81000BDF81200BDF80A1008445F
:1038200000B2ADF81200BDF81400BDF80C10084449
:1038300000B2ADF81400BDF81000000A8DF81800B1
:10384000BDF81000C0B28DF81900BDF81200000AD2
:103850008DF81A00BDF81200C0B28DF81B00BDF83B
:103860001400000A8DF81C00BDF81400C0B28DF8D9
:103870001D00AA494968087806AB06221146FEF7E2
:10388000CEFF10B14FF0FF3051E700204FE7014667
:10389000A248007A30B1012807D0022809D00328B5
:1038A0000FD10AE0FA2008800EE04FF4FA70088089
:1038B0000AE04FF47A70088006E04FF4FA6008805E
:1038C00002E00020088000BF00BF002070470146D2
:1038D0009248407A30B1012807D0022808D0032846
:1038E0000CD108E0022008700BE00420087008E00A
:1038F0000820087005E01020087002E04FF0FF304B
:10390000704700BF8548C07C18B108784006000E9B
:1039100008700020F4E701468048C07A082817D2D2
:10392000DFE800F01704070A0D101318BC20088008
:1039300013E06220088010E02A2008800DE01420A7
:1039400008800AE00A20088007E00520088004E0DB
:1039500000BF00BF0020088000BF00BF00207047EC
:1039600001466E4890F8240010B14FF0FF307047C8
:103970006A48C08908800020F9E7014600200880D5
:10398000401E704701464FF0FF30704701466348C4
:10399000007A30B1012807D0022808D003280CD1C2
:1039A00008E05F4808600BE05E48086008E05E4899
:1039B000086005E05D48086002E04FF0FF307047A6
:1039C00000BF0020FBE701465448407A30B101288F
:1039D00008D002280AD0032810D10BE04FF4804011
:1039E00008800EE041F69C7008800AE04FF4805099
:1039F000088006E04FF40060088002E04FF0FF30DE
:103A0000704700BF4548C07C10B10888401008804E
:103A10000020F5E701464148007C0870002070470F
:103A200001463E48807A10B10120087001E0002074
:103A300008700020704738B504463848807A10B9BD
:103A40004FF0FF3038BD354A1268117C334A526856
:103A500010786B460222FEF72DFE10B14FF0FF30BA
:103A6000F0E79DF801009DF8001040EA012000B247
:103A700020800020E6E72DE9FE4F07468846924663
:103A80001D46DDF830B000260024244890F82400BC
:103A900010B1601EBDE8FE8F002028701F48807A9C
:103AA00010B94FF0FF30F5E71C48007C10B94FF01B
:103AB000FF30EFE71948007C00F0400008B1B01C6F
:103AC000C6B21648007C00F0200008B1B01CC6B297
:103AD0001248007C00F0100008B1B01CC6B20F48BC
:103AE000007C00F0080008B1B01DC6B20B4A126895
:103AF000917A0A4A526810786B460222FEF7DAFD84
:103B000010B14FF0FF30C5E79DF801009DF800109F
:103B100040EA0129B1450BDA0020BBE74030002024
:103B200000000343000083423333034233338341B5
:103B3000FC4840684088B9EB600F17DDF94A12680D
:103B4000517CF84A526810786B460122FEF7B2FDAC
:103B500010B14FF0FF309DE79DF8000000F010001D
:103B600020B1FFF783F96FF0010093E75046FFF7AC
:103B7000EAFCEC4A1268D17AEA4A526810786B463D
:103B80003246FEF797FD10B14FF0FF3082E799FB08
:103B9000F6F0401E8BF8000000202870B4422AD0B6
:103BA000E048007C00F0080028B3601C1DF800000D
:103BB0001DF8041040EA012000B2A8F80000E01C43
:103BC0001DF80010A01C1DF8000041EA002000B202
:103BD000A8F80200601D1DF80010201D1DF800004F
:103BE00041EA002000B2A8F80400287840F008005C
:103BF0002870A01D84B2B44213D0CA48007C00F0E3
:103C0000400070B1601C1DF800001DF8041040EA6F
:103C1000012000B23880287840F040002870A01CB5
:103C200084B2B44213D0BF48007C00F0200070B1D1
:103C3000601C1DF800001DF8041040EA012000B2CD
:103C40007880287840F020002870A01C84B2B4420C
:103C500013D0B448007C00F0100070B1601C1DF857
:103C600000001DF8041040EA012000B2B880287856
:103C700040F010002870A01C84B200200AE7F8B5BC
:103C800004460F461646A74890F8240010B94FF096
:103C9000FF30F8BDA348807A10B94FF0FF30F8E745
:103CA000A04A1268917A9F4A526810786B460222A5
:103CB000FEF700FD10B14FF0FF30EAE79DF801007C
:103CC0009DF8001040EA0125A54203DA002030707B
:103CD000401EDEE7934840684088B5EB600F17DD73
:103CE000904A1268517C8F4A526810786B460122C4
:103CF000FEF7E0FC10B14FF0FF30CAE79DF800007E
:103D000000F0100020B1FFF7B1F86FF00100C0E73C
:103D1000E2B2844B1B68D97A824B5B6818783B46C9
:103D2000FEF7C8FC10B14FF0FF30B2E795FBF4F09E
:103D3000401E30700020ACE701467A4880F822101F
:103D4000002070477CB5054676494968087801AB84
:103D500004220D21FEF7AEFC08B107207CBD9DF8C2
:103D60000700C0F301109DF8041001F0E00140EAE3
:103D7000E1008DF800009DF80700C0F381009DF878
:103D8000051001F0E00140EAE1008DF801009DF826
:103D9000070000F003009DF8061001F0E00140EA82
:103DA000E1008DF8020000241CE01DF8040018B9A1
:103DB000002045F8240013E05B4845F8240006E0A5
:103DC00055F82400594905F08DFD45F824001DF8EB
:103DD0000400401EC0B20DF804000028F0D100BF5E
:103DE000601CC4B2032CE0DB0020B7E72DE9FE4FD6
:103DF00006460F4600256846FFF7A4FF002442E070
:103E000056F8240057F82410A0EB010ABAF1000F6D
:103E100001DB514601E0CAF10001084605F002FD50
:103E200083464FF08F4105F0CBFB80465DF82400C0
:103E3000002105F087FC16D05DF82410404605F0FF
:103E4000BFFB82464FF07E5105F04AFE814629F0C5
:103E5000004A3748416A504605F010FE12D2012050
:103E6000A04005430EE03248C169404605F006FD1A
:103E700005D32F48016A404605F000FE02D201201A
:103E8000A0400543641C032CBADB2846BDE8FE8F26
:103E90002DE9FC5F06460F4600252249496808784F
:103EA00001AB03220D21FEF705FC10B10720BDE890
:103EB000FC9F9DF8040000F01F008DF804009DF8A1
:103EC000050000F01F008DF805009DF8060000F0C9
:103ED0001F008DF80600002462E056F8240057F811
:103EE0002410A0EB010BBBF1000F01DB594601E0F0
:103EF000CBF10001084605F095FC4FF08F41009092
:103F000005F05EFB814601A8005DC0B30849086862
:103F100005F0A0FC83465946064805F051FB804653
:103F20000FE00000403000207B14AE3E1D5A843F5D
:103F3000FCA4000800B04C45FE49404605F0D2FC08
:103F4000804601A8005D401EC0B201A908550028A6
:103F5000F2D14146484605F033FB83464FF07E518F
:103F600005F0BEFD82462AF0004BF34881695846B1
:103F700005F084FD13D20120A04005430FE0FFE7C8
:103F8000ED480169484605F079FC05D3EA484169E6
:103F9000484605F073FD02D20120A0400543641C91
:103FA000032C9ADB284682E72DE9F04F87B00546BF
:103FB0000C46914601208DF8100000208DF811006C
:103FC000DE4A1268917CDD4A5268107804AB022206
:103FD000FEF725FC20B14FF0FF3007B0BDE8F08FB1
:103FE000C820FCF7A0FA00208DF81000D34A126810
:103FF000D17BD24A5268107804AB0122FEF70FFC45
:1040000010B14FF0FF30E8E7CC4A12685179CB4A43
:104010005268107804AB0122FEF701FC10B14FF09A
:10402000FF30DAE7C54A1268917CC44A52681078BA
:1040300004AB0122FEF7F3FB10B14FF0FF30CCE7E9
:10404000BE4A1268D17DBD4A5268107804AB012285
:10405000FEF7E5FB10B14FF0FF30BEE7B74A12683C
:104060001179B64A5268107804AB0122FEF7D7FBEB
:1040700010B14FF0FF30B0E70C208DF81000AF4AC0
:1040800012681179AD4A5268107804AB0122FEF72C
:10409000C6FB10B14FF0FF309FE70F20FCF743FA4B
:1040A000A648806A407A8DF81000A44A1268917878
:1040B000A24A5268107804AB0122FEF7B0FB10B19F
:1040C0004FF0FF3089E79D48806A007A8DF8100034
:1040D0009A4A12685178994A5268107804AB0122C2
:1040E000FEF79DFB10B14FF0FF3076E7B9F1000FFE
:1040F00007D09248806A807A40F0E0008DF8100086
:1041000004E08E48806A807A8DF810008B4A12682D
:1041100091798A4A5268107804AB0122FEF77FFB3E
:1041200010B14FF0FF3058E7B9F1000F07D08348C6
:10413000806AC07A40F0E0008DF8100003E07E480D
:10414000C07A8DF810007D4A1268D1797B4A526896
:10415000107804AB0122FEF762FB10B14FF0FF3084
:104160003BE7B9F1000F02D0C820FCF7DCF9402092
:104170008DF81000714A12681179704A52681078EF
:1041800004AB0122FEF74BFB10B14FF0FF3024E7E8
:1041900078208DF81000694A12685179674A526890
:1041A000107804AB0122FEF73AFB10B14FF0FF305C
:1041B00013E761498889FCF7B6F900208DF81000F3
:1041C0005E4A126851795D4A5268107804AB012248
:1041D000FEF725FB10B14FF0FF30FEE6574A12689C
:1041E000917A564A5268107804AB0222FEF762FABE
:1041F00010B14FF0FF30F0E69DF811009DF810105F
:1042000040EA012B0C209BFBF0F0C6B20020A86016
:1042100068602860A06060602060824665E0474A70
:104220001268D17A454A5268107804AB0C22FEF726
:1042300041FA10B14FF0FF30CFE69DF811009DF824
:10424000101040EA012000B2ADF808009DF81300FC
:104250009DF8121040EA012000B2ADF80A009DF866
:1042600015009DF8141040EA012000B2ADF80C00D2
:10427000BDF90810206808442060BDF90A10606884
:1042800008446060BDF90C10A0680844A0609DF867
:1042900017009DF8161040EA012000B2ADF80000AA
:1042A0009DF819009DF8181040EA012000B2ADF801
:1042B00002009DF81B009DF81A1040EA012000B290
:1042C000ADF80400BDF90010286808442860BDF965
:1042D0000210686808446860BDF90410A8680844C2
:1042E000A8600AF1010000F0FF0AB24597DB12480E
:1042F000D0F800C02868C117090441EA104107043A
:1043000062460023384603F0B8FB32460023CDE96D
:10431000020103F0B2FB28600748D0F800C06868CB
:10432000C117090441EA10410704624600233846D8
:1043300006E0000054E3853FFCA400084030002064
:1043400003F09BFB32460023CDE9020103F095FB0D
:104350006860FE48D0F800C0A868C117090441EAA7
:104360001041070462460023384603F086FB3246BC
:104370000023CDE9020103F080FBA860F348D0F8E8
:1043800004C02168C817000440EA11480F046246BF
:1043900000233846414603F070FB32460023CDE946
:1043A000020103F06AFB2060E848D0F804C06068AE
:1043B000C117090441EA1041070462460023384648
:1043C00003F05BFB32460023CDE9020103F055FB0D
:1043D0006060DE48D0F804C0A068C117090441EA53
:1043E0001041070462460023384603F046FB32467C
:1043F0000023CDE9020103F040FBA060A068002883
:1044000004DDA068A0F58030A06003E0A06800F59E
:104410008030A0600020E0E538B50446CC4890F834
:104420002400A04201D1002038BD24B3C84890F830
:10443000250010B94FF0FF30F6E70020FEF74AFBE9
:104440000020FEF76FFCC249C88CFEF7DCFE00209E
:104450000090BF49496808786B4601222321FEF786
:10446000DEF90121BA4880F824100120FEF732FB62
:10447000FEF7FCFC13E00020FEF72CFBB448007CA8
:104480000090B349496808786B4601222321FEF762
:10449000C6F90021AE4880F82410FEF7E7FC0020A2
:1044A000C2E72DE9F04F8DB083460F4602200C90F5
:1044B000A74890F8240020B10020FFF7ADFF0126A7
:1044C00000E0002603A8FFF7E2F905A8FFF7FFF9CF
:1044D00001A8FFF720FA02A8FFF742FA9C4890F8DB
:1044E0000AA004A8FFF796FA002407E00022394644
:1044F0005846FFF759FD00B902E0641C022CF5DBB9
:1045000000BF022C01D1002528E0002407E0012291
:1045100006A909A8FFF748FD00B902E0641C022CB7
:10452000F5DB00BF022C01D1002517E006A93846B3
:10453000FFF75CFC00F0FF0809A95846FFF7A8FC4C
:1045400000F0FF090025B9F1000F01D145F0010588
:10455000B8F1000F01D145F0020500BFFF207C49F2
:104560000872FF217A484172C1724FF6FF71C18112
:10457000FF218172017401210173BDF80C00FEF767
:10458000D0FE9DF81400FEF78AFEBDF80400FEF789
:104590008EFDBDF80800FEF736FE5046FEF75DFBC7
:1045A0009DF81000FEF74EFD16B10120FFF734FF15
:1045B00028460DB0BDE8F08FF8B504460D46164606
:1045C00016B94FF0FF30F8BD6148807A10B94FF04E
:1045D000FF30F8E720128DF80000E0B28DF80100FE
:1045E0009DF8010028445A4949684989884202DDFA
:1045F0004FF0FF30E7E7564A1268117E544A52687E
:1046000010786B460222FEF70AF910B14FF0FF3026
:10461000D9E7EAB24E4B1B68597D4D4B5B68187861
:104620003346FEF7FCF810B14FF0FF30CBE7002027
:10463000C9E7F8B504460D46164616B94FF0FF30E7
:10464000F8BD4348807A10B94FF0FF30F8E72012E8
:104650008DF80000E0B28DF801009DF801002844BB
:104660003B4949684989884202DD4FF0FF30E7E75E
:10467000374A1268117E364A526810786B46022219
:10468000FEF7CDF810B14FF0FF30D9E7EAB2304B6A
:104690001B68597D2E4B5B6818783346FEF70AF885
:1046A00010B14FF0FF30CBE70020C9E72DE9F04310
:1046B00085B005460E4690469946254890F8250057
:1046C00020B14FF0FF3005B0BDE8F08316B94FF0D0
:1046D000FF30F8E7002423E0281B102801DD10201C
:1046E00000E0281B87B2321939462046FFF764FFE5
:1046F00010B14FF0FF30E6E701AA39462046FFF738
:1047000098FF10B14FF0FF30DDE730193A4601A9AC
:1047100003F010FB10B16FF00100D4E7E01984B290
:10472000AC42D9DB4FEA28208DF8000008F0FF00EA
:104730008DF80100064A1268917E054A5268107889
:104740006B460222FEF76BF838B103E0FCA40008C8
:10475000403000204FF0FF30B5E70121FE4880F8DF
:104760002510A0F826900020ADE70146FA4890F801
:1047700024000870002070474FF0FF307047024659
:104780004FF0FF30704701464FF0FF307047F8B5EB
:1047900005460F461446002C70D0B5F5FF5F01DDCD
:1047A000FF2605E0202D01DA012601E0C5F34716BA
:1047B00007B90127282C02DD4FF0FF30F8BDE6488D
:1047C000407D28BBE44890F8240038B10020FFF772
:1047D00023FE0121E04880F8201003E00021DE489C
:1047E00080F82010DC481630FFF751F8DA4818300E
:1047F000FFF76DF8D8481A30FFF78DF8D6481C300F
:10480000FFF7AEF8D448817A81771F30FFF702F9BD
:104810000020FEF75FF90020FEF788FC00208DF8ED
:104820000000CD4A12689178CB4A526810786B46E6
:104830000122FDF7F4FF10B14FF0FF30BEE740203A
:104840008DF80000C44A1268D17BC34A52681078C0
:104850006B460122FDF7E3FF00B165E08DF80060D3
:104860008DF80170BC4A1268117ABB4A5268107800
:104870006B460222FDF7D3FF08B155E047E0052063
:10488000FBF751FEB448407A072101EBC000C0B2EB
:104890008DF80000B04A1268D179AF4A526810789A
:1048A0006B460122FDF7BBFF00B13DE020208DF8F3
:1048B0000000012C03D100208DF801000EE0052C32
:1048C00003DC01208DF8010008E0142C03DC022039
:1048D0008DF8010002E003208DF801009DF8010031
:1048E000072101EB8010C0B28DF801009A4A1268CE
:1048F000917C994A526810786B460222FDF78FFF2F
:1049000000B111E0012194484175002056E7924A18
:104910001632002103E0505C00B105E0491C0C296F
:10492000F9D34FF0FF3049E7FF208B490872FF2190
:1049300089484172C1724FF6FF71C181FF218172B6
:104940000174012101730146887FFEF786F98249CF
:10495000C88AFEF7E6FC8049087EFEF7A0FC7E4987
:10496000488BFEF7A4FB7C49888BFEF74CFC7A4908
:10497000C87FFEF767FB784890F8200010B101204F
:10498000FFF74AFD002174484175002016E770B515
:1049900088B002A905A8FFF784FD0446072C3ED184
:1049A00001A8FEF7F3FF059804F03CFF06460199C5
:1049B00004F098FF054604F0F9FE0590069804F00F
:1049C00031FF0646019904F08DFF054604F0EEFE26
:1049D0000690079804F026FF0646019904F082FF2E
:1049E000054604F0E3FE079005A800F052FA684679
:1049F000FEF7E9FFBDF80010029848430290BDF8A9
:104A00000010039848430390BDF8001004984843F1
:104A1000049002A800F0D0FA002008B070BD012078
:104A2000FBE7014691F90020002A01DD00201EE08D
:104A300091F90020002A01DA042018E091F9012000
:104A4000002A01DD012012E091F90120002A01DA9B
:104A500005200CE091F90220002A01DD022006E089
:104A600091F90220002A01DA062000E007207047B1
:104A700010B504462046FFF7D4FF0346E01CFFF7BD
:104A8000D0FF43EAC00083B2A01DFFF7CAFF43EA8C
:104A9000801083B2184610BD70B50024FDF7FDFEEE
:104AA000FEF781FC00283ED17820FEF7D6F8C4B28C
:104AB0000CB1012070BD7820FEF7C4FAC4B20CB16D
:104AC0000220F7E76420FEF79EFBC4B20CB103207E
:104AD000F0E700F043F9C4B20CB10420EAE71F4844
:104AE000FFF7C6FF054600F043F9C4B20CB105203C
:104AF000E0E740F2731000F07CFDC4B20CB1062078
:104B0000D8E7642000F0EEFAC4B20CB10720D1E778
:104B1000FFF73DFF04460120FFF77EFCC0B20446CC
:104B20001CB10920C6E70A20C4E700BFC2E72DE98F
:104B3000F04F99B004460D4616464FF07E574FF0A1
:104B400000084FF000094FF0000A12A813A918AB93
:104B50000EAACDE9001003E0403000206C300020A8
:104B600014A916A800F0A4FE18B1012019B0BDE8E0
:104B7000F08FBDF84C0000F4807000287ED00E98B5
:104B800004F050FE83464FF09D4104F019FD0746A6
:104B90000F9804F047FE83464FF09D4104F010FD4E
:104BA0008046109804F03EFE83464FF09D4104F08D
:104BB00007FD8146119804F035FE83464FF09D4174
:104BC00004F0FEFC824639464FF0804004F08AFE35
:104BD0004946059004F086FE414607904FF040405C
:104BE00004F080FE5146059004F07CFE0690079983
:104BF00004F078FC834604F049FCCDE9080103F099
:104C0000FDFA4FF06632544BCDE90A0104F02EF95B
:104C1000CDE90C0103F020FE206049464FF08040B2
:104C200004F060FE4946029004F05CFE41460490A8
:104C30004FF0404004F056FE4146029004F052FE10
:104C40000390049904F04CFF83464FF07E5104F02A
:104C500049FC059004F01AFCCDE9080139464FF0F3
:104C6000804004F03FFE4146039004F03BFE49467D
:104C700004904FF0804004F035FE00E068E05146BB
:104C8000039004F02FFE8346049904F02BFC05905A
:104C900004F0FCFBCDE90601DDE9082303F0F6FC96
:104CA0004FF066322C4BCDE90A0104F0DFF8CDE974
:104CB0000C0103F0D1FD28605146504604F012FE6D
:104CC00049460490484604F00DFE41460390404694
:104CD00004F008FE39460190384604F003FE0090C7
:104CE000019904F0FFFB0290039904F0F9FE83465A
:104CF000049904F0F5FE059004F0C8FBCDE9080125
:104D00005146384604F0EEFD49460490404604F012
:104D1000E9FD0390049904F0E5FB4FF08041059014
:104D200004F0E0FD834604F0B1FBCDE90601DDE9C6
:104D3000082303F0ABFC4FF06632074BCDE90A01C4
:104D400004F094F8CDE90C0103F086FD306001E039
:104D500002200BE7002009E766A64C4010B5C823E7
:104D60004FF48062F74940F6F630FFF79FFC10BD24
:104D700010B586B00446F4A000680390F3A0006864
:104D80000290F3A000680190F2A00068009004F087
:104D9000030003A9085C8DF8140003A8C4F3C10143
:104DA000405C8DF8150003A8C4F38111405C8DF8B8
:104DB000160004F0030002A9085C8DF8100002A898
:104DC000C4F3C101405C8DF8110002A8C4F3811145
:104DD000405C8DF8120005AA032140F22640FFF73F
:104DE000EBFB18B14FF0FF3006B010BD04AA032151
:104DF00040F22A40FFF7E0FB10B14FF0FF30F3E73D
:104E0000019805900098049004F0040058B19DF8B2
:104E1000140040F001008DF814009DF8100040F0DF
:104E200001008DF8100004F0200058B19DF8150025
:104E300040F001008DF815009DF8110040F00100D0
:104E40008DF8110004F4807058B19DF8160040F000
:104E500001008DF816009DF8120040F001008DF859
:104E6000120005AA03214FF48860FFF7A5FB10B1DB
:104E70004FF0FF30B8E704AA032140F23140FFF7BA
:104E80009BFB10B14FF0FF30AEE7B3480481002028
:104E9000AAE71FB50446B048007A00F0030054F8B2
:104EA00020000190AC48007A00F0040010B1019895
:104EB00040420190A848007AC0F3C10054F8200095
:104EC0000290A548007A00F0200010B102984042FC
:104ED0000290A148007AC0F3811054F8200003909A
:104EE0009D48008900F4807010B1039840420390FF
:104EF0009A49019880FB0101800F40EA81000190EE
:104F00009649029880FB0110820042EA917002905B
:104F10009249039880FB0110820042EA917003904D
:104F20000198000E8DF800000198000C8DF801002A
:104F30000198000A8DF802000198C0B28DF80300B4
:104F40006A4604214FF47470FFF736FB18B14FF036
:104F5000FF3004B010BD0298000E8DF800000298DA
:104F6000000C8DF801000298000A8DF802000298EA
:104F7000C0B28DF803006A4604214FF47570FFF744
:104F80001BFB10B14FF0FF30E3E70398000E8DF8E4
:104F900000000398000C8DF801000398000A8DF8BA
:104FA00002000398C0B28DF803006A4604214FF452
:104FB0007670FFF701FBCCE770B588B0064601A814
:104FC000FEF701FDBDF804000021C90341EA504588
:104FD000C4036148007A00F0030056F820000590F1
:104FE0005D48007A00F0040010B105984042059039
:104FF0005948007AC0F3C10056F820000690564880
:10500000007A00F0200010B1069840420690524805
:10501000007AC0F3811056F8200007904E480089AE
:1050200000F4807010B10798404207900598C117AE
:10503000A0FB042301FB043100FB0510810041EAC1
:10504000927005900698C117A0FB042301FB043160
:1050500000FB0510810041EA927006900798C11785
:10506000A0FB042301FB043100FB0510810041EA91
:10507000927007900598000E8DF808000598000CB6
:105080008DF809000598000A8DF80A000598C0B24D
:105090008DF80B000698000E8DF80C000698000C99
:1050A0008DF80D000698000A8DF80E000698C0B223
:1050B0008DF80F000798000E8DF810000798000C6F
:1050C0008DF811000798000A8DF812000798C0B2F9
:1050D0008DF8130002AA0C214FF42570FFF76CFA2B
:1050E00008B070BD30B585B004461DA207CA02AB3A
:1050F00007C3C82C03DD4FF0FF3005B030BDC8201A
:1051000090FBF4F0401E85B2280A8DF80000E8B24A
:105110008DF801006A46022140F21620FFF74CFA92
:1051200010B14FF0FF30E8E702AA0C2140F6C12091
:10513000FFF742FA10B14FF0FF30DEE706488481F6
:105140000020DAE724A500084CCD6C000CC92C0027
:105150003656760026466600CC30002009E3CA02A7
:10516000FEF2ABC4AAF1DFDFBBAFDFDF0146FC48D4
:1051700080890880002070472DE9FC4706460F46CD
:1051800006F0070010B1B7F5C86F03DD4FF0FF3030
:10519000BDE8FC87384604F05DFB8146F14904F028
:1051A0000FFA80466846FEF792FB9DF80000022841
:1051B00006D0042816D0082826D0102848D135E07B
:1051C0004FF08D41404604F08DFB814604F00AFB10
:1051D00084B2E549404604F085FB814604F002FBB9
:1051E00085B238E04FF08C41404604F07BFB8146AD
:1051F00004F0F8FA84B2DD49404604F073FB8146BE
:1052000004F0F0FA85B226E04FF08B41404604F0FE
:1052100069FB814604F0E6FA84B2D549404604F0C1
:1052200061FB814604F0DEFA85B214E04FF08A415A
:10523000404604F057FB814604F0D4FA84B2CD49CD
:10524000404604F04FFB814604F0CCFA85B202E000
:105250004FF0FF309CE700BF20128DF80400E0B251
:105260008DF8050028128DF80600E8B28DF80700C9
:1052700006F00100A0B101AA02214FF4EA70FFF785
:105280009BF910B14FF0FF3082E70DF106020221C9
:105290004FF49270FFF790F910B14FF0FF3077E7BD
:1052A00006F00200A0B101AA02214FF4EC70FFF752
:1052B00083F910B14FF0FF306AE70DF106020221C9
:1052C0004FF49470FFF778F910B14FF0FF305FE7BB
:1052D00006F00400A0B101AA02214FF4EE70FFF71E
:1052E0006BF910B14FF0FF3052E70DF106020221C9
:1052F0004FF49670FFF760F910B14FF0FF3047E7B9
:10530000002045E738B504460020009004F0010075
:1053100020B19DF8000040F03000009004F0020041
:1053200020B19DF8000040F00C00009004F0040053
:1053300020B19DF8000040F0030000906A46012172
:105340004FF4A470FFF738F938BD38B50446012C86
:1053500001DA012402E0042C00DD0424601EC0B246
:1053600000906A46012140F24F10FFF725F938BD41
:1053700038B50446052094FBF0F085B228128DF86C
:105380000000E8B28DF801006A4602214FF4EF7088
:10539000FFF712F938BD38B50446052094FBF0F04C
:1053A00085B228128DF80000E8B28DF801006A4637
:1053B00002214FF4ED70FFF7FFF838BDF8B5054650
:1053C0000E464FF47A7095FBF0F000FB06F4200EC9
:1053D0008DF80000200C8DF80100200A8DF80200E5
:1053E000E0B28DF803006A4604214FF4AE70FFF777
:1053F000E3F8F8BD38B50446052094FBF0F084B21C
:1054000020128DF80000E0B28DF801006A460221FA
:105410004FF4AD70FFF7D0F838BD38B5044605201D
:1054200094FBF0F084B220128DF80000E0B28DF809
:1054300001006A4602214FF4AC70FFF7BDF838BD99
:1054400038B5044614B94FF0FF3038BD6A46042120
:105450004FF45870FFF7EDF810B14FF0FF30F4E75C
:105460009DF8000000069DF8011040EA01409DF8FB
:10547000021040EA01209DF803100843206000203C
:10548000E3E738B50446200E8DF80000200C8DF8B7
:105490000100200A8DF80200E0B28DF803006A4690
:1054A00004214FF45870FFF787F838BD38B504462B
:1054B00014B94FF0FF3038BD6A4604214FF47170C3
:1054C000FFF7B7F810B14FF0FF30F4E79DF8000098
:1054D00000069DF8011040EA01409DF8021040EAE4
:1054E00001209DF80310084300EB8000800020603D
:1054F0000020E0E738B504461420B4FBF0F4200E99
:105500008DF80000200C8DF80100200A8DF80200B3
:10551000E0B28DF803006A4604214FF47170FFF782
:105520004BF838BD38B5044664B120208DF8000032
:1055300028208DF8010030208DF8020038208DF8E9
:10554000030004E0A3220421684602F03EFC6A4600
:10555000042140F69E20FFF72FF8FDF787FC38BDA9
:10556000CC30002000004843000040460000C04509
:10557000000040450000C04438B5044664B1C02076
:105580008DF80000C2208DF80100C4208DF80200C3
:10559000C6208DF8030004E08B220421684602F047
:1055A00014FC6A46042140F69820FFF705F8FDF741
:1055B0005DFC38BD3EB504466CB1FDA1D1E90020CB
:1055C0008968CDE9002002916A4609214FF497606D
:1055D000FEF7F2FF3EBDF9A2D2E900109268CDE9D4
:1055E000010200916A4609214FF49760FEF7E4FF3B
:1055F000F0E73EB5044602208DF80000CA208DF881
:105600000100E3208DF8020009208DF803006A46AE
:1056100004216820FEF7D0FFA3208DF8000004F0DD
:10562000400048B1C0208DF80100C8208DF802006C
:10563000C2208DF8030006E0A3208DF801008DF84C
:1056400002008DF8030004F4C07048B1C4208DF846
:105650000400CC208DF80500C6208DF8060006E079
:10566000A3208DF804008DF805008DF80600A32016
:105670008DF807008DF808008DF809006A460A21A8
:1056800040F6A720FEF798FF04F0030018B1202091
:105690008DF8000002E0D8208DF800006A46012154
:1056A00040F6B620FEF788FF04F0200018B1012074
:1056B000FFF780FF02E00020FFF77CFF04F4C070DA
:1056C00008B304F4807060B1B2208DF800008B2024
:1056D0008DF80100B6208DF802009B208DF80300A4
:1056E0000BE0B0208DF8000080208DF80100B42080
:1056F0008DF8020090208DF803006A46042140F6E0
:10570000A220FEF759FF04F0010020B3F8208DF825
:1057100000006A4601214FF40B60FEF74DFFFA21AD
:105720000720FFF729FD0720FFF7ECFD0120FFF719
:105730000CFE6420FFF71CFE4FF4FA70FFF72BFEFF
:10574000C821A148FFF73AFE2820FFF753FE0A20A0
:10575000FFF763FE08E0D8208DF800006A460121BB
:105760004FF40B60FEF728FF04F0020018B1D920B7
:105770008DF8000002E0D8208DF800006A46012173
:1057800040F23D70FEF718FF04F0040018B101204C
:10579000FFF7F2FE02E00020FFF7EEFE04F010003B
:1057A00018B10120FFF7BEFE02E00020FFF7BAFEAD
:1057B00044F0080085494881FDF758FB00208349E3
:1057C000887304F0400018B10846807B801D887300
:1057D00004F4C07020B17D48807B801D7B498873B4
:1057E00004F0140020B17948807B10307749887329
:1057F00004F0030020B17548807B001D7349887355
:1058000000203EBD01467148408908800020704755
:105810002DE9F0410446E07800F0C006E07800F0A1
:105820003F05607800F0010098B1EF102846E917B5
:1058300005EB5171C910A5EBC101491C01F0FF082E
:105840006248006820B16148414602683846904786
:1058500000BF607800F0080030B15C48406818B1C3
:10586000B0115A4A516888470020BDE8F08110B550
:1058700086B0044656A207CA03AB07C357A207CA9D
:105880008DE80700012C09D0022C0ED103AA0B21B0
:1058900040F68220FEF790FE06B010BD6A460B214E
:1058A00040F68220FEF788FEF6E74FF0FF30F3E780
:1058B0002DE9F04F8DB00746884615469946DDE93B
:1058C000166B0024002030804049887B5A4605A989
:1058D000FEF7D5F918B1601E0DB0BDE8F08F3B485A
:1058E000807A00F01400002861D09DF814000006B2
:1058F0009DF8151040EA01409DF8161040EA01207D
:105900009DF81710084328609DF8180000069DF8C0
:10591000191040EA01409DF81A1040EA01209DF854
:105920001B10084368609DF81C0000069DF81D10C0
:1059300040EA01409DF81E1040EA01209DF81F102A
:105940000843A8609DF8200000069DF8211040EA59
:1059500001409DF8221040EA01209DF823100843E1
:10596000E86004F11000C4B228680014019068686F
:1059700000140290A86800140390E86800140490D2
:1059800001984043029901FB0100039901FB0100CA
:10599000049901FB010ABAF1706F02DBBAF1885F6A
:1059A00022DDFDF763FA00203080401E94E721E0FD
:1059B000B8AAB38DB4980D355D000000B8AAAAAAA4
:1059C000B088C3C5C700000009E3CA02CC3000207C
:1059D000D8B1B9F38BA391B609B4D900DAB1B9F350
:1059E0008BA391B6DAB4DA00B6F9000040F4807007
:1059F000308000BF3448807A00F0400020B305A911
:105A0000601C085C095D40EA012000B2A8F80000B3
:105A100005A9E01C095C05AAA01C105C41EA002055
:105A200000B2A8F8020005A9601D095C201D105CE9
:105A300041EA002000B2A8F80400A01DC4B2B6F9E3
:105A4000000040F0080030801F48408900F4C0701A
:105A500008B305A9601C085C095D40EA012000B29A
:105A6000388005A9E01C095C05AAA01C105C41EA6D
:105A7000002000B2788005A9601D095C201D105C23
:105A800041EA002000B2B880A01DC4B2B6F90000FF
:105A900040F0700030800C48807A00F0030018B1AC
:105AA00005A90819FFF7B4FE4846FDF74CFD002094
:105AB00012E7014604480160002070470146024891
:105AC0004160002070470000CC300020094880472A
:105AD00009480047FEE7FEE7FEE7FEE7FEE7FEE7D0
