:020000040800F2
:10000000286200207102000875550008BF390008F9
:1000100061520008B90B000871620008000000007E
:10002000000000000000000000000000B101000816
:10003000190D0008000000000D020008D958000842
:100040008B0200088B0200088B0200088B0200085C
:100050008B0200088B0200088B0200088B0200084C
:100060008B0200088B0200088B020008BD0B000801
:100070008B0200088B0200088B020008C90B0008E5
:100080008B0200088B0200088B02000800000000B1
:100090000000000000000000000000008B020008CB
:1000A0008B0200088B020008955900088B0200089B
:1000B0008B0200088B0200088B0200088B020008EC
:1000C0008B0200088B0200088B0200088B020008DC
:1000D0008B020008E56100088B02000800000000A8
:1000E0008B0200088B0200088B0200080000000051
:1000F0000000000000000000000000008B0200086B
:10010000000000008B0200088B0200088B02000830
:1001100000000000000000000000000000000000DF
:100120008B0200088B020008D50B00088B02000828
:100130008B0200080000000000000000000000002A
:100140000000000000000000000000008B0200081A
:100150008B0200088B020008E10B00080562000812
:10016000C13900088B0200080000000000000000F8
:10017000000000000000000000000000000000007F
:10018000000000008B0200080000000000000000DA
:100190008B0200088B020008DFF810D000F0DEFBB5
:1001A000004800479D740008AFF3008028620020DB
:1001B0002C4B19680868B0E8F04F80F30988BFF34A
:1001C0006F8F4FF0000080F311887047000000002F
:1001D00008480068006880F308884FF0000080F34A
:1001E000148862B661B6BFF34F8FBFF36F8F00DF25
:1001F00000BF00BF08ED00E0DFF80C00016841F42B
:1002000070010160704700BF88ED00E0EFF30980E6
:10021000BFF36F8F134B1A681EF0100F08BF20ED4D
:10022000108A20E9F04F106009B44FF0500080F3BD
:100230001188BFF34F8FBFF36F8F08F08DF94FF028
:10024000000080F3118809BC19680868B0E8F04F15
:100250001EF0100F08BFB0EC108A80F30988BFF3BE
:100260006F8F7047E0000020EFF3058070470000BB
:100270000648804706480047FEE7FEE7FEE7FEE740
:10028000FEE7FEE7FEE7FEE7FEE7FEE7855900082A
:10029000990100082DE9F05F0546002092469B4633
:1002A00088460646814640241BE02846414647468C
:1002B000224600F084FA53465A46C01A914110D3A0
:1002C00011461846224600F06BFA2D1A67EB01081A
:1002D0004F4622460120002100F062FA17EB000988
:1002E0004E41201EA4F10104DFDC484631462A4677
:1002F0004346BDE8F09F2DE9F0410024061B25464A
:1003000071F1000605DA01240027D0EB070067EB46
:100310000101161E73F1000605DA0027D2EB070271
:10032000012567EB0303FFF7B5FF86460E46174628
:100330009C46AC4204D00025D0EB050E65EB0106CF
:1003400024B10020D2EB000760EB030C704631466D
:100350003A466346BDE8F08140EA01039B0703D0BB
:1003600009E008C9121F08C0042AFAD203E011F8F4
:10037000013B00F8013B521EF9D27047D2B201E0B6
:1003800000F8012B491EFBD270470022F6E710B59A
:1003900013460A4604461946FFF7F0FF204610BDF3
:1003A00070B5064606F05CFA046805460A2200218C
:1003B000304600F026FA2C6070BD2DE9FE4F8046D5
:1003C00081EA0300C00F0C46009021F0004123F0A9
:1003D0000045B8EB0200A94105D2404621469046AF
:1003E0001C460B46024623F00040104347D0270D21
:1003F000C7F30A00C3F30A510290401A0190402843
:100400006BDAC3F3130040F4801B0098924620B1CE
:100410000023D2EB030A63EB0B0B01985946C0F1A2
:100420004002504600F0BCF906460D46504659467B
:10043000019A00F0D4F910EB08006141002487EA2A
:10044000115284EAE7731A4340D0009A62B3019ACA
:10045000012A4FEA075215DC001B61EB02014FF045
:10046000004202EA0752CDE90042001C41F580112A
:1004700032462B4600F00CFA03B0BDE8F08F404640
:100480002146F9E7001B61EB0201001C41F58013D6
:1004900000185B412018A2F5001747EB030140EA62
:1004A000D570B6196D4111E06D084FEA360645EA80
:1004B000C0754FEA0752001B61EB0201001C41F5B9
:1004C000801149084FEA30000019514132462B464D
:1004D00003B0BDE8F04F00F0CCB900980122400015
:1004E0000023D0EB020263EBE073009821464FEA51
:1004F000E074B8EB000061EB0401E9E783F000432E
:100500005BE781F0004158E72DE9FE4F81EA0304E3
:1005100004F0004421F0004100944FF0000B23F060
:10052000004350EA01045ED052EA03045BD0C3F3F7
:100530000A54C1F30A552C44A4F2F3340194A0FBED
:100540000254C1F3130141F48011C3F3130343F4C4
:10055000801301FB024400FB034E840A970A44EA1D
:10056000815447EA8357A4FB076802958D0A05FB6F
:1005700007854FEA932C04FB0C542705029D4FEA94
:10058000065847EA1637B5EB08056EEB070C870EE1
:10059000920E47EA811742EA8312A7FB0201B6EBEB
:1005A0000B0164EB00042B0D43EA0C335E1844EBA3
:1005B0001C50DA465146E7FB0201C5F313044FEA2B
:1005C0000B3343EA14534FEA0432019C43EA060317
:1005D000A4F10C040294009CCDE900B400F058F999
:1005E00003B0BDE8F08F00200146F9E72DE9F04D9A
:1005F00081EA030404F0004B21F0004514464FF05B
:10060000000A23F0004150EA050220D054EA01021A
:100610001DD0C5F30A570246C5F31303C1F31300F7
:10062000C1F30A5640F4801543F48013A7EB060883
:10063000101BD64608F2FD3873EB050002D308F113
:10064000010801E092185B41B8F1000F03DA0020C5
:100650000146BDE8F08D00204FF480110646844627
:100660000EE0171B73EB050705D3121B63EB0503A5
:1006700006434CEA010C49084FEA300092185B41EE
:1006800050EA0107EDD152EA030012D082EA0400D9
:1006900083EA0501084305D0101BAB4106D20122B5
:1006A000002306E000224FF0004302E06FF0010259
:1006B00053101AEB06004CEB085110EB0A0041EB0B
:1006C0000B01BDE8F04D00F0D4B80EB5C10F80EAC3
:1006D000E0700844CA07002140F233438DE80E0061
:1006E0000A460B4600F0D4F803B000BD00F000420B
:1006F00030F000400AD0C10D01F56071C0F3160062
:1007000042EA0151C20840071143704700200146E8
:100710007047000030B5041E71F1000404DB4FF097
:100720000044404264EB0101141E73F1000405DB38
:100730001C464FF00043524263EB04038B4208BF58
:10074000824230BD30B5041E71F1000404DB4FF06D
:100750000044404264EB0101141E73F1000405DB08
:100760001C464FF00043524263EB0403994208BF1A
:10077000904230BD30B50B460146002020220124B6
:1007800009E021FA02F59D4205D303FA02F5491B5F
:1007900004FA02F52844151EA2F10102F1DC30BD75
:1007A000202A04DB203A00FA02F100207047914031
:1007B000C2F1200320FA03F3194390407047202A26
:1007C00004DB203A21FA02F00021704721FA02F3FB
:1007D000D040C2F120029140084319467047202AB8
:1007E00006DBCB17203A41FA02F043EAE07306E059
:1007F00041FA02F3D040C2F1200291400843194669
:1008000070472DE9F04791460F4680460446002682
:1008100014F8015B2DB100F0B3F80068405DC0072B
:10082000F6D12B2D02D02D2D18D0641E4A46394604
:10083000204600F0A9F827B13968A14201D1C7F8D4
:10084000008071054FF002040BD54042002803DD03
:1008500006F006F80460A007BDE8F08746F480665D
:10086000E4E70028F8DA05F0FBFF04606FF00040D1
:10087000F2E710B5141E73F1000408DA401C41F1D0
:10088000000192185B411A4301D120F0010010BD14
:100890002DE9F04D92469B4611B1B1FA81F202E08A
:1008A000B0FA80F220329046FFF77AFF04460F46F6
:1008B00040EA0A0041EA0B0153465A46084313D066
:1008C000114653EA010019D0C8F140025046FFF723
:1008D00076FF05460E46504659464246FFF760FFF2
:1008E000084305D0012004E020463946BDE8F08DDC
:1008F0000020054346EAE0762C4337430A98630517
:10090000E40AA0EB08000022FD0A44EA47540A303A
:1009100002D500200146E9E7010510196941DDE92A
:10092000084500196941BDE8F04DA2E7C1F30A523C
:10093000C1F3130140F2FF3341F480119A4202DA0D
:1009400000200146704740F233439A42A2F23342FC
:1009500002DC5242FFF733BFFFF722BF064C074DC0
:1009600006E0E06840F0010394E80700984710347F
:10097000AC42F6D3FFF714FC749D0008949D000868
:1009800000487047F89C00082DE9F05F8246007827
:10099000002715468B460AF10104B946302801D0DC
:1009A0009DB113E014F8010B0127782803D05828D3
:1009B00001D045B10AE00DB1102D07D10027102557
:1009C00014F8010B02E0082500E00A250026B046D5
:1009D0000EE005FB080005FB06F1012701EB1046C0
:1009E0001FFA80F8B6F5803F00D3B94614F8010B22
:1009F000294600F018F80028EBDABBF1000F05D00B
:100A00000FB1641E00E05446CBF80040B9F1000F6E
:100A100006D005F025FF02210160C81EBDE8F09F49
:100A200048EA0640FAE73A2800D2303820F020029F
:100A3000412A01D3A2F13700884201D34FF0FF30A1
:100A4000704730B58C1810F8012B12F00F0301D14C
:100A500010F8013B120906D110F8012B03E010F841
:100A6000015B01F8015B5B1EF9D101E001F8013B7C
:100A7000521EFBD1A142E6D3002030BD464910B53D
:100A80004A6822F440324A604A6843681A434A601E
:100A900001684A6822F480724A6001684A68036902
:100AA00042EA03224A6001684A6822F040724A60C2
:100AB00001684A6883681A434A6001688A6822F4B8
:100AC00000628A6001688A68C3681A438A60816A22
:100AD0006FF07062D14201688A6822F070628A60A9
:100AE00001688A680CD0836A1A438A6001688A6840
:100AF00022F040528A6001688A68C36A1A4301E0A2
:100B000022F040528A6001688A6822F002028A60FC
:100B100001688A68037E42EA43028A6090F82010E6
:100B2000002901684A680FD042F400624A600168F7
:100B30004A6822F460424A6001684A68174C436A76
:100B400004EB43331A4301E022F400624A60016877
:100B5000CA6A22F47002CA620168CA6A838B104CA6
:100B600004EB03531A43CA6201688A6822F40072D4
:100B70008A6001688A6890F8303042EA43228A60CD
:100B800001688A6822F480628A6001688A68406924
:100B900042EA8020886010BD0023014000E0FFFF92
:100BA0000000F0FF0348006806F0C5FD0A2006F0CB
:100BB00031FDFBE710000020FEE70000014800F0D7
:100BC0009BBC000028040020014800F095BC0000F8
:100BD000A8020020014800F08FBC00001005002092
:100BE000014800F089BC000070050020016818234E
:100BF000CAB2103AB2FBF3F2054B6FF30901032AB4
:100C00009B5CC36500D9091D8165084670470000DB
:100C1000549C000810B5014600208B698A6A4FF089
:100C2000C07453B1B3F5005F15D072B1012A0CD076
:100C3000022A0AD0032A09D104E01AB1012A06D0F7
:100C4000022A03D1C96AC90100D5012010BDC96AB1
:100C5000A142FAD010BD002AF7D0012AF2D0022A10
:100C6000F3D0032AF3D010BD30B50468256825F40D
:100C700080252560046863608368402B036803D087
:100C800099600068C26030BD9A600068C16030BD84
:100C900010B5012220211D4807F0C8F91C4C022282
:100CA00020216060194807F0C1F9A06003222021CB
:100CB000164807F0BBF9E06004222021134807F032
:100CC000B5F9206105222021104807F0AFF96061D5
:100CD00040B1012808D0022808D0032808D00428F1
:100CE00008D009E0032006E0042004E0052002E02B
:100CF000062000E00A206061FFF7E7FC41EC100BE2
:100D0000BDE81040034803F0DFBD000048060020A6
:100D10002C00002048070020704700002DE9F74F05
:100D200086B016468A4600F057F9044600F04EF9A0
:100D3000019000F057F9014600900198814201D0DE
:100D4000012000E0002004900698ACB1802836DA3B
:100D5000BAF1400F33DA069804EB84010844012805
:100D60002DD40AEBC400012829D4334906EB8600B0
:100D700008440025039028E0062820DCBAF1780F0B
:100D80001DDC203E2D4DF6B2002400BF04EB061002
:100D90000AEB04012A5C069805F028FD641C082C67
:100DA000F4DB002404EB061028440AEB0401027A69
:100DB0000698401C05F01AFD641C082CF2DB09B0F3
:100DC000BDE8F08F052D0AD00398284406F0C3FC37
:100DD000804600275FEAC87003D0019802E0002037
:100DE000F6E700980499834608431BD0002016E0DC
:100DF0000699002601EB090005FB0400029009E0BA
:100E00000AEB060007FB04015A46029804F026FD8F
:100E1000761CF6B2A642F3D309F10100C0B28146B6
:100E2000A042E5D37F1C4FEA6808082FD2DB6D1C77
:100E3000062DC7DBC3E70000649100086496000834
:100E40002DE9F04717460D468146002400F0FF08C3
:100E500001F0FF0A00F0C0F806001DD006EB4605C1
:100E60003A5D002A1BD00A2A1BD051464046FFF7A4
:100E700055FF08EB4500C0B2641C8046E4B2EFE7C2
:100E800029464846FFF74AFF0835782D02DD002540
:100E900009F10209641CE4B23A5D002AF0D1BDE810
:100EA000F0870AEBC60000F0FF0A09F0FF00E3E755
:100EB00004F090BB2DE9F04707460021404802F0BE
:100EC0007DFA04213E4802F079FA00213D4802F003
:100ED00075FA04213B4802F071FA0821394802F002
:100EE0006DFA0C21374802F069FA4FF4FA79484656
:100EF00017B100F073FC01E006F08CFB304E40F6B9
:100F0000A66530684563306885632E4C206845636C
:100F1000206885632068C563206805640021304629
:100F200002F022F90421304602F01EF90021204689
:100F300002F01AF90421204602F016F90821204691
:100F400002F012F90C21204602F00EF941F2883825
:100F5000404617B100F042FC01E006F05BFB31684F
:100F6000C1F834803168C1F838802168C1F8348014
:100F70002168C1F838802168C1F83C802168C1F837
:100F800040804FF4FA6017B100F028FC01E006F051
:100F900041FB30684563306885632068456320689D
:100FA00085632068C5632068056448461FB1BDE8B5
:100FB000F04700F013BCBDE8F04706F02BBB000083
:100FC000E00300205003002072B6FEE701480078DD
:100FD00070470000A90000200148407870470000D9
:100FE000CD0000200148007870470000CD000020AF
:100FF00010B50D490D4806F097F800EE100A0C48A0
:101000009FED0D1AB8EE400AD0ED000A20EE200A3E
:10101000DFED080A70EE600AB3EE090A00EE810AFD
:1010200080ED010A10BD00001200001064010020D4
:10103000480000205C8F423F0000C84370B5002587
:101040002C461121094806F06FF86D1CEDB20444DE
:10105000C82DF6D300EE104ADFED050A0548B8EEBC
:10106000400A80EE801A80ED001A70BD64010020F5
:101070000100704348000020064910B141F2883059
:1010800001E040F6C4108880034941F66A0009680F
:1010900088637047500000200803002078B50024C2
:1010A000009490F83C20012A19D0012280F83C20BD
:1010B0000A6807230568092A13D9EE680A3A02EB81
:1010C000420293409E43EE600B788A680A3B03EB32
:1010D00043039A400368DD682A43DA6010E0022087
:1010E00078BD2E6902EB420293409E432E610B783D
:1010F0008A6803EB43039A4003681D692A431A6117
:101100004A681F23072A13D205686E6B521E02EB32
:10111000820293409E436E630A8893B20A79521EFC
:1011200002EB820293400268556B2B43536327E026
:1011300005680D2A12D22E6BD21F02EB8202934059
:101140009E432E630B790A88DB1F92B203EB830365
:101150009A4003681D6B2A431A6311E0EE6A0D3A48
:1011600002EB820293409E43EE620B790A880D3BAC
:1011700092B203EB83039A400368DD6A2A43DA6282
:101180001B4B0568194A9D420AD10D68122D07D1E3
:10119000556825F400055560556845F4800555608F
:1011A00005689D421DD1134D0B68AB4201D0112B38
:1011B00017D1536823F480035360536843F400034A
:1011C00053600968A9420CD10B490C4A0968B1FB6C
:1011D000F2F101EB8101490000E0491E0091002974
:1011E000FBD180F83C40002078BD00000023014086
:1011F0000020014012000010DC00002040420F00DF
:101200000068C06C704770B504004FF0000503D053
:10121000206C002610B107E0012070BD204600F0D0
:101220001DF8666484F83C60206CC00610D4206C05
:1012300020F4885040F0020020642046FFF71EFC96
:101240006664206C20F0020040F00100206400E0A1
:10125000012584F83C60284670BD000008B5006890
:101260000649884208D10648016841F4807101604E
:10127000006800F48070009008BD0000002001406C
:10128000443802402DE9F041044600680D4681686B
:101290004FF0000749050BD58068C00508D5206CC4
:1012A00040F02000206484F83C700120BDE8F0810B
:1012B00000F09AFB064613E0681C11D025B100F03F
:1012C00093FB801BA8420BD920680068800707D4D5
:1012D000206C40F00400206484F83C700320E5E7B3
:1012E000206800688007E7D521686FF01200086069
:1012F000206C40F4007020642068816811F0405F29
:1013000013D1217E89B9C16A11F4700F02D08068AF
:1013100040050AD4206C20F480702064206CC00446
:1013200003D4206C40F0010020640020BEE70000E0
:1013300018B50021009190F83C20012A07D0012225
:1013400080F83C2002689368DB0702D011E002209D
:1013500018BD936843F001039360244A244B12683C
:10136000B2FBF3F202EB420200E0521E0092002AAE
:10137000FBD102689368DB072ED0036C40F2016456
:10138000A34343F48073036453685B0505D5036C82
:1013900023F4005343F480530364036CDB0404D54B
:1013A000436C23F00603436400E0416480F83C1082
:1013B00010496FF02203136049680068C90602D023
:1013C0000D49884210D1816811F0405F0CD18168CD
:1013D00041F08041816007E0016C41F0100101643F
:1013E000416C41F001014164002018BDDC00002087
:1013F00040420F00002301400020014090F83C10C3
:1014000001290CD0012180F83C1001688A6822F083
:1014100001028A6001688968C90702D007E00220DA
:101420007047016C21F4885141F0010101640021F1
:1014300080F83C10084670472DE9F0410446876D5E
:1014400000F0D2FA064694F835000025022806D0AE
:101450008020606584F834500120BDE8F081206868
:10146000016821F0160101602068416921F08001C6
:101470004161206C08B9A06C20B12068016821F09E
:10148000080101602068016821F0010101600CE0A1
:1014900000F0AAFA801B052807D9202060650320E8
:1014A00084F8350084F83450D7E720680068C00716
:1014B000EED194F85C103F208840B860012084F899
:1014C000350084F834500020C7E790F83510022921
:1014D00003D08021416501207047052180F8351037
:1014E0000068016821F00101016000207047406D33
:1014F000704790F8350070472DE9F84304464FF0E7
:101500000009CDF8009063484FF41651A56D0068AE
:10151000B0FBF1F72E6894F85C10082000FA01F196
:1015200031420FD021680A6852070BD50A6822F0B1
:1015300004020A6094F85C108840A860606D40F076
:101540000100606594F85C104FF0010808FA01F0A2
:10155000304208D021684969090604D5A860606D49
:1015600040F00200606594F85C100420884030422E
:1015700008D021680968890704D5A860606D40F02B
:101580000400606594F85C1010208840304218D048
:1015900021680968090714D5A86020680168490313
:1015A00004D50068000308D5A16C07E00168C905EF
:1015B00003D4016821F008010160216C09B12046C3
:1015C000884794F85C1020208840304231D0216850
:1015D0000968C9062DD5A86094F83500052820684B
:1015E000016806D0490347D5006800031DD4616C2B
:1015F0001CE021F0160101602068416921F08001A2
:101600004161206C08B9A06C20B12068016821F00C
:101610000801016094F85C103F208840A86084F8BD
:10162000358084F83490216D1FE0E16B09B12046CC
:101630008847606D00282BD0606DC00714D005204E
:1016400084F835002068016821F0010101600098EC
:10165000401C0090B84203D820680068C007F6D14B
:1016600084F8358084F83490E16C002910D001B002
:101670002046BDE8F04308470168C905D5D4016894
:1016800021F01001016084F8358084F83490CCE7B3
:10169000BDE8F883DC0000202DE9F041044600F0AD
:1016A000A3F906465CB1022084F83500002584F8D1
:1016B00034502068016821F0010101600DE0012033
:1016C000BDE8F08100F090F9801B052805D92020A5
:1016D0006065032084F83500F2E720680068C007E1
:1016E000F0D12268116820480140D4E90103184371
:1016F000D4E903363343184363691843A369184395
:10170000E3691843236A18430843616A042903D133
:10171000D4E90B1319430843106020684069666AD6
:1017200020F0070130460E43012704280CD1A06A9F
:101730000643E06A40B12046FFF76CFA20B1402032
:10174000606584F83570BAE7206846612046FFF787
:101750004DFA94F85C203F2191408160656584F8E2
:1017600035700020ACE700003F8010F02DE9F0411B
:101770000446866D90F83400002501280DD0012024
:1017800084F8340094F835700020012F07D084F8D5
:10179000340002252846BDE8F0810220FBE702273D
:1017A00084F8357060652046FFF75EFA94F85C10A7
:1017B0003F208840B0602068016841F01601016058
:1017C000206C20B12068016841F0080101602068A8
:1017D000016841F001010160DCE7000070B50546D9
:1017E00000F002F94FEA000400F0FEF8001BA842E6
:1017F000FAD370BD2DE9F84FDFF8B8A1002201241B
:101800000AF1040B03254FF00F090BF1040E00BF82
:101810000B6804FA02F63340B34273D10F7907F034
:101820000307012F01D0022F16D187684FEA420823
:1018300005FA08FC27EA0C07D1F80CC00CFA08FCE2
:101840004CEA070CC0F808C04768B7430E79C6F3E6
:10185000001696403E4346600E79F643B6070DD01B
:10186000C768560005FA06FC27EA0C07D1F808C03D
:101870000CFA06FC4CEA070CC0F80CC00E7906F016
:101880000306022E10D1D60800EB8608D8F8206097
:1018900057074FEAD76C09FA0CF7BE430F6907FAEE
:1018A0000CF73743C8F8207006684FEA420C05FA77
:1018B0000CF7BE430F7907F0030707FA0CF737431D
:1018C00007604E6816F4403F6DD03B4E376847F4D2
:1018D00080473760366822F0030706F4804600969A
:1018E000364E07EB060CDCF8086897073F0F09FA3D
:1018F00007F826EA0806DFF8C880404503D14FF014
:1019000000081EE04FE0DFF8BC80404502D14FF0F8
:10191000010816E0DFF8B080404502D14FF0020820
:101920000FE0DFF8A880404502D14FF0030808E03F
:10193000DFF89C80404502D14FF0040801E04FF0F1
:10194000070808FA07F848EA0608CCF80888DAF821
:1019500000605746D1F804C09E435FEACC3C00D5F6
:101960001E433E60DBF800605F46D1F804C09E4332
:101970005FEA8C3C00D51E433E60DEF8006077468F
:10198000D1F804C09E435FEACC2C00D51E433E60D4
:10199000084F0C373E68D1F804C09E435FEA8C2C98
:1019A00000D51E433E60521C102AFFF431AFBDE843
:1019B000F88F0000003C01404438024000300140F4
:1019C000000002400004024000080240000C0240F7
:1019D000001002400069084000D0012070470AB1A1
:1019E000816170470904FBE7014880687047000087
:1019F000D0000020704770472DE9F04702680021B1
:101A00005368C66A90F83E4090F83D50102C12D0B2
:101A1000402C10D0046C002C7DD05469E443A60700
:101A20007AD4DE43B60577D4036C03B19169BDE87F
:101A3000F04702F047BD976951694FF42A0CC9433A
:101A40005FEAC1784FF02A4904D066452AD04E4556
:101A500028D010E0DE43B6050DD4C16A614501D13E
:101A6000012103E0C16A494501D10821C162BDE8F5
:101A7000F04702F03DBC0E0716D4DE43B60513D482
:101A8000416CC9B21161416B09B1C96B29B9816B54
:101A9000002907D0C96B002904D00068416841F4CF
:101AA00000614160BDE8F0878E0706D4DE43B605CD
:101AB00003D4BDE8F04702F08FBBFE4352687607BF
:101AC0004FEA02521DD4002AECDB0A0608D4DA439E
:101AD000520505D4490705D5BDE8F04702F020BB03
:101AE0004907DFD4D9438905DCD4212D05D0402C0A
:101AF000D8D1BDE8F04702F041BCBDE8F04702F0A4
:101B0000CDBA002ACEDB4A060BD4DA43520508D4FC
:101B1000490708D501E00DE00EE0BDE8F04702F00E
:101B200085B94907BED4D9438905BBD4BDE8F04780
:101B300002F013B9916970E7E10606D4D94389052B
:101B400003D4BDE8F04702F0E1BC2821212D27D0C5
:101B5000292D25D0650655D4DD436D0552D4640783
:101B600052D590F83D30448D002C9BD01269446AC8
:101B70002270426A521C4262428D521E4285428D40
:101B8000002A8FD12A2B8DD10268536823F48063F9
:101B900053602222026380F83D1000F02BFC81E7A5
:101BA000250623D4DD436D0520D4640720D590F8A5
:101BB0003D30448D002CF2D0446A24781461426A8E
:101BC000521C4262428D521E4285428D002AE6D14D
:101BD000292BE4D10268536823F4806353602122E7
:101BE000026380F83D1000F006FC5BE76107D6D485
:101BF000D9438905D3D4418D0029D0D0416A0978D1
:101C000011610AE06107CAD4D9438905C7D4418D5F
:101C10000029C4D01169426A1170416A491C4162AD
:101C2000418D491E41853DE77047000070B50400B5
:101C300025D094F83D00002520B984F83C5020467A
:101C400000F012FB242084F83D002068016821F098
:101C5000010101602068016841F4004101602068D1
:101C6000016821F40041016000F038FD4D4A6168CF
:101C7000914201D84C4900E04C49884201D20120F0
:101C800070BD4B492368B0FBF1F15E6826F03F065A
:101C90000E435E606368934206D94FF496735943CE
:101CA0004FF47A73B1FBF3F12368491C1E6A26F0E6
:101CB0003F06314319626168914210D84900401EC5
:101CC000B0FBF1F2521CC2F30B02042A01D2042031
:101CD00022E0B0FBF1F0401CC0F30B001CE0A26856
:101CE000F2B301EBC10303EB0116431EB3FBF6F3A2
:101CF0005B1C43F480431B0549D092B301EBC10246
:101D000002EB0111401EB0FBF1F0401CC0F30B00D0
:101D100040F4804040F400402168CA694CF6FF73EB
:101D20009A431043C861D4E9071001432068026850
:101D300022F0C00211430160D4E90301014320688D
:101D4000826848F2FF339A4311438160D4E9050168
:101D500008432168CA6822F0FF021043C86001E00E
:101D60000EE016E02068016841F001010160256481
:101D7000202084F83D00256384F83E50002070BD8B
:101D800001EB4106431EB3FBF6F35B1CB3E70120F6
:101D9000C2E701EB4101401EB0FBF1F0401CC0F373
:101DA0000B00B7E7A086010080841E0000093D00FB
:101DB00040420F0070477047704700002DE9F84F10
:101DC0001F4690468A460446DDF82890FFF70CFE31
:101DD000054694F83D00202875D1192301226C494D
:101DE0002046009502F066FC0028F5D194F83C00EE
:101DF000012868D0012084F83C0020680168C907E8
:101E000003D1016841F0010101602068016821F4FB
:101E100000610160222084F83D00102084F83E001B
:101E200000262664C4F824806785608D2085594883
:101E3000E0622B464A465146204602F06BF80028E5
:101E400078D1208D544F68B1012814D00228206821
:101E5000016816D041F480610160206841698069A1
:101E6000009087E02068416981690091016841F430
:101E7000007101607EE02068016821F480610160EA
:101E8000F0E721F4806101602068016841F400619D
:101E9000E2E7032848D801280AD0022814D04B468C
:101EA000002239462046009502F004FCD8BB27E00A
:101EB0002A464946204602F07CFCA0BB2068006907
:101EC000616A08704DE061E04B46002239462046C9
:101ED000009502F0EFFB30BB2068016841F400710F
:101EE000016020680069616A0870606A401C606275
:101EF000218D491E2185618D491E618521682EE055
:101F00002068016821F48061016020680069616ACD
:101F10000870606A401C6062208D401E2085608DC4
:101F2000401E6085D0E705E02A464946204602F07B
:101F300040FC10B10120BDE8F88F20680069616A9B
:101F40000870606A401C6062218D491E2185618D88
:101F5000491E618521684A69D24352070AD409693A
:101F60000170606A401C6062208D401E2085608D7B
:101F7000401E6085208D00288BD1202084F83D00F4
:101F800084F83E6084F83C600020D4E70220D2E769
:101F9000020010000000FFFF040001002DE9F84FCF
:101FA0001F4690468A460446DDF82890FFF71CFD40
:101FB000054694F83D0020287FD11923012240498D
:101FC0002046009502F076FB002876D194F83C007C
:101FD000012872D0012084F83C0020680168C907FC
:101FE00003D1016841F0010101602068016821F41A
:101FF00000610160212084F83D00102084F83E003B
:1020000000262664C4F824806785608D20852D48CD
:10201000E0622B464A465146204601F0F1FF90B956
:10202000206841698069009036E02A46494620468A
:1020300002F0F2FB50B1206C042804D12068016842
:1020400041F4007101600120BDE8F88F606A2168E9
:1020500000780861606A401C6062618D491E61857C
:10206000218D491E89B2218522685369DB435B07B4
:102070000BD451B100781061606A401C6062608DC1
:10208000401E6085208D401E20852A4649462046F8
:1020900002F0EAFA0028CED1208D0028C5D154F8EC
:1020A0003D0B016841F400710160202004F81E0915
:1020B000E67766770020C7E7FFE70220C4E7000065
:1020C000020010000000FFFF704770472DE9FC5F21
:1020D0000025984691468A460446DDF830B00095C2
:1020E000FFF782FC074694F83D00202872D15A4839
:1020F00046F2A81120260068B0FBF1F000EBC00109
:1021000001EB001000900098401E009010D0206855
:102110008069C0438007F6D594F83C00012859D067
:10212000012084F83C0020680168C9070AD00DE04E
:1021300044F8305F6673A573206940F02000206189
:10214000257344E0016841F00101016020680168E5
:1021500021F400610160212084F83D00402084F8D2
:102160003E002564C4F824B00D986085608D2085FC
:102170003A48E062C4F844A0C4F84890C4F84C80DF
:102180002565208D00285CD0606B20B33449C16385
:10219000616B3448C864606B0564606B4564606B58
:1021A0008564606B05652268238D1032616A606BFF
:1021B000FFF7DCFAC0B184F83D6084F83E5054F873
:1021C000400F40F0100000BF44F8040925700120C2
:1021D000BDE8FC9F3EE084F83D6084F83E5054F832
:1021E000400F40F08000EFE72320CDE90007434691
:1021F0004A465146204602F011F988B1606BFFF75C
:1022000064F9606BC5632068016821F48061016036
:10221000258565852068016821F001010160D6E708
:10222000206841698169009184F83C50416841F41B
:10223000807141602068416841F400614160002084
:10224000C6E784F83D6084F83E5054F8400F40F0F3
:102250004000B9E70220BBE7DC0000200000FFFFE0
:10226000C93A0008893A00082DE9F04F87B0814645
:1022700014216846FEF789F8574C564DD9F80030BE
:102280005548122601220421544F10344FF0000CFF
:102290004FF00308AB421AD1036843F00203036016
:1022A0000068029200F002000590CDE903814FF42E
:1022B000C070CDE9000669463846FFF79BFA2068F2
:1022C00040F400102060206800F4001028E0444D25
:1022D0004FF0090BAB4227D1036843F002030360C0
:1022E0000068029200F002000590CDE903812815F4
:1022F000CDE90006154669463846FFF77BFA082007
:10230000CDE9000602AB694683E820093846FFF7AD
:1023100071FA206840F480002060206800F480009A
:10232000059007B0BDE8F08F2E4DAB42F9D10368A0
:10233000654643F001030360036803F0010305935E
:10234000036843F0020303600068029200F0020099
:102350000590CDE90381B2464FF48070CDE9000AC3
:10236000164669462048FFF745FA1020CDE9000AD5
:1023700002AB694683E840093846FFF73BFA20681C
:1023800040F4000020602068194C00F40000059023
:10239000164820604FF0C06060604020C4E902052C
:1023A0000001C4E90405A561E56125622046656276
:1023B000FFF772F908B1FEF707FEC9F834400022B2
:1023C00005214820C4F8389000F09CF8482000F01F
:1023D0008BF8A6E700540040303802400004024069
:1023E00000580040005C0040000002407060024065
:1023F000A8020020704770470248816802781144A3
:1024000081607047D00000200B4810B5016841F48E
:1024100000710160016841F480610160016841F46C
:1024200080710160032000F08DF8002000F006F8B4
:1024300000F03EF8002010BD003C024010B50146FF
:1024400088B000221A2000F05DF81A2000F04CF845
:1024500013480024016841F480210160006805A947
:1024600000F480200690684600F018F900F046F964
:102470000C490D4AB0FBF1F10C48491E026040F2D4
:10248000E732C0E90324C0E9011400F06FFB10B18A
:10249000012008B010BD054800F0C8FBF9E70000B6
:1024A0004438024040420F0000480140D00500205F
:1024B0000C4882B0016841F480410160006800F47A
:1024C000804000900748001F016841F08051016082
:1024D0000068002200F0805000900F21901E02B092
:1024E00000F010B844380240002809DB00F01F0259
:1024F000012191404009800000F1E020C0F8001166
:1025000070470000F0B40E4B1B680C46C3F3022367
:10251000C3F10705042D00D90425191D072901D28F
:10252000002300E0DB1E012606FA05F1491E2140CA
:1025300099409E40761E16403143F0BC04F080B9AD
:102540000CED00E0064900F0070208684FF6FF03B3
:10255000184040EA0220034A104308607047000018
:102560000CED00E00000FA052DE9F0470E460500ED
:1025700065D0DFF81481D8F80000F7B200F007004A
:10258000B04207D288F80070D8F8000000F00700C9
:10259000B04254D128683D4C810712D5400703D57D
:1025A000206840F4E05020602878000703D52068B8
:1025B00040F4604020602068A96820F0F0000843E3
:1025C00020602878C0072DD0304968680839012874
:1025D00012D0022813D0032811D0096889070029D6
:1025E0002DDA216821F0030101432160FFF7FCF996
:1025F000814641F2883A0EE009688903EFE70968ED
:102600008901ECE7FFF7F0F9A0EB0901514502D988
:102610000320BDE8F0872068696800F00C00B0EB8B
:10262000810FEFD1D8F80010404601F00701B14208
:1026300007D90770006800F00700B04201D0012000
:10264000E7E72878400705D52068E96820F4E050DE
:10265000084320602878000706D52068296920F4FF
:10266000604040EAC100206000F058F82168084A44
:10267000C1F30311515CC840064908600648006870
:10268000FFF7DCFE0020C4E7003C024008380240AF
:102690005C9C0008DC000020D40000200F220260B7
:1026A0000C4A136803F003034360136803F0F0035C
:1026B0008360136803F4E053C36012684FF4E0537F
:1026C00003EAD20202610448006800F007000860D3
:1026D0007047000008380240003C024004480549A9
:1026E00000680968044AC1F38221515CC840704700
:1026F000DC000020083802406C9C000804480549B2
:1027000000680968044AC1F34231515CC84070470F
:10271000DC000020083802406C9C0008154810B509
:10272000006810F00C02144813D01449042A0FD08A
:10273000082A0ED10F4C241F2268236802F03F02A2
:102740005B0207D52068C0F38810A0FB010106E0FA
:10275000084610BD2168C1F38811A1FB00010023C8
:10276000FDF798FD2168C1F30141491C4900B0FB08
:10277000F1F010BD083802400024F40040787D01DB
:102780002DE9F84F04006ED02078DFF84C93C00795
:10279000A9F104054AD009F104000168C1F38101DF
:1027A000012908D00068C0F3810002280AD1D9F8B5
:1027B0000000400206D52868800337D560680028ED
:1027C000E1D033E06068B0F5803F10D0B0F5A02FC5
:1027D000286810D020F480302860286820F48020F9
:1027E00028606068A8B1FFF7FFF806460DE028688A
:1027F00040F48030F4E740F480202860F7E700BF21
:10280000FFF7F2F8801B642873D828688003F7D597
:102810000CE0FFF7E9F8064605E000BFFFF7E4F833
:10282000801B6428F0D828688003F7D42078DFF86C
:10283000AC8280074FF0000A3ED5A748001D016812
:1028400011F00C0F08D00068C0F3810002280BD1F2
:10285000D9F80000400207D42868800716D5E06840
:10286000012800D112E033E1E068B8B10120C8F8D6
:102870000000FFF7B9F8064605E000BFFFF7B4F81F
:10288000801B0228C0D828688007F7D528682169EE
:1028900020F0F80040EAC10028600DE0C8F800A070
:1028A000FFF7A2F8064604E0FFF79EF8801B022817
:1028B0001FD828688007F7D42078000722D5864FD4
:1028C00087486169703771B101210160FFF78CF8A9
:1028D000064604E0FFF788F8801B022809D838680C
:1028E0008007F7D50EE0C0F800A0FFF77DF8064698
:1028F00005E082E0FFF778F8801B02287DD8386871
:102900008007F7D42078400768D5DFF8CCB10027DE
:102910000BF13C0BDBF80000C0000BD4DBF800101F
:1029200041F08051CBF80010DBF80000012700F0E7
:10293000805000906B4E3068C00510D4306840F471
:1029400080703060FFF750F8009005E0FFF74CF81A
:102950000099401A022850D83068C005F6D55E4E5E
:10296000A0686C3601280FD00528306810D020F000
:1029700001003060306820F004003060A068B8B119
:10298000FFF732F800900FE0306840F00100F4E704
:1029900040F004003060F7E7FFF726F80099411A8D
:1029A00041F28830814266D830688007F4D50EE065
:1029B000FFF71AF8009007E0FFF716F80099411AA0
:1029C00041F28830814256D830688007F4D42FB164
:1029D000DBF8001021F08051CBF80010A069C8B3DB
:1029E0003D49091D0968C1F3810102294AD0022825
:1029F000504607D0C8F8600000E03CE0FEF7F4FF66
:102A000004463BE04746C8F86000FEF7EDFF064687
:102A100005E000BFFEF7E8FF801B02282BD82868DE
:102A20008001F7D4D4E907010843A16A2E4A490876
:102A300002EB0141626A41EA8211084394F82C10CA
:102A400040EA0161C9F8001001203866FEF7CCFFAA
:102A5000044606E03EE000BFFEF7C6FF001B02286A
:102A600009D828688001F7D534E000BFFEF7BCFF25
:102A7000001B022802D90320BDE8F88F28688001D6
:102A8000F4D427E00128F7D0D9F80000E26900F477
:102A9000800191421CD1226A00F03F01914217D17E
:102AA00047F6C071626A0140B1EB821F10D1A26A81
:102AB0004FF0FF3300F4403103EB5202B1EB024F11
:102AC00006D194F82C1000F07060B0EB016F01D0CB
:102AD0000120D1E70020CFE7043802400000474240
:102AE000800E4742007000400000FFFF70477047B3
:102AF00070B590F83C20012A2CD0012480F83C408D
:102B0000022280F83D2003685A689D6822F0700612
:102B10000A6832435A60104B02689A420ED0B2F1F2
:102B2000804F0BD00D4B9A4208D00D4B9A4205D0E6
:102B30000C4B9A4202D00C4B9A4204D1496825F0C2
:102B400080031943916080F83D40002180F83C10DB
:102B5000084670BD022070BD000001400004004026
:102B600000080040000C00400040014010B5040087
:102B700003D094F83D0010B107E0012010BD002003
:102B800084F83C00204600F01FF8022084F83D0045
:102B9000211D206802F008FF012084F8460084F817
:102BA0003E0084F83F0084F8400084F8410084F837
:102BB000420084F8430084F8440084F8450084F817
:102BC0003D00002010BD000038B5054600681349DF
:102BD000884222D1124900200A6842F004020A60A9
:102BE0000968114C01F0040100910E49216089052A
:102BF00061604021C4E9021009012161490061615D
:102C00008900C4E90610206260622046FEF744FD98
:102C100008B1FEF7D9F96C62A56338BD0008004021
:102C200040380240106002402804002090F83D1017
:102C3000012901D001207047022180F83D10016870
:102C4000CA6842F00102CA6000680E4988420ED08C
:102C5000B0F1804F0BD00C49884208D00B49884214
:102C600005D00B49884202D00A49884204D18168C4
:102C700001F00701062903D0016841F0010101605C
:102C800000207047000001400004004000080040A0
:102C9000000C00400040014070B5044690F83C0034
:102CA0000025012817D0012684F83C60022084F812
:102CB0003D002068826822F0770222F47F42826021
:102CC0000868502838D00DDC20284FD005DC90B3A0
:102CD000102811D14AE0022070BD302846D040288B
:102CE0000AD13BE060282FD070280DD0B0F5805F6E
:102CF00003D0B0F5005F12D0012584F83D600020BC
:102D000084F83C00284670BDCB68D1E901212068D9
:102D100002F018FF2068816841F0770109E0CB6874
:102D2000D1E90121206802F00DFF2068816841F49B
:102D300080418160E1E719E0CA684968206802F0D3
:102D4000B5FF5021206806E0CA684968206802F093
:102D5000BEFF6021206802F0FFFECEE7CA68496826
:102D6000206802F0A3FF40212068F4E722680146B2
:102D70001046F0E77047704770B504460068016977
:102D80004FF00005C943890715D4C168C9438907B5
:102D900011D4E91E01610120207720688069800735
:102DA000204602D0FFF7E7FF04E000F019F92046C3
:102DB00000F0D8F9257720680169C943490717D47D
:102DC000C168C943490713D46FF0040101610220AF
:102DD00020772068806910F4407F204602D0FFF7FA
:102DE000CAFF04E000F0FCF8204600F0BBF92577AC
:102DF00020680169C943090716D4C168C943090796
:102E000012D46FF008010161042020772068C069A6
:102E10008007204602D0FFF7AEFF04E000F0E0F8A4
:102E2000204600F09FF9257720680169C943C9064B
:102E300017D4C168C943C90613D46FF010010161EA
:102E4000082020772068C06910F4407F204602D017
:102E5000FFF791FF04E000F0C3F8204600F082F98C
:102E6000257720680169C943C90708D1C168C943EA
:102E7000C90704D1891E0161204600F0D7FA2068F5
:102E80000169C943090609D4C168C943090605D4C3
:102E90006FF0800101612046FFF728FE206801697C
:102EA000C943490609D4C168C943490605D46FF02E
:102EB00040010161204600F0C3FA20680169C9435E
:102EC00089060BD4C168C943890607D46FF0200175
:102ED00001612046BDE87040FFF709BE70BD0000EB
:102EE000F0B587B0044614216846FDF74EFA216814
:102EF000002435480225354AB1F1804F2AD0344BA1
:102F00000326344F994237D1016841F00101016035
:102F1000016801F001010591016841F002010160C1
:102F20000068694600F002000590C0200090CDE9DD
:102F300001541046CDE90345FEF75CFC0096CDE94F
:102F4000015469463846CDE9034500BFFEF752FCFF
:102F500007B0F0BD016841F00101016000686946F9
:102F600000F00100059022200090CDE901540120DD
:102F7000CDE903401046E9E7174B994210D10168AB
:102F800041F0020101600068CDE9024600F0020054
:102F900005904020CDE90005694638460495D5E7FF
:102FA0000E4B9942D4D1016841F0010101600068E3
:102FB000694600F0010005900C200090CDE9015415
:102FC000CDE903461046C1E7303802400000024018
:102FD000000400400004024000080040004001409E
:102FE000704770B5044690F83C0000260D46012855
:102FF0000FD0012084F83C006AB1042A1DD0082AB1
:103000002FD00C2A3FD00126002084F83C00304607
:1030100070BD022070BD206802F0A6FD20688169A5
:1030200041F0080181612068816921F0040181611A
:10303000206881692A69114311E0206802F0BCFD13
:103040002068816941F4006181612068816921F40F
:1030500080618161206881692A6941EA0221816178
:10306000D2E7206802F0D4FD2068C16941F0080170
:10307000C1612068C16921F00401C1612068C16992
:103080002A69114311E0206802F0EEFD2068C16951
:1030900041F40061C1612068C16921F48061C161AE
:1030A0002068C1692A6941EA0221C161ACE710B513
:1030B000040003D094F83D0010B107E0012010BDDA
:1030C000002084F83C00204600F01EF8022084F81E
:1030D0003D00211D206802F067FC012084F84600B5
:1030E00084F83E0084F83F0084F8400084F84100F2
:1030F00084F8420084F8430084F8440084F84500D2
:1031000084F83D00002010BD08B501681248B1F1F7
:10311000804F0BD0114A914210D1016841F0020159
:103120000160006800F00200009008BD016841F0F5
:1031300001010160006800F00100F5E708488142E4
:10314000F3D10548001D016841F480310160006839
:1031500000F48030E8E700004038024000040040FE
:10316000004001407047704710B50446022249B143
:1031700004290ED0082913D094F84100012816D054
:10318000012010BD94F83E000128F9D184F83E20BA
:103190000FE094F83F000128F2D184F83F2008E0C6
:1031A00094F840000128EBD184F8402001E084F835
:1031B00041200122206802F043FC12492068884225
:1031C00003D1426C42F400424264206888420ED02F
:1031D000B0F1804F0BD00C49884208D00B4988428F
:1031E00005D00B49884202D00A49884204D181683F
:1031F00001F00701062903D0016841F001010160D7
:10320000002010BD00000140000400400008004004
:10321000000C0040004001402DE9F04117460D0030
:1032200004464FF000060CD0042D11D0082D16D006
:1032300094F84100022819D094F84100012818D0D0
:103240007BE094F83E00022810D094F83E00F5E7A9
:1032500094F83F00022809D094F83F00EEE794F874
:103260004000022802D094F84000E7E70220BDE8C1
:10327000F0810FB9002B60D14849494ADFF824C1D9
:1032800002204DB1042D18D0082D27D084F841001C
:103290000C2D44D001267FE084F83E00606AC163B3
:1032A000606A39460264606AC0F84CC02268606A8D
:1032B0003432FEF75BFA88BB21E084F83F00A06A55
:1032C000C163A06A39460264A06AC0F84CC0226893
:1032D000A06A3832FEF74AFA00BB15E084F84000D5
:1032E000E06AC163E06A39460264E06AC0F84CC033
:1032F0002268E06A3C32FEF739FA78B909E02068C2
:10330000C16841F400711EE02068C16841F4806129
:1033100019E02068C16841F4006114E00DE0206B01
:10332000C163206B39460264206BC0F84CC0226830
:10333000206B4032FEF71AFA08B1012097E72068A7
:10334000C16841F48051C16001222946206802F021
:1033500077FB15492068884203D1426C42F4004251
:103360004264206888420ED0B0F1804F0BD00F49E4
:10337000884208D00E49884205D00E49884202D0C2
:103380000D49884204D1816801F00701062903D064
:10339000016841F001010160304668E75B5A0008AE
:1033A000B95A0008F15A000800000140000400402A
:1033B00000080040000C00400040014030B50446C9
:1033C0000D460068002202F03BFB174B41F2111141
:1033D00020688A10984209D1036A0B4206D1036A19
:1033E000134203D1436C23F4004343642068036A0F
:1033F0000B4206D1016A114203D1016821F001019B
:10340000016001203DB1042D08D0082D09D084F8B9
:103410004100002030BD84F83E00FAE784F83F0008
:10342000F7E784F84000F4E7000001400068034932
:10343000884201D1FEF7E0BF70470000004801401C
:103440007047704710B504460068406994F83D1015
:10345000C0F3C010212911D180B12068143050E888
:10346000001F21F0800140E80012002AF5D1606BB6
:1034700008B1FDF7E1FF204602F04EFD20684069EB
:1034800094F83E10C0F38010222911D180B1206839
:10349000143050E8001F21F0400140E80012002ADB
:1034A000F5D1A06B08B1FDF7C7FF204602F00DFD76
:1034B000002010BD70470000F8B501680446086898
:1034C000CA684B6910F00F0F4FF0000559D003F098
:1034D000010602F49077374365D0C10705D0D105C6
:1034E00003D5216C41F001012164410705D5D907BD
:1034F00003D0216C41F002012164810705D5D90771
:1035000003D0216C41F004012164010707D502F0CA
:103510002001314303D0216C41F008012164216C6A
:1035200000293AD0800604D5900602D5204602F044
:1035300001FD20684069216CC0F38010090700D4A8
:1035400060B3204602F0C1FC20684069400621D5E6
:103550002068143050E8001F21F0400140E80012BC
:10356000002AF5D1A06BA8B16C490165A06BFDF7ED
:10357000ACFF002811D0A06B016D01B0BDE8F04098
:10358000084783060FD593060DD52046BDE8F840C1
:1035900002F0D0BC2046FFF78DFFF8BD2046FFF7B4
:1035A00089FF2564F8BD266B2023012E79D1C6063C
:1035B00077D5D60675D508684868009048694006F2
:1035C00040D5A16B086840680004000CEAD0A28DC9
:1035D0008242E7D9E085C869B0F5807F2DD02068A8
:1035E0000C3050E8001F21F4807140E80012002ADE
:1035F000F5D12068143050E8001F21F0010140E8A7
:103600000012002AF5D12068143050E8001F21F084
:10361000400140E80012002AF5D184F83E302563CD
:1036200020680C3050E8001F21F0100140E8001223
:10363000002AF5D1A06BFDF7FFFEA08DE18D401AA9
:1036400081B229E0A08DE18D401A81B2E08D002881
:10365000A8D00029A6D020680C3050E8002F22F412
:10366000907240E80026002EF5D12068143050E812
:10367000002F22F0010240E80026002EF5D184F848
:103680003E30256320680C3050E8002F22F01002F5
:1036900040E80023002BF5D12046FFF7D2FEF8BD0D
:1036A000FFE705062BD5150629D594F83D002128FE
:1036B000F5D1A068B0F5805F01D12069B0B1206A72
:1036C000411C2162216800784860E08C401E0004A3
:1036D000000CE084E3D12068C16821F08001C16062
:1036E0002068C16841F04001C160D8E7206A0088C5
:1036F000C0F308004860206A801C2062E5E74006AD
:10370000CDD55006CBD5CA68204622F04002CA600B
:1037100084F83D3000F046F9C1E70000895D0008FB
:1037200008B501680A6849680091FFF78BFE02F04E
:1037300059F8BDE8084002F0B9B870B5040004D0EB
:1037400094F83D00002510B106E0012070BD84F81A
:103750003C50204600F022F8242084F83D002068E8
:10376000C16821F40051C160204602F043FC20688A
:10377000016921F4904101612068416921F02A0129
:1037800041612068C16841F40051C1602564202076
:1037900084F83D0084F83E00002070BD2DE9F04122
:1037A00086B0064614216846FCF7EFFD4248DFF874
:1037B00004C1376840491438022203253F4B0024D6
:1037C00067454FD10F6847F010070F60096801F097
:1037D00010010591016841F001010160006869462E
:1037E00000F00100059068028DE835000720049084
:1037F0001846FDF7FFFF334D31484FF00067286052
:10380000C5E901744FF48068C5E903486C61AC6197
:10381000EC612C6228466C62FDF73EFF08B1FDF7B3
:10382000D3FBB563AE63274D254860357830E5E8B6
:1038300002074020A5E81101224845F814496030EC
:10384000AC61EC612C626C62FDF726FF08B1FDF7FC
:10385000BBFB7563002205212520AE63FEF752FEF7
:10386000252022E0184EB74221D10E6846F02006EE
:103870000E60096801F020010591016841F0010125
:1038800001600068694600F0010005904FF4C050E7
:103890008DE83500082004901846FDF7ABFF0022A4
:1038A00005214720FEF72EFE4720FEF71DFE06B03D
:1038B000BDE8F081001001404438024000000240A1
:1038C00040640240100500200014014090F83E3092
:1038D000202B0ED159B152B190F83C30012B08D0B9
:1038E000012380F83C300023036302F009BC01206F
:1038F0007047022070470000054910B5884205D185
:1039000001F070FFBDE8104001F0D0BF10BD000015
:10391000880400207047000070B5044690F83D0010
:10392000202836D191B38AB394F83C00012830D0D6
:10393000012084F83C002162A284E28400252564F1
:10394000212084F83D00636B1348D863636B1348F0
:103950001864636B1248D864606B1346056526686B
:10396000606B321DFDF702FF21686FF040000860B8
:1039700084F83C502068143050E8001F41F080016A
:1039800040E80012002AF5D1002070BDFFE70120B9
:10399000FBE70220F9E700007F5E0008C15E000837
:1039A000995D00080349884202D10349012008704B
:1039B00070470000880400202C0000207047FEE7BC
:1039C0000148FEF719B800005402002038B5806B9A
:1039D000002190F83D202B4B46F2A8141B68B3FB46
:1039E000F4F3C3EBC30303EB830300933BB15B1E10
:1039F000009303681B689B0505D5009BF6E7036CE5
:103A000043F020030364436B03B1D963836B03B1B9
:103A1000D96303681C6824F480641C604185436B8F
:103A200003B11965836B03B1196503681C6824F041
:103A300001041C6090F83D402023602C0BD028240A
:103A400034EA02020FD080F83D3080F83E1000BF0B
:103A5000FEF7EAF838BD80F83D3080F83E1001648A
:103A6000FDF7C8FF38BD0268136843F00103136017
:103A70000268136843F480631360016380F83D407B
:103A8000E6E70000DC00002070B5846B0025616B68
:103A900001B1CD63A16B01B1CD63FDF728FD022813
:103AA00011D02068016821F48061016065852020C3
:103AB00084F83D0084F83E50206C40F010002064F3
:103AC0002046FEF7B1F870BD2DE9F041846B94F803
:103AD0003D2094F83E50E16A2068436823F4407327
:103AE0004360636B002003B1D863A36B03B1D86359
:103AF000212333EA02074FF022060CD036EA0207F0
:103B000001D1202D07D094F83E20002A21D0628DCB
:103B1000012A20D024E021684D6825F400654D601D
:103B200060852820292A02D02A2A07D00CE02363A6
:103B300084F83D002046FEF75EFC05E0266384F82D
:103B40003D002046FEF756FC2068416841F4407174
:103B50004160BDE8F0812268136823F4806313603C
:103B60002268536823F44073536011F5803F06D0F8
:103B7000082904D0B1F12A4F01D0202904D12168AD
:103B80000A6842F400720A6021684A6822F480528E
:103B90004A6021684A6822F400624A606085216CAC
:103BA00019B12046FEF740F8D3E7202184F83D10F4
:103BB00094F83E1084F83E00402905D0122020637E
:103BC0002046FEF7F8F8C4E720632046FEF77CFAAB
:103BD000BFE7000070B5044690F83D0094F83E1031
:103BE000102901D0402906D1222804D121680A6871
:103BF00022F400620A60282131EA00024FF0000539
:103C00004FF0200626D021684968090505D46028B0
:103C100003D084F83D6084F83E50256320684168F5
:103C2000090537D5416821F400614160606B90F867
:103C300035203C49012A11D00165606BFDF745FC38
:103C400038B32068016821F00101016084F83D600B
:103C5000606B1CE0256384F83D10DFE7A06B016515
:103C6000A06BFDF732FCA0B120684169C943490649
:103C700005D40069616A0870606A401C606220684F
:103C8000016821F00101016084F83D60A06B016DC5
:103C9000884710E094F83D10602910D04169C9436D
:103CA000490605D40069616A0870606A401C606258
:103CB0002046FDF7B9FF206CC1071CD115E084F840
:103CC0003D6025644169C943490605D40069616ABC
:103CD0000870606A401C60622068016821F0010180
:103CE00001602046FDF786FEE5E7810703D4410722
:103CF00001D4000704D52068416821F4E0614160E7
:103D000094F83D00216C49070BD5282809D10648B5
:103D1000E062256384F83D6084F83E502046FEF75B
:103D200049F870BDCD3900080000FFFF01684A69FD
:103D3000D24352050FD46FF480624A61002140F8EB
:103D4000301F202242738173026942F00402026133
:103D50000173012070470020704710B5C26A438D7F
:103D60000168042B06D0438D032B08D0438D022B12
:103D70001DD012E04A6822F480624A600CE04B6871
:103D800023F480634B60042A06D0022A04D0016821
:103D90000A6822F480620A6001680969426A117047
:103DA000416A491C4162418D491E418510BD012A6D
:103DB00030D0102A2ED0042A30D0022A2ED00A6801
:103DC00042F400720A6001680969426A1170416A2E
:103DD000491C4162428D521E4285026812690A7076
:103DE000416A491C4162418D491E418501684A680A
:103DF00022F440724A60202180F83D1090F83E2065
:103E00000021402A80F83E100CD012210163FDF7FA
:103E1000D2FF10BD0A6822F48062D3E70A6842F438
:103E20008062CFE70163FEF74FF910BD38B590F817
:103E30003D10222914D1418D032912D90168096945
:103E4000426A1170416A491C4162418D491E418597
:103E5000418D032904D10068416821F480614160EB
:103E600038BDC26A022AFBD0012901D00029F7D14E
:103E7000274946F2A81300220968B1FBF3F101EBD0
:103E80008101009101682023009C641E009422D0CF
:103E90000C68A405F8D40C6824F480640C600168F4
:103EA0004C6824F4E0644C6001680969446A21703C
:103EB000416A491C4162418D491E418580F83D306F
:103EC00090F83E1080F83E2040291DD01221016359
:103ED000FDF771FF38BD046C44F0200404644C68A5
:103EE00024F4E0644C6001680969446A2170416A05
:103EF000491C4162418D491E418580F83D3080F862
:103F00003E20FDF791FE38BD0263FEF7DDF838BDB7
:103F1000DC0000202DE9F84F0446C06A1E46934697
:103F20000D4621680A6842F480620A60082807D0BA
:103F3000012805D010F5803F02D0206B112804D154
:103F40002068016841F4807101604FF001195B46FF
:103F5000002249462046009600F0ACFB4FF4007862
:103F600040B120680068C00501D5C4F84080032036
:103F7000BDE8F88F2069DFF884A0B0F5804F0FD03E
:103F80000620216800EAD51747F0F00008613346A3
:103F90005A460AF10601204600F0C0FB58BB03E078
:103FA000E8B240F001001CE02168E8B20861334645
:103FB0005A465146204600F0B1FBE0B920684169FD
:103FC00081690091016841F4807101605B460022C3
:103FD00049462046009600F06DFB0028C1D147F00D
:103FE000F1002168086133465A465146204600F0E8
:103FF00095FB0028BCD00120BAE7000002000100B8
:10400000F8B50446C06A1E460D461746082807D074
:10401000012805D010F5803F02D0206B122804D172
:104020002068016841F480710160134600224FF05E
:1040300001112046009600F03DFB40B12068006869
:10404000C00502D54FF4007020640320F8BD20693C
:10405000B0F5804F0ED00620216800EAD51040F060
:10406000F000086133463A460B49204600F056FB03
:1040700078B902E005F0FE0000E0E8B221680861CE
:10408000054933463A46891F204600F047FB002881
:10409000DCD00120F8BD00000800010010B5C26AA4
:1040A00090F83D1021290BD1418D51B1416A026830
:1040B00009781161416A491C4162418D491E41855F
:1040C00010BD20230021082A13D0202A11D012F578
:1040D000803F0ED00268546824F4E06454601122DA
:1040E000026380F83E1080F83D3000BFFDF764FEAB
:1040F00010BD0268546824F4E064546002681468D7
:1041000044F400741460016380F83D3090F83E2060
:1041100080F83E10402AE9D1FDF7D7FF10BD00001E
:1041200010B590F83D1090F83E30C26A048DB4B1DD
:10413000212903D0402B11D122290FD1418DE1B388
:1041400090F83E10402942D0416A02680978116116
:10415000416A491C4162418D491E418510BD21299A
:10416000E8D120230021082A13D0202A11D012F5EB
:10417000803F0ED00268546824F4E0645460112239
:10418000026380F83E1080F83D3000BFFDF714FE5A
:1041900010BD0268546824F4E06454600268146836
:1041A00044F400741460016380F83D3090F83E20C0
:1041B00080F83E10402AE9D100E002E0FDF785FFDB
:1041C00010BD0068416821F48061416010BDBDE808
:1041D000104000F0D3B8000078B590F83E50C26AA5
:1041E000036B90F83D6000240168222E7AD1066DA1
:1041F0000EB9402D76D0056D1DB90569B5F5404F56
:1042000009D0458D05B3468D384D012E0ED0438D16
:10421000022B3AD05DE04A698A6900920A6842F44A
:1042200080720A60016D491C016578BDAA4213D1F4
:104230000A6822F480620A6001684A68120503D5A0
:104240000A6822F4806216E04A698A6900920A6864
:1042500042F400720A6039E0082A10D0202A0ED0F9
:10426000122B0AD0042A03D0022A01D0102AE7D147
:104270000A6842F480620A6024E0012AE0D00A68F9
:1042800022F480620A600168DEE7042A21D0022A53
:104290001FD0102A1DD00B6823F480630B600168C7
:1042A0000B6843F400630B6001684B681B0509D57C
:1042B000AA4212D0012A10D0082A0ED0102A0CD0FF
:1042C000202A0AD001684A6989690091046578BD8D
:1042D00008E00B6843F48063E5E74A6842F48052E3
:1042E0004A60EFE7486988690090F0E70000FFFF47
:1042F00090F83E10402910D00169B1F5804F19D0D7
:10430000016DA9B3016D012910D1416C5FF0F1027B
:1043100001F4407142EAD11106E0016D0029416CBF
:1043200005D0C9B241F0010100680161704701F098
:10433000FE01F9E790F83D102129416C09D0C9B27E
:1043400041F0010102681161416B29B1C96B49B9A2
:1043500002E001F0FE01F5E7816B0029E6D0C96BB0
:104360000029E3D00068416841F400614160704772
:10437000FFE7416CF02201F44071CBE710B590F8F3
:104380003D10026D22B3026D012A2FD0026D022A68
:104390001DD122292FD0428D0AB1212933D0428D3F
:1043A000002A14D1212912D101684A6822F4E0625E
:1043B0004A6001680A6842F400720A6000210163E1
:1043C000202280F83D2080F83E10FDF77EFE10BDD3
:1043D000C16C0129816C02D0C1F3072108E0026899
:1043E000C9B21161016D891C016510BD816CC9B232
:1043F0000268116104E001680A6842F480720A6090
:10440000016D491CF0E7416A026809781161416A4F
:10441000491C4162418D491E418510BD2DE9F8437B
:10442000044600680D46DDE908970168984616467F
:1044300041F4807101604B4600224FF0011120468B
:10444000009700F037F948B120680068C00502D530
:104450004FF4007020640320BDE8F883216805F064
:10446000FE0008613B464A461549204600F056F9D1
:1044700088B920684169806900903A4649462046DB
:1044800000F0CAF948B1206C042804D12068016802
:1044900041F4007101600120DEE7F5B2B8F1010FCF
:1044A00009D02168300A08613A464946204600F0A2
:1044B000B3F90028E7D1206805610020CCE70000AF
:1044C0000200010038B50C4690F83D200021282557
:1044D000954302680B4605D051699169009180F8B7
:1044E0003C3038BD556825F480655560E24354077B
:1044F00000D50121120601D5828900E0028B80F8E7
:104500003C3092B2FDF777FA38BD0000F8B590F86C
:104510003D6004460068416821F4E0614160206824
:10452000002541690091016841F0010101602068A6
:10453000016821F48061016020684168090520D587
:10454000474F222E48D02A2E46D0616B0968496811
:104550006185618D19B1216C41F0040121644168CC
:1045600021F400614160606BFCF7C3FF012808D0B3
:10457000606B0765606BFCF7A8FF10B1606B016DA5
:104580008847608D08B320684169C943490708D44A
:104590000069616A0870606A401C6062608D401E3C
:1045A000608520684169C943490608D40069616A89
:1045B0000870606A401C6062608D401E6085608D7E
:1045C00018B1206C40F004002064206C00B3204639
:1045D000BDE8F840FFF7FEBAA16B0968496861853C
:1045E000618D19B1216C41F004012164416821F40D
:1045F00000614160A06BFCF77CFF0128C1D0A06B7B
:104600000765A06BFCF761FF0028BAD0A06BB6E786
:104610002A2E06D12563282084F83D002046FDF788
:10462000E9FE94F83D10202028290DD0216B222985
:1046300001D0222E07D1256384F83D0084F83E5036
:104640002046FDF7D7FEF8BD0649E162256384F8F0
:104650003D0084F83E502046FDF7ACFBF8BD00005D
:10466000CD3900080000FFFF70B516460D46044620
:104670000DE02046FFF75AFB08B1012070BD681C11
:1046800005D0FDF7B1F9801BA84207D835B12068E5
:104690004069C0434007ECD4002070BD002044F8BE
:1046A000300F20216173A073216941F02001216145
:1046B0002073E2E72DE9F0471E4690460D4604467A
:1046C000C1F30747DDF8209008E0701C06D0FDF725
:1046D0008BF9A0EB0900B0420FD876B12068012F0A
:1046E00018D0806925EA00000004000C14D00021D5
:1046F0004145EAD00020BDE8F087002044F8300FA3
:1047000020216173A073216941F020012161207390
:104710000120F0E74069E5E70121E9E72DE9F047ED
:104720009A4691460E46044600254FF02008C1F3F4
:10473000074725E020684069C043400514D420683D
:10474000016841F40071016021686FF48060486184
:10475000256384F83D8084F83E50206C40F00400CE
:10476000206484F83C501FE0B9F1FF3F08D0FDF70A
:104770003BF9A0EB0A0149450CD8B9F1000F09D06B
:104780002068012F13D0806926EA00000004000C85
:104790000BD0CFE744F8305F84F80D80A573206913
:1047A00040F02000206125730120BDE8F0874069BA
:1047B000EAE72DE9F041002590460E460446202701
:1047C00017E04069C043C0060CD454F8301B6FF0AA
:1047D0001000486144F810596777A577206A206275
:1047E000257717E0FDF700F9A0EB0800B04208D8E4
:1047F0003EB120684169C9434906E2D40020BDE8C2
:10480000F08144F8305F6773A573206940F02000A1
:10481000206125730120F2E770B516460D46044667
:104820000DE02046FFF782FA08B1012070BD681C38
:1048300005D0FDF7D9F8801BA84207D835B120680C
:104840004069C0430006ECD4002070BD002044F84D
:10485000300F20216173A073216941F02001216193
:104860002073E2E733B583B000206424CDE9004033
:104870000D46012303AAEC212846FDF78FFB1420E7
:10488000FCF7ACFF042301AAEC2128460094FDF7B5
:1048900095FABDF804009DF8061040BA000440EAFD
:1048A00001209DF8071005B0084330BD03B581B065
:1048B000084664210091012301AAEC21FDF76EFB5B
:1048C0000EBDFCF7F5BA000010B504462DED0A8BBD
:1048D000B0EE408AF0EE608A9FED439B9FED44ABC3
:1048E0009FED450B51EC180B53EC102BFBF712FF0F
:1048F0002AD053EC192B51EC180BFBF723FF94ED46
:10490000040B0DD251EC100B9FED3D1B53EC112B02
:10491000FBF700FF20D294ED040B9FED3B1B0AE058
:1049200053EC192B51EC100BFBF70CFF14D294ED48
:10493000040B9FED371B51EC100B53EC112BFBF7C5
:10494000E3FDC4E9040107E053EC182B51EC1A0B0A
:10495000FBF7DAFD41EC180B94ED080B94ED001B0E
:1049600053EC102B51EC110BFBF727FD41EC190B0D
:1049700084ED029B94ED0A0B53EC102BFBF71DFD0D
:1049800041EC100B51EC190B53EC102BFBF72EFEE6
:1049900041EC1B0B51EC180B84ED06BB94ED04CBE2
:1049A00053EC1C2BFBF7AAFD53EC1B2BFBF7ACFDC8
:1049B00053EC1C2BFBF701FD41EC180B53EC1B2BAC
:1049C00084ED048B51EC1A0BFBF798FD53EC192B7B
:1049D000FBF79AFDC4E90001B0EE480AF0EE680A60
:1049E000BDEC0A8B10BD0000000000000000144068
:1049F000000000000000F03F000000000000104038
:104A0000000000000000184000000000000000400E
:104A1000000000000000E03F9FED092B9FED0C3BE4
:104A200080ED002B9FED082B80ED022B80ED043BE9
:104A300080ED062B80ED080B80ED0A1B704700000F
:104A40007B14AE47E17A943F0000000000000000B4
:104A500000000000000010402E4D286802F06BFEA0
:104A600001222D4E540321463046FCF7B8FF0122A7
:104A7000DFF8A880D70339464046FCF7B0FF142082
:104A800002F0C8FD002221463046FCF7A8FF0022B4
:104A900039464046FCF7A3FF9FED210B2248B0EEBC
:104AA000401AF0EE601AFFF7B7FF204C94ED070AAA
:104AB00084ED0A0A94ED080A84ED0B0A94ED0D0AC0
:104AC00084ED030A286802F026FE1948006802F007
:104AD00022FE47F230554FF47A7600BFB4F9020057
:104AE000A84201DA401C60806088082803D194ED58
:104AF000090A84ED0C0A94ED090AD4ED060A304641
:104B000070EE600AC4ED020A84ED060A02F082FD2E
:104B1000E4E7000018000020000802400000024006
:104B2000FCA9F1D24D62503F480700205000002000
:104B300010000020052002F06DFDFBE7084D094C38
:104B4000094800F089F895ED030AD4ED030A052021
:104B500030EE600A84ED0D0A02F05CFDF0E7000023
:104B60003806002050000020000200202DE9FE43FE
:104B7000064638489FED360A002580ED010A05708B
:104B800031461E20FFF792FE0A20FCF727FEDFF8D1
:104B9000C48000244FF0A0096427A8F1200800BFBA
:104BA00009EB4400CDE900758DF80800012302AA45
:104BB000EC213046FDF7F2F91420FCF70FFE02233A
:104BC00001AAEC2130460097FDF7F8F8BDF8040083
:104BD00008EB440140BA08811420FCF7FFFD641C77
:104BE000E4B2072CDCD3B8F808101A4A0C0B203AB0
:104BF000C1F30B0122F8081F0020D58101464FF4B4
:104C000040554FF6FF76CB0721F0010302D0D35C6D
:104C1000584002E0D35A80EA13200823070403D542
:104C200085EA400080B201E006EA40005B1E13F016
:104C3000FF03F3D1491CC9B21029E4D3C0F30730F4
:104C4000A04202D10120BDE8FE830020FBE7000066
:104C500000A080443806002070B5054601464A2071
:104C6000FFF724FE1420FCF7B9FD29460020FFF7CA
:104C7000F9FD0B4C000AA0611420FCF7AFFD29469A
:104C80005A20FFF713FE1420FCF7A8FD2946002048
:104C9000FFF7E8FD000AE061BDE8704002F064BA89
:104CA000180600207FB50024154800940194029452
:104CB0001249039401604FF48031C0E9011404618A
:104CC000047680F820400F49C0E90A140125C56127
:104CD000C46080F830404561FCF795FA08B1FCF7F4
:104CE00073F91120CDE90005694602940448FCF7E8
:104CF000D5F9002801D0FCF767F97FBD00200140FD
:104D0000640100200100000F194808B5016841F452
:104D100000110160016801F400110091016841F483
:104D2000800101600068002200F4800000900521ED
:104D30000B20FDF7E7FB0B20FDF7D6FB002205213A
:104D40000F20FDF7DFFB0F20FDF7CEFB0022052132
:104D50003A20FDF7D7FB3A20FDF7C6FB00220521DC
:104D60004620FDF7CFFBBDE808404620FDF7BCBB61
:104D70003038024010B51F4A00211F4802F086FC5F
:104D80001E4C1C4A0021206024321D4802F07EFC8B
:104D9000184A6060483200211A4802F077FC154A30
:104DA000A0606C320021184802F070FC114AE060EB
:104DB00090320021154802F069FC0E4A2061B4329D
:104DC0000021134802F062FC0A4A6061D8320021D7
:104DD000104802F05BFC074AA061FC3200210E483B
:104DE00002F054FCE0610D4A00210D4802F04EFC37
:104DF000206210BDB48F0008594A0008000000204E
:104E000091610008354B000809560008A50B000801
:104E10003D4B0008A9520008F55C0008D49000083A
:104E2000756200082DE9F04786B014216846FBF74B
:104E3000ACFA2F480024016841F0040101600168C8
:104E400001F004010591016841F0800101600168F1
:104E500001F080010591016841F0010101600168E4
:104E600001F001010591016841F002010160006853
:104E7000DFF8808000F002004FF40055059000221A
:104E800029464046FCF7ABFDDFF86C90AE000022EF
:104E900031464846FCF7A3FD0122DFF860A0570227
:104EA00039465046FCF79BFD00950125CDE901549C
:104EB000694640460394FCF79DFCCDE900546946E1
:104EC00048460295FCF796FC0096CDE901546946E8
:104ED00048460394FCF78EFC11200097CDE90104AD
:104EE000694650460394FCF785FC06B0BDE8F087A0
:104EF0003038024000080240000002400004024036
:104F00000D4810B50B4901600C49416000214FF478
:104F100080428160C0E9031241618161C161016227
:104F2000FCF784FE002803D0BDE81040FCF74CB825
:104F300010BD000000540040AC010020801A0600A3
:104F40000D4810B50B4901600C49416000214FF438
:104F500080428160C0E9031241618161C1610162E7
:104F6000FCF764FE002803D0BDE81040FCF72CB825
:104F700010BD00000058004000020020A086010083
:104F80000D4810B50B4901600C49416000214FF4F8
:104F900080428160C0E9031241618161C1610162A7
:104FA000FCF744FE002803D0BDE81040FCF70CB825
:104FB00010BD0000005C004054020020801A060072
:104FC00010B58AB0002407941C2168460894FBF7AA
:104FD000DCF91B484FF0804101602721C0E9011432
:104FE0004CF24F31C0E903148461FEF760F808B158
:104FF000FBF7EAFF079407A911480894FDF778FD2D
:1050000008B1FBF7E1FF6020009040F6A660CDE913
:105010000104002269460A480494FDF7E2FF08B142
:10502000FBF7D2FF042269460548FDF7DAFF08B115
:10503000FBF7CAFF0248FDF753FF0AB010BD00009E
:105040000803002010B58AB0002407941C2168468C
:105050000894FBF79AF92348214901602721C0E908
:1050600001144CF24F31C0E903148461FEF71FF8BC
:1050700008B1FBF7A9FF079407A91A480894FDF7A0
:1050800037FD08B1FBF7A0FF6020009040F6A66056
:10509000CDE901040022694612480494FDF7A1FFFE
:1050A00008B1FBF791FF042269460E48FDF799FF0E
:1050B00008B1FBF789FF082269460A48FDF791FF0E
:1050C00008B1FBF781FF0C2269460648FDF789FF0E
:1050D00008B1FBF779FF0348FDF702FF0AB010BDE6
:1050E000000400405003002010B58EB00024079447
:1050F000089409940A940B941C2168460C94FBF7BD
:1051000044F91E481C49C0E900147C21C0E9024151
:1051100004618461FDF72AFD08B1FBF755FF4FF4E8
:105120008050079007A91548FDF7B6FD08B1FBF7B9
:105130004BFF1248FDF7BBFF08B1FBF745FF0B948F
:105140000BA90E480C94FDF7D3FC08B1FBF73CFF0C
:105150007020CDE9000402200290002269460494E8
:105160000648FDF73EFF08B1FBF72EFF0348FDF7A9
:10517000B7FE0EB010BD00000008004098030020EC
:1051800010B588B01C216846FBF7FFF81748164990
:10519000002401602721C0E901144CF24F31C0E91D
:1051A00003148461FDF783FF08B1FBF70DFF602056
:1051B000009040F6A660CDE90104002269460B4844
:1051C0000494FDF70EFF08B1FBF7FEFE04226946CA
:1051D0000648FDF706FF08B1FBF7F6FE0348FDF7AA
:1051E0007FFE08B010BD000000400140E003002039
:1051F0000C4810B50A4901604FF4E13141600021CB
:1052000081600C22C160C0E904128161C161FEF7B6
:1052100094FA002803D0BDE81040FBF7D5BE10BDBE
:1052200000100140880400200C4810B50A490160B4
:105230004FF4E1314160002181600C22C160C0E97E
:1052400004128161C161FEF778FA002803D0BDE83D
:105250001040FBF7B9BE10BD00140140CC04002083
:10526000FEE7000030B501F6A6620D4CA1F6A6617E
:105270000C4D4B4221682C68072806D2DFE800F06D
:10528000050406080A0C0E000A6430BDCB6330BD6D
:105290008B6330BD4B6330BDA36330BD626330BDF3
:1052A00050030020E00300202DED028B9FEDA18A2A
:1052B000F0EE480ADFEDA08AA04A0021B0EE680AAD
:1052C0009F4800F061FA9D4A9D48F0EE480AB0EE12
:1052D000680A0C320021483000F056FA974A984884
:1052E000F0EE480AB0EE680A18320021903000F063
:1052F0004BFA924A9248F0EE480AB0EE680A24321D
:105300000021D83000F040FA8C4AF0EE480AB0EEA6
:10531000680A303200218B4800F036FA874A894803
:10532000F0EE480AB0EE680A3C320021483000F046
:105330002BFA824A8348F0EE480AB0EE680A4832F7
:105340000021903000F020FA7C4A7E48F0EE480AB6
:10535000B0EE680A54320021D83000F015FA774ACE
:10536000F0EE480AB0EE680A60320021764800F09C
:105370000BFADFF8CC81744F08F1480808F1480BAC
:1053800008F1900908F5B47A08F5D8769FED6F8A90
:105390006F4D7048D0ED000A6F4890ED000A6948E3
:1053A000903000F05DF96D48F0EE480A90ED000A8B
:1053B000634800F055F96248D0ED080AB5F90200DB
:1053C00000EE100A5E48B8EEC00A483000F048F916
:1053D0006348F0EE480A90ED000A5948903000F01A
:1053E0003FF9B5F90000DBED080A00EE100A554858
:1053F000B8EEC00A483800F033F95A48F0EE480ACF
:1054000090ED000A5048B8EEC00A483800F028F97C
:105410005548F0EE480A90ED000A4B48B8EEC00A35
:1054200000F01EF996ED080AD7ED080A4F4C5048D7
:1054300070EE200AC4ED000A90ED000A414800F029
:105440000FF94048D0ED080AB5F9040000EE100A43
:105450003C48B8EEC00A483000F002F99AED080A5C
:10546000D8ED080A0120B1EE400ABDEEC00AB8EE40
:10547000C01A70EE811A99ED081A71EE811AFDEECC
:10548000E11A11EE901AF8EEC01AA16071EEE01A5E
:1054900071EE811AFDEEE11AC4ED031AF8EEC01A9E
:1054A000B8EEC00A70EEA11A30EE600A71EEC11AB1
:1054B00030EE410AFDEEE11ABDEEC00AC4ED041A59
:1054C00084ED050AFFF7CEFE0220E168FFF7CAFE71
:1054D00003202169FFF7C6FE04206169FFF7C2FEC1
:1054E00094ED010AD7ED080A0520B8EEC00A30EEA7
:1054F000800AD6ED080A30EE600ABDEEC00A10EE52
:10550000101AFFF7AFFE94ED010AD7ED080A062046
:10551000B8EEC00A30EE600AD6ED080A30EE200A76
:10552000BDEEC00A10EE101AFFF79CFE052002F037
:1055300071F82EE70000FA4200409C44F890000801
:1055400088070020A8080020C809002000000000EB
:105550008800002064000020840000206C000020EF
:10556000700000203800002034000020900000204F
:1055700074000020FEE700001CB500210C4B0A4619
:10558000002003EBC1142254401CC0B28028FAD37F
:10559000491CC9B20829F3D34FF48060CDE900302B
:1055A0000123402278210348FCF790FD1CBD000038
:1055B000100A0020540200201CB54FF48061CDE990
:1055C00000010123402278210148FCF77FFD1CBD2A
:1055D000540200201CB51D210948CDE9000101231A
:1055E000002278210748FCF771FD322001F03AFFD4
:1055F000FFF7C2FFBDE81C40322001F033BF0000BE
:10560000B0000020540200200F4C00BF94ED070AA8
:105610003021002001F0E0FF94ED080A3021022043
:1056200001F0DAFF94ED090A3021042001F0D4FFE3
:1056300094ED0D0A3021062001F0CEFF00F00EFEA1
:10564000112001F0E7FFE1E7500000200348016866
:10565000002901D0491E016070470000AC00002005
:10566000A0B1D0ED101AC0ED111A90ED0F1A80ED17
:10567000101AC0ED060A80ED070A30EEC00A80ED70
:105680000F0A017829B101293BD078E09FED3D0A4E
:105690007047D0ED010A60EE801AC0ED091AD0ED16
:1056A0000A0A90ED022A42EE000A30EE410AC0EDED
:1056B0000A0A90ED0D2A80ED0E2A90ED0C2A80ED5D
:1056C0000D2A80ED0C0A90ED031A21EE001A80EDF0
:1056D0000B1A90ED050AF4EEC00AF1EE10FA09DC9F
:1056E000B1EE400AF4EEC00AF1EE10FA02D390EDEA
:1056F0000A0A01E080ED0A0A31EE800A30EE010A62
:105700002BE070EE410A90ED012A20EE822A80ED16
:10571000092AD0ED020A60EE800AC0ED0A0AD0ED37
:105720000D2A72EE200AC0ED0E2AD0ED0C2AC0ED33
:105730000D2AF0EE002A01EE620A30EE210A80ED19
:105740000C0A90ED031A21EE000A80ED0B0A30EEF0
:10575000800AD0ED080A30EE200A80ED080AD0ED6C
:10576000040AB4EEE00AF1EE10FA06DCF1EE600A8B
:10577000B4EEE00AF1EE10FA01D2C0ED080A90EDA5
:10578000080A704700000000002828D0002A26D010
:10579000017092ED001A80ED011A92ED011A80ED70
:1057A000021A92ED021A80ED031A80ED040A9FEDB1
:1057B0000C0AC0ED050A80ED0E0A80ED0D0A80EDA1
:1057C0000C0A80ED080A80ED0B0A80ED0A0A80EDD4
:1057D000090A80ED110A80ED100A80ED0F0A70476A
:1057E0000000000070B50E48806B00684068D0F182
:1057F000800414D00B4D2878012810D180210A484C
:10580000FAF7C3FD0849224680390748FAF7A4FD94
:105810006C70FBF73DFABDE8704000F051B870BD08
:10582000880400202C000020C8060020091A00EE81
:10583000901A9FED091AF8EEE00A20EE800AC0EEF9
:10584000010A00EE100AB8EEC00A30EE800ABDEE82
:10585000C00A10EE100A70470000C84230B57F2819
:105860000FDC3F290DDC0E4B1D78CB1701EB53737A
:1058700023F00703CC1A0123A3401DB1094C02E019
:10588000017030BD084CCD1701EB5571C91004EB08
:10589000C111084401780AB11943F1E79943EFE7D0
:1058A000A8000020100A0020100E002080220249CB
:1058B000024800F0ADBC000048060020880400202B
:1058C000024803494278034800F0B2BC2C00002093
:1058D000C80600208804002010B54FF0E0200069C1
:1058E00003F0B2F9012803D0BDE8104002F0E0BE99
:1058F00010BD000030B593B030216846FAF745FD81
:1059000014210CA8FAF741FD1C480025016841F05C
:1059100080510160006800F08050119018480168C3
:1059200041F4404101600068022400F440401190BD
:1059300001200090000401908001CDE906400C2078
:1059400008906020CDE9090404200B906846FCF71C
:1059500017FF08B172B6FEE70CA90F2081E83100ED
:105960004FF48050CDE90F0503210CA8FCF7FCFD96
:10597000002801D072B6FEE713B030BD40380240B7
:10598000007000400248016841F4700101607047F6
:1059900088ED00E010B50348FDF7EEF9BDE81040D2
:1059A000FFF754BED0050020F0B502681D4B1E4C19
:1059B0009F031E4D1E4E984207D0B84205D0A0420C
:1059C00003D0A84201D0B04204D122F0700C4A6842
:1059D00042EA0C02984210D0B8420ED0A0420CD03D
:1059E000A8420AD0B04208D0124CA04205D0124CB6
:1059F000A04202D0114CA04203D122F44074CA68E4
:105A000022434C6922F08002224302608A68C2620B
:105A10000A688262984201D10969016301214161EA
:105A2000F0BD0000000001400004004000080040FC
:105A3000000C00400040014000440140004801408B
:105A400010B501F01F030121046A99408C430462E0
:105A5000016A9A401143016210BD10B5846B0121A7
:105A6000626A824205D12177C069F8B984F83E1094
:105A70001CE0A26A824206D102222277C069A8B93C
:105A800084F83F1012E0E26A824206D104222277B3
:105A9000C06958B984F8401008E0226B824205D1F1
:105AA00008222277C06908B984F841102046FDF722
:105AB00059FB0020207710BD10B5846B616A8142CC
:105AC00001D101200DE0A16A814201D1022008E04C
:105AD000E16A814201D1042003E0216B814201D1BE
