:020000040800F2
:10000000F80A0020A93B00087103000873030008E8
:10001000750300087703000879030008000000005A
:100020000000000000000000000000007B0300084A
:100030007D030008000000007F0300088103000822
:10004000C33B0008C33B0008C33B0008C33B000898
:10005000C33B0008C33B0008C33B0008C33B000888
:10006000C33B0008C33B0008C33B0008C33B000878
:10007000C33B0008C33B0008C33B0008C33B000868
:10008000C33B0008C33B0008C33B0008C33B000858
:10009000C33B0008C33B0008C33B0008C33B000848
:1000A000C33B0008C33B0008C33B0008C33B000838
:1000B000C33B000863110008C33B0008C33B0008B2
:1000C000C33B0008C33B0008C33B0008C33B000818
:1000D000C33B00082B060008C33B0008C33B0008D5
:1000E000C33B0008C33B0008C33B000800F002F814
:1000F00000F06DF80AA090E8000C82448344AAF155
:100100000107DA4501D100F062F8AFF2090EBAE852
:100110000F0013F0010F18BFFB1A43F0010318473B
:10012000CC9B0000EC9B00000A444FF0000C10F840
:10013000013B13F0070408BF10F8014B1D1108BF65
:1001400010F8015B641E05D010F8016B641E01F805
:10015000016BF9D113F0080F1EBF10F8014BAD1C55
:100160000C1B09D16D1E58BF01F801CBFAD505E073
:1001700014F8016B01F8016B6D1EF9D59142D6D3CD
:10018000704700000023002400250026103A28BFF5
:1001900078C1FBD8520728BF30C148BF0B607047F9
:1001A000662908F03A81642904F06E87782904F002
:1001B000A787002070471FB505F0BEFB0400002094
:1001C000002107F031F8E0601FBD10B510BD05F04B
:1001D000F7FC1146FFF7EFFF00F008F805F015FDFA
:1001E00003B4FFF7F2FF03BC00F0D6F986B000F0CD
:1001F00073F900F0BDF900F04DFA00F079FA4FF410
:10020000FA3000F0D3F941F61F41632000F08AFF75
:1002100000F0F6FE00F086FB01F02AF802F01BFD6C
:10022000DFF8FCB03F4C3F4A1832111F081F02F0A4
:100230005EFD01F08DF807F083FF3A4AE061921D00
:10024000911E881E01F0BBF8364A0C32911E881EA2
:1002500001F09CF83449E06907F074FE07F0DEFD18
:1002600081468A46A06907F0D9FD0746884660693D
:1002700007F0D4FD05460E46206907F0CFFD8DE856
:10028000E00702460B4629A004F0CAFE206A07F0E8
:10029000C5FD314A314B07F00FF806F0DBFF30495E
:1002A0002062884201DB2F48206207F0B7FD06F08C
:1002B00045FF00225D465B4607F0D6FA06F0CAFF0E
:1002C000012103F009FC206A07F0A8FD06F0E8FE12
:1002D00000222B4607F0C8FA06F0BCFF022103F00B
:1002E000FBFB0121206A08F0FAF8032103F0F4FB7C
:1002F000032003F018FC00211B4A607021701B4D85
:10030000131D06E016887606FCD56E5C1E80491C1F
:100310002170C9B28142F5D3322000F00BF982E797
:1003200000002440000000200000C842706974638F
:10033000683D252E32662C726F6C6C3D252E326620
:100340002C7961773D252E32662C74656D703D25C4
:100350002E32660A000000009A9999999999B93F3E
:10036000C3F54840C3F548C0003801406804002088
:100370007047FEE7FEE7FEE7FEE77047704770470D
:10038000704700000CB500214B48019100910268B4
:1003900042F4803202604FF4A063026802F400323B
:1003A0000092019A521C0192009A12B9019A9A4243
:1003B000F3D10268920333D5012100913F490A68C5
:1003C00042F010020A600A6822F003020A600A681A
:1003D00042F002020A604168416041684160416840
:1003E00041F480614160416821F47C1141604168C1
:1003F00041F4E8114160016841F0807101600168D9
:100400008901FCD5416821F003014160416841F058
:10041000020141604168C1F381010229FAD10CBD9A
:1004200000910CBD244810B5016841F00101016044
:100430004168234A114041600168224A114001602D
:10044000016821F480210160416821F4FE014160CE
:100450004FF41F018160FFF795FF1B494FF00060CB
:10046000086010BD144910B54868184A10F00C0314
:10047000174803D0042B01D0082B0AD0026049682A
:10048000134AC1F30311121D515C0268CA40026095
:1004900010BD4A684B6802F470124FF0020413F466
:1004A000803F04EB924202D04B689B0301D5094B7D
:1004B00000E0064B5A43E1E70010024000200240F2
:1004C0000000FFF8FFFFF6FE08ED00E000127A00E2
:1004D0002400002000093D0010B56FF0040003F077
:1004E000C8FB204820490068B0FBF1F0C1B21F48AA
:1004F00001EB41020170C2EBC1114FF6FF7202EA3B
:10050000C101418010BD1949097848434FF0E021ED
:10051000486100228A61086940F0010008610869A9
:10052000C30701D0C003FAD5086920F001000861B3
:100530008A6170470D49498848434FF0E02148617E
:1005400000228A61086940F0010008610869C30758
:1005500001D0C003FAD5086920F0010008618A6162
:10056000704700002400002000127A0038000020AC
:1005700008B54FF4A06003F037FB1D208DF8000094
:1005800001208DF801008DF802008DF80300684607
:1005900003F02FFB08BD000070473A490A88520655
:1005A000FCD5384AC1B2121D1180704730B50446DF
:1005B00085B0012144F2050003F0AFFD4FF4007057
:1005C000ADF8100003208DF8120018202E4D8DF884
:1005D000130004A9284603F0B6FB2815ADF8100057
:1005E00004208DF8130004A9284603F0ACFB00207A
:1005F000ADF804000094ADF80600ADF80800ADF8C1
:100600000C000C201F4CADF80A006946204604F08F
:100610007DFB012240F22551204604F0F4FB01212C
:10062000204604F0E6FB05B030BD70B5154C40F235
:100630002551204604F09EFC00280ED0204604F0F0
:1006400032FCC2B2114801780B0606D44C064FF0BA
:10065000000306D50A2A01D0037070BD41F0800165
:100660000DE00D2A09D001F03F04094D491CC9B223
:100670002A5501703F29EFD870BD41F0400101704B
:1006800070BD000000380140000801403C0000201F
:100690001804002008B50121102003F03EFD4FF49E
:1006A0008040ADF8000010208DF8030003208DF885
:1006B000020069460B4803F046FB08BD10B50A4A24
:1006C000002360B109490C68641C0C60844205D1A8
:1006D000D2F8B801C043C2F8B8010B6010BDC2F82F
:1006E000B83110BD0010014000002242440000203B
:1006F00008B50121102003F010FD4FF40040ADF8C3
:10070000000048208DF8030069460B4803F01BFBEE
:1007100008BD0A480A49027812B1D1F83C2132B129
:10072000D1F83C11012901D101700020704700214E
:1007300001700120704700000010014048000020B7
:100740000000224270B5F94D4FF4807421462846CE
:1007500003F067FB66003146284603F062FB314632
:10076000284603F060FB21462846BDE8704003F0B0
:100770005ABB70B5ED4C4FF48071204603F051FB2D
:1007800065152946204603F04EFB29462046BDE864
:10079000704003F046BB70B5E44D4FF480742146C1
:1007A000284603F03EFB21462846BDE8704003F092
:1007B0003ABB2DE9F041DD4F04464FF480763146D7
:1007C000384603F030FB00254FF4007804F0800039
:1007D00080284146384611D003F025FB6006040E00
:1007E0003146384603F01DFB3146384603F01BFB0B
:1007F0006D1CEDB2082DE9D3BDE8F08103F011FBCB
:10080000ECE710B50446FFF79DFF7820FFF7D1FF16
:10081000FFF7C1FF0020FFF7CCFFFFF7BCFF20462A
:10082000FFF7C7FFFFF7B7FFBDE81040A1E710B51E
:100830000446FFF787FF7820FFF7BBFFFFF7ABFF0A
:100840004020FFF7B6FFFFF7A6FF2046FFF7B1FFF6
:10085000FFF7A1FFBDE810408BE7C0B201B1E6E7AA
:10086000CFE770B506460024002104F1B000FFF781
:10087000F4FF00210846FFF7F0FF00211020FFF7EA
:10088000ECFF002501213046FFF7E7FF6D1CEDB2BC
:10089000802DF7D3641CE4B2082CE5D370BD00288A
:1008A00006D041F663021146491EFDD1401EFAD121
:1008B000704704E00021491CC9B27B29FBD3401ECC
:1008C000F8D2704710B50A460446002102F1B00084
:1008D000FFF7C3FF102040EA14100021FFF7BDFF0F
:1008E00004F00F00BDE810400021B6E710B500216C
:1008F0008D20FFF7B2FF00211420FFF7AEFF00218B
:10090000BDE81040AF20A8E710B500218D20FFF70B
:10091000A4FF00211020FFF7A0FF0021BDE8104038
:10092000AE209AE770B50024002104F1B000FFF773
:1009300094FF00210846FFF790FF00211020FFF7E9
:100940008CFF002501210020FFF787FF6D1CEDB211
:10095000802DF7D3641CE4B2082CE5D370BD70B5CC
:100960000024002104F1B000FFF777FF00210846C2
:10097000FFF773FF00211020FFF76FFF0025012113
:100980000846FFF76AFF6D1CEDB2802DF7D3641C9B
:10099000E4B2082CE5D370BD2DE9F041203A0024E3
:1009A0000D468046D6B27F2803D900208D1C804694
:1009B000EDB2102B29460FD0FFF784FF5C4906EB00
:1009C000460001EB40050121285DFFF746FF641C4E
:1009D000E4B2062CF7D30FE7FFF774FF554F00BFC3
:1009E00004EB06100121385CFFF737FF641CE4B20A
:1009F000082CF5D36D1CE9B24046FFF763FF0024D5
:100A000004EB061038440121007AFFF726FF641C2E
:100A1000E4B2082CF4D3EFE60246012000E0504394
:100A2000491EC9B2FBD270472DE9F05F0026DDF800
:100A300028901D4692468B46804634464FEA590719
:100A400023E0281B401EC1B20A20FFF7E5FFBAFBD6
:100A5000F0F00A21B0FBF1F201FB120026B9691E89
:100A60008C4201DA38B101263030C2B207FB048073
:100A7000C0B24B4604E007FB0480C0B24B462022C4
:100A80005946FFF789FF641CE4B2AC42D9D3BDE8F4
:100A9000F09F2DE9F0411F4615460E4604460CE036
:100AA0003B4631462046FFF777FF0834E4B2782C06
:100AB00002D90024B61CF6B26D1C2A78002AEFD1A8
:100AC0009AE62DE9F04115460E460746FFF7FAFE75
:100AD0001948002400EB85150121285DFFF7BDFEB4
:100AE000641CE4B2102CF7D3761CF1B23846FFF741
:100AF000E9FE00242819012190F82000FFF7ADFE3F
:100B0000641CE4B2102CF5D376E62DE9F047984644
:100B10001746824600260C46DDF820901AE0214652
:100B20005046FFF7CFFE554610E00000000C014094
:100B30005A850008828700084900002019F806003D
:100B40000121761CFFF789FE6D1CEDB2BD42F5D385
:100B5000641CE4B24445E2D3BDE8F0872DE9FF5FB1
:100B6000002084B01F461446012681460090019063
:100B7000024603460290DDF848B0B04620463946AA
:100B800006F036FE204602D287F0004100E03946EA
:100B900006F0A6FD054606F000FE22463B4606F09E
:100BA00061FF0022FE4B06F05FFE06F0C9FD014624
:100BB0000A2005E008EB8802761C4FEA4208F6B2EC
:100BC00095FBF0F393FBF8F2002AF3D142F2107296
:100BD00095FBF2F292FBF0F300FB13228DF800205C
:100BE0004FF47A7295FBF2F393FBF0FC00FB1C339D
:100BF0008DF80130642395FBF3FC9CFBF0F800FBBF
:100C000018CC8DF802C095FBF0FC9CFBF0F800FBC3
:100C100018CC8DF803C095FBF0FCB1FBF2F200FBA1
:100C20001C558DF80450B2FBF0F500FB15224FF077
:100C30002E0A8DF805A08DF80620B1FBF3F2B2FB69
:100C4000F0F300FB13228DF80720B1FBF0F2B2FBAA
:100C5000F0F300FB13228DF80820B1FBF0F200FB4B
:100C600012108DF809000DEB0B086D4688F8069000
:100C70000020295C30312954401C0A28F9DB00226D
:100C800013462046394606F0B3FD05D2761CF6B26F
:100C9000C6F105012D2068548DF805A0C6F10500A8
:100CA00088F806904219DDE904100C23FFF7F1FEE5
:100CB00008B0ECE62DE9FF5F84B04FF00008C806ED
:100CC000DDE912BA4FEA106916461F46CDF80080DA
:100CD000CDF80480012510461946CDF8088006F0AD
:100CE000FFFC044606F070FD32463B4606F0BAFEB5
:100CF0000022AB4B06F0B8FD06F022FD01460A20AB
:100D000003E000BF05EB85025500B4FBF0F2AA42F8
:100D1000F8D242F21072B4FBF2F2B2FBF0F300FB35
:100D200013228DF800204FF47A72B4FBF2F3B3FB78
:100D3000F0F500FB15338DF801306425B4FBF5F3B5
:100D4000B3FBF0F600FB16338DF80230B4FBF0F382
:100D5000B3FBF0F4B1FBF2F200FB1433B2FBF0F49E
:100D60008DF803302E2300FB14228DF805308DF80A
:100D70000620B1FBF5F2B2FBF0F400FB14228DF873
:100D80000720B1FBF0F2B2FBF0F400FB14228DF867
:100D90000820B1FBF0F200FB12108DF809000DEBFA
:100DA0000A054246684685F806800021445C3034D6
:100DB0004454491C0A29F9DB8DF80530AA71CBF19E
:100DC00005010A180C2348460499FFF762FE6FE7F5
:100DD00070B500EB4000400615460024000EFFF7FA
:100DE00071FD704905EB450001EB40052819012113
:100DF00090F86000FFF731FD641C062CF6DB70BD37
:100E000070B500EB4000400615460024000EFFF7C9
:100E100059FD644905EB450001EB40050121285DC2
:100E2000FFF71BFD641C062CF8DB70BD2DE9F041BB
:100E3000884664230A21451C841C002A0EDA52428B
:100E400092FBF3F603FB162393FBF1F3DEB292FB66
:100E5000F1F301FB1321CFB20D220CE092FBF3F66C
:100E600003FB162393FBF1F3DEB292FBF1F301FBDC
:100E70001321CFB20B224146FFF7C2FFE8B2324640
:100E80004146FFF7A5FFE0B23A464146BDE8F041D2
:100E90009EE72DE9F0478A4617004FF00A084FF009
:100EA000640900F1030600F1020500F1010402D516
:100EB00057420D2200E00B22FFF7A2FF404697FBAE
:100EC000F0F108FB1171CAB297FBF0F191FBF8F356
:100ED00008FB131000F0FF0897FBF9F0C7B2F0B25F
:100EE0005146FFF775FFE8B242465146FFF770FFE3
:100EF000E0B23A465146BDE8F04769E72DE9F041D6
:100F000088460446130000D553424FF47A7093FB91
:100F1000F0F1CAB293FBF0F100FB1131642091FBB8
:100F2000F0F1CEB293FBF0F100FB11310A2091FBFE
:100F3000F0F1CDB293FBF0F100FB1130C7B24146A6
:100F40002046FFF745FF601CC0B232464146FFF71E
:100F50003FFFA01CC0B22A464146FFF739FFE41C00
:100F6000E0B23A464146BDE8F04131E72DE9F047AD
:100F7000894642F210710446B2FBF1F3B2FBF1F084
:100F800001FB13234FF47A71B3FBF1F303F0FF0875
:100F9000B2FBF1F301FB1323C0B2642104E00000B3
:100FA0000088C3405A850008B3FBF1F3DEB2B2FB00
:100FB000F1F301FB13230A21B3FBF1F5B2FBF1F3CB
:100FC00001FB1327024649462046FFF701FF601C3C
:100FD000C0B242464946FFF7FBFEA01CC0B23246F3
:100FE0004946FFF7F5FEE01CC0B22A464946FFF726
:100FF000EFFE241DE0B23A464946BDE8F047E7E679
:1010000038B50121092003F088F80121434802F096
:1010100029FF4FF44074ADF8004010208DF8030014
:1010200003203F4D8DF802006946284602F08BFEF2
:101030002146284602F0F5FE4FF44870FFF77AFA91
:101040000021AE20FFF709FC00210846FFF705FC50
:1010500000211020FFF701FC00214020FFF7FDFBDD
:101060000021B020FFF7F9FB00218120FFF7F5FBFD
:101070000021FF20FFF7F1FB0021A120FFF7EDFB8E
:101080000021A620FFF7E9FB0021A820FFF7E5FBE0
:1010900000213F20FFF7E1FB0021C820FFF7DDFB27
:1010A0000021D320FFF7D9FB00210846FFF7D5FB2D
:1010B0000021D520FFF7D1FB00218020FFF7CDFBD9
:1010C0000021D820FFF7C9FB00210520FFF7C5FB51
:1010D0000021D920FFF7C1FB0021F120FFF7BDFB64
:1010E0000021DA20FFF7B9FB00211220FFF7B5FB42
:1010F0000021DB20FFF7B1FB00213020FFF7ADFB23
:1011000000218D20FFF7A9FB00211420FFF7A5FB8C
:101110000021AF20FFF7A1FB38BD00000002300026
:10112000000C01403EB50C4605460121022002F0AC
:10113000FDFFADF800400020ADF80450124CADF8B2
:101140000600ADF802006946204603F0CDF8012202
:101150001146204603F086FB0121204603F06DFB7B
:101160003EBD10B5084C0121204603F090FD00283B
:1011700009D00121204603F096FD0448D0F8B811AB
:10118000C943C0F8B81110BD00040040000022425D
:1011900070B50C46054600F071F9D02000F006FA53
:1011A00000F0A5F950B9284600F000FA00F09FF9C8
:1011B000204600F0FBF900F09AF918B100F07AF936
:1011C000012070BD00F076F9002070BDBC2801D36D
:1011D000012110E0622801D302210CE02A2801D36A
:1011E000032108E0142801D3042104E00A2801D3D4
:1011F000052100E006211A20CAE710B504464FF485
:101200007A70844201D9044602E0042C00D20424FE
:10121000B0FBF4F0401EC1B21920FFF7B9FF60081F
:10122000BDE81040D2E710B5044600F027F9D02001
:1012300000F0BCF900F05BF9204600F0B7F900F0CF
:1012400056F900F01BF9D12000F0B0F900F04FF989
:10125000002000F0D3F9044600F02CF9204610BD20
:10126000C006010E1C2093E7C006010E1B208FE76D
:1012700010B500F0F0F880216B20FFF789FF6420A3
:10128000FFF758F900216B20FFF782FF0320FFF7DB
:10129000EBFF0020FFF7E4FFC820FFF7AEFF0021BF
:1012A0003820FFF775FF00216A20FFF771FF00214A
:1012B0002320FFF76DFF80213720FFF769FF75209E
:1012C000FFF7B1FF682801D0012010BD01216B207C
:1012D000FFF75EFF00216C20FFF75AFFC820FFF7E1
:1012E0008CFF002010BD2DE9F0411D4614460F462D
:1012F000064600F0C3F87006000E00F057F900F043
:10130000F6F820B100F0D6F80120BDE8F0813846AB
:1013100000F04CF900F0EBF800F0B0F8012000EB21
:101320004600C0B200F042F900F0E1F808E0012CFC
:101330000CD0012000F062F9641E05F8010BE4B244
:10134000002CF4D100F0B6F80020DEE70020F1E731
:1013500008B56B46022241216820FFF7C4FFBDF8A3
:10136000000040BA00B206F018FA0022344B06F032
:101370005FF8344A344B05F09FFF05F06BFF3349AB
:1013800006F00AFF06F0A0FE00B208BD7CB51446C8
:101390000D4606466B46062243216820FFF7A3FF51
:1013A00000280BD1BDF8001049BA3180BDF80210F9
:1013B00049BA2980BDF8041049BA21807CBD7CB5AA
:1013C00014460D4606466B4606223B216820FFF771
:1013D0008AFF00280BD1BDF8001049BA3180BDF852
:1013E000021049BA2980BDF8041049BA21807CBD99
:1013F0002DE9F0411E4615460F46044600F03EF822
:101400006006000E00F0D2F800F071F860B93846BE
:1014100000F0CCF800F06BF800240BE0305D00F039
:10142000C5F800F064F818B100F044F801206CE74A
:10143000641CE4B2AC42F1D300F03CF8002064E755
:1014400000407540A4703D0AD74342400000C842A6
:101450000220FFF758B808B50121082002F05DFE10
:101460001820ADF8000010208DF8030003208DF83F
:10147000020069467A4802F066FC08BD70B57848FB
:10148000016821F470410160016841F4405101603C
:10149000744C0120C4F88C01C4F89001022004F5BA
:1014A000C674FFF730F8002525600220FFF72BF8FF
:1014B000656070BD6A4810B5016821F47041016033
:1014C000016841F440510160664C0020C4F890016D
:1014D000C4F88C01022004F5C674FFF714F801204B
:1014E00060602060BDE810400220FFF70CB870B5C6
:1014F0005B480024016821F470410160016841F4F7
:1015000000410160574D0126C5F88C610220FEF7AD
:10151000FAFFC5F890610220FEF7F5FF07E0641CB2
:10152000E4B2FA2C03D9FFF7C5FF012070BDD5F84E
:101530000C010028F3D1C5F8900170BD70B5494C7D
:101540000025C4F890514648016821F470410160BB
:10155000016841F440510160C4F88C51022004F547
:10156000C674FEF7D0FF012060600220FEF7CBFFBB
:10157000656070BD70B53B4C0025C4F8905138488B
:10158000016821F470410160016841F4405101603B
:101590000126C4F88C61022004F5C674FEF7B3FF7F
:1015A00066600220FEF7AFFF656070BD2DE9F04177
:1015B00006462B48016821F470410160016841F43E
:1015C00040510160274C0027C4F890713D464FF010
:1015D0000108F009C4F88C017006060EC4F8908169
:1015E0000220FEF790FFC4F890710220FEF78BFFF7
:1015F0006D1CEDB2082DECD3BDE8F0812DE9F0476C
:10160000814617480024016821F470410160016897
:1016100041F400410160134E254627464FF0010872
:10162000C6F890710220FEF76EFFC6F89081600642
:10163000040ED6F80C0108B1641CE4B20220FEF7D7
:1016400062FF6D1CEDB2082DEAD3B9F1000F04D092
:10165000FFF774FF2046BDE8F087FFF78BFFF9E73F
:10166000000C014000802142F8B5FF4C01462246A3
:1016700094F82460D2E9000200235D1E56B179B1CE
:10168000022111E0C17B10786B460122FFF7B0FE0A
:1016900068B90EE0A67A56B111B1617C61B902E079
:1016A0008DF80030EEE701218DF80010EAE72846BA
:1016B000F8BD9DF8000060740020F8BD38B5002426
:1016C000E94D18E02968CA7AA24212D0497DA142A8
:1016D0000FD000786B4601222146FFF704FE10B1BF
:1016E0004FF0FF3038BD9DF800202146DFA003F009
:1016F00097FC641CE4B268680179A142E2D800203A
:1017000038BD0B46D84930B40A684FF0FF34D57A5B
:10171000854206D0527D824203D049680A798242CE
:1017200002D8204630BC70470C780146204630BCB9
:101730000122FFF7D8BD38B5CB4C054694F82300FD
:10174000A84201D1002038BD0DB1302000E00020BA
:101750008DF80000A07C28B19DF8000040F0020048
:101760008DF8000094F8220028B19DF8000040F0A8
:1017700080008DF8000020686B460122017D6068C2
:101780000078FFF735FE10B14FF0FF3038BD84F818
:101790002350D7E7F8B5054610F0700F4FF000065C
:1017A00001D0012004E015B18DF8006002E0402076
:1017B0008DF80000AC4C6B4601222068817C60688B
:1017C0000078FFF715FE4FF0FF3760BB9DF8000073
:1017D00020F0400020738DF80060680602D40420D9
:1017E0008DF80000A80605D49DF8000040F0020026
:1017F0008DF80000E80605D49DF8000040F00100D7
:101800008DF80000280705D49DF8000040F038004E
:101810008DF8000020686B460122C17C606800786A
:10182000FFF7E6FD10B1A6723846F8BD25B1082DC8
:1018300002D00020FFF77FFFA57226753220FEF749
:1018400079FE0020F8BDF8B5874C0546A07CA8427B
:1018500001D10020F8BD84484FF0FF366B46D0E937
:1018600000104FF001020979007835B3FFF73BFD16
:10187000D8BB9DF800006B4620F020008DF80000DA
:1018800020680122017960680078FFF7B1FD60BB34
:101890000320FEF74FFE02208DF8000094F822008E
:1018A00070B382202AE020686B460122017D6068C7
:1018B0000078FFF79DFDC0B92DE0FFF714FDA0B93A
:1018C000A07AC0079DF8000002D040F0200001E09F
:1018D00020F020008DF8000020686B46012201797D
:1018E00060680078FFF784FD08B13046F8BD03203A
:1018F000FEF720FE94F8220000B180208DF8000051
:1019000094F823000028CED09DF8000040F030006D
:101910008DF80000C7E7A5749BE7F8B5524C4FF06F
:10192000FF36A07A00287CD000258DF80050206872
:101930006B460122C17B60680078FFF759FD0028E3
:101940006FD120686B460122417960680078FFF70B
:101950004FFD002865D120686B460122017960683F
:101960000078FFF745FD00285BD194F82400E0B330
:101970000C208DF8000020686B4601220179606818
:101980000078FFF735FD00287DD13220FEF7D2FD2B
:10199000C0208DF80000A07AC00702D0E0208DF8AA
:1019A000000020686B460122017960680078FFF72B
:1019B0001FFD002867D1607C18B102208DF800005F
:1019C00001E08DF8005020686B460122C17B606801
:1019D0000078FFF70DFD20BB8DF8005020686B46A6
:1019E00001224179606800783DE0FFE704208DF82E
:1019F000000020686B460122017960680078FFF7DB
:101A0000F7FC70B9A07C88B9A07AC0070ED060201E
:101A10008DF8000020686B4601220179606800782B
:101A200000E02BE0FFF7E4FC40BB01E04020EFE7E3
:101A30003220FEF77FFD607C18B101208DF8000098
:101A400001E08DF8005020686B460122C17B606880
:101A50000078FFF7CDFC88B92068034B41796068B6
:101A60001033012200780AE0CC03002025233578CA
:101A70003A20252335780D0A0000000003E0FFF727
:101A8000B7FC002800D03046F8BD2DE9F041002514
:101A900020F00101FE4C94F8240010B10020BDE8B4
:101AA000F081A07A4FF0FF3668B10840277C20749F
:101AB000884200D0354641B10120FFF7D5FDFFF740
:101AC0002CFF38B127743046E9E7207D00B10120B2
:101AD000FFF7CAFD2846E2E738B5ED4C4FF0FF3579
:101AE000A17A31B3BC2801D3012010E0622801D3D0
:101AF00002200CE02A2801D3032008E0142801D397
:101B0000042004E00A2801D3052000E006208DF817
:101B10000000E07A9DF80010884201D1002038BD15
:101B200020686B460122817860680078FFF760FCCE
:101B300008B1284638BD9DF80000E072EEE72DE9B7
:101B4000F84305464FF0FF39282844D80727D04CE2
:101B500000267DB10120FFF7EEFD20208DF800006A
:101B60004FF00108012D17D0052D18D88DF80180F0
:101B700005201FE00020FFF7DEFD8DF800608DF8E6
:101B8000017020686B460222817C60680078FFF754
:101B90002FFC00BB267529E08DF80160E8E7142DC5
:101BA00004D802208DF801000A2003E003208DF8FC
:101BB00001001420FFF790FF9DF801006B4607EB32
:101BC00080108DF8010020680222817C6068007816
:101BD000FFF70EFC10B14846BDE8F8830820A0725C
:101BE000267384F814800020FFF74FFF0020F3E7EE
:101BF000F8B5A74D04464FF0FF37A87A48B395F8DB
:101C0000240030BB287D4FF47A7648B164B1282C8B
:101C100003D8E0B2FFF793FF26E00020FFF78FFF25
:101C2000042C05D2042406E00020FFF788FFF9E722
:101C3000B44200D93446B6FBF4F0401E8DF80000E3
:101C400028686B460122417868680078FFF7D0FB6E
:101C500008B13846F8BD9DF80000401CB6FBF0F016
:101C6000E8814008FFF738FF0020F8BD38B5884C00
:101C70004FF0FF35A17A19B3022806D0042806D008
:101C800008280ED010281BD10DE0002000E008200D
:101C90008DF80000607A9DF80010B0EBD10F04D0F1
:101CA00005E01020F4E71820F2E7002038BD206896
:101CB0006B460122C17960680078FFF799FB08B193
:101CC000284638BD9DF80000C0086072EDE738B5C1
:101CD0006F4C4FF0FF35A17A31B3FA2809D0B0F537
:101CE000FA7F08D0B0F57A7F0FD0B0F5FA6F1BD12C
:101CF0000DE0002000E008208DF80000207A9DF81B
:101D00000010B0EBD10F04D005E01020F4E718204C
:101D1000F2E7002038BD20686B46012281796068B7
:101D20000078FFF765FB08B1284638BD9DF8000034
:101D3000C0082072EDE72DE9FC41554C80208DF85C
:101D4000000020686B460122817C60680078FFF704
:101D50004FFB4FF0FF37002832D16420FEF7EAFB3B
:101D600000258DF8005020686B460122817C606858
:101D70000078FFF73DFB002870D120686B460622F3
:101D8000817D60680078FFF7AEFA002866D19DF883
:101D900005009DF80310C007400F01F0010140EA63
:101DA00041019DF801004FF0010600F001000143E0
:101DB00009D0012905D0022915D036A003F030F949
:101DC0004CE0E67410E020686B460122C178606840
:101DD0000078FFF788FA40BB9DF8000010F00F0074
:101DE00020D0042822D0E574FF2004F80A0F4FF613
:101DF000FF7104F8020C04F8010C6070A180A0715E
:101E00002072A67026766576E572A572E56025617A
:101E10006561A576E576A5834FF4FA60FFF757FF75
:101E200018B907E0254803F0FBF817E024A003F0F9
:101E3000F7F8C6E70220FFF719FF78B92A20FFF765
:101E40004BFE58B93220FFF7D3FE38B90020FFF718
:101E50001CFE18B90020FFF7F6FC10B13846BDE8AB
:101E6000FC810020FFF796FC0020F8E770477CB566
:101E7000044607484FF0FF35817A11F0700F32D0D9
:101E8000016840686B46097B0078062228E0000064
:101E9000CC030020556E737570706F72746564208A
:101EA000736F6674776172652070726F64756374A6
:101EB000207265762025642E0A0000009C9C000894
:101EC00048616C662073656E7369746976697479AC
:101ED000207061727420666F756E642E0A000000B7
:101EE000FFF701FA08B128467CBDBDF8000040BAF2
:101EF0002080BDF8020040BA6080BDF8040040BAFE
:101F0000A08000207CBD7CB50446FE484FF0FF3524
:101F1000817A090708D5016840686B46497B0078DB
:101F20000622FFF7E0F908B128467CBDBDF80000A5
:101F300040BA2080BDF8020040BA6080BDF80400BD
:101F400040BAA08000207CBDF8B5EE4C06464FF0AC
:101F5000FF35A07A40B120686B460222817B606821
:101F60000078FFF7C0F908B12846F8BDBDF80000B9
:101F7000646840BA05B2E08806F0FAF80746B4F99A
:101F8000080006F0DDF80446284606F0D9F8214698
:101F900006F0CEF9394605F0D5FFDB4905F06AFFBA
:101FA000102106F09CFA06F08FF830600020F8BD92
:101FB0002DE9FC4104004FF0FF3862D0206820B9C1
:101FC000606810B9A06800285CD0CE4D03226B4633
:101FD000686811460078FFF786F9E0BB9DF80010AD
:101FE000082000EB111101F00F029DF801109DF87F
:101FF000023000EB111100EB1310236840325B003C
:1020000093FBF2F217B2626801F00F015200403107
:1020100092FBF1F10EB2A16800F00F0049004030D0
:1020200091FBF0F004B2686806226B460078114616
:10203000FFF759F978B9BDF80000BDF8021040BAB1
:10204000BDF80420384449BA52BA030A3144224444
:102050008DF8003000E014E08DF80100080A8DF8DA
:102060000200100A8DF804008DF803108DF8052089
:10207000686806226B4600781146FFF7B9F9002818
:1020800000D04046EBE69F49097A39B1012907D0D3
:1020900002290AD003290BD0002103E0FA2101E034
:1020A0004FF4FA710180002070474FF47A71F9E71C
:1020B0004FF4FA61F6E793494A7A42B1012A08D00F
:1020C000022A0FD0032A0FD04FF0FF3070470222B0
:1020D00000E004220270C97C11B11106C90D017023
:1020E000002070470822F5E71022F3E78549C97AF6
:1020F000072913D2DFE801F01204060A0C0E1000C3
:10210000BC2100E062210180002070472A21FAE70B
:102110001421F8E70A21F6E70521F4E70021F2E7A8
:10212000784991F8242012B14FF0FF307047C989E7
:1021300001800020704700210180481E70474FF049
:10214000FF3070476F49097A41B1012908D002294F
:102150000AD003290AD04FF0FF3070476B4900E0E6
:102160006B490160002070476A49FAE76A49F8E75D
:1021700064494A7A42B1012A09D0022A11D0032ABD
:1021800012D04FF0FF3070474FF4804201E041F62B
:102190009C720280C97C11B1C2F34E010180002003
:1021A00070474FF48052F4E74FF40062F1E755496D
:1021B000097C0170002070475249897A01B10121E0
:1021C00001700020704738B54E4A04464FF0FF3585
:1021D000907A40B110686B46017C5068022200780A
:1021E000FFF781F808B1284638BDBDF8000040BAB5
:1021F0002080002038BD2DE9FE4F814641488846A9
:10220000002490F824101E4625464FF0FF3BC9BB22
:1022100000213170817AA9B3017C99B34A0600D5B7
:1022200002248A0600D5A41CCA0600D5A41C0907EE
:1022300000D5A41D016882464068897A6B46007803
:102240000222FFF750F8E8B9BDF8000047BAA742EC
:1022500064D3DAF804004188B7EB510F13D9DAF8E8
:10226000001000786B46497C0122FFF73CF848B922
:102270009DF80000C00606D5FFF74FFB6FF0010088
:10228000BDE8FE8F0AE0DAF80010DAF804006B46C9
:10229000C97A00782246FFF726F808B15846EFE7DA
:1022A000B7FBF4F00C99401E087000203070ACB3FE
:1022B0009AF8101050460A07694613D5BDF8002059
:1022C000062552BAA8F80020BDF8022052BAA8F894
:1022D0000220BDF8042052BAA8F80420327842F057
:1022E00008023270A5420CD0027C520609D54A1968
:1022F000AD1C128852BAA9F80020327842F0400290
:1023000032700CE0CC03002000000C4200000343BC
:102310000000834233330342333383411DE0A5423F
:102320000CD0027C920609D54A19AD1C128852BA0B
:10233000A9F80220327842F020023270A5420CD077
:102340009AF81000C00608D54819008840BAA9F8C4
:102350000400307840F010003070002090E72DE944
:10236000F843FB4C0646174694F8240089464FF084
:10237000FF3888B3A07A78B320686B460222817A4E
:1023800060680078FEF7AFFF30BBBDF8000045BACB
:10239000B54202D2002038701EE060684188B5EB7B
:1023A000510F10D9216800786B46497C0122FEF755
:1023B0009AFF88B99DF80000C00604D5FFF7ADFA72
:1023C0006FF0010008E42068F2B24B46C17A606801
:1023D0000078FEF788FF08B1404608E4B5FBF6F048
:1023E000401E38700020EDE7D94981F82200002016
:1023F00070472DE9FE4F05460120D54E8DF80000AF
:102400004FF000088DF8018030680C461746817C3B
:1024100070686B4602220078FEF7EAFF4FF0FF3A41
:1024200000287AD1C820FEF785F88DF80080306842
:102430006B460122C17B70680078FEF7D9FF002847
:10244000EFD130686B460122417970680078FEF761
:10245000CFFF0028E5D130686B460122817C70688F
:102460000078FEF7C5FF0028DBD130686B460122FB
:10247000C17D70680078FEF7BBFF0028D1D13068BD
:102480006B460122017970680078FEF7B1FF0028E1
:10249000C7D14FF00C098DF8009030686B460122CF
:1024A000017970680078FEF7A3FF002835D10F206E
:1024B000FEF740F8B06A6B460122407A8DF80000C2
:1024C0003068817870680078FEF792FF002824D188
:1024D000B06A6B460122007A8DF8000030684178BE
:1024E00070680078FEF784FF002874D1B06A807AA3
:1024F0000FB140F0E0008DF8000030686B4601221B
:10250000817970680078FEF773FF002863D12FB1DE
:10251000B06AC07A40F0E00001E049E018208DF890
:10252000000030686B460122C17970680078FEF7C0
:102530005FFFE8BB17B1C820FDF7FCFF40208DF816
:10254000000030686B460122017970680078FEF760
:102550004FFF68BB78208DF8000030686B46012281
:10256000417970680078FEF743FF08BB3220FDF721
:10257000E1FF8DF80080306847466B46417970680E
:1025800001220078FEF734FF90B931687068B046D8
:10259000897A00786B460222FEF7A5FE40B9BDF8A5
:1025A0000000AF6040BAB0FBF9F0C6B26F6000E067
:1025B00011E02F60A76067602760002739E000BF47
:1025C000D8F80010D8F804006B46C97A00780C22BD
:1025D000FEF789FE08B1504652E6BDF800002368B8
:1025E00040BA02B2BDF80200BDF804101A442260DD
:1025F00040BA626800B21044606049BAA06809B28B
:102600000844A060BDF806002B6840BA02B2BDF8CD
:1026100008001A4440BA01B2BDF80A002A606A688C
:1026200040BA11446960A96800B208447F1CFFB237
:10263000A860B742C4D328688322C117090441EABD
:1026400010410004002302F0C6FC3246002302F0D1
:10265000C2FC286068688322C117090441EA10415E
:102660000004002302F0B7FC3246002302F0B3FC62
:102670006860A8688322C117090441EA1041000478
:10268000002302F0A8FC3246002302F0A4FCA8605C
:1026900020684FF40065C117090441EA10410004A5
:1026A0002A46002302F097FC3246002302F093FCF6
:1026B000206060682A46C117090441EA10410004FD
:1026C000002302F088FC3246002302F084FC6060A4
:1026D000A0682A46C117090441EA104100040023FA
:1026E00002F079FC3246002302F075FCA06000285D
:1026F00002DDA0F5803001E000F58030A060002010
:10270000BEE538B5124C94F8241081421ED0002545
:1027100018B394F82500E8B10020FEF7A5FF0020CB
:10272000FFF791F8E08CFFF763FA8DF800506068CE
:102730006B46012200782321FEF75AFE012084F81F
:102740002400FEF791FF00BFFFF7E7F8002038BD37
:10275000CC0300204FF0FF30F9E70020FEF784FFA4
:10276000207C8DF8000060686B46012200782321F0
:10277000FEF73EFE84F82450E6E72DE9F047FA4CD8
:1027800082468AB094F824000F4620B10020FFF75B
:10279000B8FF012600E0002607A8FFF774FC06A892
:1027A000FFF789FC09A8FFF7A1FC08A8FFF7B8FC10
:1027B00094F80A9094F8108000250022394650467B
:1027C000FFF717FE10B16D1C022DF6DB022D1AD09B
:1027D0000025012203A96846FFF70BFE10B16D1C0E
:1027E000022DF6DB022D0ED003A9384600F04AFB7D
:1027F000C7B26946504600F07DFB10F0FF0F4FF066
:10280000000502D002E0002503E001250FB945F0E4
:102810000205FF2020726072E0724FF6FF71E181C5
:10282000A072207401202073BDF81C00FFF74FFA3E
:102830009DF81800FFF71AFABDF82400FFF74CF9CD
:10284000BDF82000FFF7D4F94846FEF7A3FF404645
:10285000FFF71BF916B10120FFF753FF0AB0284616
:10286000BDE8F087F8B516000D464FF0FF371FD0D2
:10287000BD4CA17AE1B1010A8DF80010C0B28DF80B
:102880000100411960684289914211D8216800789D
:102890006B46097E0222FEF7ABFD48B92068EAB21A
:1028A0003346417D60680078FEF7A2FD002800D025
:1028B0003846F8BDF8B516000D464FF0FF371FD06B
:1028C000A94CA17AE1B1010A8DF80010C0B28DF8CF
:1028D0000100411960684289914211D8216800784D
:1028E0006B46097E0222FEF783FD48B92068EAB2F2
:1028F0003346417D60680078FEF7F5FC002800D083
:102900003846F8BD2DE9FF4FDFF85C82064685B0FA
:1029100098F8250015460F464FF0FF39B0BBAFB30E
:10292000002420E0301B102800DD102080B28346F8
:102930003A19014692462046FFF794FF30BB6A469B
:1029400059462046FFF7B6FF00BB50465A46694637
:1029500002F09EFC20B16FF0010009B0BDE8F08FDD
:1029600004EB0B0084B2B442DCD3280A8DF81000CB
:102970008DF81150D8F80000444604AB817ED8F899
:10298000040002220078FEF733FD08B14846E4E770
:10299000012084F825000898E0840020DDE77249D2
:1029A00091F824100170002070474FF0FF307047FD
:1029B0004FF0FF3070474FF0FF3070472DE9F84F70
:1029C000694C0F4604F1160115004FF0FF3B8A4693
:1029D0004FF000094FF0010877D0B0F5FF5F01D943
:1029E000FF2605E0202801D2012601E0C0F34716AA
:1029F00007B90127282D6AD8607DF0B994F8240022
:102A000028B10020FFF77DFE84F8208001E084F8E3
:102A100020905046FFF737FB53481830FFF74BFB29
:102A200051481A30FFF762FB4F481C30FFF778FB24
:102A3000A07AA0774C48217CC1770020FEF714FED5
:102A40000020FFF77CF88DF8009020686B4601228B
:102A5000817860680078FEF7CBFC002837D14020F1
:102A60008DF8000020686B460122C17B6068007809
:102A7000FEF7BEFC50BB8DF800608DF80170206839
:102A80006B460222017A60680078FEF7B1FCE8B973
:102A90000520FDF74FFD607A072606EBC0008DF894
:102AA000000020686B460122C17960680078FEF75B
:102AB0009FFC58B920208DF80000012D08D0052D6D
:102AC0000AD840468DF801800DE01DE01FE049E086
:102AD00048468DF8019006E0142D01D8022000E050
:102AE00003208DF80100C0B206EB80108DF80100C4
:102AF00020686B460222817C60680078FEF778FCD3
:102B000028B984F8158027E000200A5C3AB3FF203A
:102B100020726072E0724FF6FF71E181A072207442
:102B200084F80C80A07FFEF735FEE08AFFF7CFF82F
:102B3000207EFFF79BF8608BFEF7CEFFA08BFFF7A0
:102B400057F8E07FFEF7A1FF94F8200010B10120B4
:102B5000FFF7D7FD84F815900020BDE8F88F401CE2
:102B60000C28D2D35846F8E7CC03002010B588B023
:102B7000694604A8FFF701FE072802D0012008B02B
:102B800010BD07A8FFF7DEFA049805F0D9FA0799F7
:102B90000C4605F001FB05F097FA0490059805F046
:102BA000CFFA214605F0F8FA05F08EFA059006985E
:102BB00005F0C6FA214605F0EFFA05F085FA069011
:102BC00004A800F0DEFA03A8FFF7D2FABDF80C0063
:102BD0000099414300910199414301910299414378
:102BE0006846029100F02FFB0020C8E790F9001022
:102BF000002902DD4FF00000704702DA4FF00400B8
:102C0000704790F90110002902DD4FF00100704774
:102C100002DA4FF00500704790F90200002802DD4B
:102C20004FF00200704702DA4FF0060070474FF095
:102C30000700704700B50246FFF7D8FF0346D01CD7
:102C4000FFF7D4FF43EAC003901DFFF7CFFF43EA2D
:102C5000801080B200BD10B5FEF7FDFBFFF76BF8EA
:102C600008B10A2010BD7820FEF794FD10F0FF0F88
:102C700001D0012010BD7820FEF707FF10F0FF0FF4
:102C800001D0022010BDC820FEF7B2FF10F0FF0FE8
:102C900001D0032010BD00F0F1F910F0FF0F01D0BA
:102CA000042010BDEB48FFF7C5FF00F0EFF910F06E
:102CB000FF0F01D0052010BD40F2731000F032FD6F
:102CC00010F0FF0F01D0062010BDC82000F022FB3D
:102CD00010F0FF0F01D0072010BDFFF747FF0120C4
:102CE000FFF70FFD10F0FF00F6D0092010BD2DE911
:102CF000F74F8EB00CA902A8CDE900010BAB03AAD7
:102D000009A907A800F019FE10B1012011B025E6AD
:102D1000BDF80800C0057DD5039805F011FA6FF0E5
:102D20001D04214605F0DBFB8246049805F008FAF5
:102D3000214605F0D4FB8146059805F001FA2146AD
:102D400005F0CDFB8046069805F0FAF9214605F01E
:102D5000C6FB05460121504605F0C1FB064641462B
:102D600005F01AFA04464FF04041484605F014FABF
:102D70000746294605F010FA214605F07BF805F0D4
:102D80004DF803F085FE4FF0663B5A46B24B04F017
:102D90006BFD04F05FFA0E9908600121404605F0D2
:102DA0009EFB4146009005F0F7F904463846494637
:102DB00005F0F2F9214605F0BBFA4FF07E5105F01F
:102DC00059F805F02BF807460C463046494605F001
:102DD000E3F906462946009805F0DEF9314605F08C
:102DE00049F805F01BF83A46234604F099F85A468C
:102DF000994B04F039FD04F02DFA0F99086029462B
:102E0000084605F0C9F907464146084605F0C4F9E9
:102E1000064600E034E04946084605F0BDF90446A0
:102E20005146084605F0B8F9214605F023F8314629
:102E300005F07EFA394605F07BFA04F0EFFF06460E
:102E40000C462946504605F0A7F905464146484636
:102E500005F0A2F9294605F00DF8012105F03FFB28
:102E600004F0DCFF3246234604F05AF85A467A4B07
:102E700004F0FAFC04F0EEF910990860002045E730
:102E8000022043E72DE9FE4F07460E46002568461F
:102E900000F08FF800246FF00F0AE8464FF00109A8
:102EA00057F8240056F82410401A00D5404205F087
:102EB00047F9514605F013FB58F8241011F0FF4F65
:102EC0000BD005F03FF84FF07E5105F031FA634921
:102ED00020F00040884205DC07E061490844614970
:102EE000884202D309FA04F00543641C032CD7DBA3
:102EF000284605E42DE9F84F8146564888462C3887
:102F0000002540686B46032200780D21FEF7EBF99F
:102F100008B1072021E69DF80000002400F01F0002
:102F20008DF800009DF801006FF00F0B00F01F00FE
:102F30008DF801009DF802006E4600F01F008DF82C
:102F400002004FF0010A00BF59F8241058F824007D
:102F5000081A00D5404205F0F3F8594605F0BFFACB
:102F60000746305DC0B1404802E0404905F014F921
:102F7000315D491E11F0FF013155F6D10146384649
:102F800004F0E0FF4FF07E5105F0D2F9334920F014
:102F90000040884205DC07E035483844B0F1D97F6D
:102FA00002D90AFA04F00543641C032CCCDB284642
:102FB000D3E52DE9FE430646264801AB2C38042212
:102FC00040680D210078FEF78EF910B10720BDE8AA
:102FD000FE839DF804101C2000EAD1029DF8071022
:102FE000DFF89090C1F301131A438DF800209DF88B
:102FF0000520C1F3810300EAD2021A438DF80120B3
:103000009DF8062001F0030100EAD20008430024E5
:10301000194F8DF80200A0466D46285D10B146F8A4
:1030200024900AE046F824800DE000BF56F8240002
:10303000394605F0B1F846F82400285D401E10F02E
:10304000FF002855F2D1641CE4B2032CE5D3002024
:10305000BDE70000F803002066A64C40295C0F3E47
:10306000666666C19A99D9000000C84154E3853F5D
:103070000000E0BE7B14AE3E1D5A843FC8234FF4CF
:103080008062FE4940F6F630FFF73CBC2DE9FF4177
:103090000446FBA004F0030300680290F9A0006856
:1030A0000390F9A00668F9A0056802A8C15C8DF834
:1030B0000010C4F3C101425C8DF80120C4F38112F9
:1030C000805C8DF8020003A8C35C8DF80430415C7D
:1030D0008DF80510805C8DF806006A46032140F2E9
:1030E0002640FFF7BFFB4FF0FF37E0BB01AA0321EB
:1030F00040F22A40FFF7B6FBA8BBCDE900656007A8
:103100000BD59DF8000040F001008DF800009DF8FF
:10311000040040F001008DF80400A0060BD59DF8D6
:10312000010040F001008DF801009DF8050040F01D
:1031300001008DF80500E0050BD59DF8020040F078
:1031400001008DF802009DF8060040F001008DF8A6
:1031500006006A4603214FF48860FFF783FB10B92D
:1031600001AA032100E004E040F23140FFF77AFBBE
:1031700018B1384604B0BDE8F081C548048100208C
:10318000F8E7F8B5C249098901F0030250F8224076
:103190004A0700D56442C1F3C1028B0650F82220D1
:1031A00000D55242C1F3811350F82330C80500D531
:1031B0005B42B84984FB0140850045EA947082FB7C
:1031C0000142A40F44EA820483FB0121950F45EAE2
:1031D0008105010E8DF80010010C8DF80110010A17
:1031E0008DF802108DF803006A4604214FF47470C4
:1031F000FFF738FB4FF0FF3688B9200E8DF800003E
:10320000200C8DF80100200A8DF802008DF8034093
:103210006A4604214FF47570FFF724FB08B130466D
:10322000F8BD280E8DF80000280C8DF80100280A42
:103230008DF802008DF803506A4604214FF4767031
:10324000FFF710FBF8BD2DE9FF41044603A8FEF788
:103250008FFFBDF80C00410CC3038D48028902F0BA
:103260000300550754F8200000D54042C2F3C105C1
:10327000960654F8255000D56D42C2F38116D2054A
:1032800054F8264000D56442A0FB0367C21702FB36
:10329000037200FB0120820042EA9670A5FB0367DF
:1032A000EA1702FB037205FB0122950045EA9672BC
:1032B000A4FB0367E51705FB037304FB01318B00D7
:1032C00043EA9671030E8DF80030030C8DF801303F
:1032D000030A8DF802308DF80300100E8DF80400FB
:1032E000100C8DF80500100A8DF80600080E8DF8F8
:1032F0000800080C8DF80900080A8DF80A008DF8FE
:1033000007208DF80B106A460C214FF42570FFF74B
:10331000A9FA2FE730B504465FA285B007CA8DE849
:1033200007004FF0FF35C82C16D8C820B0FBF4F1C9
:10333000491E080A8DF80C008DF80D1003AA022111
:1033400040F21620FFF78EFA30B96A460C2140F69B
:10335000C120FFF787FA10B1284605B030BD4C48B0
:1033600084810020F9E74A4989890180002070475B
:103370002DE9FC41054640074FF0FF367CD0B1F502
:10338000C86F79D8084604F0F3FE464904F0DAFD28
:10339000074601A8FEF78FFE9DF80400022806D01C
:1033A00004280DD008282ED0102865D134E00E2135
:1033B000384605F094F804F0A3FE84B23A4907E0D9
:1033C0000D21384605F08BF804F09AFE374984B297
:1033D000384604F0E1FE04F093FE210A8DF8001057
:1033E00080B28DF80140010A8DF802108DF80300BB
:1033F000E8076C4620D0224602214FF4EA70FFF71E
:1034000031FAC8BB11E00C21384605F068F804F029
:1034100077FE84B22649DBE70B21384605F05FF8DA
:1034200004F06EFE84B22349D2E7A21C02214FF4BD
:103430009270FFF717FAF8B9A8070DD56A4602216E
:103440004FF4EC70FFF70EFAB0B9A21C02214FF452
:103450009470FFF707FA78B9680731D56A460221F8
:103460004FF4EE70FFF7FEF930B9A21C02214FF4C1
:103470009670FFF7F7F91FE01FE00000C48D000809
:103480004CCD6C000CC92C003656760026466600E2
:103490005804002009E3CA02FEF2ABC4AAF1DFDF40
:1034A000BBAFDFDF00004843000040460000C045DE
:1034B000000040450000C04410B13046BDE8FC812A
:1034C0000020FBE708B500218DF80010C10702D0ED
:1034D00030218DF80010810705D59DF8001041F0CE
:1034E0000C018DF80010400705D59DF8000040F054
:1034F00003008DF800006A4601214FF4A470FFF725
:10350000B1F908BD08B560B1042800D90420401EF7
:103510008DF800006A46012140F24F10FFF7A2F932
:1035200008BD0120F3E70521B0FBF1F008B5010A61
:103530008DF800108DF801006A4602214FF4EF70FB
:10354000FFF790F908BD0521B0FBF1F008B5010ABD
:103550008DF800108DF801006A4602214FF4ED70DD
:10356000FFF780F908BD4FF47A7290FBF2F008B5CE
:103570004843010E8DF80010010C8DF80110010A6E
:103580008DF802108DF803006A4604214FF4AE70E6
:10359000FFF768F908BD0521B0FBF1F008B5010A95
:1035A0008DF800108DF801006A4602214FF4AD70CD
:1035B000FFF758F908BD0521B0FBF1F008B5010A85
:1035C0008DF800108DF801006A4602214FF4AC70AE
:1035D000FFF748F908BD38B504004FF0FF3506D0B5
:1035E0006A4604214FF45870FFF764F908B1284681
:1035F00038BD00989DF8031000BA20F0FF00084382
:103600002060002038BD08B5010E8DF80010010CB7
:103610008DF80110010A8DF802108DF803006A463A
:1036200004214FF45870FFF71DF908BD38B50400A8
:103630004FF0FF3506D06A4604214FF47170FFF752
:1036400039F908B1284638BD00989DF8031000BA32
:1036500020F0FF00084300EB800080002060002085
:1036600038BD1421B0FBF1F008B5010E8DF8001043
:10367000010C8DF80110010A8DF802108DF803007D
:103680006A4604214FF47170FFF7ECF808BD08B5E5
:1036900060B120208DF8000028208DF80100302036
:1036A0008DF8020038208DF8030004E0A3220421E5
:1036B000684601F019FE6A46042140F69E20FFF795
:1036C000D1F8FEF72AF908BD08B560B1C0208DF821
:1036D0000000C2208DF80100C4208DF80200C62031
:1036E0008DF8030004E08B220421684601F0FCFD04
:1036F0006A46042140F69820FFF7B4F8FEF70DF96A
:1037000008BD0EB54FF4976310B1E0A107C901E001
:10371000E1A207CA8DE807006A4609211846FFF7AB
:10372000A1F80EBD3EB5044602208DF80000CA2067
:103730008DF80100E3208DF8020009208DF80300C8
:103740006A4604216820FFF78DF8A3208DF8000059
:10375000610609D5C0218DF80110C8218DF802102D
:10376000C2218DF8031005E08DF801008DF80200EC
:103770008DF8030014F4C07F09D0C4218DF8041023
:10378000CC218DF80510C6218DF8061005E08DF8C6
:1037900004008DF805008DF806008DF808008DF8FE
:1037A00007008DF809006A460A2140F6A720FFF7B6
:1037B00059F8A0074FF0D80503D020208DF800005D
:1037C00001E08DF800506A46012140F6B620FFF76F
:1037D00049F8A00601D5012000E00020FFF791FF85
:1037E00014F4C07F1ED0E0050AD5B2208DF8000089
:1037F0008B208DF80100B6208DF802009B2009E097
:10380000B0208DF8000080208DF80100B4208DF8E4
:10381000020090208DF803006A46042140F6A220A1
:10382000FFF720F8E1074FF40B6022D0F8218DF864
:1038300000106A460121FFF715F8FA210720FFF76B
:1038400097FD0720FFF73EFE0120FFF75BFE642097
:10385000FFF769FE4FF4FA70FFF775FEC821914833
:10386000FFF781FE2820FFF796FE0A20FFF7A3FE50
:1038700005E08DF800506A460121FEF7F3FFA0072E
:1038800003D5D9208DF8000001E08DF800506A467C
:10389000012140F23D70FEF7E5FF600701D50120F0
:1038A00000E00020FFF710FFE00601D5012000E056
:1038B0000020FFF7ECFE7C4D44F008006881FEF725
:1038C0002CF80020A873600601D50620A87314F414
:1038D000C07F02D0A87B801DA87314F0140F02D003
:1038E000A87B1030A873A00702D0A87B001DA87386
:1038F00000203EBD6C49498901800020704700B519
:103900006AA187B00EC98DE80E006BA10DF10C0CF9
:103910000EC98CE80E0040F68223012807D0022849
:1039200003D04FF0FF3007B000BD6A4600E003AAA5
:103930000B211846FEF796FFF5E72DE9FF4F89B0FA
:103940001746DDE916520024574E884681462C80E2
:10395000A246B07B6946FEF702FD4FF0FF3B18B16F
:1039600058460DB0BDE8F08F708910F0140F3CD0B0
:10397000009909BA21F0FF039DF803100B433B6047
:1039800001991B1409BA21F0FF029DF807105B434F
:103990000A437A6002999DF80B4009BA21F0FF01B1
:1039A0002143B960039C091424BA24F0FF0C9DF84C
:1039B0000F4012144CEA040CC7F80CC04FEA2C4715
:1039C000494302FB023207FB071111441024A1F105
:1039D0007061B1F1007F04D9FDF79FFFA5F800A049
:1039E000BEE7298841F4807129804206694611D5D5
:1039F0000A19A41D13885BBAA8F8003053885BBA73
:103A0000A8F80230928852BAA8F804202A8842F016
:103A100008022A8010F4C07F11D00A19A41D13884F
:103A20005BBAA9F8003053885BBAA9F802309288D3
:103A300052BAA9F804202A8842F070022A8080072E
:103A400016D00C44E07800F0C00500F03F0160782B
:103A5000C00706D0C80801F007013268491C02B14E
:103A600090476078000703D5716809B1A8098847B5
:103A70000C98FEF7FBF9002073E70B490860002063
:103A8000704709494860002070470000B8AAB38D0C
:103A9000B4980D355D000000B8AAAAAAB088C3C5C5
:103AA000C700000009E3CA0258040020D8B1B9F3E6
:103AB0008BA391B609B4D900DAB1B9F38BA391B64F
:103AC000DAB4DA0003788B54114443784B7082786F
:103AD0008A70C078C870704703B50A2912D80029C7
:103AE00010D00B290ED2DFE801F00D06080E1012DF
:103AF0001416181A1C00012200E005222949684604
:103B0000FFF7E0FF0CBD0922F8E70D22F6E71122CE
:103B1000F4E71522F2E71922F0E71D22EEE7212251
:103B2000ECE72522EAE70A2839D890B31D49242278
:103B30000B280A7033D2DFE800F032060A0E1216A4
:103B40001A1E22272D0005204871062070470920E3
:103B500048720A2070470D2048730E2070471120CC
:103B60004874122070471520487516207047192098
:103B700048761A2070471D2048771E207047212064
:103B800081F8210022207047252081F82500262079
:103B9000704704E0292081F829002A20F8E7002056
:103BA000F6E70000680400200948804709480047FC
:103BB000FEE7FEE7FEE7FEE7FEE7FEE7FEE7FEE7DD
:103BC000FEE7FEE704480549054A064B704700003A
:103BD00025040008ED000008F8040020F80A002081
:103BE000F8060020F8060020284908432849086004
:103BF000704770B50F23C47801780122F4B1244CCA
:103C00002468457804F4E064C4F5E064240AC4F14F
:103C10000406E3408478B5401C402C4301F1E021C8
:103C2000230181F80034007800F01F018A40400928
:103C3000800000F1E020C0F8002170BD01F01F00FD
:103C400082404809800000F1E020C0F8802170BD6A
:103C5000104A114001430E48001F016070470C4A92
:103C6000121D0029116801D0014300E08143116059
:103C700070474FF0E0210428086903D020F00400C9
:103C80000861704740F00400FAE700000000FA0500
:103C90000CED00E080FFFF1F914910B5884206D16E
:103CA0000121042000F04BFA002104203BE08D4963
:103CB000884206D10121082000F041FA00210820A5
:103CC00031E08949884206D10121102000F037FAFD
:103CD0000021102027E08549884206D101212020BB
:103CE00000F02DFA002120201DE08149884206D1F4
:103CF0000121402000F023FA0021402013E07D49FB
:103D0000884206D10121802000F019FA002180208C
:103D100009E0794988420AD184150121204600F042
:103D20000EFA00212046BDE8104000F008BA10BD90
:103D300010B50121084600F002FA0021BDE810404C
:103D4000012000F0FCB9F0B5CA78002502F00F039D
:103D5000D20601D58A7813430A784FF00F0E12F07D
:103D6000FF0F4FF001021DD0D0F800400F8802FA7B
:103D700005F63740B74211D14FEA850C0EFA0CF721
:103D800024EA070703FA0CF43C43CF78282F02D02B
:103D9000482F02D002E0466100E006616D1C082D4C
:103DA000E4D304600C88FF2C1ED944685FF0000641
:103DB00006F1080702FA07F50F882F40AF420FD12E
:103DC0004FEA860C0EFA0CF7BC4303FA0CF73C439F
:103DD000CF78282F00D14561CF78482F00D10561D9
:103DE000761C082EE4D34460F0BD4FF6FF710180CD
:103DF000022181700421C170704702460020926840
:103E00000A4200D001207047806880B270470246A5
:103E10000020D2680A4200D001207047C06880B2FA
:103E2000704701617047416170470AB10161704795
:103E300041617047C160704741F4803282618161A5
:103E400082618169806970472C4B10B51A684FF602
:103E50008074224042EA00100843186010BD2849CF
:103E6000C8617047F0B5254C002801DAE36900E02D
:103E70006368420D120185B2C0F301579540C0F34B
:103E80000346032F05D0C2020AD50322B240934352
:103E900007E023F07062636823F07063636002E000
:103EA000AB4343F0706201B12A43002801DAE261BA
:103EB000F0BD6260F0BD10B58A0721F003040F4920
:103EC000130F21440F228C689A4094438C608A68B7
:103ED000984002438A6010BD0949C1F8DC00704770
:103EE00000080140000C0140001001400014014096
:103EF00000180140001C014000200140000001406A
:103F000000002042A448016841F0010101604168BD
:103F1000A24A114041600168A14A11400160016854
:103F200021F480210160416821F4FE0141604FF4D9
:103F30001F018160704798490A6822F480320A6044
:103F40000A6822F480220A60B0F5803F07D0B0F5FD
:103F5000802F03D1086840F4A020086070470868EB
:103F600040F48030F9E70246002053098A49012BCA
:103F70000AD0022B0AD0496A02F01F0201239340A3
:103F80000B4200D0012070470968F5E7096AF3E7A2
:103F900018B500204FF4A06400903120FFF7E3FF34
:103FA0000099491C0091A14201D00028F5D0312090
:103FB000FFF7D9FF002800D0012018BD76490A6814
:103FC00022F0F80242EAC0000860704775490860B4
:103FD0007047714A5368084323F47C1318435060B8
:103FE00070477049086670476B4A516821F00301B9
:103FF0000143516070476848406800F00C0070470A
:10400000654A516821F0F001014351607047624AEE
:10401000516821F4E0610143516070475E494A688C
:1040200022F4605242EAC000486070475A4A0029B0
:10403000517A01D0014300E08143517270475949E0
:10404000C1F8D8007047544A516821F440410143F7
:10405000516070475049002281F8202081F82020CB
:10406000012802D0042802D1052081F820007047E1
:104070004D490860704748490A6A02430A6270471E
:10408000494944390860704730B543494A6812F0DD
:104090000C03464A03D0042B01D0082B21D0026028
:1040A0004A680F23424C03EA1212A35C0268DA400A
:1040B00042604B68072505EA1323E35C22FA03F309
:1040C00083604B6805EAD323E35CDA40C260496849
:1040D000032303EA9131231F595CB2FBF1F1016123
:1040E00030BD4A684B6802F470124FF0020413F4BA
:1040F000803F04EB924202D04B689B0301D52D4BCD
:1041000000E02A4B5A43CAE7234A0029516901D0EB
:10411000014300E08143516170471F4A00299169C2
:1041200001D0014300E08143916170471A4A0029A0
:10413000D16901D0014300E08143D1617047164A43
:104140000029D16801D0014300E08143D16070476C
:10415000114A0029116901D0014300E08143116136
:10416000704711494039086070470E49C86470476C
:104170000949C87170470848416A41F0807141623D
:104180007047054A0146002092680A4200D001208B
:104190007047014988727047001002400000FFF824
:1041A000FFFFF6FE000042428004424200127A0005
:1041B0000504002000093D00F94910B5884202D1EC
:1041C0000121C41486E0B0F1804F09D0F54988423E
:1041D0000DD101210220FFF7BBFF0021022064E086
:1041E00001210846FFF7B4FF002101205DE0EE4900
:1041F000884206D101210420FFF7AAFF00210420F4
:1042000053E0EA49884206D101210820FFF7A0FFC8
:104210000021082049E0E649884206D1012110200A
:10422000FFF796FF002110203FE0E249884206D1C7
:1042300001212020FFF78CFF0021202035E0DE49FE
:10424000884202D10121441444E0DC49884202D171
:104250000121CC043EE0DA49884202D101210C055B
:1042600038E0D849884202D101214C0532E0D649D4
:10427000884206D101214020FFF76AFF002140203B
:1042800013E0D249884206D101218020FFF760FF68
:104290000021802009E0CE4988420AD184150121FD
:1042A0002046FFF755FF00212046BDE81040FFF7EC
:1042B0004FBFC849884202D101210C040AE0C64917
:1042C000884202D101214C0404E0C44988420AD149
:1042D00001218C042046FFF732FF2046BDE8104044
:1042E0000021FFF72CBF10BD30B50288AC4BB24C9B
:1042F00098420DD0A0420BD0B0F1804F08D0A94D0C
:10430000A84205D0A84DA84202D0A84DA84203D18A
:1043100022F070054A882A43A54DA84206D0A54D33
:10432000A84203D022F44075CA882A4302808A88B2
:1043300082850A88028598420AD0A04208D0A54A00
:10434000904205D0A44A904202D0A44A904201D1A2
:10435000097A01860121818230BD30B5028C22F0BC
:1043600001020284028C8388048B22F0020224F072
:1043700073050C882C430D8915434A882A43884DC0
:10438000A8420BD08C4DA84208D0924DA84205D02F
:10439000914DA84202D0914DA8420DD122F00805BE
:1043A0004A8923F440732A4322F004058A882A4369
:1043B0008D891D43CB892B4383800483C9888186E3
:1043C000028430BD70B5028C22F010020284028C8F
:1043D0008488038B0D8823F4E6464FF6FF7303EAC7
:1043E000052535430E8922F0200203EA06161643FE
:1043F0004A8803EA02123243694EB04202D06E4E3E
:10440000B04215D122F080064A8924F4406403EAC0
:104410000212324322F040068A8803EA0212324333
:104420008E8903EA86062643CC8903EA8404344352
:1044300084800583C9880187028470BD70B5028CB1
:1044400022F480720284028C8488838B0D8823F08E
:1044500073031D4322F400730E894FF6FF7202EAC4
:1044600006261E434B8802EA032333434C4EB042D8
:1044700002D0514EB04215D123F400664B8924F48A
:10448000405402EA0323334323F480668B8802EA14
:10449000032333438E8902EA06162643CC8902EAB7
:1044A0000414344384808583C9888187038470BD64
:1044B00070B5028C22F480520284048C8288838B33
:1044C0000D8823F4E6464FF6FF7303EA05253543CE
:1044D00024F400560C8903EA043434434E8803EA7A
:1044E000063626432E4CA04202D0334CA04205D1C2
:1044F00022F480448A8903EA8212224382808583DF
:10450000C988A0F84010068470BD828B22F44062F6
:104510008283828B4FF6FF7303EA01210A43828371
:104520007047828B22F00C028283828B0A43828343
:104530007047028B22F440620283028B4FF6FF73B6
:1045400003EA01210A4302837047F0B5048C24F08A
:1045500010040484078B048C4FF6FF7527F473470F
:1045600005EA03333B4305EA02221A430C4B05EAF2
:10457000011698420ED0104B98420BD0B0F1804FEC
:1045800008D0084B984205D0074B984202D0074B01
:10459000984225D124F02001314341F0100124E05C
:1045A000002C01400004004000080040000C0040C6
:1045B000001000400014004000340140004C014055
:1045C000005001400054014000180040001C004011
:1045D00000200040004001400044014000480140EC
:1045E00024F0A0030B4343F0100102830184F0BDCB
:1045F000028B22F00C020283028B0A430283704773
:1046000070B5048C24F001040484058B048C4FF6EF
:10461000FF7606EA0313134325F0F305F94A2B430B
:1046200090420ED0F84A90420BD0B0F1804F08D0A3
:10463000F64A904205D0F64A904202D0F54A90429E
:1046400002D124F0020201E024F00A020A4342F0FF
:1046500001010383018470BD2DE9F05F0D4604461E
:104660000888E84FDFF8A0C3DFF8A0834988AA884C
:104670002B894FF0804960B3042832D04FF6FF7E7B
:10468000082836D0208C9B4620F480502084A38BB1
:10469000268C704600EA022223F473431A4300EA90
:1046A0000B3010430EEA013EBC420BD0644509D0EA
:1046B0004C4507D0444505D0D54A944202D0D54B4D
:1046C0009C4245D126F4005141EA0E0141F480514B
:1046D00043E02046FFF794FFE9882046BDE8F05FFD
:1046E00086E72046FFF731FFE9882046BDE8F05F06
:1046F0001FE7208C20F480702084B4F81CA0208C4C
:104700000EEA031313432AF0F30A0EEA012B43EADD
:104710000A03BC420BD0644509D04C4507D0444540
:1047200005D0BB4A944202D0BA4A944204D120F444
:10473000007040EA0B0002E020F42060084340F4DF
:104740008070A3832084E9882046BDE8F05FE8E616
:1047500026F402420A4342F48051A0832046218479
:10476000E988BDE8F05FD0E62DE9F0410C4600266F
:1047700049880746012501B90226A288012A00D1ED
:104780000225208823890028384610D0FFF7DDFE57
:10479000E1883846FFF7CDFE23892A463146384660
:1047A000FFF72EFFE1883846BDE8F04120E7FFF72C
:1047B00027FFE1883846FFF71BFF23892A46314649
:1047C0003846FFF7C2FEE1883846BDE8F041B0E662
:1047D00010B50A884B88CC881A438B8823431A4328
:1047E0000B891A434B8989891A430A43A0F844204C
:1047F00010BD4FF6FF71818000210180C180418092
:10480000017270470021018041808180C180018157
:1048100041818181C1817047002101804180012255
:104820008280C180018170470021018041808180A8
:10483000C18001814181818170470029018802D0B6
:1048400041F0010101E021F00101018070470029E0
:1048500030F8441F02D041F4004101E0C1F30E01E1
:1048600001807047002A828901D00A4300E08A4310
:1048700082817047818270471143A0F848107047C9
:10488000002A828901D00A4300E08A43828170476E
:10489000018921F0070101817047028922F070022D
:1048A0000A430281704700B50346FFF7F6FF1889F7
:1048B00040F00700188100BD70B516460D4660290E
:1048C00004464FF0010231460AD0FFF799FE29460F
:1048D0002046FFF7E2FF208940F00700208170BDED
:1048E000FFF733FEF3E730B504894FF6FF7505EAAD
:1048F00003231343E4B20B432343038130BD10B5BC
:104900000446FFF7F0FF208940F07700208110BDBA
:1049100010B50446FFF7E7FF208940F4804020816E
:1049200010BD018582827047028822F070020A431E
:104930000280704770B50589048B068C25F0070549
:104940000D434FF6FC410C4040F201110C434FF671
:10495000FF7101EA031126F022061143314305815C
:104960000483018470BD028B22F070020A4302832B
:104970007047028B4FF6FF7322F4E04203EA0121F5
:10498000114301837047828B22F070020A438283B5
:104990007047828B4FF6FF7322F4E04203EA012155
:1049A0001143818370470029018802D041F08001C2
:1049B00001E021F08001018070470029818802D048
:1049C00041F0040101E021F00401818070470029D9
:1049D000818802D041F0080101E021F008018180C6
:1049E00070470029818802D041F0010101E021F0E7
:1049F000010181807047028B22F008020A43028382
:104A000070470000002C01400034014000040040C9
:104A100000080040000C0040028B4FF6FF7322F4A8
:104A2000006203EA012111430183E9E7828B22F04E
:104A300008020A438283E3E7828B4FF6FF7322F476
:104A4000006203EA012111438183D9E7028B22F03E
:104A500004020A430283D3E7028B4FF6FF7322F46A
:104A6000806203EA012111430183C9E7828B22F0AE
:104A700004020A438283C3E7828B4FF6FF7322F45A
:104A8000806203EA012111438183B9E7028B22F09E
:104A900080020A430283B3E7028B4FF6FF73C2F32F
:104AA0000E0203EA012111430183A9E7828B22F060
:104AB00080020A438283A3E7828B4FF6FF73C2F31F
:104AC0000E0203EA01211143818399E7028C22F04F
:104AD00002020A43028493E7028C22F008020A438E
:104AE00002848DE7028C4FF6FF7322F0200203EA66
:104AF00001111143018483E7028C4FF6FF7322F00A
:104B0000800203EA01111143018479E7028C4FF618
:104B1000FF7322F4007203EA0121114301846FE75D
:104B2000028C4FF6FF7322F4006203EA0121114365
:104B3000018465E7028C4FF6FF7322F4005203EA0A
:104B40000131114301845BE710B50123048C8B40D4
:104B50009C430484038C8A401343038410BD10B526
:104B60000423048C8B409C430484038C8A401343AD
:104B7000038410BD30B50124058C00F118038C406E
:104B8000A543058489B108290FD0091FC1F34E0040
:104B90001844016821F4E041016001684FF6FF7399
:104BA00003EA02221143016030BD03EB51000168AA
:104BB00021F0700101600168F4E70029018802D04A
:104BC00041F0020101E021F00201018018E7002913
:104BD000018802D041F0040101E021F004010180CC
:104BE0000EE70029818802D041F0800101E021F028
:104BF0008001818004E7028822F008020280028896
:104C00000A430280FCE6828822F070028280828859
:104C10000A438280F4E6028922F0070202810289B7
:104C20000A430281ECE6028922F0800202810289B5
:104C30000A430281E4E68184E2E68185E0E681863A
:104C4000DEE60187DCE68187DAE6A0F84010D7E6E9
:104C5000028822F44072028002880A430280CFE672
:104C6000808ECDE6008FCBE6808FC9E6B0F840009D
:104C7000C6E6808CC4E6008DC2E602460020128A99
:104C80000A4200D00120BBE6C9430182B8E60246D1
:104C90000020138A92890B4202EA010202D0002A04
:104CA00000D00120ACE6C9430182A9E6C44910B591
:104CB00088420AD101218C032046FFF740FA2046A2
:104CC000BDE810400021FFF73ABABE49884202D140
:104CD00001214C0410E0BC49884202D101218C041E
:104CE0000AE0BA49884202D10121CC0404E0B84963
:104CF00088420AD101210C052046FFF729FA2046F7
:104D0000BDE810400021FFF723BA10BD30B50446BE
:104D1000008A85B00D464CF6FF710840E9880143D2
:104D20002182A1894EF6F3100140A8882A891043F8
:104D30006A890A431043A081A08A4FF6FF410840C8
:104D4000A9890143A1826846FFF79EF99C488442E5
:104D500001D1039800E00298A189090400EBC00189
:104D600001EB0010296801D5490000E08900B0FB83
:104D7000F1F06422B0FBF2F109010B096FF01805A4
:104D80006B4300EB8300A3891D044FF0320306D56B
:104D900003EBC000B0FBF2F000F0070005E003EB0E
:104DA0000010B0FBF2F000F00F000843208105B0C6
:104DB00030BD4FF41651016000218180C180018116
:104DC0000C2242818181704710B5038A4FF2FF02A5
:104DD00013400A884C8822438C88C9880C4322439C
:104DE0001A43028210BD0021018041808180C18070
:104DF00070470029818902D041F4005101E021F47B
:104E000000518181704710B5C1F3421301F01F04B6
:104E10000121A140012B07D0022B07D01430002A1A
:104E2000026805D00A4304E00C30F8E71030F6E7DA
:104E30008A43026010BD002A828A01D00A4300E042
:104E40008A4382827047028A22F00F020282028A1B
:104E50000A4302827047828922F400628281828939
:104E60000A43828170470029818902D041F0020102
:104E700001E021F0020181817047028A22F02002C4
:104E80000282028A0A43028270470029018A02D004
:104E900041F4804101E021F4804101827047C1F377
:104EA0000801818070478088C0F3080070478189BD
:104EB00041F0010181817047028BD2B20283028BE3
:104EC00042EA012101837047028B02F47F42028390
:104ED000028B0A43028370470029818A02D041F085
:104EE000200101E021F02001818270470029818AA0
:104EF00002D041F0100101E021F0100181827047E1
:104F00000029818A02D041F0080101E021F0080166
:104F1000818270470029818902D041F4004101E07B
:104F2000C1F30E01818170470029818A02D041F4CA
:104F3000006101E021F4006181827047828A22F0E1
:104F400004028282828A0A43828270470029818A0F
:104F500002D041F0020101E021F00201818270479C
:104F60000246002012880A4200D001207047C9433F
:104F70000180704730B501F01F0201240025C1F304
:104F8000421304FA02F2012B0FD0022B0FD0838AB6
:104F90004FEA11210088134204FA01F400EA0400E8
:104FA00001D000B10125284630BD8389F0E7038A8E
:104FB000EEE70A0A01219140C943018070470000D1
:104FC000003801400044004000480040004C0040D0
:104FD00000500040704710B54C1084EA530404D5CB
:104FE0004042C1F1000138BF491E1B4204D5524264
:104FF000C3F1000338BF5B1E00F082F914F0804F4C
:1050000004D04042C1F1000138BF491E14F0004FE6
:1050100004D05242C3F1000338BF5B1E10BD000034
:105020000FB4044910B503AA029800F051FC10BC5B
:105030005DF814FB4000002070B5044685690068E7
:10504000C10601D5302600E02026C00707D070BD7C
:10505000D4E9012130469047206A401C20626D1E31
:10506000F6D570BD70B5044685690078C00707D1D4
:1050700070BDD4E9012120209047206A401C2062A5
:105080006D1EF6D570BD00002DE9F04106460024E6
:1050900010687529314616A510D0AFF3008000289E
:1050A00002DA404213A507E031688A0701D512A54C
:1050B00002E0490704D511A5012401E0AFF3008007
:1050C00000210A2206F1240709E0B0FBF2FCB0FB44
:1050D000F2F302FB1C00303078541846491C0028BB
:1050E000F3D123462A463046BDE8F04100F08AB9A4
:1050F000000000002D0000002B0000002000000038
:1051000070B504460D4621461068AFF30080218833
:10511000090502D50F4A7A4402E00E4A7A440E325B
:10512000002104F1240305E000F00F060009965D5C
:105130005E54491C0028F7D120780023000704D5CD
:10514000702D02D009B1022311322046BDE8704013
:1051500000F058B9A04800002DE9F05F89460446E8
:105160004FF0000ADFF824B1FB44C0F820A020462D
:10517000E168884700287DD0252806D0D4E90121A0
:105180009047206A401C2062F1E700255F462046D8
:10519000E16888472028064607DB312E05D2B8197A
:1051A00010F8200C08B10543F1E7A80701D525F058
:1051B0000405C4F81CA00027C4F818A02A2E09D0A2
:1051C000304601F05DFC38B304EB8708303EC8F888
:1051D000186019E059F8041B204604EB870291611E
:1051E000E1688847012F064618D1E069002820DAD7
:1051F00025F020051DE0D8F8180000EB800006EB34
:1052000040003038C8F818002046E1688847064654
:1052100001F036FC0028EED1012F0AD02E2E08D145
:105220002046E16888477F1C0646022F45F020058E
:10523000C4DBA069002803DA404245F00105A06103
:10524000E80701D025F01005A6B1A6F14100192804
:1052500002D8203645F400654A463146204625608E
:105260004D46FAF79DFF60B1012807D0ED1D25F0EE
:10527000070000E007E000F1080978E705F10409FC
:1052800075E730467AE7206ABDE8F09F764800006F
:1052900040EA010310B59B070FD1042A0DD310C8B3
:1052A00008C9121F9C42F8D020BA19BA884201D905
:1052B000012010BD4FF0FF3010BD1AB1D30703D04D
:1052C000521C07E0002010BD10F8013B11F8014B03
:1052D0001B1B07D110F8013B11F8014B1B1B01D11F
:1052E000921EF1D1184610BD02F0FF0343EA0322DB
:1052F00042EA024200F000BB7047704770477047B7
:1053000053EA020C00F069802DE9F04B4FF00006E3
:10531000002B1FBFB3FA83F503FA05F424FA05F650
:105320005E4012BF1643B2FA82F502FA05F4C5F1E7
:1053300020051EBF22FA05FC44EA0C04203556EA7B
:10534000044C4FEA144418BF641C4FF000084FF09F
:105350000009904271EB030C39D3002919BFB1FA4F
:1053600081F701FA07F6B0FA80F700FA07F6C7F1FD
:1053700020071EBF20FA07FC46EA0C062037B6FBC2
:10538000F4FCA7EB0507103F07F01F0BCBF120063D
:105390000CFA0BFB2CFA06F644BFB3460026202F6E
:1053A000A4BF5E464FF0000B5BEA060C08BF4FF04F
:1053B000010B19EB0B09ABFB027C48EB0608C01B89
:1053C00006FB02CC0BFB03CC71EB0C01C1E70B46D7
:1053D000024641464846BDE8F08B13B54FF0000049
:1053E0004FF00001AFF30080BDE81C40704710B5DE
:1053F00000F0A6FA006810BD10B5044600F0A0FA4F
:10540000046010BD2DE9F0470D46994692460446CA
:1054100000F124080168880604D5E06921F0100134
:10542000216000E00120A84201DD471B00E00027C9
:10543000A1697A1902EB0900081AA0612078C00658
:1054400002D42046FFF7F8FD002608E0D4E9012148
:105450001AF806009047206A401C761C20624E45D0
:10546000F4DB2078C0060AD52046FFF7E5FD06E00C
:10547000D4E9012130209047206A401C2062381E68
:10548000A7F10107F4DC07E0D4E9012118F80500D1
:105490009047206A401C2062281EA5F10105F3DC1C
:1054A0002046FFF7DFFD2078000602D50220BDE888
:1054B000F0870120FBE770472DE9FF4F0C461E46A1
:1054C0004FF0FF378BB0D2E90001DDF860800A9021
:1054D0008A46C1F30A5505B93D46002108464FF0FA
:1054E0000000BAF1000F00F4400005DA00EB800084
:1054F0004FF4400101EA50004FEA9059B9F1010F11
:1055000000DDB9460A9850EA4A000ED044F6105021
:10551000A5F2FF3545432F14B8F1000F1ED0754298
:10552000291E1EDDC9F100021CE0B8F1010F4FF089
:10553000000001D0302103E0F24305E02154401C7B
:10554000B042FBDB30460022002121540B99C1F808
:105550000880C1E900200FB0BDE8F08FBD1B6D1CB5
:10556000DEE74A4600DA694206A800F08BFA06AB8D
:1055700093E8070003AB83E8070050460A9900F060
:105580008DFB8DE80700A0F500501F3800900398B0
:10559000002D09DD42F21F014A46084403A9039089
:1055A000684600F0ECFD08E0A0F500504A461F38C0
:1055B00003A90390684600F0F6FD8DE8070000049B
:1055C000000C03D04FF0FF30410800E01046B8F166
:1055D000000F03D00022009215461EE0751E05D470
:1055E00000F0B2F9303262556D1EF9D5B346012292
:1055F000084302D000227F1C04E02078302801D12B
:1056000000227F1E002A099786D01DE0112D07DA9F
:1056100000F09AF9303262556D1C50EA0102F5D162
:10562000084302D00098C8B10EE00021681E05E0D2
:10563000235C625C63542254401E491C8142F7DBA8
:10564000AB46A81B401E0990002004F80B000B98E5
:10565000099AC0F80880C0E9002B7CE711264FF0BA
:10566000000859E72DE9F04F88460446D21D22F084
:10567000070191B0D1E90001CDE90A0100F0C9FEAE
:1056800002460B98C00F01D02D2007E0206881074B
:1056900001D52B2002E0202101EAC000032A099055
:1056A00001D0072A05DB03464146204600F0AAF94F
:1056B0000BE12078800601D5E06900E00620B8F112
:1056C000650F814606D0B8F1660F18D0B8F1670FA4
:1056D00070D131E00020B9F1110F009001DB1123EE
:1056E00001E009F101030AAA01A90CA8FFF7E4FEF1
:1056F000DDE90C70002609F10105834647E0012031
:105700004B4600904FF000470AAA01A90CA8FFF7EA
:10571000D3FEDDE90DB00C995D46002610B909F104
:1057200001000D18B9EB050003D4C0F1FF3609F1F3
:105730000105A5EB09002BE0B9F1010F01DA4FF0EB
:1057400001090020B9F1110F0090484601DD112335
:1057500000E003460AAA01A90CA8FFF7ADFEDDE9A7
:105760000C704D4600268346207800070AD4AB45CE
:1057700000DA5D4601A8012D04DD411911F8011C74
:10578000302907D04F4502DA17F1040F04DA01205F
:1057900082460FE06D1EEEE7002F02DCED1B3E445B
:1057A00003E0781CA84200DD7D1CB81B00F1010A53
:1057B0004FF000472078000703D4AA4501DB4FF0E3
:1057C000FF3A0021B7F1004F0DF143088DF8431067
:1057D00024D002202B23002F01DA7F422D230A211F
:1057E000021EA0F1010000DC5FB197FBF1FC97FB0A
:1057F000F1F201FB1C7C17460CF1300C08F801CDCE
:10580000EEE7A8F1010003702188090501D54521C3
:1058100000E06521A0F1010800F8011C09980FA91A
:10582000A1EB0807FF1D00B10120411901EBEA704F
:10583000A1693844081A401EA0612078C00602D42D
:105840002046FFF7F9FB099828B1D4E901219047D8
:10585000206A401C20622078C00622D52046FFF72F
:10586000EBFB1EE0002E04DBB34502DD01A8805DEA
:1058700000E03020D4E901219047206A401C2062DA
:10588000761CAAF101005FEA000A0AD100F054F880
:10589000C0680168405CD4E901219047206A401C3F
:1058A0002062281EA5F10105DCDC07E0D4E9012116
:1058B00018F8010B9047206A401C2062381EA7F19F
:1058C0000107F3DC2046FFF7CDFB032011B043E6D0
:1058D000074B70B50D467B4400F081F8044628461E
:1058E00000F03EF910B14FF0FF3070BD204670BDA2
:1058F000C1ACFFFF4FF000020429C0F0128010F08D
:10590000030C00F03381CCF1040CBCF1020F18BF82
:1059100000F8012BA8BF20F8022BA1EB0C0100F02E
:1059200025B95FEAC17C24BF00F8012B00F8012BE8
:1059300048BF00F8012B704700487047B4040020AE
:10594000004870479404002030B5B0F10A024FEAD5
:10595000900E71F100034EEA817EB0EB0E0061EB18
:1059600091014FEA101E4EEA017E10EB0E0041EB52
:1059700011114FEA102E4EEA016E10EB0E0041EBB2
:1059800011214FEA104E4EEA014E10EB0E0041EB92
:105990001141401841F100014FEAD00040EA417046
:1059A0004FEAD10110EB80054FEA810444EA90747C
:1059B00044EB01046D1944EB0404521BA3414FF066
:1059C000000348BF0A3200D530BD401C41F1000140
:1059D00030BD000001694A1C02610878704700B5BB
:1059E0008FB0CDE901310021059105497944CDE918
:1059F000031011466846FFF7AFFB0FB000BD000073
:105A0000E5FFFFFF2DE9F0411F460446032601682C
:105A1000072A01F4006004DB08B116A505E016A50D
:105A200003E008B115A500E015A521F010002060E5
:105A3000A069C01EA0610FB1401EA0612046FFF703
:105A4000FBFA4FB1D4E9012138469047206A401C47
:105A50002062C01C206206E0206AFAE7D4E9012136
:105A600015F8010B9047761EF8D22046FFF7FAFA98
:105A7000BDE8F0814E414E006E616E00494E460019
:105A8000696E66002DE9F047814616468AB03348B4
:105A900078440DC88DE80D0030487844801C03AC74
:105AA0000DC884E80D0041F69B300844372190FB77
:105AB000F1F290FBF1F5A5F1800501FB12041B3C0E
:105AC00002D56442012000E00020DFF890A080466B
:105AD0000027FA44AAF1BE0A0DE0E00709D03246D9
