:020000040800F2
:10000000F061002071020008255D00086B3E0008C9
:10001000115A0008610D0008256A00080000000060
:10002000000000000000000000000000B101000816
:10003000990E0008000000000D0200088960000809
:100040008B0200088B0200088B0200088B0200085C
:100050008B0200088B0200088B0200088B0200084C
:100060008B0200088B0200088B020008650D000857
:100070008B0200088B0200088B0200088B0200082C
:100080008B0200088B0200088B02000800000000B1
:100090000000000000000000000000008B020008CB
:1000A0008B0200088B020008456100088B020008E3
:1000B0008B0200088B0200088B0200088B020008EC
:1000C0008B0200086D3E00088B0200088B020008BE
:1000D0008B020008996900088B02000800000000EC
:1000E0008B0200088B0200088B0200080000000051
:1000F000000000000000000000000000710D00087A
:10010000000000008B0200088B0200088B02000830
:1001100000000000000000000000000000000000DF
:100120008B0200088B0200087D0D00088B0200087E
:100130008B0200080000000000000000000000002A
:100140000000000000000000000000008B0200081A
:100150008B0200088B020008890D0008B9690008AD
:100160008B0200088B020008000000000000000065
:10017000000000000000000000000000000000007F
:10018000000000008B0200080000000000000000DA
:100190008B0200088B020008DFF810D000F03EFC54
:1001A00000480047F5930008AFF30080F06100209D
:1001B0002C4B19680868B0E8F04F80F30988BFF34A
:1001C0006F8F4FF0000080F311887047000000002F
:1001D00008480068006880F308884FF0000080F34A
:1001E000148862B661B6BFF34F8FBFF36F8F00DF25
:1001F00000BF00BF08ED00E0DFF80C00016841F42B
:1002000070010160704700BF88ED00E0EFF30980E6
:10021000BFF36F8F134B1A681EF0100F08BF20ED4D
:10022000108A20E9F04F106009B44FF0500080F3BD
:100230001188BFF34F8FBFF36F8F0BF0E5F84FF0CE
:10024000000080F3118809BC19680868B0E8F04F15
:100250001EF0100F08BFB0EC108A80F30988BFF3BE
:100260006F8F704724010020EFF305807047000076
:100270000648804706480047FEE7FEE7FEE7FEE740
:10028000FEE7FEE7FEE7FEE7FEE7FEE73561000872
:10029000990100082DE9F05F0546002092469B4633
:1002A00088460646814640241BE02846414647468C
:1002B000224600F094FA53465A46C01A914110D390
:1002C00011461846224600F07BFA2D1A67EB01080A
:1002D0004F4622460120002100F072FA17EB000978
:1002E0004E41201EA4F10104DFDC484631462A4677
:1002F0004346BDE8F09F2DE9F0410024061B25464A
:1003000071F1000605DA01240027D0EB070067EB46
:100310000101161E73F1000605DA0027D2EB070271
:10032000012567EB0303FFF7B5FF86460E46174628
:100330009C46AC4204D00025D0EB050E65EB0106CF
:1003400024B10020D2EB000760EB030C704631466D
:100350003A466346BDE8F08140EA01039B0703D0BB
:1003600009E008C9121F08C0042AFAD203E011F8F4
:10037000013B00F8013B521EF9D27047D2B201E0B6
:1003800000F8012B491EFBD270470022F6E710B59A
:1003900013460A4604461946FFF7F0FF204610BDF3
:1003A00030B504460020034600E05B1C934203D2B4
:1003B000E05CCD5C401BF8D030BD70B5064606F061
:1003C00075FD046805460A220021304600F029FA2E
:1003D0002C6070BD2DE9FE4F804681EA0300C00FFE
:1003E0000C46009021F0004123F00045B8EB0200DC
:1003F000A94105D24046214690461C460B4602467E
:1004000023F00040104347D0270DC7F30A00C3F381
:100410000A510290401A019040286BDAC3F313008E
:1004200040F4801B0098924620B10023D2EB030ACF
:1004300063EB0B0B01985946C0F14002504600F0A7
:10044000BFF906460D4650465946019A00F0D7F9C5
:1004500010EB08006141002487EA115284EAE77337
:100460001A4340D0009A62B3019A012A4FEA075218
:1004700015DC001B61EB02014FF0004202EA07525B
:10048000CDE90042001C41F5801132462B4600F0B8
:1004900046FA03B0BDE8F08F40462146F9E7001B5D
:1004A00061EB0201001C41F5801300185B4120182C
:1004B000A2F5001747EB030140EAD570B6196D416C
:1004C00011E06D084FEA360645EAC0754FEA07525B
:1004D000001B61EB0201001C41F5801149084FEA45
:1004E00030000019514132462B4603B0BDE8F04FB1
:1004F00000F006BA0098012240000023D0EB02026F
:1005000063EBE073009821464FEAE074B8EB00001B
:1005100061EB0401E9E783F000435BE781F0004110
:1005200058E72DE9FE4F81EA030404F0004421F06E
:10053000004100944FF0000B23F0004350EA010407
:100540005ED052EA03045BD0C3F30A54C1F30A55E8
:100550002C44A4F2F3340194A0FB0254C1F3130120
:1005600041F48011C3F3130343F4801301FB0244ED
:1005700000FB034E840A970A44EA815447EA8357F2
:10058000A4FB076802958D0A05FB07854FEA932CAB
:1005900004FB0C542705029D4FEA065847EA16371C
:1005A000B5EB08056EEB070C870E920E47EA811734
:1005B00042EA8312A7FB0201B6EB0B0164EB0004D5
:1005C0002B0D43EA0C335E1844EB1C50DA465146BF
:1005D000E7FB0201C5F313044FEA0B3343EA14535C
:1005E0004FEA0432019C43EA0603A4F10C0402948E
:1005F000009CCDE900B400F092F903B0BDE8F08FA3
:1006000000200146F9E72DE9F04D81EA030404F0EA
:10061000004B21F0004514464FF0000A23F0004142
:1006200050EA050220D054EA01021DD0C5F30A5752
:100630000246C5F31303C1F31300C1F30A5640F495
:10064000801543F48013A7EB0608101BD64608F26A
:10065000FD3873EB050002D308F1010801E09218A0
:100660005B41B8F1000F03DA00200146BDE8F08DD0
:1006700000204FF48011064684460EE0171B73EBF2
:10068000050705D3121B63EB050306434CEA010C77
:1006900049084FEA300092185B4150EA0107EDD15A
:1006A00052EA030012D082EA040083EA05010843FB
:1006B00005D0101BAB4106D20122002306E0002228
:1006C0004FF0004302E06FF0010253101AEB0600F6
:1006D0004CEB085110EB0A0041EB0B01BDE8F04D6B
:1006E00000F00EB90EB5C10F80EAE0700844CA07E9
:1006F000002140F233438DE80E000A460B4600F01D
:100700000EF903B000BD00F0004230F000400AD006
:10071000C10D01F56071C0F3160042EA0151C20833
:1007200040071143704700200146704730B5041E52
:1007300071F1000404DB4FF00044404264EB01011E
:10074000141E73F1000405DB1C464FF000435242B7
:1007500063EB04038B4208BF824230BD01F00043CB
:1007600030B421F0004150EA010206D00A0DA2F592
:100770006072C1F31301002A02DC30BC0020704714
:10078000440F44EAC104C100E01830BC00EBC25081
:1007900000F07FB830B50B4601460020202201242E
:1007A00009E021FA02F59D4205D303FA02F5491B3F
:1007B00004FA02F52844151EA2F10102F1DC30BD55
:1007C000202A04DB203A00FA02F100207047914011
:1007D000C2F1200320FA03F3194390407047202A06
:1007E00004DB203A21FA02F00021704721FA02F3DB
:1007F000D040C2F120029140084319467047202A98
:1008000006DBCB17203A41FA02F043EAE07306E038
:1008100041FA02F3D040C2F1200291400843194648
:1008200070472DE9F04791460F4680460446002662
:1008300014F8015B2DB100F003F90068405DC007BA
:10084000F6D12B2D02D02D2D18D0641E4A463946E4
:10085000204600F0F9F827B13968A14201D1C7F864
:10086000008071054FF002040BD54042002803DDE3
:1008700006F01CFB0460A007BDE8F08746F4806624
:10088000E4E70028F8DA06F011FB04606FF000409E
:10089000F2E70029A8BF7047401C490008BF20F0BC
:1008A0000100704710B4B0FA80FC00FA0CF050EA76
:1008B000010404BF10BC704749B1CCF1200421FAF7
:1008C00004F411FA0CF118BF012121430843A3EBF2
:1008D0000C01CB1D4FEA00614FEA102042BF0020FF
:1008E00010BC704700EBC35010440029A4BF10BCDB
:1008F0007047401C490008BF20F0010010BC704741
:1009000010B5141E73F1000408DA401C41F1000117
:1009100092185B411A4301D120F0010010BD2DE96E
:10092000F04D92469B4611B1B1FA81F202E0B0FA65
:1009300080F220329046FFF743FF04460F4640EA1C
:100940000A0041EA0B0153465A46084313D01146A8
:1009500053EA010019D0C8F140025046FFF73FFFAB
:1009600005460E46504659464246FFF729FF0843C2
:1009700005D0012004E020463946BDE8F08D002076
:10098000054346EAE0762C4337430A986305E40AB8
:10099000A0EB08000022FD0A44EA47540A3002D5C1
:1009A00000200146E9E7010510196941DDE9084524
:1009B00000196941BDE8F04DA2E7C1F30A52C1F345
:1009C000130140F2FF3341F480119A4202DA002011
:1009D0000146704740F233439A42A2F2334202DCAE
:1009E0005242FFF7FCBEFFF7EBBE000030B5041E1D
:1009F00071F1000404DB4FF00044404264EB01015C
:100A0000141E73F1000405DB1C464FF000435242F4
:100A100063EB0403994208BF904230BD064C074D7A
:100A200006E0E06840F0010394E8070098471034BE
:100A3000AC42F6D3FFF7B4FBB0D90008D0D9000818
:100A400000487047E4D800082DE9F05F824600783E
:100A5000002715468B460AF10104B946302801D01B
:100A60009DB113E014F8010B0127782803D0582812
:100A700001D045B10AE00DB1102D07D10027102596
:100A800014F8010B02E0082500E00A250026B04614
:100A90000EE005FB080005FB06F1012701EB1046FF
:100AA0001FFA80F8B6F5803F00D3B94614F8010B61
:100AB000294600F069F80028EBDABBF1000F05D0F9
:100AC0000FB1641E00E05446CBF80040B9F1000FAE
:100AD00006D006F0EBF902210160C81EBDE8F09FC8
:100AE00048EA0640FAE72DE9F04D00231A461B1AA2
:100AF0008A4103DB00200146BDE8F08DC1F30A52B4
:100B0000C1F3130141F480154FF0000BD10702D15E
:100B100000186D41521E0027044640F2FF1138466E
:100B200001EB620A3E468046024600204FF48011E7
:100B3000FFF755FEC2197141BB1846EB0100B4EB3B
:100B4000030C75EB000C04D3E41A65EB00051746A3
:100B50000E46241908F101006D4180463428E3DD7A
:100B6000F91946EB0600091BA84103D24FF0FF32EA
:100B7000134601E0002213461BEB070046EB0A5127
:100B8000BDE8F04DFFF7BCBE3A2800D2303820F067
:100B90002002412A01D3A2F13700884201D34FF04D
:100BA000FF30704770B58C1810F8015B15F0070323
:100BB00001D110F8013B2A1106D110F8012B03E0F6
:100BC00010F8016B01F8016B5B1EF9D12B0705D4FE
:100BD0000023521E0DD401F8013BFAE710F8013B47
:100BE000CB1A921C03E013F8015B01F8015B521E63
:100BF000F9D5A142D8D3002070BD0000464910B5F8
:100C00004A6822F440324A604A6843681A434A609C
:100C100001684A6822F480724A6001684A68036980
:100C200042EA03224A6001684A6822F040724A6040
:100C300001684A6883681A434A6001688A6822F436
:100C400000628A6001688A68C3681A438A60816AA0
:100C50006FF07062D14201688A6822F070628A6027
:100C600001688A680CD0836A1A438A6001688A68BE
:100C700022F040528A6001688A68C36A1A4301E020
:100C800022F040528A6001688A6822F002028A607B
:100C900001688A68037E42EA43028A6090F8201065
:100CA000002901684A680FD042F400624A60016876
:100CB0004A6822F460424A6001684A68174C436AF5
:100CC00004EB43331A4301E022F400624A600168F6
:100CD000CA6A22F47002CA620168CA6A838B104C25
:100CE00004EB03531A43CA6201688A6822F4007253
:100CF0008A6001688A6890F8303042EA43228A604C
:100D000001688A6822F480628A6001688A684069A2
:100D100042EA8020886010BD0023014000E0FFFF10
:100D20000000F0FF0C4C206809F0B7FB0B4D4FF4AE
:100D300000764FF4FA7700223146284600F013FF80
:100D4000384609F019FB01223146284600F00BFF16
:100D5000206809F0A2FBEEE710000020000402402A
:100D6000FEE70000014800F08BBC0000700400208A
:100D7000014800F085BC0000F0020020014800F0AE
:100D80007FBC000058050020014800F079BC00003D
:100D9000B805002001681823CAB2103AB2FBF3F27A
:100DA000054B6FF30901032A9B5CC36500D9091D3C
:100DB00081650846704700004AD7000810B5014613
:100DC00000208B698A6A4FF0C07453B1B3F5005F9D
:100DD00015D072B1012A0CD0022A0AD0032A09D1F7
:100DE00004E01AB1012A06D0022A03D1C96AC90156
:100DF00000D5012010BDC96AA142FAD010BD002A59
:100E0000F7D0012AF2D0022AF3D0032AF3D010BD82
:100E100030B50468256825F4802525600468636082
:100E20008368402B036803D099600068C26030BDBE
:100E30009A600068C16030BD10B5012220211348BE
:100E40000AF04DF8124C0222202160600F480AF08F
:100E500046F8A060032220210C480AF040F8E06028
:100E60000422202109480AF03AF8206105222021B5
:100E700006480AF034F86061FFF734FC41EC100BCF
:100E8000BDE81040034803F0F3BF000090060020C7
:100E90002C00002090070020704700002DE9F74F3C
:100EA00086B016468A4600F057F9044600F04EF91F
:100EB000019000F057F9014600900198814201D05D
:100EC000012000E0002004900698ACB1802836DABA
:100ED000BAF1400F33DA069804EB84010844012884
:100EE0002DD40AEBC400012829D4334906EB86002F
:100EF00008440025039028E0062820DCBAF1780F8A
:100F00001DDC203E2D4DF6B2002400BF04EB061080
:100F10000AEB04012A5C069805F066FF641C082CA5
:100F2000F4DB002404EB061028440AEB0401027AE7
:100F30000698401C05F058FF641C082CF2DB09B031
:100F4000BDE8F08F052D0AD00398284409F0B5FAC2
:100F5000804600275FEAC87003D0019802E00020B5
:100F6000F6E700980499834608431BD0002016E05A
:100F70000699002601EB090005FB0400029009E038
:100F80000AEB060007FB04015A46029805F03EF8FA
:100F9000761CF6B2A642F3D309F10100C0B2814635
:100FA000A042E5D37F1C4FEA6808082FD2DB6D1CF6
:100FB000062DC7DBC3E7000014C0000814C50008F5
:100FC0002DE9F04717460D468146002400F0FF0842
:100FD00001F0FF0A00F0C0F806001DD006EB460540
:100FE0003A5D002A1BD00A2A1BD051464046FFF723
:100FF00055FF08EB4500C0B2641C8046E4B2EFE741
:1010000029464846FFF74AFF0835782D02DD0025BE
:1010100009F10209641CE4B23A5D002AF0D1BDE88E
:10102000F0870AEBC60000F0FF0A09F0FF00E3E7D3
:1010300004F0A8BE2DE9F04707460021404802F021
:1010400013FC04213E4802F00FFC00213D4802F051
:101050000BFC04213B4802F007FC0821394802F050
:1010600003FC0C21374802F0FFFB4FF4FA794846A5
:1010700017B100F077FC01E009F07EF9304E40F640
:10108000A66530684563306885632E4C20684563EB
:10109000206885632068C5632068056400213046A8
:1010A00002F0B8FA0421304602F0B4FA00212046DA
:1010B00002F0B0FA0421204602F0ACFA08212046E2
:1010C00002F0A8FA0C21204602F0A4FA41F2883876
:1010D000404617B100F046FC01E009F04DF93168D7
:1010E000C1F834803168C1F838802168C1F8348093
:1010F0002168C1F838802168C1F83C802168C1F8B6
:1011000040804FF4FA6017B100F02CFC01E009F0C8
:1011100033F930684563306885632068456320682B
:1011200085632068C5632068056448461FB1BDE833
:10113000F04700F017BCBDE8F04709F01DB900000A
:10114000280400209803002072B6FEE701480078CA
:1011500070470000B500002001484078704700004B
:10116000D90000200148007870470000D900002015
:1011700010B50D490D4807F019F800EE100A0C489B
:101180009FED0D1AB8EE400AD0ED000A20EE200ABD
:10119000DFED080A70EE600AB3EE090A00EE810A7C
:1011A00080ED010A10BD000012000010AC0100200B
:1011B000480000205C8F423F0000C84370B5002506
:1011C0002C461121094806F0F1FF6D1CEDB20444D4
:1011D000C82DF6D300EE104ADFED050A0548B8EE3B
:1011E000400A80EE801A80ED001A70BDAC0100202C
:1011F0000100704348000020084910B141F28830D6
:1012000001E040F6C410C88081B241F65830421A5D
:10121000034803685A6300688163704750000020E8
:101220005003002078B50024009490F83C20012A57
:1012300019D0012280F83C200A6807230568092A92
:1012400013D9EE680A3A02EB420293409E43EE60E5
:101250000B788A680A3B03EB43039A400368DD6816
:101260002A43DA6010E0022078BD2E6902EB4202C8
:1012700093409E432E610B788A6803EB43039A40A8
:1012800003681D692A431A614A681F23072A13D27B
:1012900005686E6B521E02EB820293409E436E63A2
:1012A0000A8893B20A79521E02EB820293400268C6
:1012B000556B2B43536327E005680D2A12D22E6B22
:1012C000D21F02EB820293409E432E630B790A8861
:1012D000DB1F92B203EB83039A4003681D6B2A4322
:1012E0001A6311E0EE6A0D3A02EB820293409E43CC
:1012F000EE620B790A880D3B92B203EB83039A40AE
:101300000368DD6A2A43DA621B4B0568194A9D426D
:101310000AD10D68122D07D1556825F400055560D6
:10132000556845F48005556005689D421DD1134DF3
:101330000B68AB4201D0112B17D1536823F4800303
:101340005360536843F4000353600968A9420CD109
:101350000B490C4A0968B1FBF2F101EB810149002C
:1013600000E0491E00910029FBD180F83C4000209C
:1013700078BD000000230140002001401200001051
:101380002001002040420F000068C06C704770B51B
:1013900004004FF0000503D0206C002610B107E0D8
:1013A000012070BD204600F01DF8666484F83C60A2
:1013B000206CC00610D4206C20F4885040F002004D
:1013C00020642046FFF71AFC6664206C20F00200BF
:1013D00040F00100206400E0012584F83C602846CC
:1013E00070BD000008B500680649884208D106486B
:1013F000016841F480710160006800F48070009021
:1014000008BD000000200140443802402DE9F041B1
:10141000044600680D4681684FF0000749050BD56A
:101420008068C00508D5206C40F02000206484F856
:101430003C700120BDE8F08100F09AFB064613E005
:10144000681C11D025B100F093FB801BA8420BD97A
:1014500020680068800707D4206C40F004002064F6
:1014600084F83C700320E5E7206800688007E7D532
:1014700021686FF012000860206C40F40070206456
:101480002068816811F0405F13D1217E89B9C16A5B
:1014900011F4700F02D0806840050AD4206C20F44B
:1014A00080702064206CC00403D4206C40F00100E4
:1014B00020640020BEE7000018B50021009190F8DC
:1014C0003C20012A07D0012280F83C200268936862
:1014D000DB0702D011E0022018BD936843F001033E
:1014E0009360244A244B1268B2FBF3F202EB4202EF
:1014F00000E0521E0092002AFBD102689368DB07CD
:101500002ED0036C40F20164A34343F48073036460
:1015100053685B0505D5036C23F4005343F48053F3
:101520000364036CDB0404D5436C23F006034364BB
:1015300000E0416480F83C1010496FF02203136012
:1015400049680068C90602D00D49884210D18168F7
:1015500011F0405F0CD1816841F08041816007E06B
:10156000016C41F010010164416C41F001014164E2
:10157000002018BD2001002040420F000023014040
:101580000020014090F83C1001290CD0012180F886
:101590003C1001688A6822F001028A60016889684B
:1015A000C90702D007E002207047016C21F488517E
:1015B00041F001010164002180F83C1008467047A9
:1015C0002DE9F0410446876D00F0D2FA064694F802
:1015D00035000025022806D08020606584F834504C
:1015E0000120BDE8F0812068016821F0160101604A
:1015F0002068416921F080014161206C08B9A06C2C
:1016000020B12068016821F00801016020680168AC
:1016100021F0010101600CE000F0AAFA801B05280E
:1016200007D920206065032084F8350084F8345001
:10163000D7E720680068C007EED194F85C103F201F
:101640008840B860012084F8350084F834500020C8
:10165000C7E790F83510022903D0802141650120A9
:101660007047052180F835100068016821F00101FC
:10167000016000207047406D704790F8350070475A
:101680002DE9F84304464FF00009CDF80090634877
:101690004FF41651A56D0068B0FBF1F72E6894F871
:1016A0005C10082000FA01F131420FD021680A686D
:1016B00052070BD50A6822F004020A6094F85C1005
:1016C0008840A860606D40F00100606594F85C108F
:1016D0004FF0010808FA01F0304208D0216849694A
:1016E000090604D5A860606D40F00200606594F8BA
:1016F0005C1004208840304208D0216809688907BE
:1017000004D5A860606D40F00400606594F85C103A
:1017100010208840304218D021680968090714D584
:10172000A86020680168490304D50068000308D553
:10173000A16C07E00168C90503D4016821F0080124
:101740000160216C09B12046884794F85C10202084
:101750008840304231D021680968C9062DD5A8607B
:1017600094F8350005282068016806D0490347D55C
:10177000006800031DD4616C1CE021F016010160BB
:101780002068416921F080014161206C08B9A06C9A
:1017900020B12068016821F00801016094F85C1014
:1017A0003F208840A86084F8358084F83490216D0B
:1017B0001FE0E16B09B120468847606D00282BD0FF
:1017C000606DC00714D0052084F8350020680168DA
:1017D00021F0010101600098401C0090B84203D83C
:1017E00020680068C007F6D184F8358084F834900A
:1017F000E16C002910D001B02046BDE8F043084755
:101800000168C905D5D4016821F01001016084F890
:10181000358084F83490CCE7BDE8F88320010020BF
:101820002DE9F041044600F0A3F906465CB1022020
:1018300084F83500002584F834502068016821F0D0
:10184000010101600DE00120BDE8F08100F090F998
:10185000801B052805D920206065032084F8350009
:10186000F2E720680068C007F0D1226811682048BC
:101870000140D4E901031843D4E903363343184344
:1018800063691843A3691843E3691843236A18433B
:101890000843616A042903D1D4E90B1319430843AF
:1018A000106020684069666A20F0070130460E43E8
:1018B000012704280CD1A06A0643E06A40B1204603
:1018C000FFF77CFA20B14020606584F83570BAE7F4
:1018D000206846612046FFF75DFA94F85C203F21BE
:1018E00091408160656584F835700020ACE70000A8
:1018F0003F8010F02DE9F0410446866D90F83400E9
:10190000002501280DD0012084F8340094F83570AA
:101910000020012F07D084F8340002252846BDE8B6
:10192000F0810220FBE7022784F8357060652046CD
:10193000FFF76EFA94F85C103F208840B060206892
:10194000016841F016010160206C20B12068016837
:1019500041F0080101602068016841F00101016067
:10196000DCE7000070B5054600F002F94FEA00041C
:1019700000F0FEF8001BA842FAD370BD2DE9F84F25
:10198000DFF8B8A1002201240AF1040B03254FF06F
:101990000F090BF1040E00BF0B6804FA02F6334086
:1019A000B34273D10F7907F00307012F01D0022F43
:1019B00016D187684FEA420805FA08FC27EA0C07A7
:1019C000D1F80CC00CFA08FC4CEA070CC0F808C0AF
:1019D0004768B7430E79C6F3001696403E4346600B
:1019E0000E79F643B6070DD0C768560005FA06FC17
:1019F00027EA0C07D1F808C00CFA06FC4CEA070CE1
:101A0000C0F80CC00E7906F00306022E10D1D608DD
:101A100000EB8608D8F8206057074FEAD76C09FA20
:101A20000CF7BE430F6907FA0CF73743C8F820706C
:101A300006684FEA420C05FA0CF7BE430F7907F02F
:101A4000030707FA0CF7374307604E6816F4403F68
:101A50006DD03B4E376847F480473760366822F0D8
:101A6000030706F480460096364E07EB060CDCF8BA
:101A7000086897073F0F09FA07F826EA0806DFF813
:101A8000C880404503D14FF000081EE04FE0DFF86A
:101A9000BC80404502D14FF0010816E0DFF8B0806D
:101AA000404502D14FF002080FE0DFF8A880404522
:101AB00002D14FF0030808E0DFF89C80404502D1D6
:101AC0004FF0040801E04FF0070808FA07F848EA69
:101AD0000608CCF80888DAF800605746D1F804C048
:101AE0009E435FEACC3C00D51E433E60DBF80060BD
:101AF0005F46D1F804C09E435FEA8C3C00D51E438C
:101B00003E60DEF800607746D1F804C09E435FEA8D
:101B1000CC2C00D51E433E60084F0C373E68D1F8F0
:101B200004C09E435FEA8C2C00D51E433E60521CCD
:101B3000102AFFF431AFBDE8F88F0000003C0140EF
:101B400044380240003001400000024000040240DE
:101B500000080240000C02400010024000690840EA
:101B600000D0012070470AB1816170470904FBE78A
:101B700001488068704700001401002070477047DA
:101B80002DE9F047026800215368C66A90F83E408C
:101B900090F83D50102C12D0402C10D0046C002C2A
:101BA0007DD05469E443A6077AD4DE43B60577D4E2
:101BB000036C03B19169BDE8F04702F057BF976924
:101BC00051694FF42A0CC9435FEAC1784FF02A49A2
:101BD00004D066452AD04E4528D010E0DE43B60535
:101BE0000DD4C16A614501D1012103E0C16A4945B3
:101BF00001D10821C162BDE8F04702F0CFBD0E0758
:101C000016D4DE43B60513D4416CC9B21161416BE1
:101C100009B1C96B29B9816B002907D0C96B0029AB
:101C200004D00068416841F400614160BDE8F0877C
:101C30008E0706D4DE43B60503D4BDE8F04702F0B4
:101C400021BDFE43526876074FEA02521DD4002A96
:101C5000ECDB0A0608D4DA43520505D4490705D55A
:101C6000BDE8F04702F0B2BC4907DFD4D94389058B
:101C7000DCD4212D05D0402CD8D1BDE8F04702F0AE
:101C8000D3BDBDE8F04702F05FBC002ACEDB4A06B8
:101C90000BD4DA43520508D4490708D501E00DE01A
:101CA0000EE0BDE8F04702F017BB4907BED4D943A8
:101CB0008905BBD4BDE8F04702F0A5BA916970E789
:101CC000E10606D4D943890503D4BDE8F04702F004
:101CD000F1BE2821212D27D0292D25D0650655D4E8
:101CE000DD436D0552D4640752D590F83D30448DE4
:101CF000002C9BD01269446A2270426A521C4262D4
:101D0000428D521E4285428D002A8FD12A2B8DD1C1
:101D10000268536823F4806353602222026380F8D0
:101D20003D1000F0BDFD81E7250623D4DD436D05A0
:101D300020D4640720D590F83D30448D002CF2D09B
:101D4000446A24781461426A521C4262428D521ED7
:101D50004285428D002AE6D1292BE4D102685368DE
:101D600023F4806353602122026380F83D1000F069
:101D700098FD5BE76107D6D4D9438905D3D4418D5B
:101D80000029D0D0416A097811610AE06107CAD4FC
:101D9000D9438905C7D4418D0029C4D01169426A4D
:101DA0001170416A491C4162418D491E41853DE7E0
:101DB0007047000070B5040025D094F83D00002560
:101DC00020B984F83C50204600F0A6FC242084F87A
:101DD0003D002068016821F0010101602068016870
:101DE00041F4004101602068016821F40041016074
:101DF00000F0CAFE4D4A6168914201D84C4900E0AA
:101E00004C49884201D2012070BD4B492368B0FB88
:101E1000F1F15E6826F03F060E435E606368934210
:101E200006D94FF4967359434FF47A73B1FBF3F12B
:101E30002368491C1E6A26F03F0631431962616817
:101E4000914210D84900401EB0FBF1F2521CC2F37F
:101E50000B02042A01D2042022E0B0FBF1F0401C66
:101E6000C0F30B001CE0A268F2B301EBC10303EB6B
:101E70000116431EB3FBF6F35B1C43F480431B05C2
:101E800049D092B301EBC10202EB0111401EB0FB3D
:101E9000F1F0401CC0F30B0040F4804040F40040DF
:101EA0002168CA694CF6FF739A431043C861D4E9AC
:101EB000071001432068026822F0C002114301604C
:101EC000D4E9030101432068826848F2FF339A4352
:101ED00011438160D4E9050108432168CA6822F0F2
:101EE000FF021043C86001E00EE016E020680168C0
:101EF00041F0010101602564202084F83D00256344
:101F000084F83E50002070BD01EB4106431EB3FB38
:101F1000F6F35B1CB3E70120C2E701EB4101401E71
:101F2000B0FBF1F0401CC0F30B00B7E7A086010046
:101F300080841E0000093D0040420F00704770473A
:101F4000704700002DE9F84F1F4690468A46044628
:101F5000DDF82890FFF70CFE054694F83D00202898
:101F600075D1192301226C492046009502F076FEB6
:101F70000028F5D194F83C00012868D0012084F8AD
:101F80003C0020680168C90703D1016841F00101E4
:101F900001602068016821F400610160222084F85A
:101FA0003D00102084F83E0000262664C4F82480FA
:101FB0006785608D20855948E0622B464A46514628
:101FC000204602F0FDF9002878D1208D544F68B1E9
:101FD000012814D002282068016816D041F48061DD
:101FE0000160206841698069009087E0206841694C
:101FF00081690091016841F4007101607EE0206810
:10200000016821F480610160F0E721F480610160E2
:102010002068016841F40061E2E7032848D80128FC
:102020000AD0022814D04B4600223946204600959B
:1020300002F014FED8BB27E02A464946204602F0AB
:102040008CFEA0BB20680069616A08704DE061E009
:102050004B46002239462046009502F0FFFD30BB7A
:102060002068016841F40071016020680069616ABC
:102070000870606A401C6062218D491E2185618D57
:10208000491E618521682EE02068016821F4806185
:10209000016020680069616A0870606A401C6062C3
:1020A000208D401E2085608D401E6085D0E705E0B4
:1020B0002A464946204602F050FE10B10120BDE8F4
:1020C000F88F20680069616A0870606A401C60626D
:1020D000218D491E2185618D491E618521684A69CE
:1020E000D24352070AD409690170606A401C6062D9
:1020F000208D401E2085608D401E6085208D00282B
:102100008BD1202084F83D0084F83E6084F83C6048
:102110000020D4E70220D2E7020010000000FFFFF9
:10212000040001002DE9F84F1F4690468A460446F8
:10213000DDF82890FFF71CFD054694F83D002028A7
:102140007FD11923012240492046009502F086FDE7
:10215000002876D194F83C00012872D0012084F840
:102160003C0020680168C90703D1016841F0010102
:1021700001602068016821F400610160212084F879
:102180003D00102084F83E0000262664C4F8248018
:102190006785608D20852D48E0622B464A46514672
:1021A000204602F083F990B9206841698069009067
:1021B00036E02A464946204602F002FE50B1206C25
:1021C000042804D12068016841F4007101600120F5
:1021D000BDE8F88F606A216800780861606A401C79
:1021E0006062618D491E6185218D491E89B22185FC
:1021F00022685369DB435B070BD451B1007810614F
:10220000606A401C6062608D401E6085208D401EAB
:1022100020852A464946204602F0FAFC0028CED105
:10222000208D0028C5D154F83D0B016841F40071A0
:102230000160202004F81E09E67766770020C7E7D2
:10224000FFE70220C4E70000020010000000FFFFCB
:10225000704770472DE9FF4F83B09A46DDE911972B
:1022600093460446DDF84080FFF782FC054694F86B
:102270003D00202870D11923012271492046009584
:1022800002F0ECFC0028F5D194F83C00012863D062
:10229000012084F83C0020680168C90703D1016867
:1022A00041F0010101602068016821F400610160D2
:1022B000222084F83D00402084F83E000026266459
:1022C000C4F82480A4F82A90608D20855D48E062DF
:1022D000CDE9007553465A462046049902F0F4FAB7
:1022E00000287CD1208DD0B1012821D0022820687F
:1022F00024D0416980690090208D032869D8012885
:102300002BD0514902283B464FF00002009559D08E
:102310008846204602F0A2FC002860D13CE02068FC
:10232000416981690091016841F40071016077E0C1
:102330002068016821F480610160F0E7016821F400
:10234000806101602068016841F4006101602068DB
:1023500041698069009063E06FE02A463946204673
:1023600002F0FBFC98BB20680069616A08704EE0CF
:102370002068016841F40071016020680069616AA9
:102380000870606A401C6062218D491E2185618D44
:10239000491E6185216838E02068016821F4806168
:1023A000016020680069616A0870606A401C6062B0
:1023B000208D401E2085608D401E60853B4600229A
:1023C00041460095204602F049FC00B9D0E706E0FE
:1023D000FFE72A463946204602F0BFFC18B101202B
:1023E00007B0BDE8F08F20680069616A0870606A14
:1023F000401C6062218D491E2185618D491E6185C9
:1024000021684A69D24352070AD409690170606A97
:10241000401C6062208D401E2085608D401E6085BE
:10242000208D00287FF468AF202084F83D0084F8D8
:102430003E6084F83C600020D2E70220D0E7000034
:10244000020010000000FFFF040001002DE9FF4F13
:1024500083B09A46DDE9119793460446DDF8408043
:10246000FFF786FB054694F83D0020287FD119230D
:10247000012240492046009502F0F0FB002876D169
:1024800094F83C00012872D0012084F83C002068B8
:102490000168C90703D1016841F0010101602068AA
:1024A000016821F400610160212084F83D00402092
:1024B00084F83E0000262664C4F82480A4F82A90FC
:1024C000608D20852C48E062CDE9007553465A4660
:1024D0002046049902F076FA70B930E02A4639466F
:1024E000204602F06DFC58B1206C042804D120680D
:1024F000016841F400710160012007B0BDE8F08F70
:10250000606A216800780861606A401C6062218D01
:10251000491E89B22185628D521E628522685369E7
:10252000DB435B070BD469B100781061606A401C23
:102530006062208D401E2085608D401E6085208D4C
:102540000028CBD12A463946204602F061FB0028FC
:10255000CAD154F83D0B016841F40071016020209C
:1025600004F81E09E67766770020C6E7FFE7022039
:10257000C3E70000020010000000FFFF2DE9FC5F30
:102580000025984691468A460446DDF830B000950D
:10259000FFF7EEFA074694F83D00202872D15A481A
:1025A00046F2A81120260068B0FBF1F000EBC00154
:1025B00001EB001000900098401E009010D02068A1
:1025C0008069C0438007F6D594F83C00012859D0B3
:1025D000012084F83C0020680168C9070AD00DE09A
:1025E00044F8305F6673A573206940F020002061D5
:1025F000257344E0016841F0010101602068016831
:1026000021F400610160212084F83D00402084F81D
:102610003E002564C4F824B00D986085608D208547
:102620003A48E062C4F844A0C4F84890C4F84C802A
:102630002565208D00285CD0606B20B33449C163D0
:10264000616B3448C864606B0564606B4564606BA3
:102650008564606B05652268238D1032616A606B4A
:10266000FFF748F9C0B184F83D6084F83E5054F853
:10267000400F40F0100000BF44F80409257001200D
:10268000BDE8FC9F3EE084F83D6084F83E5054F87D
:10269000400F40F08000EFE72320CDE900074346DC
:1026A0004A465146204602F08DF988B1606BFEF72C
:1026B000D0FF606BC5632068016821F48061016010
:1026C000258565852068016821F001010160D6E754
:1026D000206841698169009184F83C50416841F467
:1026E000807141602068416841F4006141600020D0
:1026F000C6E784F83D6084F83E5054F8400F40F03F
:102700004000B9E70220BBE7200100200000FFFFE6
:10271000753F0008353F00082DE9F04F87B081462E
:1027200014216846FDF731FE564C554DD9F800305E
:102730005448122603210422534F10344FF0000C4A
:102740004FF00108AB4218D1036843F00203036065
:10275000006800F002000590CDE90312C8018DE881
:10276000410169463846FFF709F9206840F4001036
:102770002060206800F400107FE0444DAB424ED151
:102780000368654643F0020303600068B24600F048
:102790000200CDE904200E464FF4806BCDE902869D
:1027A000CDE900BA69463846FFF7E8F80820CDE9D8
:1027B000000ACDF808800920CDE903606946384653
:1027C000FFF7DCF8206840F4800020602068314C7E
:1027D00000F4800005902E4820604FF0606060603B
:1027E00004F10803402083E821086561A561E561E3
:1027F000256220466562FFF713F808B1FEF7A4FCD6
:10280000C9F83440002205212120C4F8389000F096
:10281000CFF8212000F0BEF807B0BDE8F08F1E4DC4
:10282000AB42F9D1036843F001030360036803F08E
:1028300001030593036843F002030360006800F09E
:1028400002000590A8158DE841010D46CDE903521F
:1028500069461248FFF792F810208DE841010920DF
:10286000CDE9035069463846FFF788F8206840F400
:1028700000002060206800F400000590CCE7000014
:10288000005400403038024000040240005800402C
:10289000B8600240F0020020005C004000000240EE
:1028A0007047704702488168027811448160704720
:1028B000140100200B4810B5016841F4007101605B
:1028C000016841F480610160016841F48071016038
:1028D000032000F08DF8002000F006F800F03EF82C
:1028E000002010BD003C024010B5014688B0002217
:1028F0001A2000F05DF81A2000F04CF8134800246C
:10290000016841F480210160006805A900F480207D
:102910000690684600F018F900F046F90C490D4A97
:10292000B0FBF1F10C48491E026040F2E732C0E909
:102930000324C0E9011400F06FFB10B1012008B0BE
:1029400010BD054800F0C8FBF9E70000443802401C
:1029500040420F0000480140180600200C4882B099
:10296000016841F480410160006800F480400090FB
:102970000748001F016841F0805101600068002293
:1029800000F0805000900F21901E02B000F010B8AF
:1029900044380240002809DB00F01F020121914069
:1029A0004009800000F1E020C0F8001170470000ED
:1029B000F0B40E4B1B680C46C3F30223C3F10705AA
:1029C000042D00D90425191D072901D2002300E098
:1029D000DB1E012606FA05F1491E214099409E4062
:1029E000761E16403143F0BC04F050BA0CED00E006
:1029F000064900F0070208684FF6FF03184040EA56
:102A00000220034A10430860704700000CED00E00C
:102A10000000FA052DE9F0470E46050065D0DFF805
:102A20001481D8F80000F7B200F00700B04207D2D6
:102A300088F80070D8F8000000F00700B04254D1C8
:102A400028683D4C810712D5400703D5206840F423
:102A5000E05020602878000703D5206840F46040EB
:102A600020602068A96820F0F000084320602878E2
:102A7000C0072DD0304968680839012812D00228D3
:102A800013D0032811D00968890700292DDA21689D
:102A900021F0030101432160FFF76AF8814641F20A
:102AA000883A0EE009688903EFE709688901ECE7D5
:102AB000FFF75EF8A0EB0901514502D90320BDE8FC
:102AC000F0872068696800F00C00B0EB810FEFD14F
:102AD000D8F80010404601F00701B14207D907704D
:102AE000006800F00700B04201D00120E7E7287835
:102AF000400705D52068E96820F4E05008432060CD
:102B00002878000706D52068296920F4604040EA4B
:102B1000C100206000F058F82168084AC1F3031191
:102B2000515CC8400649086006480068FFF7DCFEB3
:102B30000020C4E7003C02400838024052D7000899
:102B400020010020180100200F2202600C4A1368A7
:102B500003F003034360136803F0F003836013681A
:102B600003F4E053C36012684FF4E05303EAD20267
:102B700002610448006800F0070008607047000028
:102B800008380240003C02400448054900680968D2
:102B9000044AC1F38221515CC840704720010020E3
:102BA0000838024062D700080448054900680968EF
:102BB000044AC1F34231515CC840704720010020F3
:102BC0000838024062D70008154810B5006810F0B8
:102BD0000C02144813D01449042A0FD0082A0ED12D
:102BE0000F4C241F2268236802F03F025B0207D5C6
:102BF0002068C0F38810A0FB010106E0084610BD64
:102C00002168C1F38811A1FB00010023FDF742FBFD
:102C10002168C1F30141491C4900B0FBF1F010BD2E
:102C2000083802400024F40040787D012DE9F84F77
:102C300004006ED02078DFF84C93C007A9F104059A
:102C40004AD009F104000168C1F38101012908D0CB
:102C50000068C0F3810002280AD1D9F800004002C0
:102C600006D52868800337D560680028E1D033E0B6
:102C70006068B0F5803F10D0B0F5A02F286810D064
:102C800020F480302860286820F480202860606864
:102C9000A8B1FEF76DFF06460DE0286840F48030CD
:102CA000F4E740F480202860F7E700BFFEF760FFFC
:102CB000801B642873D828688003F7D50CE0FEF7E2
:102CC00057FF064605E000BFFEF752FF801B642851
:102CD000F0D828688003F7D42078DFF8AC8280072A
:102CE0004FF0000A3ED5A748001D016811F00C0FF7
:102CF00008D00068C0F3810002280BD1D9F8000089
:102D0000400207D42868800716D5E068012800D162
:102D100012E033E1E068B8B10120C8F80000FEF726
:102D200027FF064605E000BFFEF722FF801B0228B2
:102D3000C0D828688007F7D52868216920F0F800F6
:102D400040EAC10028600DE0C8F800A0FEF710FFBF
:102D5000064604E0FEF70CFF801B02281FD82868F7
:102D60008007F7D42078000722D5864F874861690D
:102D7000703771B101210160FEF7FAFE064604E0EA
:102D8000FEF7F6FE801B022809D838688007F7D5C1
:102D90000EE0C0F800A0FEF7EBFE064605E082E07C
:102DA000FEF7E6FE801B02287DD838688007F7D43E
:102DB0002078400768D5DFF8CCB100270BF13C0B39
:102DC000DBF80000C0000BD4DBF8001041F08051AC
:102DD000CBF80010DBF80000012700F080500090D5
:102DE0006B4E3068C00510D4306840F4807030609D
:102DF000FEF7BEFE009005E0FEF7BAFE0099401A0D
:102E0000022850D83068C005F6D55E4EA0686C36F2
:102E100001280FD00528306810D020F00100306064
:102E2000306820F004003060A068B8B1FEF7A0FE62
:102E300000900FE0306840F00100F4E740F004003B
:102E40003060F7E7FEF794FE0099411A41F28830AE
:102E5000814266D830688007F4D50EE0FEF788FE20
:102E6000009007E0FEF784FE0099411A41F2883095
:102E7000814256D830688007F4D42FB1DBF80010B7
:102E800021F08051CBF80010A069C8B33D49091D5D
:102E90000968C1F3810102294AD00228504607D0AF
:102EA000C8F8600000E03CE0FEF762FE04463BE04C
:102EB0004746C8F86000FEF75BFE064605E000BF27
:102EC000FEF756FE801B02282BD828688001F7D415
:102ED000D4E907010843A16A2E4A490802EB0141DF
:102EE000626A41EA8211084394F82C1040EA0161B9
:102EF000C9F8001001203866FEF73AFE044606E0E5
:102F00003EE000BFFEF734FE001B022809D8286807
:102F10008001F7D534E000BFFEF72AFE001B02282F
:102F200002D90320BDE8F88F28688001F4D427E097
:102F30000128F7D0D9F80000E26900F4800191423D
:102F40001CD1226A00F03F01914217D147F6C071AF
:102F5000626A0140B1EB821F10D1A26A4FF0FF33C9
:102F600000F4403103EB5202B1EB024F06D194F86A
:102F70002C1000F07060B0EB016F01D00120D1E7A0
:102F80000020CFE70438024000004742800E47424D
:102F9000007000400000FFFF7047704770B590F868
:102FA0003C20012A2CD0012480F83C40022280F8E9
:102FB0003D2003685A689D6822F070060A68324313
:102FC0005A60104B02689A420ED0B2F1804F0BD07B
:102FD0000D4B9A4208D00D4B9A4205D00C4B9A42A9
:102FE00002D00C4B9A4204D1496825F08003194362
:102FF000916080F83D40002180F83C10084670BD8B
:10300000022070BD000001400004004000080040A4
:10301000000C00400040014010B5040003D094F8BB
:103020003D0010B107E0012010BD002084F83C00F5
:10303000204600F01FF8022084F83D00211D206882
:1030400003F08AF8012084F8460084F83E0084F8F2
:103050003F0084F8400084F8410084F8420084F87E
:10306000430084F8440084F8450084F83D000020C3
:1030700010BD000038B5054600681349884222D1CA
:10308000124900200A6842F004020A600968114CE3
:1030900001F0040100910E49216089056160402121
:1030A000C4E9021009012161490061618900C4E994
:1030B0000610206260622046FEF7B2FB08B1FEF700
:1030C00043F86C62A56338BD0008004040380240F8
:1030D000106002407004002090F83D10012901D0DA
:1030E00001207047022180F83D100168CA6842F053
:1030F0000102CA6000680E4988420ED0B0F1804FCC
:103100000BD00C49884208D00B49884205D00B49A6
:10311000884202D00A49884204D1816801F007013F
:10312000062903D0016841F00101016000207047C9
:10313000000001400004004000080040000C004076
:103140000040014070B5044690F83C00002501287D
:1031500017D0012684F83C60022084F83D002068E6
:10316000826822F0770222F47F4282600868502849
:1031700038D00DDC20284FD005DC90B3102811D1B9
:103180004AE0022070BD302846D040280AD13BE0FA
:1031900060282FD070280DD0B0F5805F03D0B0F537
:1031A000005F12D0012584F83D60002084F83C00C7
:1031B000284670BDCB68D1E90121206803F09AF858
:1031C0002068816841F0770109E0CB68D1E90121ED
:1031D000206803F08FF82068816841F480418160A5
:1031E000E1E719E0CA684968206803F037F950211F
:1031F000206806E0CA684968206803F040F9602149
:10320000206803F081F8CEE7CA684968206803F0B7
:1032100025F940212068F4E7226801461046F0E7CE
:103220007047704770B50446006801694FF00005AB
:10323000C943890715D4C168C943890711D4E91E58
:10324000016101202077206880698007204602D034
:10325000FFF7E7FF04E000F019F9204600F0D8F985
:10326000257720680169C943490717D4C168C94354
:10327000490713D46FF00401016102202077206810
:10328000806910F4407F204602D0FFF7CAFF04E0B7
:1032900000F0FCF8204600F0BBF9257720680169B2
:1032A000C943090716D4C168C943090712D46FF08E
:1032B00008010161042020772068C069800720464A
:1032C00002D0FFF7AEFF04E000F0E0F8204600F087
:1032D0009FF9257720680169C943C90617D4C168D9
:1032E000C943C90613D46FF010010161082020778B
:1032F0002068C06910F4407F204602D0FFF791FF9C
:1033000004E000F0C3F8204600F082F92577206839
:103310000169C943C90708D1C168C943C90704D1B4
:10332000891E0161204600F0D7FA20680169C9436F
:10333000090609D4C168C943090605D46FF08001A4
:1033400001612046FFF728FE20680169C94349064C
:1033500009D4C168C943490605D46FF04001016131
:10336000204600F0C3FA20680169C94389060BD4DE
:10337000C168C943890607D46FF020010161204666
:10338000BDE87040FFF709BE70BD0000F0B587B022
:10339000044614216846FCF7F8FF216800243548EC
:1033A0000225354AB1F1804F2AD0344B0326344FE1
:1033B000994237D1016841F001010160016801F0D3
:1033C00001010591016841F0020101600068694650
:1033D00000F002000590C0200090CDE90154104695
:1033E000CDE90345FEF7CAFA0096CDE901546946D6
:1033F0003846CDE9034500BFFEF7C0FA07B0F0BD7F
:10340000016841F0010101600068694600F00100B7
:10341000059022200090CDE901540120CDE9034020
:103420001046E9E7174B994210D1016841F00201BB
:1034300001600068CDE9024600F0020005904020DE
:10344000CDE90005694638460495D5E70E4B99420B
:10345000D4D1016841F0010101600068694600F0C3
:10346000010005900C200090CDE90154CDE9034600
:103470001046C1E73038024000000240000400401E
:10348000000402400008004000400140704770B551
:10349000044690F83C0000260D4601280FD001207C
:1034A00084F83C006AB1042A1DD0082A2FD00C2AC7
:1034B0003FD00126002084F83C00304670BD022039
:1034C00070BD206802F028FF2068816941F0080182
:1034D00081612068816921F004018161206881692E
:1034E0002A69114311E0206802F03EFF20688169DB
:1034F00041F4006181612068816921F4806181610A
:10350000206881692A6941EA02218161D2E7206845
:1035100002F056FF2068C16941F00801C1612068CE
:10352000C16921F00401C1612068C1692A691143A0
:1035300011E0206802F070FF2068C16941F4006169
:10354000C1612068C16921F48061C1612068C169DD
:103550002A6941EA0221C161ACE710B5040003D039
:1035600094F83D0010B107E0012010BD002084F860
:103570003C00204600F01EF8022084F83D00211D8A
:10358000206802F0E9FD012084F8460084F83E003E
:1035900084F83F0084F8400084F8410084F8420039
:1035A00084F8430084F8440084F8450084F83D0022
:1035B000002010BD08B501681248B1F1804F0BD052
:1035C000114A914210D1016841F002010160006886
:1035D00000F00200009008BD016841F001010160A7
:1035E000006800F00100F5E708488142F3D1054882
:1035F000001D016841F480310160006800F48030F2
:10360000E8E700004038024000040040004001406C
:103610007047704710B50446022249B104290ED004
:10362000082913D094F84100012816D0012010BDBC
:1036300094F83E000128F9D184F83E200FE094F878
:103640003F000128F2D184F83F2008E094F84000C0
:103650000128EBD184F8402001E084F841200122C8
:10366000206802F0C5FD12492068884203D1426CEF
:1036700042F400424264206888420ED0B0F1804F8C
:103680000BD00C49884208D00B49884205D00B4921
:10369000884202D00A49884204D1816801F00701BA
:1036A000062903D0016841F001010160002010BD2E
:1036B000000001400004004000080040000C0040F1
:1036C000004001402DE9F04117460D0004464FF03F
:1036D00000060CD0042D11D0082D16D094F841000E
:1036E000022819D094F84100012818D07BE094F802
:1036F0003E00022810D094F83E00F5E794F83F0011
:10370000022809D094F83F00EEE794F84000022820
:1037100002D094F84000E7E70220BDE8F0810FB93D
:10372000002B60D14849494ADFF824C102204DB13D
:10373000042D18D0082D27D084F841000C2D44D03A
:1037400001267FE084F83E00606AC163606A394602
:103750000264606AC0F84CC02268606A3432FEF7C6
:10376000C9F888BB21E084F83F00A06AC163A06A61
:1037700039460264A06AC0F84CC02268A06A383298
:10378000FEF7B8F800BB15E084F84000E06AC163BA
:10379000E06A39460264E06AC0F84CC02268E06A18
:1037A0003C32FEF7A7F878B909E02068C16841F417
:1037B00000711EE02068C16841F4806119E0206852
:1037C000C16841F4006114E00DE0206BC163206B1F
:1037D00039460264206BC0F84CC02268206B40322E
:1037E000FEF788F808B1012097E72068C16841F426
:1037F0008051C16001222946206802F0F9FC154978
:103800002068884203D1426C42F40042426420683E
:1038100088420ED0B0F1804F0BD00F49884208D0BB
:103820000E49884205D00E49884202D00D4988428F
:1038300004D1816801F00701062903D0016841F035
:1038400001010160304668E70B6200086962000808
:10385000A162000800000140000400400008004090
:10386000000C00400040014030B504460D460068A1
:10387000002202F0BDFC174B41F2111120688A10A2
:10388000984209D1036A0B4206D1036A134203D15D
:10389000436C23F4004343642068036A0B4206D15F
:1038A000016A114203D1016821F001010160012088
:1038B0003DB1042D08D0082D09D084F84100002026
:1038C00030BD84F83E00FAE784F83F00F7E784F85B
:1038D0004000F4E70000014000680349884201D13C
:1038E000FEF7E0BF70470000004801407047704796
:1038F00010B504460068406994F83D10C0F3C0104C
:10390000212911D180B12068143050E8001F21F026
:10391000800140E80012002AF5D1606B08B1FDF784
:103920004FFE204602F0CCFE2068406994F83E101D
:10393000C0F38010222911D180B12068143050E8E2
:10394000001F21F0400140E80012002AF5D1A06BD1
:1039500008B1FDF735FE204602F08BFE002010BDB9
:1039600070470000F8B5016804460868CA684B69EA
:1039700010F00F0F4FF0000559D003F0010602F4CC
:103980009077374365D0C10705D0D10503D5216CA9
:1039900041F001012164410705D5D90703D0216C0D
:1039A00041F002012164810705D5D90703D0216CBC
:1039B00041F004012164010707D502F020013143E1
:1039C00003D0216C41F008012164216C00293AD018
:1039D000800604D5900602D5204602F07FFE2068BE
:1039E0004069216CC0F38010090700D460B3204601
:1039F00002F03FFE20684069400621D5206814305F
:103A000050E8001F21F0400140E80012002AF5D1E3
:103A1000A06BA8B16C490165A06BFDF71AFE0028E8
:103A200011D0A06B016D01B0BDE8F04008478306DE
:103A30000FD593060DD52046BDE8F84002F04EBEE6
:103A40002046FFF78DFFF8BD2046FFF789FF25646C
:103A5000F8BD266B2023012E79D1C60677D5D60670
:103A600075D50868486800904869400640D5A16B44
:103A7000086840680004000CEAD0A28D8242E7D9B1
:103A8000E085C869B0F5807F2DD020680C3050E803
:103A9000001F21F4807140E80012002AF5D120684F
:103AA000143050E8001F21F0010140E80012002A04
:103AB000F5D12068143050E8001F21F0400140E8A3
:103AC0000012002AF5D184F83E30256320680C30BE
:103AD00050E8001F21F0100140E80012002AF5D143
:103AE000A06BFDF76DFDA08DE18D401A81B229E03C
:103AF000A08DE18D401A81B2E08D0028A8D0002968
:103B0000A6D020680C3050E8002F22F4907240E8D4
:103B10000026002EF5D12068143050E8002F22F046
:103B2000010240E80026002EF5D184F83E302563DE
:103B300020680C3050E8002F22F0100240E80023EB
:103B4000002BF5D12046FFF7D2FEF8BDFFE70506B2
:103B50002BD5150629D594F83D002128F5D1A0686C
:103B6000B0F5805F01D12069B0B1206A411C2162AB
:103B7000216800784860E08C401E0004000CE0845E
:103B8000E3D12068C16821F08001C1602068C1686C
:103B900041F04001C160D8E7206A0088C0F3080006
:103BA0004860206A801C2062E5E74006CDD55006BB
:103BB000CBD5CA68204622F04002CA6084F83D3066
:103BC00000F046F9C1E700003165000808B501685A
:103BD0000A6849680091FFF78BFE02F0DBF9BDE847
:103BE000084002F03BBA70B5040004D094F83D00E0
:103BF000002510B106E0012070BD84F83C5020463D
:103C000000F022F8242084F83D002068C16821F4E7
:103C10000051C160204602F0C1FD2068016921F415
:103C2000904101612068416921F02A0141612068C9
:103C3000C16841F40051C1602564202084F83D0032
:103C400084F83E00002070BD2DE9F04186B00646A4
:103C500014216846FCF799FB4248DFF804C1376835
:103C600040491438022203253F4B002467454FD1B9
:103C70000F6847F010070F60096801F01001059107
:103C8000016841F0010101600068694600F001002F
:103C9000059068028DE83500072004901846FDF76E
:103CA0006DFE334D31484FF000672860C5E901745F
:103CB0004FF48068C5E903486C61AC61EC612C622B
:103CC00028466C62FDF7ACFD08B1FDF73DFAB5631F
:103CD000AE63274D254860357830E5E8020740207F
:103CE000A5E81101224845F814496030AC61EC6147
:103CF0002C626C62FDF794FD08B1FDF725FA75633F
:103D0000002205212520AE63FEF752FE252022E089
:103D1000184EB74221D10E6846F020060E600968A1
:103D200001F020010591016841F001010160006886
:103D3000694600F0010005904FF4C0508DE8350051
:103D4000082004901846FDF719FE0022052147209F
:103D5000FEF72EFE4720FEF71DFE06B0BDE8F081FF
:103D6000001001404438024000000240406402401C
:103D7000580500200014014090F83E30202B0ED151
:103D800059B152B190F83C30012B08D0012380F892
:103D90003C300023036302F087BD012070470220FE
:103DA00070470000054910B5884205D102F0F2F8CD
:103DB000BDE8104002F052B910BD0000D004002050
:103DC0007047000070B5044690F83D00202836D1B9
:103DD00091B38AB394F83C00012830D0012084F8D4
:103DE0003C002162A284E28400252564212084F81D
:103DF0003D00636B1348D863636B13481864636BAF
:103E00001248D864606B134605652668606B321DE6
:103E1000FDF770FD21686FF04000086084F83C50A9
:103E20002068143050E8001F41F0800140E8001283
:103E3000002AF5D1002070BDFFE70120FBE702203A
:103E4000F9E7000027660008696600084165000878
:103E50000349884202D103490120087070470000DD
:103E6000D00400202C0000207047FEE70148FDF739
:103E700087BE00004802002038B5806B002190F812
:103E80003D202B4B46F2A8141B68B3FBF4F3C3EBA5
:103E9000C30303EB830300933BB15B1E00930368F2
:103EA0001B689B0505D5009BF6E7036C43F02003D8
:103EB0000364436B03B1D963836B03B1D9630368B4
:103EC0001C6824F480641C604185436B03B1196550
:103ED000836B03B1196503681C6824F001041C603E
:103EE00090F83D402023602C0BD0282434EA0202B5
:103EF0000FD080F83D3080F83E1000BFFDF758FF2E
:103F000038BD80F83D3080F83E100164FDF736FE84
:103F100038BD0268136843F0010313600268136838
:103F200043F480631360016380F83D40E6E70000DE
:103F30002001002070B5846B0025616B01B1CD6359
:103F4000A16B01B1CD63FDF796FB022811D020686B
:103F5000016821F4806101606585202084F83D00BE
:103F600084F83E50206C40F0100020642046FDF79D
:103F70001FFF70BD2DE9F041846B94F83D2094F84B
:103F80003E50E16A2068436823F440734360636BEA
:103F9000002003B1D863A36B03B1D863212333EAB4
:103FA00002074FF022060CD036EA020701D1202D7D
:103FB00007D094F83E20002A21D0628D012A20D01B
:103FC00024E021684D6825F400654D606085282057
:103FD000292A02D02A2A07D00CE0236384F83D0066
:103FE0002046FEF75EFC05E0266384F83D0020468F
:103FF000FEF756FC2068416841F440714160BDE81D
:10400000F0812268136823F4806313602268536888
:1040100023F44073536011F5803F06D0082904D083
:10402000B1F12A4F01D0202904D121680A6842F455
:1040300000720A6021684A6822F480524A6021684E
:104040004A6822F400624A606085216C19B12046FA
:10405000FDF7AEFED3E7202184F83D1094F83E1022
:1040600084F83E00402905D0122020632046FDF749
:1040700066FFC4E720632046FEF7EAF8BFE70000CA
:1040800070B5044690F83D0094F83E10102901D018
:10409000402906D1222804D121680A6822F400624E
:1040A0000A60282131EA00024FF000054FF0200697
:1040B00026D021684968090505D4602803D084F812
:1040C0003D6084F83E50256320684168090537D576
:1040D000416821F400614160606B90F835203C49F3
:1040E000012A11D00165606BFDF7B3FA38B320687F
:1040F000016821F00101016084F83D60606B1CE003
:10410000256384F83D10DFE7A06B0165A06BFDF728
:10411000A0FAA0B120684169C943490605D40069E5
:10412000616A0870606A401C60622068016821F062
:104130000101016084F83D60A06B016D884710E0CB
:1041400094F83D10602910D04169C943490605D44F
:104150000069616A0870606A401C60622046FDF771
:1041600027FE206CC1071CD115E084F83D60256452
:104170004169C943490605D40069616A0870606AEB
:10418000401C60622068016821F001010160204646
:10419000FDF7F4FCE5E7810703D4410701D40007EC
:1041A00004D52068416821F4E061416094F83D0045
:1041B000216C49070BD5282809D10648E062256300
:1041C00084F83D6084F83E502046FDF7B7FE70BD90
:1041D000793E00080000FFFF01684A69D24352059A
:1041E0000FD46FF480624A61002140F8301F202212
:1041F00042738173026942F004020261017301207B
:1042000070470020704710B5C26A438D0168042BC7
:1042100006D0438D032B08D0438D022B1DD012E016
:104220004A6822F480624A600CE04B6823F48063A1
:104230004B60042A06D0022A04D001680A6822F4DE
:1042400080620A6001680969426A1170416A491C0A
:104250004162418D491E418510BD012A30D0102A8E
:104260002ED0042A30D0022A2ED00A6842F40072DE
:104270000A6001680969426A1170416A491C416219
:10428000428D521E4285026812690A70416A491CB9
:104290004162418D491E418501684A6822F440729D
:1042A0004A60202180F83D1090F83E200021402AED
:1042B00080F83E100CD012210163FDF740FE10BDC6
:1042C0000A6822F48062D3E70A6842F48062CFE78A
:1042D0000163FDF7BDFF10BD38B590F83D102229F0
:1042E00014D1418D032912D901680969426A1170FC
:1042F000416A491C4162418D491E4185418D032916
:1043000004D10068416821F48061416038BDC26A0F
:10431000022AFBD0012901D00029F7D1274946F212
:10432000A81300220968B1FBF3F101EB81010091B0
:1043300001682023009C641E009422D00C68A40510
:10434000F8D40C6824F480640C6001684C6824F490
:10435000E0644C6001680969446A2170416A491C43
:104360004162418D491E418580F83D3090F83E10F4
:1043700080F83E2040291DD012210163FDF7DFFDAA
:1043800038BD046C44F0200404644C6824F4E064F8
:104390004C6001680969446A2170416A491C4162A4
:1043A000418D491E418580F83D3080F83E20FDF763
:1043B000FFFC38BD0263FDF74BFF38BD2001002034
:1043C0002DE9F84F0446C06A1E4693460D46216803
:1043D0000A6842F480620A60082807D0012805D0E4
:1043E00010F5803F02D0206B112804D120680168AD
:1043F00041F4807101604FF001195B46002249468B
:104400002046009600F02AFC4FF4007840B1206866
:104410000068C00501D5C4F840800320BDE8F88FCE
:104420002069DFF884A0B0F5804F0FD00620216806
:1044300000EAD51747F0F000086133465A460AF102
:104440000601204600F03EFC58BB03E0E8B240F015
:1044500001001CE02168E8B2086133465A46514623
:10446000204600F02FFCE0B9206841698169009185
:10447000016841F4807101605B4600224946204694
:10448000009600F0EBFB0028C1D147F0F100216855
:10449000086133465A465146204600F013FC002876
:1044A000BCD00120BAE7000002000100F8B50446C4
:1044B000C06A1E460D461746082807D0012805D0B9
:1044C00010F5803F02D0206B122804D120680168CB
:1044D00041F480710160134600224FF00111204623
:1044E000009600F0BBFB40B120680068C00502D513
:1044F0004FF4007020640320F8BD2069B0F5804FB0
:104500000ED00620216800EAD51040F0F0000861C6
:1045100033463A460B49204600F0D4FB78B902E016
:1045200005F0FE0000E0E8B2216808610549334665
:104530003A46891F204600F0C5FB0028DCD0012048
:10454000F8BD00000800010010B5C26A90F83D10E7
:1045500021290BD1418D51B1416A0268097811615D
:10456000416A491C4162418D491E418510BD20238D
:104570000021082A13D0202A11D012F5803F0ED036
:104580000268546824F4E06454601122026380F8E5
:104590003E1080F83D3000BFFDF7D2FC10BD026830
:1045A000546824F4E06454600268146844F40074AD
:1045B0001460016380F83D3090F83E2080F83E1092
:1045C000402AE9D1FDF745FE10BD000010B590F876
:1045D0003D1090F83E30C26A048DB4B1212903D059
:1045E000402B11D122290FD1418DE1B390F83E101B
:1045F000402942D0416A026809781161416A491C28
:104600004162418D491E418510BD2129E8D12023F9
:104610000021082A13D0202A11D012F5803F0ED095
:104620000268546824F4E06454601122026380F844
:104630003E1080F83D3000BFFDF782FC10BD0268DF
:10464000546824F4E06454600268146844F400740C
:104650001460016380F83D3090F83E2080F83E10F1
:10466000402AE9D100E002E0FDF7F3FD10BD00684B
:10467000416821F48061416010BDBDE8104000F048
:10468000D3B8000078B590F83E50C26A036B90F83A
:104690003D6000240168222E7AD1066D0EB9402DAE
:1046A00076D0056D1DB90569B5F5404F09D0458D2A
:1046B00005B3468D384D012E0ED0438D022B3AD0D6
:1046C0005DE04A698A6900920A6842F480720A6071
:1046D000016D491C016578BDAA4213D10A6822F414
:1046E00080620A6001684A68120503D50A6822F4EC
:1046F000806216E04A698A6900920A6842F4007290
:104700000A6039E0082A10D0202A0ED0122B0AD0D5
:10471000042A03D0022A01D0102AE7D10A6842F401
:1047200080620A6024E0012AE0D00A6822F48062F4
:104730000A600168DEE7042A21D0022A1FD0102A6D
:104740001DD00B6823F480630B6001680B6843F491
:1047500000630B6001684B681B0509D5AA4212D0A3
:10476000012A10D0082A0ED0102A0CD0202A0AD0F4
:1047700001684A6989690091046578BD08E00B68A1
:1047800043F48063E5E74A6842F480524A60EFE709
:10479000486988690090F0E70000FFFF90F83E103C
:1047A000402910D00169B1F5804F19D0016DA9B32E
:1047B000016D012910D1416C5FF0F10201F44071EB
:1047C00042EAD11106E0016D0029416C05D0C9B261
:1047D00041F0010100680161704701F0FE01F9E755
:1047E00090F83D102129416C09D0C9B241F0010176
:1047F00002681161416B29B1C96B49B902E001F04E
:10480000FE01F5E7816B0029E6D0C96B0029E3D0F2
:104810000068416841F4006141607047FFE7416C06
:10482000F02201F44071CBE710B590F83D10026D15
:1048300022B3026D012A2FD0026D022A1DD1222936
:104840002FD0428D0AB1212933D0428D002A14D1B4
:10485000212912D101684A6822F4E0624A600168A5
:104860000A6842F400720A6000210163202280F885
:104870003D2080F83E10FDF7ECFC10BDC16C012915
:10488000816C02D0C1F3072108E00268C9B211614E
:10489000016D891C016510BD816CC9B2026811618E
:1048A00004E001680A6842F480720A60016D491CE4
:1048B000F0E7416A026809781161416A491C416266
:1048C000418D491E418510BD2DE9F84F0446006811
:1048D00089460B9D01689846174641F48061016046
:1048E0002068016841F48071016000954FF0011B60
:1048F0000022594620460A9B00F0B0F94FF4007A96
:1049000040B120680068C00501D5C4F840A003206C
:10491000BDE8F88F216809F0FE0008612B462849A0
:1049200020460A9A00F0CEF9F0BB20684169806900
:1049300000902A4620460A9900F042FA40B1206CC5
:1049400004283AD12068016841F40071016034E024
:10495000FEB2B8F1010F09D02168380A08612A4671
:1049600020460A9900F02CFA0028E8D12068066158
:104970002A4620460A9900F023FA0028DFD1206851
:10498000016841F48071016000950022594620467B
:104990000A9B00F063F90028B3D1216809F0FF00F9
:1049A00040F00100086100E007E02B460449204682
:1049B0000A9A00F087F90028AAD00120A8E7000091
:1049C000020001002DE9F843044600680D46DDE9C8
:1049D000089701689846164641F4807101604B467D
:1049E00000224FF001112046009700F037F948B13E
:1049F00020680068C00502D54FF4007020640320D1
:104A0000BDE8F883216805F0FE0008613B464A4690
:104A10001549204600F056F988B920684169806937
:104A200000903A464946204600F0CAF948B1206C49
:104A3000042804D12068016841F40071016001205C
:104A4000DEE7F5B2B8F1010F09D02168300A08613C
:104A50003A464946204600F0B3F90028E7D12068DD
:104A600005610020CCE700000200010038B50C46CB
:104A700090F83D2000212825954302680B4605D07B
:104A800051699169009180F83C3038BD556825F432
:104A900080655560E243540700D50121120601D517
:104AA000828900E0028B80F83C3092B2FDF767F813
:104AB00038BD0000F8B590F83D60044600684168D4
:104AC00021F4E0614160206800254169009101689E
:104AD00041F0010101602068016821F480610160FA
:104AE00020684168090520D5474F222E48D02A2E3C
:104AF00046D0616B096849686185618D19B1216C87
:104B000041F004012164416821F400614160606B5F
:104B1000FCF7B3FD012808D0606B0765606BFCF7FC
:104B200098FD10B1606B016D8847608D08B32068F7
:104B30004169C943490708D40069616A0870606A1D
:104B4000401C6062608D401E608520684169C943D9
:104B5000490608D40069616A0870606A401C606296
:104B6000608D401E6085608D18B1206C40F004009F
:104B70002064206C00B32046BDE8F840FFF780BAFF
:104B8000A16B096849686185618D19B1216C41F09B
:104B900004012164416821F400614160A06BFCF7CD
:104BA0006CFD0128C1D0A06B0765A06BFCF751FD1F
:104BB0000028BAD0A06BB6E72A2E06D1256328209C
:104BC00084F83D002046FDF76BFE94F83D10202050
:104BD00028290DD0216B222901D0222E07D125634F
:104BE00084F83D0084F83E502046FDF759FEF8BD9C
:104BF0000649E162256384F83D0084F83E50204672
:104C0000FDF79CF9F8BD0000793E00080000FFFFA9
:104C100070B516460D4604460DE02046FFF7DCFA57
:104C200008B1012070BD681C05D0FCF7A1FF801BF6
:104C3000A84207D835B120684069C0434007ECD48A
:104C4000002070BD002044F8300F20216173A07354
:104C5000216941F0200121612073E2E72DE9F0474D
:104C60001E4690460D460446C1F30747DDF82090E6
:104C700008E0701C06D0FCF77BFFA0EB0900B042F7
:104C80000FD876B12068012F18D0806925EA00007E
:104C90000004000C14D000214145EAD00020BDE8FA
:104CA000F087002044F8300F20216173A073216940
:104CB00041F02001216120730120F0E74069E5E720
:104CC0000121E9E72DE9F0479A4691460E46044650
:104CD00000254FF02008C1F3074725E02068406910
:104CE000C043400514D42068016841F4007101609C
:104CF00021686FF480604861256384F83D8084F802
:104D00003E50206C40F00400206484F83C501FE0CA
:104D1000B9F1FF3F08D0FCF72BFFA0EB0A01494592
:104D20000CD8B9F1000F09D02068012F13D0806989
:104D300026EA00000004000C0BD0CFE744F8305FF7
:104D400084F80D80A573206940F020002061257350
:104D50000120BDE8F0874069EAE72DE9F041002530
:104D600090460E460446202717E04069C043C0061F
:104D70000CD454F8301B6FF01000486144F81059FF
:104D80006777A577206A2062257717E0FCF7F0FEA9
:104D9000A0EB0800B04208D83EB120684169C94381
:104DA0004906E2D40020BDE8F08144F8305F677323
:104DB000A573206940F02000206125730120F2E7EF
:104DC00070B516460D4604460DE02046FFF704FA7E
:104DD00008B1012070BD681C05D0FCF7C9FE801B1E
:104DE000A84207D835B120684069C0430006ECD41A
:104DF000002070BD002044F8300F20216173A073A3
:104E0000216941F0200121612073E2E733B583B0CD
:104E100000206424CDE900400D46012303AAEC21C3
:104E20002846FDF77FF91420FCF79CFD042301AA16
:104E3000EC2128460094FDF785F8BDF804009DF8A4
:104E4000061040BA000440EA01209DF8071005B0A2
:104E5000084330BD03B581B00846642100910123A9
:104E600001AAEC21FDF75EF90EBDFCF7E1B80000E8
:104E700010B504462DED088BB0EE40BAF0EE60BAE6
:104E800090ED080B90ED001B53EC102B51EC110B27
:104E9000FBF7A0FA41EC180B84ED028B94ED0A0BA2
:104EA00053EC102BFBF796FA41EC110B51EC180B5D
:104EB00053EC112BFBF7A7FB41EC1A0B51EC1B0B2E
:104EC00084ED06AB94ED049B53EC192BFBF723FB0D
:104ED00053EC1A2BFBF725FB53EC192BFBF77AFA53
:104EE00041EC190B9FED0B0B84ED049B53EC1A2B3B
:104EF00051EC100BFBF70FFB53EC182BFBF711FBDE
:104F0000C4E90001B0EE490AF0EE690ABDEC088B75
:104F100010BD0000000000000000F03F9FED092BD5
:104F20009FED0C3B80ED002B9FED082B80ED022BBD
:104F300080ED043B80ED062B80ED080B80ED0A1B15
:104F4000704700007B14AE47E17A943F00000000F8
:104F500000000000000000000000F03F2F4D286816
:104F600005F09BFA01222E4E540321463046FCF7F1
:104F7000FAFD0122DFF8AC80D70339464046FCF742
:104F8000F2FD142005F0F8F9002221463046FCF726
:104F9000EAFD002239464046FCF7E5FD9FED220B75
:104FA0002348B0EE401AF0EE601AFFF7B7FF00207A
:104FB000FCF740F81F4C94ED0A0A84ED0D0A94EDBD
:104FC0000B0A84ED0E0A94ED100A84ED060A286897
:104FD00005F053FA1848006805F04FFA47F23055CB
:104FE0004FF47A76B4F90200A84201DA401C6080DE
:104FF0006088082803D194ED0C0A84ED0F0A94ED23
:105000000C0AD4ED090A304670EE600AC4ED050AB8
:1050100084ED090A05F0B0F9E4E70000180000206B
:105020000008024000000240FCA9F1D24D62503F4E
:10503000900700205000002010000020174C04F1C1
:105040004405164A3032111F081F04F07FFA08BBCE
:1050500094ED0A0AB1EE400A84ED0A0A94ED0C0AB6
:10506000B1EE400A84ED0C0A00F04CF80B4AA08027
:105070000C32911E881E00F013F8084A1232911E5D
:10508000881E00F026F8E0892880208A4042688047
:10509000608AA880052005F06FF9D2E75000002053
:1050A0007CB514460D4606466B4606223B21682019
:1050B00000F0AAF800280BD1BDF8001049BA3180E1
:1050C000BDF8021049BA2980BDF8041049BA218000
:1050D0007CBD7CB514460D4606466B460622432130
:1050E000682000F091F800280BD1BDF8001049BAF3
:1050F0003180BDF8021049BA2980BDF8041049BAC0
:1051000021807CBD08B56B4602224121682000F059
:105110007BF8BDF8000040BA00B2FBF7E3FA9FED60
:105120000D1B53EC112BFBF76EFA9FED0C1B53EC90
:10513000112BFBF74FF9FBF711FB00EE100ADFED27
:10514000090A20EE200ABDEEC00A10EE100A00B2D5
:1051500008BD00000000000000407540A4703D0A3A
:10516000D74342400000C84210B580216B2000F0B8
:1051700097F8642003F0C0F900216B2000F090F84C
:10518000032000F058F8002000F050F8322000F022
:105190006FF80021382000F083F800216A2000F029
:1051A0007FF80021232000F07BF88021372000F0D9
:1051B00077F8752000F012F8682801D0012010BDA2
:1051C00001216B2000F06CF800216C2000F068F8E1
:1051D000142000F04DF8002010BD00001FB564231E
:1051E000012203A98DE80E0013460246D02105488E
:1051F000FDF730F810B1012004B010BD9DF80C008F
:10520000FAE70000F40100203EB54000CDE900328D
:105210000A4664240146029401230348FDF71AF864
:10522000002800D001203EBDF4010020C006010E80
:105230001C2000F035B8C006010E1B2000F030B86D
:10524000BC2801D3012110E0622801D302210CE027
:105250002A2801D3032108E0142801D3042104E003
:105260000A2801D3052100E006211A2000F018B811
:1052700010B504464FF47A70844201D9044602E026
:10528000042C00D20424B0FBF4F0401EC1B219205B
:1052900000F006F86008BDE81040FFF7D1BF00003D
:1052A00003B583B06423012204A98DE80E001346E0
:1052B0000246D0210348FDF7C9F8002800D001209C
:1052C00005B000BDF40100203EB54000CDE900323C
:1052D0000A4664240146029401230348FDF7B6F808
:1052E000002800D001203EBDF4010020084D094CEB
:1052F000094800F089F895ED030AD4ED060A052067
:1053000030EE600A84ED100A05F036F8F0E7000090
:105310008006002050000020480200202DE9FE43B6
:10532000064638489FED360A002580ED010A0570D3
:1053300031461E20FFF78EFD0A20FCF713FBDFF835
:10534000C48000244FF0A0096427A8F1200800BF02
:1053500009EB4400CDE900758DF80800012302AA8D
:10536000EC213046FCF7DEFE1420FCF7FBFA0223AA
:1053700001AAEC2130460097FCF7E4FDBDF80400DB
:1053800008EB440140BA08811420FCF7EBFA641CD6
:10539000E4B2072CDCD3B8F808101A4A0C0B203AF8
:1053A000C1F30B0122F8081F0020D58101464FF4FC
:1053B00040554FF6FF76CB0721F0010302D0D35CB6
:1053C000584002E0D35A80EA13200823070403D58B
:1053D00085EA400080B201E006EA40005B1E13F05F
:1053E000FF03F3D1491CC9B21029E4D3C0F307303D
:1053F000A04202D10120BDE8FE830020FBE70000AF
:1054000000A080448006002070B5054601464A2071
:10541000FFF720FD1420FCF7A5FA29460020FFF72E
:10542000F5FC0B4C000AA0611420FCF79BFA2946FE
:105430005A20FFF70FFD1420FCF794FA29460020AC
:10544000FFF7E4FC000AE061BDE8704002F0D6BE60
:10545000600600207FB50024154800940194029452
:105460001249039401604FF48031C0E901140461D2
:10547000047680F820400F49C0E90A140125C5616F
:10548000C46080F830404561FBF781FF08B1FBF74D
:105490005BFE1120CDE90005694602940448FBF744
:1054A000C1FE002801D0FBF74FFE7FBD0020014068
:1054B000AC0100200100000F194808B5016841F453
:1054C00080010160016801F480010091016841F4EC
:1054D000001101600068002200F400100090052116
:1054E0000B20FDF765FA0B20FDF754FA0022052189
:1054F0002F20FDF75DFA2F20FDF74CFA0022052141
:105500003A20FDF755FA3A20FDF744FA002205212A
:105510004620FDF74DFABDE808404620FDF73ABAAF
:105520003038024010B51F4A00211F4804F060FFC8
:105530001E4C1C4A0021206024321D4804F058FFF4
:10554000184A6060483200211A4804F051FF154A99
:10555000A0606C320021184804F04AFF114AE06054
:1055600090320021154804F043FF0E4A2061B43206
:105570000021134804F03CFF0A4A6061D832002140
:10558000104804F035FF074AA061FC3200210E48A4
:1055900004F02EFFE0610D4A00210D4804F028FFC1
:1055A000206210BD64BE00085D4F000800000020AE
:1055B000396900083D500008B95D0008250D000854
:1055C000ED520008595A0008A564000884BF00087D
:1055D000296A00082DE9F04786B014216846FAF7D9
:1055E000D4FE2F480024016841F0040101600168E5
:1055F00001F004010591016841F08001016001683A
:1056000001F080010591016841F00101016001682C
:1056100001F001010591016841F00201016000689B
:10562000DFF8808000F002004FF400550590002262
:1056300029464046FCF797FADFF86C90AE0000224E
:1056400031464846FCF78FFA0122DFF860A0570286
:1056500039465046FCF787FA00950125CDE90154FB
:10566000694640460394FCF789F9CDE90054694640
:1056700048460295FCF782F90096CDE90154694647
:1056800048460394FCF77AF911200097CDE901040C
:10569000694650460394FCF771F906B0BDE8F087FF
:1056A000303802400008024000000240000402407E
:1056B0000D4810B50B4901600C49416000214FF4C1
:1056C00080428160C0E9031241618161C161016270
:1056D000FCF770FB002803D0BDE81040FBF734BD99
:1056E00010BD000000540040F4010020801A0600A4
:1056F0000D4810B50B4901600C49416000214FF481
:1057000080428160C0E9031241618161C16101622F
:10571000FCF750FB002803D0BDE81040FBF714BD98
:1057200010BD00000058004048020020801A06000A
:105730000D4810B50B4901600C49416000214FF440
:1057400080428160C0E9031241618161C1610162EF
:10575000FCF730FB002803D0BDE81040FBF7F4BC99
:1057600010BD0000005C00409C020020A0860100EB
:1057700010B58AB0002407941C2168460894FAF7F3
:1057800004FE1B484FF0804101602721C0E901144D
:105790004CF24F31C0E903148461FDF7DEFE08B11D
:1057A000FBF7D2FC079407A911480894FDF7F6FB14
:1057B00008B1FBF7C9FC6020009040F6A660CDE977
:1057C0000104002269460A480494FDF760FE08B10E
:1057D000FBF7BAFC042269460548FDF758FE08B1FC
:1057E000FBF7B2FC0248FDF7D1FD0AB010BD000086
:1057F0005003002010B58AB0002407941C2168468D
:105800000894FAF7C2FD2348214901602721C0E925
:1058100001144CF24F31C0E903148461FDF79DFE81
:1058200008B1FBF791FC079407A91A480894FDF703
:10583000B5FB08B1FBF788FC6020009040F6A6603D
:10584000CDE901040022694612480494FDF71FFEC9
:1058500008B1FBF779FC042269460E48FDF717FEF4
:1058600008B1FBF771FC082269460A48FDF70FFEF4
:1058700008B1FBF769FC0C2269460648FDF707FEF4
:1058800008B1FBF761FC0348FDF780FD0AB010BDCD
:10589000000400409803002010B58EB00024079447
:1058A000089409940A940B941C2168460C94FAF706
:1058B0006CFD1E481C49C0E900147C21C0E902416E
:1058C00004618461FDF7A8FB08B1FBF73DFC4FF4D0
:1058D0008050079007A91548FDF734FC08B1FBF785
:1058E00033FC1248FDF739FE08B1FBF72DFC0B9491
:1058F0000BA90E480C94FDF751FB08B1FBF724FCF3
:105900007020CDE900040220029000226946049430
:105910000648FDF7BCFD08B1FBF716FC0348FDF790
:1059200035FD0EB010BD000000080040E00300206F
:1059300010B588B01C216846FAF727FD17481649AC
:10594000002401602721C0E901144CF24F31C0E965
:1059500003148461FDF701FE08B1FBF7F5FB60203D
:10596000009040F6A660CDE90104002269460B488C
:105970000494FDF78CFD08B1FBF7E6FB04226946B1
:105980000648FDF784FD08B1FBF7DEFB0348FDF791
:10599000FDFC08B010BD00000040014028040020BC
:1059A0000C4810B50A4901604FF4E1314160002113
:1059B00081600C22C160C0E904128161C161FEF7FF
:1059C00012F9002803D0BDE81040FBF7BDBB10BDA5
:1059D00000100140D00400200C4810B50A490160B5
:1059E0004FF4E1314160002181600C22C160C0E9C7
:1059F00004128161C161FEF7F6F8002803D0BDE80A
:105A00001040FBF7A1BB10BD00140140140500209D
:105A1000FEE7000030B501F6A6620D4BA1F6A661C7
:105A20000C4D4C4219682B68072806D2DFE800F0BD
:105A3000050406080A0C0E000A6430BDCA6330BDB6
:105A40008C6330BD4A6330BD9C6330BD5A6330BD4A
:105A500098030020280400202DED028B9FEDA18AE1
:105A6000F0EE480ADFEDA08AA04A0021B0EE680AF5
:105A70009F4800F061FA9D4A9D48F0EE480AB0EE5A
:105A8000680A0C320021483000F056FA974A9848CC
:105A9000F0EE480AB0EE680A18320021903000F0AB
:105AA0004BFA924A9248F0EE480AB0EE680A243265
:105AB0000021D83000F040FA8C4AF0EE480AB0EEEF
:105AC000680A303200218B4800F036FA874A89484C
:105AD000F0EE480AB0EE680A3C320021483000F08F
