:020000040800F2
:10000000C8060020050100088D3700089B2B00085A
:1000100019370008690C0008994200080000000028
:10002000000000000000000000000000773E000813
:100030006B0C000800000000F53C0008AD3E000815
:100040001F0100081F0100081F0100081F01000810
:100050001F0100081F0100081F0100081F01000800
:100060001F0100081F0100081F0100081F010008F0
:100070001F0100081F0100081F0100081F010008E0
:100080001F0100081F0100081F0100081F010008D0
:100090001F0100081F0100081F0100086D0C000867
:1000A0001F0100081F0100081F0100081F010008B0
:1000B0002D3F0008393F00081F0100081F010008FC
:1000C0001F0100081F0100081F0100081F01000890
:1000D0001F0100081F0100081F0100081F01000880
:1000E0001F0100081F0100081F010008DFF810D0E1
:1000F00000F0B6FC00480047555D0008AFF30080F3
:10010000C80600200648804706480047FEE7FEE78D
:10011000FEE7FEE7FEE7FEE7FEE7FEE7FEE7FEE7B7
:10012000293F0008ED0000082DE9F0410024061BDE
:10013000254671F1000605DA01240027D0EB0700FF
:1001400067EB0101161E73F1000605DA0027D2EBFA
:100150000702012567EB030300F09CFB86460E4671
:1001600017469C46AC4204D00025D0EB050E65EB4B
:10017000010624B10020D2EB000760EB030C7046AF
:1001800031463A466346BDE8F081202A04DB203A36
:1001900021FA02F00021704721FA02F3D040C2F1A7
:1001A00020029140084319467047D2B201E000F89E
:1001B000012B491EFBD270470022F6E710B513460B
:1001C0000A4604461946FFF7F0FF204610BD30B539
:1001D00004460020034600E05B1C934203D2E05C2F
:1001E000CD5C401BF8D030BDF0B480EA0102D40FE2
:1001F0004200B2EB410F02D20246084611464A00C5
:1002000042D0C30DDDB2C1F3C752AD1A202D35DA8D
:10021000C1F3160141F4000204B15242C5F12006B7
:1002200002FA06F12A411044B3EBD05F23D0C4B1E7
:10023000012DA0EBC35009DCF0BC4FF0004202EAF4
:10024000C352DBB200F5000000F07FBB400000F1BC
:10025000807000EBC350A0F1807040EAD17049007B
:1002600009E0490841EAC071A0EBC35000F5000065
:10027000400800EBC350F0BC00F05EBB61420122BD
:1002800002EB4101001BF6E7F0BC704781F0004132
:10029000AAE780F00040A7E780EA010210B502F06B
:1002A0000043400022D04A001FD0010E01EB126132
:1002B000C0F35600C2F3560240F4000042F40002BC
:1002C000A0FB022000047F39140400D0401C50EA37
:1002D000124001D44000491EC2B20C0604EBD010FB
:1002E000401C4008802A02D003E0002010BD20F00E
:1002F0000100002900DA0020184310BD30B480EA64
:10030000010202F0004530F0004221F0004013D01D
:1003100090B1C30DD40DC2F31601C0F31600E41A58
:1003200041F4000140F400027D34914201D3641C89
:1003300000E04900002C02DA30BC002070474FF486
:1003400000000023914201D3891A034340084FEA79
:100350004101F7D151B1914202D14FF0004105E086
:1003600002D24FF0010101E06FF0010103EBC45034
:10037000284430BC00F0E0BA420005D0C0F3C752B8
:100380005242914201DC0020704700EBC15070479F
:100390002DE9FE4F804681EA0300C00F0C46009015
:1003A00021F0004123F00045B8EB0200A94105D23D
:1003B0004046214690461C460B46024623F000402C
:1003C000104347D0270DC7F30A00C3F30A51029028
:1003D000401A019040286BDAC3F3130040F4801BED
:1003E0000098924620B10023D2EB030A63EB0B0B7B
:1003F00001985946C0F14002504600F07CFA06468A
:100400000D4650465946019A00F084FA10EB080058
:100410006141002487EA115284EAE7731A4340D00D
:10042000009A62B3019A012A4FEA075215DC001BB9
:1004300061EB02014FF0004202EA0752CDE90042AF
:10044000001C41F5801132462B4600F0BBFA03B088
:10045000BDE8F08F40462146F9E7001B61EB020141
:10046000001C41F5801300185B412018A2F500170D
:1004700047EB030140EAD570B6196D4111E06D08F4
:100480004FEA360645EAC0754FEA0752001B61EB9A
:100490000201001C41F5801149084FEA30000019A3
:1004A000514132462B4603B0BDE8F04F00F07BBA15
:1004B0000098012240000023D0EB020263EBE073BE
:1004C000009821464FEAE074B8EB000061EB0401AC
:1004D000E9E783F000435BE781F0004158E72DE94D
:1004E000FE4F81EA030404F0004421F0004100942F
:1004F0004FF0000B23F0004350EA01045ED052EAB3
:1005000003045BD0C3F30A54C1F30A552C44A4F28C
:10051000F3340194A0FB0254C1F3130141F48011A0
:10052000C3F3130343F4801301FB024400FB034EA7
:10053000840A970A44EA815447EA8357A4FB076870
:1005400002958D0A05FB07854FEA932C04FB0C549A
:100550002705029D4FEA065847EA1637B5EB08050E
:100560006EEB070C870E920E47EA811742EA831260
:10057000A7FB0201B6EB0B0164EB00042B0D43EA71
:100580000C335E1844EB1C50DA465146E7FB02017F
:10059000C5F313044FEA0B3343EA14534FEA043212
:1005A000019C43EA0603A4F10C040294009CCDE9EB
:1005B00000B400F007FA03B0BDE8F08F0020014658
:1005C000F9E72DE9F04D81EA030404F0004B21F036
:1005D000004514464FF0000A23F0004150EA05029E
:1005E00020D054EA01021DD0C5F30A570246C5F3D4
:1005F0001303C1F31300C1F30A5640F4801543F40A
:100600008013A7EB0608101BD64608F2FD3873EBE3
:10061000050002D308F1010801E092185B41B8F12E
:10062000000F03DA00200146BDE8F08D00204FF4F2
:100630008011064684460EE0171B73EB050705D3B1
:10064000121B63EB050306434CEA010C49084FEA11
:10065000300092185B4150EA0107EDD152EA0300E5
:1006600012D082EA040083EA0501084305D0101B7A
:10067000AB4106D20122002306E000224FF00043E6
:1006800002E06FF0010253101AEB06004CEB085128
:1006900010EB0A0041EB0B01BDE8F04D00F083B90F
:1006A00070B521F0004303430CD0C1F30A55002478
:1006B000D5EB040564EB0403D617AD1AB34102DB96
:1006C0000020014670BD201841EB025170BDC10FE2
:1006D00080EAE0700844CA079623002100F035B98B
:1006E00096230022114600F030B90EB5C10F80EA02
:1006F000E0700844CA07002140F233438DE80E0041
:100700000A460B4600F05EF903B000BD0EB540F29C
:10071000334102910021CDE900110A460B4600F059
:1007200051F903B000BD00F0004220F00040C10DBF
:10073000C0F3160040F400007F2901DA0020704762
:10074000962903DCC1F19601C84001E09639884042
:10075000002AF4D04042704720F00040C10DC0F3A1
:10076000160040F400007F2901DA00207047962926
:1007700003DCC1F19601C840704796398840704744
:1007800070B5C1F30A5201F000450024C1F3130112
:1007900040F2FF3341F480119A4201DA002070BD2B
:1007A00040F233439A42A2F2334203DC5242FFF753
:1007B000ECFC00E090402C43F1D0404270BDC1F30E
:1007C0000A5210B5C1F3130140F2FF3341F4801116
:1007D0009A4201DA002010BD40F233439A42A2F25D
:1007E000334203DC5242FFF7D0FC10BD904010BDF5
:1007F00000F0004230F000400AD0C10D01F56071F8
:10080000C0F3160042EA0151C20840071143704785
:10081000002001467047000030B5041E71F100044D
:1008200004DB4FF00044404264EB0101141E73F1FD
:10083000000405DB1C464FF00043524263EB040307
:100840008B4208BF824230BD01F0004330B421F03A
:10085000004150EA010206D00A0DA2F56072C1F310
:100860001301002A02DC30BC00207047440F44EA28
:10087000C104C100E01830BC00EBC25000F05CB80D
:10088000002801DBC0F10040002901DBC1F100417B
:10089000884270472DE9F05F0546002092469B464E
:1008A00088460646814640241BE028464146474686
:1008B0002246FFF76AFC53465A46C01A914110D3AC
:1008C00011461846224600F016F82D1A67EB01086B
:1008D0004F4622460120002100F00DF817EB0009D9
:1008E0004E41201EA4F10104DFDC484631462A4671
:1008F0004346BDE8F09F202A04DB203A00FA02F1CB
:10090000002070479140C2F1200320FA03F31943FD
:1009100090407047202A06DBCB17203A41FA02F0BC
:1009200043EAE07306E041FA02F3D040C2F120024C
:1009300091400843194670470029A8BF7047401CE2
:10094000490008BF20F00100704710B4B0FA80FCE5
:1009500000FA0CF050EA010404BF10BC704749B122
:10096000CCF1200421FA04F411FA0CF118BF012192
:1009700021430843A3EB0C01CB1D4FEA00614FEA72
:10098000102042BF002010BC704700EBC350104441
:100990000029A4BF10BC7047401C490008BF20F0CC
:1009A000010010BC704710B5141E73F1000408DA82
:1009B000401C41F1000192185B411A4301D120F023
:1009C000010010BD2DE9F04D92469B4611B1B1FAE0
:1009D00081F202E0B0FA80F220329046FFF78BFFFE
:1009E00004460F4640EA0A0041EA0B0153465A46C4
:1009F000084313D0114653EA010019D0C8F1400250
:100A00005046FFF7C2FB05460E4650465946424641
:100A1000FFF771FF084305D0012004E02046394666
:100A2000BDE8F08D0020054346EAE0762C433743CD
:100A30000A986305E40AA0EB08000022FD0A44EAD4
:100A400047540A3002D500200146E9E70105101994
:100A50006941DDE9084500196941BDE8F04DA2E7AB
:100A6000064C074D06E0E06840F0010394E80700FB
:100A700098471034AC42F6D3FFF73CFB588200088D
:100A8000788200082DE9F04D00231A461B1A8A418E
:100A900003DB00200146BDE8F08DC1F30A52C1F32B
:100AA000130141F480154FF0000BD10702D100185B
:100AB0006D41521E0027044640F2FF11384601EBFB
:100AC000620A3E468046024600204FF48011FFF73E
:100AD0005CFBC2197141BB1846EB0100B4EB030C7F
:100AE00075EB000C04D3E41A65EB000517460E46BF
:100AF000241908F101006D4180463428E3DDF9191D
:100B000046EB0600091BA84103D24FF0FF32134603
:100B100001E0002213461BEB070046EB0A51BDE83B
:100B2000F04DFFF740BF000070B5044600688168D3
:100B3000C943C90717D1816821F00101816000F024
:100B40006FFC05460AE000BF00F06AFC401B02286B
:100B500004D920688068C043C00706D02068806838
:100B6000C043C007F0D0002070BDA06A40F0100064
:100B7000A062E06A40F00100E062012070BD000068
:100B8000F8B500260446009600688168C943C90785
:100B90002DD0816841F00101816016481649006836
:100BA000B0FBF1F000E0401E00900028FBD100F007
:100BB00037FC054616E000BF00F032FC401B02285F
:100BC00010D920688068C043C0070BD0A06A40F0ED
:100BD0001000A062E06A40F00100E06284F8246046
:100BE0000120F8BD20688068C043C007E4D1002020
:100BF000F8BD0000C400002040420F0070B505465B
:100C0000164800F035FA0A21144800F093F9134809
:100C100000F0D0F8124C800508D5104800F0CCF850
:100C2000E1690844E0612088401C20802088642815
:100C300013D3E169B1FBF0F0FFF768FD4FF06632C6
:100C4000084BFFF74CFC6FF00B02FFF729FDFFF795
:100C5000FBFD28600020E061208070BDE0000020E6
:100C60005C00002066264240FEE77047202000F02E
:100C7000CDBA00000C4910B50968002048620B4944
:100C8000096848623C21084801F08DFC3C21074876
:100C900001F089FC3C21044801F03EFCBDE8104015
:100CA0003C21024801F038BCAC010020F4010020D6
:100CB000002800DC40427047F8B50024009490F80A
:100CC00024202546012A12D0012280F824204A68D7
:100CD0001F23072A0DD20668776B521E02EB820291
:100CE00093409F430B6893401F43776319E00220B2
:100CF000F8BD06680D2A0AD2376BD21F02EB8202BA
:100D000093409F430B6893401F43376309E0F76AA2
:100D10000D3A02EB820293409F430B6893401F43BE
:100D2000F7620A68072306680A2A0AD3F7680A3AAC
:100D300002EB420293409F438B6893401F43F7604E
:100D400008E0376902EB420293409F438B6893406F
:100D50001F4337610A68102A01D0112A20D1124B93
:100D600002689A4217D193681B0219D4936843F41E
:100D7000000393600968102912D10C490C4A0968D4
:100D8000B1FBF2F101EB8101490000E0491E009145
:100D90000029FBD104E0816A41F020018162012435
:100DA00080F824502046F8BD00240140C4000020F3
:100DB00040420F00806A70470068C06C70470000B6
:100DC0002DE9F0414FF0000704003D467ED0A06AB7
:100DD000002628B9E66284F82460204600F07EF8F8
:100DE0002046FFF7A1FEA16AC90600D420B1A06A7F
:100DF00040F01000A06269E0A16A21F4885141F03E
:100E00000201A1626268E169237B0A4347EA430168
:100E10000A43A1684FF48077B94209D0012907D06D
:100E20005FF0000194F814C0BCF1010F02D00AE099
:100E30003946F7E7F3B1A36A43F02003A362E36AFC
:100E400043F00103E3622368D3F804C02CF4694C37
:100E50004CEA010CC3F804C021688B68DFF870C04D
:100E600003EA0C0313438B60A168B9420BD001293C
:100E700009D00CE0DFF85CC0A3690CEB43330B43F3
:100E800043F40061DFE7218A0D05A5F5801521688F
:100E9000CB6A23F470032B43CB62216889680E4B25
:100EA0001940914208D1E662A16A21F0020141F0A5
:100EB0000101A162BDE8F081A06A20F0020040F0CB
:100EC0001000A062E06A40F00100E0620120F1E75A
:100ED000FDF7E1FF00E0FFFFFE0E1FFF00B585B04C
:100EE0000021009101910291039100680E4988420E
:100EF00017D10E48816941F400718161816901F463
:100F000000710491816941F008018161806969463D
:100F100000F008000490032000900190044800F0C5
:100F200081F905B000BD000000240140001002401E
:100F3000000C01402DE9F84300270D4604460097B8
:100F400000F06EFA804620688168C90508D5A06A5D
:100F500040F02000A06284F824700120BDE8F883EE
:100F60004168C90503D4C06A10F4700F2AD002206A
:100F700000F0B6FD3B490968B1FBF0F62068036953
:100F800039490B424FEA61014FEAA1121FD1C368F0
:100F90004FEA611C13EA0C0F19D103690B4225D1EA
:100FA000C068104222D1142023E0681C0AD02DB161
:100FB00000F036FAA0EB0800A84203D920680068C8
:100FC000800725D5206800688007EED52DE00369ED
:100FD0000B4202D1C168114206D0026923490A427C
:100FE00006D1C068084203D1542002E0292000E065
:100FF000FC204643009816E0681C11D02DB100F08B
:101000000FFAA0EB0800A8420AD90098B04207D214
:10101000A06A40F00400A06284F8247003209DE7D9
:101020000098401C0090B042E6D321686FF0120097
:101030000860A06A40F40070A06220688068C0F375
:10104000424007280CD1207B50B9A06A20F4807060
:10105000A062A06AC00403D4A06A40F00100A062AC
:1010600000207BE7C40000202449922449922400F8
:1010700070B5044690F8240001280DD0012084F8B2
:1010800024002046FFF77CFD02004FF0000005D051
:1010900084F82400104670BD022070BDA16A40F2A1
:1010A0000123994341F48071A1621F4D23681F49B8
:1010B000AB4218D10E6816F4702F14D0A66A46F40D
:1010C0008016A6620E68760505D5A66A26F4005637
:1010D00046F48056A662A66AF6040AD5E66A26F0A9
:1010E0000606E66206E0A66A26F48016A6625E6838
:1010F000E9E7E06284F824006FF0020018602068DD
:101100008368C3F34243072B05D1A84208D109687D
:1011100011F4702F04D0816841F480118160B9E727
:10112000816841F4A001F9E700280140042401404E
:1011300070B5044600F074F90546601C02D00448FE
:101140000078044400F06CF9401BA042FAD370BD53
:10115000B800002010B520284ED1322001F006FF43
:10116000264A911E881E02F049F8244A2632111F91
:10117000081F01F029FF022002F0BEFD1F4C404273
:10118000A41F2063032002F0B7FD6063B4F90400DC
:10119000FFF79DFA0246A169606A03F0B3FEA063FF
:1011A000D4E90C01226905F003FDE063B4F90600FF
:1011B000FFF78DFA0246D4E90C01636905F08AFC59
:1011C0002064D4E90E12891A0A1A0844C4E90220DC
:1011D00004F10C01081F01F0DBFE0949606A02F00E
:1011E0004BFED4E9020102F099FAD4E90C12BDE8F1
:1011F000104004A003F052B810BD000062000020AF
:101200000000404125642C25640D0A00044910B5F6
:101210000A68024202D00860FFF79CFF10BD000080
:10122000140401402DE9F84FDFF8B891002409F1CA
:10123000040A0AF1040B23460F270BF1040EC9E040
:101240000125A5402A40AA427DD1674ED1F804C0AD
:10125000ACEB0608B44532D014DCBCF1030F3AD035
:1012600009DCBCF1000F2AD0BCF1010F1CD0BCF18D
:10127000020F31D11DE0BCF1110F17D0BCF1120FDC
:101280002AD119E0B8F5881F19D006DCB8F5803FDF
:1012900015D0B8F5801F1FD111E0B8F5001F0ED092
:1012A000B8F5041F18D10AE0CB6815E0CB681B1D08
:1012B00012E0CB6808330FE0CB680C330CE08B688E
:1012C0002BB1012B4FF0080303D0456104E0042348
:1012D00002E0056100E00023FF2A01D8064601E094
:1012E00000F104064FEA840501D9A5F12005D6F8DE
:1012F000008007FA05FC28EA0C0803FA05F548EA1D
:101300000508C6F800804D68ED0062D5374DAE691E
:1013100046F00106AE61AD6924F0030605F0010553
:101320000095334D06EB050CDCF80850A607360F88
:1013300007FA06F825EA0805DFF8B880404503D12A
:101340004FF0000817E044E0DFF8AC80404502D1E0
:101350004FF001080FE0DFF8A480404502D14FF0C4
:10136000020808E0DFF89880404502D14FF00308FA
:1013700001E04FF0040808FA06F848EA0508CCF83E
:1013800008804D68D9F80060ED034D4601D516433D
:1013900000E096432E604D68DAF80060AD035546D4
:1013A00001D5164300E096432E604D68DBF80060DF
:1013B000ED025D4601D5164300E096432E604D6870
:1013C000DEF80060AD02754601D5164300E0964395
:1013D0002E60641C0D682A46E5407FF431AFBDE8FD
:1013E000F88F0000000401400000111000100240BE
:1013F0000000014000080140000C014000100140C5
:1014000000140140C26821EA02030A4043EA024193
:10141000016170470AB1016170470904FBE70000F0
:101420000148806870470000B800002070B50400D3
:1014300025D094F83D00002520B984F83C50204682
:1014400000F078FA242084F83D002068016821F03B
:10145000010101602068016841F4004101602068D9
:10146000016821F40041016000F0AAFC4D4A616866
:10147000914201D84C4900E04C49884201D20120F8
:1014800070BD4B492368B0FBF1F15E6826F03F0662
:101490000E435E606368934206D94FF496735943D6
:1014A0004FF47A73B1FBF3F12368491C1E6A26F0EE
:1014B0003F06314319626168914210D84900401ECD
:1014C000B0FBF1F2521CC2F30B02042A01D2042039
:1014D00022E0B0FBF1F0401CC0F30B001CE0A2685E
:1014E000F2B301EBC10303EB0116431EB3FBF6F3AA
:1014F0005B1C43F480431B0549D092B301EBC1024E
:1015000002EB0111401EB0FBF1F0401CC0F30B00D8
:1015100040F4804040F400402168CA694CF6FF73F3
:101520009A431043C861D4E9071001432068026858
:1015300022F0C00211430160D4E903010143206895
:10154000826848F2FF339A4311438160D4E9050170
:1015500008432168CA6822F0FF021043C86001E016
:101560000EE016E02068016841F001010160256489
:10157000202084F83D00256384F83E50002070BD93
:1015800001EB4106431EB3FBF6F35B1CB3E70120FE
:10159000C2E701EB4101401EB0FBF1F0401CC0F37B
:1015A0000B00B7E7A086010080841E0000093D0003
:1015B00040420F002DE9FF4F83B00025DDE910798F
:1015C0009A4693460446DDF848800095FFF728FFC9
:1015D000064694F83D0020287CD119230122854934
:1015E0002046009601F0EAFB0028F5D194F83C0073
:1015F00001286FD0012084F83C0020680168C907E9
:1016000003D1016841F0010101602068016821F403
:1016100000610160222084F83D00402084F83E00F3
:1016200025646762A4F82A90608D20857248E06284
:10163000CDE9008653465A462046049901F0C6FA81
:1016400000287DD1208DDFF8B491202768B10128D2
:1016500014D00228206801681ED041F48061016026
:101660002068416980690090B6E02068416981691D
:101670000091016841F400710160ADE020680168EB
:1016800021F48061016072B620684169816900912E
:10169000016841F400710AE041F40061016072B632
:1016A0002068416981690091016821F480610160CD
:1016B00062B691E0032868D801280CD0022843467E
:1016C0004FF000024946204600960FD001F076FB0D
:1016D000B0BB10E08BE032464146204601F0EDFB06
:1016E00070BB20680069616A08706CE001F066FBFD
:1016F00030BB72B634E02068016821F4806101607B
:1017000072B620680069616A0870606A401C606295
:10171000208D401E2085608D401E6085384846F231
:10172000A8110068B0FBF1F0C0EBC00000EB800036
:101730000090401E009008D020684069C04300E03F
:1017400029E040070CD50098F3E744F8305F677351
:10175000A573206940F02000206162B625731AE06D
:101760002068016841F40071016020680069616AC5
:101770000870606A401C6062218D491E2185618D60
:10178000491E618562B621681BE03246414620460B
:1017900001F093FB18B1012007B0BDE8F08F20687D
:1017A0000069616A0870606A401C6062218D491E90
:1017B0002185618D491E618521684A69D24352079E
:1017C0000AD409690170606A401C6062208D401E65
:1017D0002085608D401E6085208D00287FF46AAFD3
:1017E00084F83D7084F83E5084F83C50D4E70220E1
:1017F000D2E70000020010000000FFFF040001001B
:10180000C40000202DE9FF4F83B09A46DDE911970F
:1018100093460446DDF84080FFF702FE054694F843
:101820003D0020287FD11923012240492046009500
:1018300001F0C4FA002876D194F83C00012872D057
:10184000012084F83C0020680168C90703D10168C1
:1018500041F0010101602068016821F4006101602C
:10186000212084F83D00402084F83E0000262664B4
:10187000C4F82480A4F82A90608D20852C48E0626A
:10188000CDE9007553465A462046049901F01CFAEA
:1018900070B930E02A463946204601F041FB58B184
:1018A000206C042804D12068016841F400710160B3
:1018B000012007B0BDE8F08F606A216800780861F8
:1018C000606A401C6062218D491E89B22185628D4B
:1018D000521E628522685369DB435B070BD469B1F2
:1018E00000781061606A401C6062208D401E208577
:1018F000608D401E6085208D0028CBD12A46394658
:10190000204601F035FA0028CAD154F83D0B016891
:1019100041F400710160202004F81E09E677667723
:101920000020C6E7FFE70220C3E700000200100026
:101930000000FFFF10B586B00021009101910291D7
:10194000039100680F4988421AD10F4CA06940F0FA
:101950000800A061A069694600F008000490C0205A
:10196000009012200190032003900848FFF75AFCD2
:10197000E06940F40010E061E06900F400100490B8
:1019800006B010BD0054004000100240000C0140A1
:10199000024881680278114481607047B8000020D5
:1019A000074810B5016841F010010160032000F004
:1019B00085F8012000F006F800F024F8002010BDA2
:1019C0000020024070B50D4D04464FF47A7128781E
:1019D000B1FBF0F00A490968B1FBF0F000F0D6FB6A
:1019E00048B9102C07D200222146501E00F046F8BC
:1019F00000206C6070BD012070BD0000B8000020A8
:101A0000C40000200C4808B5816941F001018161E2
:101A1000816901F001010091C16941F08051C1610A
:101A2000C06900F0805000900448416821F0E061F6
:101A300041F08061416008BD00100240000001409B
:101A400000280DDB00F01F020121914040098000B9
:101A500000F1E020C0F88011BFF34F8FBFF36F8F0C
:101A60007047002809DB00F01F0201219140400966
:101A7000800000F1E020C0F800117047F0B40E4B78
:101A80001B680C46C3F30223C3F10705042D00D9DC
:101A90000425191D072901D2002300E0DB1E0126C1
:101AA00006FA05F1491E214099409E40761E1640D7
:101AB0003143F0BC02F016BC0CED00E0064900F02A
:101AC000070208684FF6FF03184040EA0220034A65
:101AD00010430860704700000CED00E00000FA05BC
:101AE00010B529A401461DCC86B08DE81D002AA0A2
:101AF0002A4C006804900020012923D002293AD002
:101B000010291DD161682268D20119D5C1F3834221
:101B1000C9031DF8020009D5616804AAC1F3404158
:101B2000515C1F4AB2FBF1F1484301E01D494843B3
:101B30006168490204D440005FF00301B0FBF1F09A
:101B400006B010BD226AC2F30121012903D1920718
:101B500001D5C803F4E7022905D1626A920702D5CC
:101B600049F64040ECE70329EAD121688903E7D52B
:101B70004FF22440E4E700F033F96168C1F38131AA
:101B8000491C4900DAE700000203040506070809BA
:101B90000A0B0C0D0E0F1010010200000010024085
:101BA00000127A0000093D002DE9F843054600784F
:101BB000354CC00754D0E0690026C00008D4E06965
:101BC00040F08050E061E069012600F08050009014
:101BD0002E480168C90512D40168804641F480711D
:101BE0000160FFF71DFC074605E000BFFFF718FC8A
:101BF000C01B642823D8D8F80000C005F6D5206A99
:101C000010F4407021D0A98801F4407181421CD0A9
:101C1000206A1F49012220F440700A6000220A60F5
:101C20002062C00711D0FFF7FBFB074641F288385E
:101C300008E000BFFFF7F4FBC11B414502D90320B8
:101C4000BDE8F883206A8007F4D5206A696820F42B
:101C50004070084320621EB1E06920F08050E061CE
:101C60002878800705D56068A96820F440400843BB
:101C700060602878C00605D56068E96820F48000B7
:101C8000084360600020DBE7001002400070004065
:101C9000400442422DE9F0470F46050061D0434E13
:101CA000306800F00700B84209D2306820F0070021
:101CB00038433060306800F00700B84251D12868DE
:101CC0003B4C810712D5400703D5606840F4E060C3
:101CD00060602878000703D5606840F46050606059
:101CE0006068A96820F0F000084360602878C007A9
:101CF00028D06868012810D02168022810D08907F0
:101D000000292EDA616821F0030101436160FFF7C9
:101D100087FB804641F288390DE021688903EFE7AF
:101D20008901EDE7FFF77CFBA0EB0801494502D9EB
:101D30000320BDE8F0876068696800F00C00B0EB34
:101D4000810FEFD1306800F00700B8420BD930683E
:101D500020F0070038433060306800F00700B842D8
:101D600001D00120E5E72878400705D56068E968DB
:101D700020F4E060084360602878000706D56068BA
:101D8000296920F4605040EAC100606000F038F832
:101D90006168084AC1F30311515CC84006490860F4
:101DA00006480068FFF70EFE0020C2E70020024050
:101DB00000100240FA800008C4000020BC0000208F
:101DC0000448054900684968044AC1F30221515C8E
:101DD000C8407047C4000020001002400A8100087B
:101DE0000448054900684968044AC1F3C221515CAE
:101DF000C8407047C4000020001002400A8100085B
:101E000012A185B00FC98DE80F0014A0144A006814
:101E100004905168134801F00C03042B10D0082BD8
:101E20000ED1C1F38343C9031DF803000AD55168DD
:101E300004AAC1F34041515C0A4A5043B0FBF1F09F
:101E400005B0704708494843FAE70000020304055B
:101E5000060708090A0B0C0D0E0F101001020000F6
:101E60000010024000127A0000093D002DE9F84FF1
:101E7000040070D02078C04DC00749D06868C0F316
:101E80008100012807D06868C0F38100022809D1C9
:101E90006868C00306D52868800339D560680028C3
:101EA000E7D035E06068B0F5803F0BD010B1B0F5F9
:101EB000A02F11D0286820F480302860286820F4F2
:101EC000802002E0286840F480302860606890B18B
:101ED000FFF7A6FA06460AE0286840F4802028604A
:101EE000F0E700BFFFF79CFA801B642873D82868CE
:101EF0008003F7D50CE0FFF793FA064605E000BF34
:101F0000FFF78EFA801B6428F0D828688003F7D486
:101F100020789A4E80074FF001094FF0000839D51C
:101F2000686810F00C0F07D06868C0F381000228C1
:101F300009D16868C00306D42868800714D52069D1
:101F4000012808D110E02069B0B1C6F80090FFF771
:101F500067FA074605E00AE1FFF762FAC01B0228AC
:101F6000C4D828688007F7D52868616920F0F80090
:101F700040EAC10028600DE0C6F80080FFF750FA83
:101F8000074604E0FFF74CFAC01B022823D8286854
:101F90008007F7D4207800072CD57948A169D9B1FA
:101FA000C0F80090FFF73CFA074604E0FFF738FA64
:101FB000C01B02280FD8686A8007F7D571484FF414
:101FC000FA510068B0FBF1F0009000BF0098411E8C
:101FD0000091FAD20EE080E0C0F80080FFF720FA0E
:101FE000074604E0FFF71CFAC01B022875D8686A90
:101FF0008007F7D42078400760D5E8690027C00043
:1020000008D4E86940F08050E861E869012700F0F1
:10201000805000905C480168C90513D4016883466C
:1020200041F480710160FFF7FBF9824606E000BFD2
:10203000FFF7F6F9A0EB0A0064284ED8DBF80000A1
:10204000C005F5D5E06801280AD008B1052813D0ED
:10205000286A20F001002862286A20F0040002E0CB
:10206000286A40F001002862E06841F2883B98B19C
:10207000FFF7D6F982460BE0286A40F00400286298
:10208000EEE700BFFFF7CCF9A0EB0A0159455AD89B
:10209000286A8007F6D50CE0FFF7C2F9824605E012
:1020A000FFF7BEF9A0EB0A0159454CD8286A800712
:1020B000F6D41FB1E86920F08050E861E06988B388
:1020C0006968C1F38101022944D00228C6F8608002
:1020D00004D0FFF7A5F9044638E034E0FFF7A0F993
:1020E000074604E0FFF79CF9C01B02282BD828689C
:1020F0008001F7D4206AB0F5803F05D16868A168F7
:1021000020F4003008436860D4E908010843696896
:1021100021F4741108436860C6F86090FFF780F9F5
:10212000044606E025E000BFFFF77AF9001B02280D
:1021300009D828688001F7D51BE000BFFFF770F9C8
:10214000001B022802D90320BDE8F88F286880010F
:10215000F4D40EE00128F7D06868226A00F48031D8
:10216000914204D1616A00F47010884201D00120CC
:10217000EAE70020E8E700000010024000004242C9
:1021800080044242C40000200070004010B5401E90
:10219000B0F1807F01D3012010BD4FF0E0246061D9
:1021A0000F21601702F09EF80020A0610720206137
:1021B000002010BD7047704710B590F83C20012AF0
:1021C00022D0012280F83C20CA688C6822F4407238
:1021D00022434C6822F4806222430C6822F400629D
:1021E00022430C6922F4805222434C6922F40052AB
:1021F0002243C969002322F480420A4301684A64E9
:1022000080F83C30002010BD022010BD70B590F861
:102210003C20012A26D0012480F83C40022280F88C
:102220003D2003685A689D6822F070060A683243B0
:102230005A600D4B02689A4208D0B2F1804F05D027
:102240000A4B9A4202D00A4B9A4204D1496825F0BF
:1022500080031943916080F83D40002180F83C10D4
:10226000084670BD022070BD002C014000040040F3
:102270000008004010B5040003D094F83D0010B1F0
:1022800007E0012010BD002084F83C00204600F04B
:102290001FF8022084F83D00211D206801F052FE45
:1022A000012084F8460084F83E0084F83F0084F85A
:1022B000400084F8410084F8420084F8430084F828
:1022C000440084F8450084F83D00002010BD000063
:1022D00008B500680649884208D10648816941F47A
:1022E00000618161806900F40060009008BD000019
:1022F000002C01400010024070B5044690F83C00EC
:10230000012817D0012584F83C50022084F83D00B4
:102310002068826822F0770222F47F428260086897
:10232000502830D00DDC20284DD005DC98B3102883
:102330003BD148E0022070BD302844D0402834D141
:1023400039E0602828D0702806D0B0F5805F2CD006
:10235000B0F5005F29D10AE0CB68D1E901212068FE
:1023600001F033FE2068816841F0770109E0CB6815
:10237000D1E90121206801F028FE2068816841F43C
:102380008041816011E0CA684968206801F0D2FE8E
:102390005021206807E016E0CA684968206801F00B
:1023A000DAFE6021206801F01AFE84F83D5000201A
:1023B00084F83C0070BDCA684968206801F0BAFE24
:1023C00040212068EFE7226801461046EBE72DE93F
:1023D000F0410D46040003D094F83D0018B108E028
:1023E0000120BDE8F081002084F83C00204600F088
:1023F00041F8022084F83D002068816844F2070219
:1024000091438160211D206801F09CFD2268906845
:102410009169166A2B68AF69034340F20330814328
:1024200041EA0721A868EF6908434FF6FC41884359
:10243000E96840EA0720014328692F6A000140EA61
:102440000730084369686D6926F0220646EA0515DB
:10245000294393602268906154F8460B0162012081
:1024600004F81F09E0752076E0762077A07500203B
:10247000B7E7000000B585B00021009101910291FD
:102480000391026821492248B2F1804F22D0214BAA
:102490009A421DD1CA6942F00202CA61CA6902F0B9
:1024A000020204928A6942F004028A61896901F099
:1024B00004010491C02100916946FEF7B3FE002299
:1024C00003211D20FFF7DAFA5FF01D00FFF7C9FABC
:1024D00005B000BDCA6942F00102CA61CA6902F0D2
:1024E000010204928A6942F004028A61896901F05A
:1024F00004010491032100916946FEF793FE002236
:1025000003211C20FFF7BAFA1C20DFE7001002406D
:10251000000801400004004070B590F83E60044699
:1025200090F83F5090F8423090F84320022021B1BB
:1025300004290ED0012E1BD114E0012E18D1012B3D
:1025400016D184F83E0084F8420001220021206860
:1025500020E0012D0CD1012A0AD184F83F0084F833
:10256000430014E0012D03D1012B01D1012A01D038
:10257000012070BD84F83E0084F83F0084F84200DA
:1025800084F8430001220021206801F011FD01229E
:102590000421206801F00CFD2068016841F0010170
:1025A0000160002070BD70B590F83E60044690F860
:1025B0003F5090F8423090F84320022021B1042986
:1025C00014D0012E25D11EE0012E22D1012B20D1C5
:1025D00084F83E0084F8420001220021206801F0C6
:1025E000E7FC2068C16841F002012FE0012D10D105
:1025F000012A0ED184F83F0084F8430004212068AA
:1026000001F0D6FC1EE0012D03D1012B01D1012ADE
:1026100001D0012070BD84F83E0084F83F0084F8AA
:10262000420084F8430001220021206801F0C0FC30
:1026300001220421206801F0BBFC2068C16841F040
:102640000201C1602068C16841F00401C1602068D6
:10265000016841F001010160002070BD704770B554
:102660000446006801694FF00005C943890715D485
:10267000C168C943890711D4E91E0161012020778F
:10268000206880698007204602D0FFF7E7FF04E05A
:1026900000F0BEF8204600F04DF92577206801696A
:1026A000C943490717D4C168C943490713D46FF018
:1026B00004010161022020772068806910F4407FC6
:1026C000204602D0FFF7CAFF04E000F0A1F8204640
:1026D00000F030F9257720680169C943090716D44D
:1026E000C168C943090712D46FF0080101610420D1
:1026F00020772068C0698007204602D0FFF7AEFF30
:1027000004E000F085F8204600F014F925772068F1
:102710000169C943C90617D4C168C943C90613D49E
:102720006FF010010161082020772068C06910F463
:10273000407F204602D0FFF791FF04E000F068F8E8
:10274000204600F0F7F8257720680169C943C907DA
:1027500008D1C168C943C90704D1891E0161204657
:1027600000F038F920680169C943090609D4C16835
:10277000C943090605D46FF0800101612046FFF7C7
:1027800019FD20680169C943490609D4C168C943D4
:10279000490605D46FF040010161204600F01BF9A5
:1027A00020680169C94389060BD4C168C9438906F9
:1027B00007D46FF0200101612046BDE87040FFF7AB
:1027C000FABC70BD00B585B0002100910191029165
:1027D000039100680B49884212D10B48816941F08E
:1027E000040181618069694600F0040004904FF49F
:1027F000106000900220019003900448FEF712FD43
:1028000005B000BD002C014000100240000801404E
:10281000704770B5044690F83C000D4601280AD078
:10282000012084F83C0042B1042A18D0082A2AD09A
:102830000C2A4DD139E0022070BD206801F0D8FB90
:102840002068816941F0080181612068816921F077
:1028500004018161206881692A69114311E02068BF
:1028600001F0EEFB2068816941F40061816120681C
:10287000816921F480618161206881692A6941EA66
:102880000221816124E0206801F006FC2068C16912
:1028900041F00801C1612068C16921F00401C161F2
:1028A0002068C1692A69114311E0206801F020FC09
:1028B0002068C16941F40061C1612068C16921F4E7
:1028C0008061C1612068C1692A6941EA0221C16150
:1028D000002084F83C0070BD10B5040003D094F8CB
:1028E0003D0010B107E0012010BD002084F83C003D
:1028F000204600F01EF8022084F83D00211D2068CB
:1029000001F020FB012084F8460084F83E0084F8A2
:102910003F0084F8400084F8410084F8420084F8C5
:10292000430084F8440084F8450084F83D0000200A
:1029300010BD70477047000010B50446022249B12F
:1029400004290ED0082913D094F84100012816D08C
:10295000012010BD94F83E000128F9D184F83E20F2
:102960000FE094F83F000128F2D184F83F2008E0FE
:1029700094F840000128EBD184F8402001E084F86D
:1029800041200122206801F013FB0F492068884292
:1029900003D1426C42F4004242642068884208D06D
:1029A000B0F1804F05D00949884202D008498842D9
:1029B00004D1816801F00701062903D0016841F0C4
:1029C00001010160002010BD002C01400004004006
:1029D000000800407047704770B5040004D094F8B8
:1029E0003D00002510B106E0012070BD84F83C5088
:1029F000204600F023F8242084F83D002068C168B8
:102A000021F40051C160204601F0B8FB2068016943
:102A100021F4904101612068416921F02A0141615E
:102A20002068C16841F40051C1602564202084F809
:102A30003D0084F83E00002070BD000070B586B0F7
:102A400000240094019402940394234E03682349C4
:102A500002200322224DB34219D18B6943F48043F3
:102A60008B618B6903F4804304938B6943F0040307
:102A70008B618969039201F0040104910102CDE99F
:102A8000001069462846FEF7CDFB28151BE0154EC1
:102A9000B3421FD1CB6943F40033CB61CB6903F45C
:102AA000003304938B6943F004038B6189690392BB
:102AB00001F0040104910421CDE900106946284683
:102AC000FEF7B0FB0820CDE90004694628460294D1
:102AD000FEF7A8FB06B070BD0038014000100240B0
:102AE00000080140004400402DE9F843044690F8F6
:102AF0003D001F4616460D4620284CD1C5B1BEB13B
:102B000094F83C00012846D0012084F83C004FF0A6
:102B10000008C4F84080212084F83D00FEF780FCC6
:102B2000A6848146E684A068B0F5805F03D004E007
:102B30000120BDE8F883206928B12E465FF000052A
:102B400084F83C800EE00026FAE78021204601F060
:102B500071FBA0B9AEB116F8010B21684860E08C9A
:102B6000401EE084E08C4B464FF0000200970028A6
:102B7000EBD14FF04001204601F05CFB30B1032067
:102B8000D7E735F8020BC0F30800E6E7202084F809
:102B90003D000020CDE70220CBE7FEE701684A694F
:102BA000D24352050FD46FF480624A61002140F88D
:102BB000301F202242738173026942F004020261D5
:102BC0000173012070470020704700002DE9F84F85
:102BD0000446006889460B9D01689846174641F4F3
:102BE000806101602068016841F480710160009596
:102BF0004FF0011B0022594620460A9B00F0DEF8E8
:102C00004FF4007A40B120680068C00501D5C4F8CF
:102C100040A00320BDE8F88F216809F0FE0008619C
:102C20002B46284920460A9A00F0FCF8F0BB2068A1
:102C30004169806900902A4620460A9900F070F99F
:102C400040B1206C04283AD12068016841F4007139
:102C5000016034E0FEB2B8F1010F09D02168380AF2
:102C600008612A4620460A9900F05AF90028E8D15E
:102C7000206806612A4620460A9900F051F900288A
:102C8000DFD12068016841F4807101600095002265
:102C9000594620460A9B00F091F80028B3D12168DC
:102CA00009F0FF0040F00100086100E007E02B465A
:102CB000044920460A9A00F0B5F80028AAD001205D
:102CC000A8E70000020001002DE9F843044600686F
:102CD0000D46DDE9089701689846164641F4807173
:102CE00001604B4600224FF001112046009700F092
:102CF00065F848B120680068C00502D54FF400703F
:102D000020640320BDE8F883216805F0FE00086117
:102D10003B464A461549204600F084F888B92068A9
:102D20004169806900903A464946204600F0F8F82B
:102D300048B1206C042804D12068016841F4007176
:102D400001600120DEE7F5B2B8F1010F09D021687A
:102D5000300A08613A464946204600F0E1F800286A
:102D6000E7D1206805610020CCE7000002000100E7
:102D700070B516460D4604460DE02046FFF70EFFDF
:102D800008B1012070BD681C05D0FEF749FB801B0F
:102D9000A84207D835B120684069C0434007ECD449
:102DA000002070BD002044F8300F20216173A07313
:102DB000216941F0200121612073E2E72DE9F0470C
:102DC0001E4690460D460446C1F30747DDF82090A5
:102DD00008E0701C06D0FEF723FBA0EB0900B04210
:102DE0000FD876B12068012F18D0806925EA00003D
:102DF0000004000C14D000214145EAD00020BDE8B9
:102E0000F087002044F8300F20216173A0732169FE
:102E100041F02001216120730120F0E74069E5E7DE
:102E20000121E9E72DE9F0479A4691460E4604460E
:102E300000254FF02008C1F3074725E020684069CE
:102E4000C043400514D42068016841F4007101605A
:102E500021686FF480604861256384F83D8084F8C0
:102E60003E50206C40F00400206484F83C501FE089
:102E7000B9F1FF3F08D0FEF7D3FAA0EB0A014945AC
:102E80000CD8B9F1000F09D02068012F13D0806948
:102E900026EA00000004000C0BD0CFE744F8305FB6
:102EA00084F80D80A573206940F02000206125730F
:102EB0000120BDE8F0874069EAE72DE9F0410025EF
:102EC00090460E460446202717E04069C043C006DE
:102ED0000CD454F8301B6FF01000486144F81059BE
:102EE0006777A577206A2062257717E0FEF798FAC2
:102EF000A0EB0800B04208D83EB120684169C94340
:102F00004906E2D40020BDE8F08144F8305F6773E1
:102F1000A573206940F02000206125730120F2E7AD
:102F200070B516460D4604460DE02046FFF736FE06
:102F300008B1012070BD681C05D0FEF771FA801B36
:102F4000A84207D835B120684069C0430006ECD4D8
:102F5000002070BD002044F8300F20216173A07361
:102F6000216941F0200121612073E2E7064A1188BE
:102F70004B1C1380814206D3002010804FF4804107
:102F80000248FEF73FBA70470000002000100140E1
:102F900030B50B4A046813689C4200DD0360094B9E
:102FA00005681C68A54200DA04600C681068844259
:102FB00000DD08600A681868824200DA086030BDE7
:102FC000A0000020A40000202DE9F74F8EB00CA92E
:102FD00002A8CDE900010BAB03AA09A907A802F0DA
:102FE000FDF818B1012011B0BDE8F08FBDF8080060
:102FF000C0057DD50398FDF76AFB6FF01D042146DF
:10300000FDF7BAF982460498FDF761FB2146FDF70A
:10301000B3F981460598FDF75AFB2146FDF7ACF957
:1030200080460698FDF753FB2146FDF7A5F90546B6
:1030300001215046FDF7A0F906464146FDF72CF95F
:1030400004464FF040414846FDF726F90746294619
:10305000FDF722F92146FDF7C7F8FDF7C9FB01F09E
:103060003BFC4FF0663B5A463D4BFDF738FAFDF707
:10307000EBFB0E99086001214046FDF77DF94146C2
:103080000090FDF709F9044638464946FDF704F972
:103090002146FDF7FBF84FF07E51FDF7A5F8FDF74F
:1030A000A7FB07460C4630464946FDF7F5F80646AD
:1030B00029460098FDF7F0F83146FDF795F8FDF741
:1030C00097FB3A46234601F04FFE5A46244BFDF744
:1030D00006FAFDF7B9FB0F99086029460846FDF787
:1030E000DBF8074641460846FDF7D6F8064600E0FD
:1030F00034E049460846FDF7CFF8044651460846F5
:10310000FDF7CAF82146FDF76FF83146FDF7BEF826
:103110003946FDF7BBF8FDF76BFB06460C46294622
:103120005046FDF7B9F8054641464846FDF7B4F864
:103130002946FDF759F80121FDF71EF9FDF758FB67
:103140003246234601F010FE5A46054BFDF7C7F9FB
:10315000FDF77AFB10990860002044E7022042E75F
:1031600066A64C4010B502F05FFF08B10A2010BD02
:10317000782003F0D7FB10F0FF0F01D0012010BD25
:10318000782002F083FE10F0FF0F01D0022010BD66
:10319000642003F089FB10F0FF0F01D0032010BD65
:1031A00002F012F810F0FF0F01D0042010BD1248F9
:1031B00002F09AFD02F0C8F910F0FF0F01D00520CF
:1031C00010BD40F2731001F0D7FE10F0FF0F01D0D8
:1031D000062010BD642002F01FF910F0FF0F01D08F
:1031E000072010BD00F09CFD012003F08DFA10F0C7
:1031F000FF00F6D0092010BD300000207CB5144639
:103200000D4606466A460621432000F091F8002844
:103210000BD1BDF8001049BA3180BDF8021049BA8F
:103220002980BDF8041049BA21807CBD10B51FA0CB
:1032300001F034F8752000F061F80146682804D0E8
:1032400021A001F02BF8012010BD24A001F026F8E8
:1032500080216B2000F0BAF800216B2000F0B6F856
:10326000032000F07EF8002000F076F8322000F015
:1032700095F80021382000F0A9F800216A2000F01C
:10328000A5F80021232000F0A1F88021372000F0CC
:103290009DF801216B2000F099F800216C2000F0CE
:1032A00095F8322000F07AF8002010BD0D0A526522
:1032B00061647920746F20696E6974204D505536B1
:1032C0003035300D0A000000457272206D70752097
:1032D00069643A307825780D0A0000006D70753603
:1032E00030353020494420526561643A204F4B20EC
:1032F000617420307836380D0A0000001FB50021B7
:103300008DF80C1040F6FF73012203A98DE80E0022
:1033100013460246D1210548FEF74CF90120FDF77E
:1033200007FF9DF80C0004B010BD00001001002044
:103330000EB540F6FF730092CDE90113024601235A
:10334000D1210448FEF736F90120FDF7F1FE0020F7
:103350000EBD000010010020C006010E1C2000F070
:1033600035B8C006010E1B2000F030B8BC2801D3D0
:10337000012110E0622801D302210CE02A2801D3A8
:10338000032108E0142801D3042104E00A2801D312
:10339000052100E006211A2000F018B810B50446F7
:1033A0004FF47A70844201D9044602E0042C00D222
:1033B0000424B0FBF4F0401EC1B2192000F006F85E
:1033C0006008BDE81040FFF7D1BF00001FB540F610
:1033D000FF738DF80C10012203A98DE80E0013462F
:1033E0000246D0210448FEF70DFA0120FDF7A0FEA9
:1033F00004B0002010BD0000100100200EB540F602
:10340000FF730092CDE9011302460123D021044845
:10341000FEF7F8F90120FDF78BFE00200EBD00003D
:10342000100100203EB500211148009101910F4A82
:103430000291026001248160047301754FF46022DF
:103440000461C2614160FDF7BBFC08B172B6FEE7E2
:103450000820CDE900040720029069460448FDF7E2
:103460002BFC002801D072B6FEE73EBD00240140CF
:10347000E0000020F0B585B00024374800940194A6
:1034800002940394816941F010018161816901F026
:1034900010010491816941F020018161816901F08D
:1034A00020010491816941F004018161816901F089
:1034B00004010491816941F0080181618069274E0E
:1034C00000F008004FF48045049000222946304661
:1034D000FDF7A0FF224F00224FF473413846FDF75D
:1034E00099FF4FF42040CDE900046946304602942C
:1034F000FDF798FE0220CDE90240009501256946BE
:1035000001953046FDF78EFE4FF47040CDE9000581
:1035100069463846CDE90245FDF784FE202000903B
:103520001048CDE9010469463846FDF77BFE4FF4AB
:103530004070CDE900050320CDE9024069463846D8
:10354000FDF770FE002202211720FEF797FA1720E0
:10355000FEF787FA05B0F0BD0010024000100140F0
:10356000000C01400000211010B596B000240F940B
:1035700010941194129413941C2168461494FCF72F
:103580001BFE202107A8FCF717FE2C482A49C0E99A
:10359000001441F61F41C0E90241046144618461A5
:1035A000FEF768FE08B172B6FEE74FF480500F9048
:1035B0000FA92248FEF7A0FE08B172B6FEE71F4829
:1035C000FFF78AF908B172B6FEE7139413A91B48F6
:1035D0001494FEF71BFE08B172B6FEE76020CDE939
:1035E000000402940394049405940022694613484D
:1035F0000694FFF70EF908B172B6FEE70C22694691
:103600000E48FFF706F908B172B6FEE70794089472
:1036100009944FF400500A94CDE90B4007A90748DC
:103620000E94FEF7C9FD08B172B6FEE70348FFF736
:10363000C9F816B010BD0000002C01406401002044
:1036400010B58CB024216846FCF7B6FD002416485E
:1036500009944FF080410A94C0E900144FF6FF71BD
:10366000C0E90241046184610320CDE90004012026
:10367000CDE902040A210491CDE90540CDE90741D5
:1036800069460948FEF7A3FE08B172B6FEE7099441
:1036900009A905480A94FEF7B9FD002801D072B6C1
:1036A000FEE70CB010BD0000AC01002010B58CB0DE
:1036B00024216846FCF780FD00241648099414492B
:1036C0000A94C0E900144FF6FF71C0E90241046199
:1036D00084610320CDE900040120CDE902040A2120
:1036E0000491CDE90540CDE9074169460948FEF757
:1036F0006EFE08B172B6FEE7099409A905480A945E
:10370000FEF784FD002801D072B6FEE70CB010BDB4
:1037100000040040F4010020FEE7000070B5002323
:103720000124114A002804DDC2F8B841C2F8BC31B6
:1037300003E0C2F8B831C2F8BC41FDF7B9FA0B4D4D
:103740002E687063002904DDC2F8B441C2F8B031BC
:1037500003E0C2F8B431C2F8B0410846FDF7A8FA58
:103760002968086470BD00000080214264010020C7
:1037700010B500210448FFF7DFF8BDE810400C2128
:103780000148FFF7D9B8000064010020FEE770B5DA
:103790000024002104F1B00000F04AFA002108469C
:1037A00000F046FA0021102000F042FA0025012125
:1037B000002000F03DFA6D1CEDB2802DF7D3641CA3
:1037C000E4B2082CE5D370BD2DE9FF5F002084B082
:1037D0001F4614460126814600900190024603468A
:1037E0000290DDF848B0B04620463946FDF714F89F
:1037F000204602D287F0004100E03946FCF7C0FFC6
:103800000546FCF772FF22463B46FCF765FE0022A8
:10381000444BFCF764FEFCF7D2FF01460A2005E0AA
:1038200008EB8802761C4FEA4208F6B295FBF0F3EB
:1038300093FBF8F2002AF3D142F2107295FBF2F2F8
:1038400092FBF0F300FB13228DF800204FF47A7204
:1038500095FBF2F393FBF0FC00FB1C338DF8013079
:10386000642395FBF3FC9CFBF0F800FB18CC8DF86F
:1038700002C095FBF0FC9CFBF0F800FB18CC8DF827
:1038800003C095FBF0FCB1FBF2F200FB1C558DF878
:103890000450B2FBF0F500FB15224FF02E0A8DF814
:1038A00005A08DF80620B1FBF3F2B2FBF0F300FBAC
:1038B00013228DF80720B1FBF0F2B2FBF0F300FB0E
:1038C00013228DF80820B1FBF0F200FB12108DF8E6
:1038D00009000DEB0B086D4688F806900020295C66
:1038E00030312954401C0A28F9DB002213462046B7
:1038F0003946FCF791FF05D2761CF6B2C6F10501F8
:103900002D2068548DF805A0C6F1050088F80690B2
:103910004219DDE904100C2300F000F908B0BDE8FD
:10392000F09F00000088C34070B501220B4D1402C7
:1039300021462846FDF76EFD0122560231462846F3
:10394000FDF768FD002231462846FDF763FD21465C
:103950002846BDE870400022FDF75CBD000C014028
:1039600070B5094C012211022046FDF753FD651583
:10397000002229462046FDF74DFD29462046BDE898
:1039800070400122FDF746BD000C014070B50122D8
:10399000064D140221462846FDF73CFD21462846E7
:1039A000BDE870400022FDF735BD0000000C01406D
:1039B00010B50A460446002102F1B00000F038F9C3
:1039C000102040EA1410002100F032F904F00F003A
:1039D000BDE81040002100F02BB9000038B51848B0
:1039E0000068FCF705FF022402460B463821002040
:1039F0000094FFF7E9FE13480068FCF7F9FE024661
:103A00000B46302101200094FFF7DEFE0E480C2506
:103A10000095032302681946502000F05FF80B4818
:103A20000095032302681946142000F057F800227D
:103A3000074B462102200094FFF7C6FE38BD000068
:103A4000800000207C000020900000208C000020DE
:103A500000408F402DE9F041203A00240D46804679
:103A6000D6B27F2803D900208D1C8046EDB2102BE2
:103A7000294610D0FFF79CFF164906EB460001EBE4
:103A800040050121285D00F0D3F8641CE4B2062C47
:103A9000F7D3BDE8F081FFF78BFF0F4F04EB061063
:103AA0000121385C00F0C4F8641CE4B2082CF5D3A2
:103AB0006D1CE9B24046FFF77BFF002404EB0610C3
:103AC00038440121007A00F0B3F8641CE4B2082CF9
:103AD000F4D3DEE79C6C0008C46E00082DE9F843BF
:103AE0001F46089D1400884606462B4604D509A2A9
:103AF00000F014F8644202E007A200F00FF806EBB1
:103B00005500C0B23B4622464146009500F01EF8E3
:103B1000BDE8F8832D0000002B0000002DE9F041E6
:103B20001F4616468846054600240AE03B464146A5
:103B30002846FFF78FFF0835EDB2782D04D8641CB6
:103B4000E4B2325D002AF1D1BDE8F0812DE9F05FE9
:103B50000026DDF828901D4692468B468046344666
:103B60004FEA590723E0281B401EC1B20A2002F089
:103B700059FFBAFBF0F00A21B0FBF1F201FB120091
:103B800026B9691E8C4201DA38B101263030C2B242
:103B900007FB0480C0B24B4604E007FB0480C0B2C0
:103BA0004B4620225946FFF755FF641CE4B2AC4255
:103BB000D9D3BDE8F09F000010B500210C2312A25C
:103BC0000846FFF7ABFF0C2311A201210020FFF7ED
:103BD000A5FF0C2310A201215A20FFF79FFF0C2301
:103BE0000EA202210020FFF799FF0C230EA2032151
:103BF0003C20FFF793FF0C230321BDE810400BA2EC
:103C00000120FFF78BBF0000414E474C453A0000B2
:103C1000424154203A000000560000004469737489
:103C2000616E63653A000000523A20004C3A200071
:103C3000C0B209B100F047B800F02EB82DE9F0414C
:103C4000144F04464FF48076002231463846FDF783
:103C5000E1FB00254FF4007804F08000802816D0A6
:103C6000002241463846FDF7D5FB6006040E0122CE
:103C700031463846FDF7CEFB002231463846FDF787
:103C8000C9FB6D1CEDB2082DE6D3BDE8F081012221
:103C9000E7E70000000C014010B50446FFF744FEC2
:103CA0007820FFF7CBFFFFF771FE0020FFF7C6FF7C
:103CB000FFF76CFE2046FFF7C1FFFFF767FEBDE888
:103CC0001040FFF74DBE10B50446FFF72DFE7820DB
:103CD000FFF7B4FFFFF75AFE4020FFF7AFFFFFF7F3
:103CE00055FE2046FFF7AAFFFFF750FEBDE8104043
:103CF000FFF736BE70470000024600200146022A48
:103D000007D0032A04D104480268506A516200B205
:103D100070470248F8E70000F4010020AC010020E1
:103D200010B588B0694604A802F0E0FB072802D06D
:103D3000012008B010BD07A802F02CF90498FCF788
:103D4000C6FC07990C46FCF7A7FAFCF7ECFC0490BC
:103D50000598FCF7BCFC2146FCF79EFAFCF7E3FC57
:103D600005900698FCF7B3FC2146FCF795FAFCF7A2
:103D7000DAFC069004A801F081FB03A802F0CEF85B
:103D8000BDF80C0000994143009101994143019114
:103D9000029941436846029101F0D2FA0020C8E737
:103DA00010B50021AE20FFF743FF00210846FFF7C2
:103DB0003FFF00211020FFF73BFF00214020FFF7CD
:103DC00037FF0021B020FFF733FF00218120FFF7EC
:103DD0002FFF0021B020FFF72BFF0021A120FFF7CC
:103DE00027FF0021A420FFF723FF0021A620FFF7D3
:103DF0001FFF0021A820FFF71BFF00213F20FFF736
:103E000017FF0021C820FFF713FF0021D320FFF781
:103E10000FFF00210846FFF70BFF0021D520FFF719
:103E200007FF00219020FFF703FF0021D920FFF7B3
:103E3000FFFE00212220FFF7FBFE0021DA20FFF722
:103E4000F7FE00211220FFF7F3FE0021DB20FFF731
:103E5000EFFE00213020FFF7EBFE00218D20FFF761
:103E6000E7FE00211420FFF7E3FE0021BDE810402B
:103E7000AF20FFF7DDBE7047074A904205D8074ADA
:103E8000904202DC0648814204DA064900200860BC
:103E90000549086070470000000020C20000204271
:103EA0009A9931416400002068000020FDF770BD40
:103EB00030B593B028216846FCF77EF914210AA892
:103EC000FCF77AF9002501200F9510951195010452
:103ED00012958DE8230004904FF4E010CDE908100E
:103EE000022407946846FDF7C1FF08B172B6FEE7E9
:103EF0000AA90F2081E831004FF48060CDE90D055B
:103F000002210AA8FDF7C6FE08B172B6FEE74FF41B
:103F1000004011900F940FA8FDF746FE002801D035
:103F200072B6FEE713B030BD704700000148FEF7DF
:103F300096BB0000AC0100200148FEF790BB0000DA
:103F4000F4010020F0B50268164B174C174D4FF0E6
:103F50008047984205D0B84203D0A04201D0A84281
:103F600003D122F070064A683243984205D0B84225
:103F700003D0A04201D0A84203D122F44074CA6801
:103F800022434C6922F08002224302608A68C262A6
:103F90000A688262984201D1096901630121416185
:103FA000F0BD0000002C014000040040000800406B
:103FB00010B501F01F030121046A99408C4304628B
:103FC000016A9A401143016210BD10B5846842EA4B
:103FD000032224F47F440A432243826010BD826896
:103FE00022F070020A4342F007018160704700002E
:103FF00030B5026A22F001020262026A43688469F3
:1040000024F073050C682C4322F002058A682A43C9
:104010000A4DA8420BD122F00805CA6823F4407368
:104020002A434D6922F004021D438B692B434360F0
:10403000846149684163026230BD0000002C014088
:1040400030B5026A22F010020262026A4368846993
:104050000D6824F4E64444EA05248D6822F0200229
:1040600042EA05120B4DA8420ED1CD6822F0800223
:1040700042EA05124D6923F4406343EA85038D69E2
:1040800022F0400243EA850343608461496881630A
:10409000026230BD002C014030B5026A22F4807209
:1040A0000262036A4268C46923F4007324F0730552
:1040B0000C682C438D6843EA05230C4DA8420ED1B1
:1040C000CD6823F4006343EA05234D6922F440528E
:1040D00042EA05128D6923F4806342EA05124260C8
:1040E000C4614968C163036230BD0000002C014017
:1040F00030B5026A22F480520262046A4268C369DF
:104100000D6823F4E64343EA05238D6824F4005444
:1041100044EA0534064DA84204D14D6922F4804298
:1041200042EA85124260C36149680164046230BD9D
:10413000002C014010B5036A046A24F001040462F3
:10414000846924F0F00444EA021423F00A020A43CA
:104150008461026210BD10B5036A23F0100303628C
:104160008369046A23F4704343EA023224F0A00313
:1041700043EA01118261016210BD000070B504467E
:1041800000680169E26821F440511143016121692D
:10419000A0680843616908432168CA6841F20C635A
:1041A0009A430243CA6020684169A26921F44071C0
:1041B000114341611E492068884202D1FDF710FE7B
:1041C00001E0FDF7FDFD00EBC00101EB00126068AE
:1041D00064218000B2FBF0F3B3FBF1F36FF018063B
:1041E0007343B2FBF0F5B2FBF0F605EB8305322327
:1041F00003EB0515B5FBF1F5B6FBF1F605F0F0059F
:1042000005EB0615B2FBF0F6B2FBF0F0B0FBF1F0F7
:104210006FF01802504306EB800003EB0010B0FB78
:10422000F1F0216800F00F002844886070BD0000A4
:10423000003801402DE9F041984617460E460446E5
:10424000069D1DE0681C1BD02DB1FDF7E9F8A0EB21
:104250000800A84214D92068C16821F4D071C16057
:104260002068416921F001014161202084F83D006E
:1042700084F83E00002084F83C000320BDE8F08173
:104280002068006836EA000004D00020B842D9D087
:104290000020F3E70120F9E7FEE700000FB4054B2B
:1042A00010B503A9044A029800F0AAF810BC5DF802
:1042B00014FB000091580008C8000020490050EA93
:1042C000C12018BF04204A0D18BF40F0010040F281
:1042D000FF72B2EB515F08BF40F00200012808BF37
:1042E000052070470907090E002804DB00F1E020D3
:1042F00080F80014704700F00F0000F1E02080F813
:10430000141D70472DE9F0414F1E00EBC701044614
:10431000D1E9000115461E4637F006020DD02A46A7
:104320003346FCF7DCF87F1E04EBC703D3E9002318
:10433000FCF72EF837F00602F1D1022F25D0042F1A
:1043400013D0062F18BFBDE8F0812A463346FCF78C
:10435000C6F8D4E90A23FCF71BF82A463346FCF7D3
:10436000BEF8D4E90823FCF713F82A463346FCF7D5
:10437000B6F8D4E90623FCF70BF82A463346FCF7D7
:10438000AEF8D4E90423FCF703F82A463346FCF7D9
:10439000A6F8D4E90223FBF7FBFF2A463346FCF7D5
:1043A0009EF8D4E90023BDE8F041FBF7F1BF0122FC
:1043B000FCF776B9FBF7ECBF002213461046114616
:1043C000FCF7FFB8024A00201107FCF769B90000AA
:1043D00001FDFFFF02E008C8121F08C1002AFAD140
:1043E00070477047002001E001C1121F002AFBD175
:1043F000704700000149086070470000CC000020B1
:104400002DE9FF4F8DB00F460546002606E0252812
:104410000BD0DDE90F1290476D1C761C2878002820
:10442000F5D111B03046BDE8F08F0024A246A14678
:104430000122E94900E0044315F8013F203B02FA5C
:1044400003F00842F7D128782A2810D06FF02F0205
:104450002878A0F13001092914D80AEB8A0102EB6F
:10446000410144F0020400EB010A6D1CF0E701CFAA
:104470005FEA000A03D544F40054CAF1000A44F08C
:1044800002046D1C28782E2817D115F8010F44F06E
:1044900004042A280ED06FF02F022878A0F13001F2
:1044A00009290AD809EB890102EB410100EB010956
:1044B0006D1CF2E757F8049B6D1C28786C280FD010
:1044C00006DC4C2817D068280DD06A2814D104E0E7
:1044D000742810D07A280FD10DE044F400140AE0BB
:1044E00044F4801401E044F440146978814202D11C
:1044F00004F580146D1C6D1C28786E281ED00CDC11
:10450000632830D004DC00288BD0582811D19FE0DC
:10451000642867D069280CD164E073282DD004DCAE
:104520006F2872D0702804D194E075286ED0782856
:104530006DD0DDE90F129047761C4BE1C4F30250B9
:10454000022806D0032809D0042801CF09D006602C
:1045500040E101CFF117C0E900613BE101CF0680E6
:1045600038E1067036E117F8040B8DF800000020E2
:104570008DF80100EB46012003E057F804BB4FF033
:10458000FF3061074FF0000102D40DE008F1010196
:10459000884649450FDA8045F8DB1BF808100029EA
:1045A000F4D108E008F1010188468142FADB1BF8EA
:1045B00008100029F6D1DDE90F23AAEB0800814697
:1045C000214600F031F9304400EB080604E0DDE953
:1045D0000F121BF8010B9047B8F10108F7D22146E2
:1045E0004846F2E00A21C4F302524FF0000B089152
:1045F000022A04D001CFC117032A09D00AE0FF1D07
:1046000027F00707F7E8020108E02CE01EE01FE0B2
:1046100000B2C117042A01D140B2C117021E71F1C4
:10462000000206DA0023D0EB030063EB01012D2228
:1046300002E0220504D52B228DF82420012203E07C
:10464000E20701D02022F7E7904653E00A210BE071
:10465000102109E010214FF0000B44F004044FF04A
:104660000809089103E008214FF0000B0891C4F3FA
:104670000252022A04D001CF0021032A06D006E00C
:10468000FF1D27F00707F7E8020103E080B2042AC4
:1046900000D1C0B24FF0000822072BD52A78702A2B
:1046A00007D0DDF820C08CF0100C5CEA0B0C05D0B4
:1046B0000EE040228DF82420012208E050EA010398
:1046C00006D030238DF824308DF825200222904624
:1046D000089B83F0080353EA0B030BD150EA010255
:1046E00001D1620706D530228DF824204FF0010851
:1046F000A9F101092A78582A04D038A20B9208AAF5
:104700000A920BE03AA2F9E75B46089AFCF7C2F876
:104710000B9B9B5C0A9A521E0A92137050EA01028C
:10472000F2D10A98ADEB000000F1200B600702D532
:1047300024F4803401E04FF00109D94502DDA9EBF2
:104740000B0000E0002000EB0B0141440890AAEBB5
:10475000010AE00306D4DDE90F232146504600F0AC
:1047600063F806444FF0000908E009A911F80900B0
:10477000DDE90F12904709F10109761CC145F4DB10
:10478000E0030CD5DDE90F232146504600F04CF83C
:10479000064404E0DDE90F1230209047761C0899AA
:1047A000481E08900029F5DC08E00A980A9900786C
:1047B000491C0A91DDE90F129047761CBBF10001FC
:1047C000ABF1010BF1DC21465046DDE90F2300F08F
:1047D00019F806446D1C21E60928010030313233F6
:1047E000343536373839616263646566000000002D
:1047F0003031323334353637383941424344454617
:10480000000000002DE9F041044600251E46174631
:10481000880404D405E039462020B0476D1C641E8E
:10482000F9D52846BDE8F0812DE9F0410446002580
:104830001E469046C80301D5302700E02027880493
:1048400004D505E041463846B0476D1C641EF9D5D5
:104850002846BDE8F08100002DE9FE4F07460E46D0
:104860000025684601F020F800246FF00F0AE846A2
:104870004FF0010957F8240056F82410401A00D5CB
:104880004042FBF724FF5146FBF776FD58F8241011
:1048900011F0FF4F0BD0FBF731FD4FF07E51FBF7CE
:1048A000F5FC0A4920F00040884205DC07E0084991
:1048B00008440849884202D309FA04F00543641CFD
:1048C000032CD7DB2846BDE8FE8F0000295C0F3E95
:1048D000666666C19A99D9002DE9F04D8D4F21F099
:1048E000004A86B005460C46BA452ADBAAEB07000B
:1048F00028430AD08848824501DC1AD1CDB106B0E0
:104900002846BDE8F04DFFF752BD844A844B284647
:10491000FBF7E5FD07460E46824A834B28462146B3
:10492000FBF7DDFD06B03A463346BDE8F04DFBF738
:104930002FBD0120FFF75EFD06B0BDE8F04DFFF78B
:104940003BBD7A48824542DABAF1795F0BDA2846F4
:10495000FFF7B4FC042808BFFFF734FD284606B073
:104960002146BDE8F08D2A460B461046FBF7B7FD01
:10497000834602466E480E460B4606217844FFF7F2
:10498000C1FC5A463346FBF7AAFD804669488A4671
:104990005A46334604217844FFF7B4FC5A4633465E
:1049A000FBF79DFD00223B46FBF7F2FC02460B465F
:1049B00040465146FBF705FE2A462346FBF78FFD8E
:1049C00006B02A462346BDE8F04DFBF7E1BC284679
:1049D00024F0004100223D463B46FBF77DFD4FF0B1
:1049E000FF32FBF75DFE0646024653480F460B4674
:1049F00006217844FFF786FC32463B46FBF76FFD05
:104A0000CDE900014D4832463B4604217844FFF78A
:104A100079FC32463B46FBF762FD00222B46FBF752
:104A2000B7FC834602913046394602F02DF88046A5
:104A300043480D46504517DCDDE900015A46029B0C
:104A4000FBF7BFFD42462B46FBF749FD42462B468E
:104A5000FBF79EFC0122FBF723FE304A304BFBF7AD
:104A600038FD304A304B4CE04FF0000A52460B46BE
:104A70004046FBF78DFCCDE9031052462B4610460D
:104A80001946FBF72CFD32463B46FBF725FDDDE9D9
:104A90000332FBF796FD06460F46DDE900015A4654
:104AA000029BFBF78EFD834600910122304639467A
:104AB000FBF7F6FD194A1A4BFBF70EFD06460F46AB
:104AC000012240462946FBF7EBFD5A46009BFBF7C7
:104AD00006FD32463B46FBF7FCFC06460F4601222C
:104AE00050462946FBF7DCFD0E4DDFF858802A467C
:104AF0004346FBF7F1FC32463B46FBF7EDFC2A460A
:104B00004346FBF7E9FC002CD8BF81F0004106B01A
:104B1000BDE8F08D0000F03F0000F07F075C14332B
:104B200026A6913C182D4454FB21F93F0000E03F9C
:104B300098370000AE3700002237000038370000F9
:104B40003333EF3FFB21E93F2DE9F84F04460D4693
:104B500021F0004000917349814211DC7249884282
:104B600001DC06D12CB120462946BDE8F84FFFF7FD
:104B70001EBC6E48002DCCBF6D496E49BDE8F88F54
:104B80006D49814211DD6D498142D8BF4FF0FF363A
:104B90006DDD20462946FFF791FB042808BFFFF78B
:104BA00011FC20462946BDE8F88F6549654F25F080
:104BB0000045814233DD6449814219DD00263246D9
:104BC0004FF0804320462946FBF7E2FB80468A46A9
:104BD000012220462946FBF763FD00223B46FBF7F6
:104BE00078FC42465346FBF7ECFC04460D463EE09B
:104BF00001260022BA463B4620462946FBF7C8FB61
:104C000080460F460022534620462946FBF761FCAA
:104C100042463B46FBF7D5FC04460D4627E04B4990
:104C200081421BDDDFF828A10226002253462046E0
:104C30002946FBF754FC00223B46FBF7A9FB8046C4
:104C40000F460022534620462946FBF742FC4246C7
:104C50003B46FBF7B6FC04460D4608E00326224619
:104C60002B4600203B49FBF7ACFC04460D46224690
:104C70002B4610461946FBF732FC8B46824602460D
:104C80000B46FBF72CFC07460246334888460B468A
:104C900006217844FFF736FB52465B46FBF71FFCC4
:104CA00082462E488B463A46434605217844FFF714
:104CB00029FB3A464346FBF712FC02460B46002E00
:104CC000504659460CDAFBF763FB22462B46FBF7AE
:104CD00006FC01B022462B46BDE8F04FFBF7FCBBBB
:104CE000FBF756FB22462B46FBF7F9FB1C4A7A449E
:104CF00002EBC603D3E90023FBF7EBFB22462B466E
:104D0000FBF7E7FB174A7A4402EBC603D3E900231B
:104D1000FBF7E2FB009A002AB8BF81F00041BDE832
:104D2000F88F0000000010440000F07F182D44545C
:104D3000FB21F93FFB21F9BF0000DC3F0000203ED2
:104D40000000F33F0000F03F0000E63F008003401A
:104D50000000F83F0000F0BF3A350000F8340000D2
:104D6000963400005E3400002DE9F04D9446CCF1FD
:104D7000000423F000464CEA0404594F46EAD47478
:104D80009A46884621F00042BC4206D8454240EA95
:104D9000050442EAD474BC4204D9BDE8F04D624631
:104DA000FFF708BBAAF14055A5F17F6555EA0C0451
:104DB0000BD0022404EAAA744A4DDFF82CE144EA3D
:104DC000D87452EA000B04D00CE0BDE8F04DFFF7B8
:104DD000BBBE002C14BF012CBDE8F08D022C30D0DE
:104DE000032C32D056EA0C0B0AD0BE4220D1BA4274
:104DF00009D126F0804622F080423346114617E062
:104E000000291ADB25E0DFF8E4B0FB44002C04BFE6
:104E1000DBE90001BDE8F08D012C02BFDBE90001F8
:104E200081F00041BDE8F08D022C0AD0032C0CD09B
:104E3000BA4212D1B8F1000F0BDA2A482C49BDE86A
:104E4000F08D28462B49BDE8F08D28467146BDE817
:104E5000F08D24482849BDE8F08D921B12153C2A9C
:104E6000C4BF204F244E10DCBAF1000FBEBF12F1B8
:104E70003C0F00273E4608DB6246FBF7A2FB21F011
:104E80000041FFF761FE07460E4694B1012C08BFB2
:104E900086F000460DD0194A194B022C384631468F
:104EA00015D0FBF716FB2A46BDE8F04D114BFBF77A
:104EB00010BB0022134638463146FBF7ADFC04BF59
:104EC0000220FFF797FA38463146BDE8F08DFBF730
:104ED00000FB2A46BDE8F04D064BFBF7FDBA00008B
:104EE0000000F07F182D4454FB2109C0F23300006C
:104EF000FB21F9BFFB210940FB21F93F075C14337B
:104F000026A6A13C70B51446FBF7C0F90546094832
:104F100021460068FBF7C0F90446074829460068A7
:104F2000FBF7BAF92146FBF75FF9BDE87040FBF7E4
:104F3000FABB0000AC000020A800002008B560B15A
:104F400020208DF8000028208DF8010030208DF8F9
:104F5000020038208DF8030004E0A32204216846F3
:104F6000FBF723F96A46042140F69E2001F032FD4A
:104F700001F026FA08BD00003EB5044602208DF877
:104F80000000CA208DF80100E3208DF802000920FE
:104F90008DF803006A460421682001F01BFDA32060
:104FA0008DF80000610609D5C0218DF80110C821D7
:104FB0008DF80210C2218DF8031005E08DF8010074
:104FC0008DF802008DF8030014F4C07F09D0C421CD
:104FD0008DF80410CC218DF80510C6218DF806102F
:104FE00005E08DF804008DF805008DF806008DF8B9
:104FF00008008DF807008DF809006A460A2140F67E
:10500000A72001F0E7FCA0074FF0D80503D020202F
:105010008DF8000001E08DF800506A46012140F64D
:10502000B62001F0D7FCA00601D5012000E0002049
:1050300000F08EF814F4C07F1ED0E0050AD5B2202F
:105040008DF800008B208DF80100B6208DF802004D
:105050009B2009E0B0208DF8000080208DF8010031
:10506000B4208DF8020090208DF803006A460421D8
:1050700040F6A22001F0AEFCE1074FF40B6022D015
:10508000F8218DF800106A46012101F0A3FCFA21F5
:10509000072000F049FB072000F014FB012000F07E
:1050A00031FB642000F0D4FB4FF4FA7000F0E0FB19
:1050B000C821254800F0CEFA282000F0E3FA0A20A3
:1050C00000F0F0FA05E08DF800506A46012101F089
:1050D00081FCA00703D5D9208DF8000001E08DF8F0
:1050E00000506A46012140F23D7001F073FC6007F8
:1050F00001D5012000E0002000F048F8E00601D5CD
:10510000012000E00020FFF719FF104D44F00800D7
:10511000688101F055F90020A873600601D50620CA
:10512000A87314F4C07F02D0A87B801DA87314F06C
:10513000140F02D0A87B1030A873A00702D0A87B60
:10514000001DA87300203EBD09E3CA02D000002064
:105150000EB54FF4976310B106A107C901E008A28C
:1051600007CA8DE807006A460921184601F032FC9B
:105170000EBD0000B8AAB38DB4980D355D000000D7
:10518000B8AAAAAAB088C3C5C700000008B560B114
:10519000C0208DF80000C2208DF80100C4208DF8D9
:1051A0000200C6208DF8030004E08B22042168462B
:1051B000FAF7FBFF6A46042140F6982001F00AFC4A
:1051C00001F0FEF808BD0000C8234FF480620249D8
:1051D00040F6F63000F0E4BF047500082DE9FF4FFB
:1051E00089B01746DDE916520024544E88468146A0
:1051F0002C80A246B07B694601F076F84FF0FF3B69
:1052000018B158460DB0BDE8F08F708910F0140F3A
:105210004CD0BDF800109DF8022049BA090441EABB
:1052200002239DF803100B433B60BDF804109DF86A
:10523000062049BA090441EA02229DF807101B140E
:105240000A437A60BDF808109DF80A4049BA09047B
:1052500041EA04219DF80B4012142143B960BDF8C6
:105260000C409DF80EC064BA240444EA0C2C9DF84E
:105270000F4009144CEA040CC7F80CC04FEA2C4745
:105280005B43494302FB023207FB07111144102420
:10529000A1F17061B1F1007F04D901F091F8A5F896
:1052A00000A0AEE7298841F4807129804206694652
:1052B00011D50A19A41D13885BBAA8F800305388C9
:1052C0005BBAA8F80230928852BAA8F804202A885B
:1052D00042F008022A8010F4C07F11D00A19A41DE0
:1052E00013885BBAA9F8003053885BBAA9F802307A
:1052F000928852BAA9F804202A8842F070022A80C3
:10530000800716D00C44E07800F0C00500F03F01A3
:105310006078C00706D0C80801F007013268491C50
:1053200002B190476078000703D5716809B1A809F8
:1053300088470C9800F0A8FD002063E7D00000200B
:105340002DE9FF41044603A800F0E8FDBDF80C007C
:10535000410CC3032F48008900F0030254F8225087
:10536000420700D56D42C0F3C102860654F82220E0
:1053700000D55242C0F38116C00554F8264000D52E
:105380006442A5FB0367E81700FB037005FB0100FF
:10539000850045EA9670A2FB0367D51705FB0375E8
:1053A00002FB0152950045EA9672A4FB0367E517DC
:1053B00005FB037304FB01318B0043EA9671030E76
:1053C0008DF80030030C8DF80130030A8DF802309F
:1053D0008DF80300100E8DF80400100C8DF80500F8
:1053E000100A8DF80600080E8DF80800080C8DF8DC
:1053F0000900080A8DF80A008DF807208DF80B10B7
:105400006A460C214FF4257001F0E4FA04B0BDE8BF
:10541000F0810000D000002030B5044613A285B012
:1054200007CA8DE807004FF0FF35C82C16D8C820F2
:10543000B0FBF4F1491E080A8DF80C008DF80D1030
:1054400003AA022140F2162001F0C4FA30B96A46DC
:105450000C2140F6C12001F0BDFA10B1284605B07C
:1054600030BD054884810020F9E70000FEF2ABC49E
:10547000AAF1DFDFBBAFDFDFD0000020F8B5304995
:10548000098901F0030250F822404A0700D564421E
:10549000C1F3C1028B0650F8222000D55242C1F35D
:1054A000811350F82330C80500D55B42254984FBA1
:1054B0000140850045EA947082FB0142A40F44EA52
:1054C000820483FB0121950F45EA8105010E8DF8C9
:1054D0000010010C8DF80110010A8DF802108DF8F2
:1054E00003006A4604214FF4747001F073FA4FF020
:1054F000FF3688B9200E8DF80000200C8DF80100D1
:10550000200A8DF802008DF803406A4604214FF40A
:10551000757001F05FFA08B13046F8BD280E8DF8BD
:105520000000280C8DF80100280A8DF802008DF883
:1055300003506A4604214FF4767001F04BFAF8BD2F
:10554000D000002009E3CA022DE9FF4104463CA037
:1055500004F00303006802903AA0006803903AA0A8
:1055600006683AA0056802A8C15C8DF80010C4F373
:10557000C101425C8DF80120C4F38112805C8DF87A
:10558000020003A8C35C8DF80430415C8DF805105F
:10559000805C8DF806006A46032140F2264001F047
:1055A00019FA4FF0FF37E0BB01AA032140F22A406D
:1055B00001F010FAA8BBCDE9006560070BD59DF896
:1055C000000040F001008DF800009DF8040040F05C
:1055D00001008DF80400A0060BD59DF8010040F0F5
:1055E00001008DF801009DF8050040F001008DF8E4
:1055F0000500E0050BD59DF8020040F001008DF894
:1056000002009DF8060040F001008DF806006A4691
:1056100003214FF4886001F0DDF910B901AA0321DC
:1056200000E004E040F2314001F0D4F918B138460E
:1056300004B0BDE8F081064804810020F8E70000CE
:105640004CCD6C000CC92C00365676002646660000
:10565000D00000204FF47A7290FBF2F008B5484376
:10566000010E8DF80010010C8DF80110010A8DF863
:1056700002108DF803006A4604214FF4AE7001F069
:10568000A9F908BD0521B0FBF1F008B5010A8DF8B4
:1056900000108DF801006A4602214FF4AD7001F050
:1056A00099F908BD0521B0FBF1F008B5010A8DF8A4
:1056B00000108DF801006A4602214FF4AC7001F031
:1056C00089F908BD08B500218DF80010C10702D086
:1056D00030218DF80010810705D59DF8001041F0AC
:1056E0000C018DF80010400705D59DF8000040F032
:1056F00003008DF800006A4601214FF4A47001F008
:1057000069F908BD08B560B1042800D90420401E1D
:105710008DF800006A46012140F24F1001F05AF95D
:1057200008BD0120F3E700002DE9FC4105464007D4
:105730004FF0FF367CD0B1F5C86F79D80846FAF73C
:10574000CFFF3E49FAF7DAFD074601A800F0C8FB93
:105750009DF80400022806D004280DD008282ED079
:10576000102865D134E00E213846FAF705FEFAF725
:10577000F3FF84B2324907E00D213846FAF7FCFD09
:10578000FAF7EAFF2F4984B23846FAF785FDFAF7AF
:10579000E3FF210A8DF8001080B28DF80140010A64
:1057A0008DF802108DF80300E8076C4620D02246E1
:1057B00002214FF4EA7001F00DF9C8BB11E00C2191
:1057C0003846FAF7D9FDFAF7C7FF84B21E49DBE77E
:1057D0000B213846FAF7D0FDFAF7BEFF84B21B4919
:1057E000D2E7A21C02214FF4927001F0F3F8F8B94D
:1057F000A8070DD56A4602214FF4EC7001F0EAF8D3
:10580000B0B9A21C02214FF4947001F0E3F878B90A
:10581000680710D56A4602214FF4EE7001F0DAF8FD
:1058200030B9A21C02214FF4967001F0D3F810B1E8
:105830003046BDE8FC810020FBE700000000484343
:10584000000040460000C045000040450000C04444
:105850000521B0FBF1F008B5010A8DF800108DF8B4
:1058600001006A4602214FF4EF7001F0B3F808BD61
:105870000521B0FBF1F008B5010A8DF800108DF894
:1058800001006A4602214FF4ED7001F0A3F808BD53
:1058900013B54FF6FF73012269460248FDF724F95C
:1058A00000981CBD3C0200202DE9FE43064601AADB
:1058B00004210D20FDF73CFD10B10720BDE8FE835B
:1058C0009DF804101C2000EAD1029DF80710DFF8B3
:1058D0007090C1F301131A438DF800209DF8052044
:1058E000C1F3810300EAD2021A438DF801209DF82A
:1058F000062001F0030100EAD20008430024114F02
:105900008DF80200A0466D46285D10B146F824903F
:1059100009E046F824800CE056F824003946FAF7EE
:10592000BBFC46F82400285D401E10F0FF002855FF
:10593000F2D1641CE4B2032CE6D30020BEE70000E1
:105940007B14AE3E1D5A843F2DE9FE4F05460120D3
:10595000DFF8C8928DF8000000268DF80160D9F8B4
:10596000000017460C46807C6A460221FDF746FD82
:105970004FF0FF3A00287DD1C820FBF7D9FB8DF806
:105980000060D9F80000B0464E46C07B6A4601214F
:10599000FDF734FD0028EED130686A4601214079D8
:1059A000FDF72CFD0028E6D130686A460121807C95
:1059B000FDF724FD00285DD130686A460121C07DD5
:1059C000FDF71CFD002855D130686A460121007999
:1059D000FDF714FD00284DD14FF00C098DF8009013
:1059E00030686A4601210079FDF708FD00287DD165
:1059F0000F20FBF79DFBB06A6A460121407A8DF8C3
:105A0000000030688078FDF7F9FC00286ED1B06A9C
:105A10006A460121007A8DF8000030684078FDF771
:105A2000EDFC002862D1B06A807A0FB140F0E0004E
:105A30008DF8000030686A4601218079FDF7DEFCB0
:105A4000C0B927B1B06AC07A40F0E00000E0182089
:105A50008DF8000030686A460121C079FDF7CEFC60
:105A600040B917B1C820FBF763FB40208DF8000058
:105A7000306800E03AE000796A460121FDF7BEFC9B
:105A8000A0BB78208DF8000030686A46012140797B
:105A9000FDF7B4FC50BB3220FBF74AFB8DF80080C9
:105AA000306847466A4640790121FDF7A7FCE8B90E
:105AB0003068B0466A46807A0221FDF739FCA8B901
:105AC000BDF80000AF6040BAB0FBF9F06F602F6026
:105AD000A76067602760C6B2002736E0D8F80000EC
