:020000040800F2
:10000000784700200D0300082B1E0008291D00085A
:10001000291E0008670500080123000800000000F1
:100020000000000000000000000000004D02000879
:10003000BD05000800000000A9020008691E0008B4
:1000400027030008270300082703000827030008E8
:1000500027030008270300082703000827030008D8
:1000600027030008270300082703000827030008C8
:1000700027030008270300082703000827030008B8
:1000800027030008270300082703000827030008A8
:100090006905000827030008270300082703000854
:1000A00027030008411F0008270300082703000852
:1000B0002703000827030008270300082703000878
:1000C0002703000827030008270300082703000868
:1000D00027030008F522000827030008270300086B
:1000E0002703000827030008270300082703000848
:1000F0002703000827030008270300082703000838
:100100002703000827030008270300082703000827
:100110002703000827030008270300082703000817
:100120002703000827030008270300082703000807
:1001300027030008270300082703000827030008F7
:1001400027030008270300082703000827030008E7
:1001500027030008270300082703000827030008D7
:1001600027030008270300082703000827030008C7
:1001700027030008270300082703000800000000E9
:1001800027030008270300082703000827030008A7
:100190002703000827030008270300082703000897
:1001A00000000000000000002703000800F002F833
:1001B00000F03CF80AA090E8000C82448344AAF1C5
:1001C0000107DA4501D100F031F8AFF2090EBAE8C3
:1001D0000F0013F0010F18BFFB1A43F0010318477B
:1001E000942C0000B42C0000103A24BF78C878C1C9
:1001F000FAD8520724BF30C830C144BF04680C602D
:10020000704700000023002400250026103A28BF74
:1002100078C1FBD8520728BF30C148BF0B60704778
:100220001FB502F0EDFD1FBD10B510BD00F061F966
:100230001146FFF7F5FF02F079F800F07FF903B4FB
:10024000FFF7F2FF03BC00F087F900002C4B1968A0
:100250000868B0E8F04F80F30988BFF36F8F4FF064
:10026000000080F311887047000000000848006813
:10027000006880F308884FF0000080F3148862B6AD
:1002800061B6BFF34F8FBFF36F8F00DF00BF00BFBA
:1002900008ED00E0DFF80C00016841F47001016036
:1002A000704700BF88ED00E0EFF30980BFF36F8F68
:1002B000134B1A681EF0100F08BF20ED108A20E9BA
:1002C000F04F106009B44FF0500080F31188BFF375
:1002D0004F8FBFF36F8F02F0CBFB4FF0000080F326
:1002E000118809BC19680868B0E8F04F1EF0100FBB
:1002F00008BFB0EC108A80F30988BFF36F8F704796
:1003000028000020EFF3058070470000094880476F
:1003100009480047FEE7FEE7FEE7FEE7FEE7FEE7E7
:10032000FEE7FEE7FEE7FEE704480549054A064BFF
:1003300070470000311F0008AD010008784100201F
:1003400078470020784300207843002053EA020CCD
:1003500000F069802DE9F04B4FF00006002B1FBF25
:10036000B3FA83F503FA05F424FA05F65E4012BFEA
:100370001643B2FA82F502FA05F4C5F120051EBF54
:1003800022FA05FC44EA0C04203556EA044C4FEAF4
:10039000144418BF641C4FF000084FF0000990424D
:1003A00071EB030C39D3002919BFB1FA81F701FAB7
:1003B00007F6B0FA80F700FA07F6C7F120071EBF6C
:1003C00020FA07FC46EA0C062037B6FBF4FCA7EB44
:1003D0000507103F07F01F0BCBF120060CFA0BFBB3
:1003E0002CFA06F644BFB3460026202FA4BF5E4673
:1003F0004FF0000B5BEA060C08BF4FF0010B19EB46
:100400000B09ABFB027C48EB0608C01B06FB02CCC9
:100410000BFB03CC71EB0C01C1E70B4602464146D6
:100420004846BDE8F08B13B54FF000004FF00001D7
:10043000AFF30080BDE81C40704710B5203AC0F013
:100440000B80B1E81850203AA0E81850B1E81850D5
:10045000A0E81850BFF4F5AF5FEA027C24BFB1E812
:100460001850A0E8185044BF18C918C0BDE8104083
:100470005FEA827C24BF51F8043B40F8043B08BF8C
:100480007047D20728BF31F8023B48BF11F8012B53
:1004900028BF20F8023B48BF00F8012B70474FF0FF
:1004A000000200B5134694469646203922BFA0E8C4
:1004B0000C50A0E80C50B1F12001BFF4F7AF0907D0
:1004C00028BFA0E80C5048BF0CC05DF804EB8900C1
:1004D00028BF40F8042B08BF704748BF20F8022B04
:1004E00011F0804F18BF00F8012B7047704770471C
:1004F0007047754600F02CF8AE4605006946534635
:1005000020F00700854618B020B5FFF70DFFBDE8C5
:1005100020404FF000064FF000074FF000084FF06A
:10052000000B21F00701AC46ACE8C009ACE8C009FB
:10053000ACE8C009ACE8C0098D46704710B5044668
:10054000AFF300802046BDE81040FFF778BE000002
:10055000004870471441002001491820ABBEFEE757
:10056000260002007047FEE7014800F00DB90000C8
:10057000F802002038B50E4C4FF4007525600025B8
:10058000A560E560082525610A4C050A25706070A4
:10059000080AA070E170100A20716271180AA07137
:1005A000E3716B4622460249034800F00AF838BD61
:1005B000FC40002099000020F8020020704772B62D
:1005C000FEE7F0B590F820500468A468012D05D02E
:1005D000022D03D0416A41F480215DE014F0406FA8
:1005E00001D1E50055D5C4F30164022C03D9416A59
:1005F00041F4000150E00125A5401D608D684FF4D5
:10060000C0739DB1CE6835434E6845EAC60506689D
:1006100003EB0417F5514FF4C275076805EB041599
:100620000E697E51097D012905D009E00E88CD684B
:1006300045EA4655EBE701684E5946F480764E513F
:100640001179D579567941EA056195792D0445EA04
:10065000062529434FF4C676056806EB0416A95112
:100660001178D57841EA0561957852782D0445EAEC
:10067000022211434FF4C475026805EB0415515171
:10068000006803EB0411425842F00102425000207E
:10069000F0BD416A41F4001141620120F0BD704794
:1006A00030B590F82040012C05D0022C03D0416ACF
:1006B00041F480215DE00468002955D02469A40735
:1006C00054D04FF4D874056804EB01142D5915F07B
:1006D0000405956005682D594ED0ED0855600568F4
:1006E0002C5904F00204D4604FF4DA74056804EB6A
:1006F00001142D5905F00F05156105682D59C5F335
:100700000725956105682C59240C54614FF4DC725F
:10071000046802EB0112A4581C700468A458240A4F
:100720005C700468A458240C9C700468A258120ED3
:10073000DA704FF4DE72046802EB0112A4581C71E7
:100740000468A458240A5C710468A458240C9C71A1
:100750000468A258120EDA71006881B1016941F093
:1007600020010161002030BDE468A8E7416A41F43E
:1007700000114162012030BD6D0D1560AFE7C16809
:1007800041F02001C160EDE72DE9F05F054600680A
:1007900000244669D0F804908768D0F80CB0D0F8EF
:1007A00010A0D0F81880F10748D0F90714D0012123
:1007B0008160B80703D5284600F0E2F90CE078071D
:1007C00002D54FF4006407E0380702D54FF4805497
:1007D00002E0284600F0D3F9F80516D529684FF451
:1007E00080708860B80503D5284600F0CBF90CE08E
:1007F000780502D544F4005407E0380502D544F4E6
:10080000804402E0284600F0BCF9F80316D52968B8
:100810004FF480308860B80303D5284600F0B4F95F
:100820000CE0780302D544F4004407E0380302D515
:1008300044F4803402E0284600F0A5F9300707D5DB
:100840005FEACB6004D52968102044F40074C860C6
:1008500070074FF0080707D55FEA0B7004D52868CA
:10086000C760284600F058F9B00706D52868C06868
:10087000800702D0284600F051F9700607D55FEADC
:10088000CA6004D52968102044F480640861B00669
:1008900007D55FEA0A7004D528680761284600F08A
:1008A0006BF9F00606D528680069800702D0284653
:1008B00000F063F9B00308D55FEAC96005D529687F
:1008C00010204860284600F059F9F00307D55FEA88
:1008D000097004D528684760284600F056F93004AE
:1008E00046D55FEA497040D5F00504D55FEAC87087
:1008F00001D044F00104B00504D55FEA887001D549
:1009000044F00204700504D55FEA487001D544F054
:100910000404300529D518F0700F26D008F07000B7
:10092000402815D006DC102809D020280AD030280D
:1009300016D10AE050280ED0602811D10EE044F004
:1009400008040DE044F010040AE044F0200407E03D
:1009500044F0400404E044F0800401E044F4807476
:100960002868816921F0700181612968042048604C
:10097000002C05D0686A204368622846FFF78FFE86
:10098000BDE8F09F70B5040003D094F8200010B1CA
:1009900004E0012070BD204600F082F82068016864
:1009A00041F00101016000F067FA0546052604E008
:1009B00000F062FA401B0A2811D820684068C0077E
:1009C000F6D02068016821F00201016000F054FABD
:1009D00005460BE000F050FA401B0A2806D9606A71
:1009E00040F40030606284F82060D2E720684068FC
:1009F0008007EFD4207E0128206801683DD021F0D7
:100A000080010160607E01282068016838D021F0F3
:100A100040010160A07E01282068016833D021F0E8
:100A200020010160E07E0128206801682ED041F09D
:100A300010010160207F01282068016829D021F081
:100A400008010160607F01282068016824D021F03E
:100A500004010160D4E902010843D4E904121143FE
:100A600008436168491E08432168C861002060622C
:100A7000012084F82000002070BD41F08001C0E713
:100A800041F04001C5E741F02001CAE721F0100123
:100A9000CFE741F00801D4E741F00401D9E70000B5
:100AA00010B586B0044614216846FFF7F8FC1749D4
:100AB0002068884227D116480021026842F000725F
:100AC0000260006800F0007005901148103802685C
:100AD00042F0080202600068022200F0080005905F
:100AE0000320CDE90210CDE90002092004906946F7
:100AF000084800F0A7F800220521142000F054FA5D
:100B0000142000F043FA06B010BD0000006400405D
:100B100040380240000C02407047000000B58BB026
:100B200001AB03AA0021FFF7BBFD0398A0F201204F
:100B300006281AD80E49C0B200EB800208700D4991
:100B400001EB420031F812300381BDF804305BBA8A
:100B500021F81230BDF8061049BA4180BDF80810DE
:100B600049BA81809DF80A1081710BB000BD000068
:100B7000900000209C4000207047704770477047ED
:100B80007047704770477047704770472DE9F041D4
:100B90000446876D00F070F9064694F8350000258C
:100BA000022806D08020606584F834500120BDE81A
:100BB000F0812068016821F0160101602068416918
:100BC00021F080014161206C08B9A06C20B120683F
:100BD000016821F0080101602068016821F001012D
:100BE00001600CE000F048F9801B052807D920209F
:100BF0006065032084F8350084F83450D7E7206816
:100C00000068C007EED194F85C103F208840B860BF
:100C1000012084F8350084F834500020C7E790F8AC
:100C20003510022903D0802141650120704705213C
:100C300080F835100068016821F001010160002092
:100C4000704700002DE9F84FDFF8F8A100220124D9
:100C500003254FF00F090AF1040BAAF1040E00BF9F
:100C60000B6804FA02F63340B34270D10F7907F0F3
:100C70000307012F01D0022F16D187684FEA4208DF
:100C800005FA08FC27EA0C07D1F80CC00CFA08FC9E
:100C90004CEA070CC0F808C04768B7430E79C6F3A2
:100CA000001696403E4346600E79F643B6070AD0DA
:100CB000C7684FEA420C05FA0CF6B7438E6806FA8D
:100CC0000CF63E43C6600E7906F00306022E10D1E4
:100CD000D60800EB8608D8F8206057074FEAD76C93
:100CE00009FA0CF7BE430F6907FA0CF73743C8F847
:100CF000207006684FEA420C05FA0CF7BE430F79E4
:100D000007F0030707FA0CF7374307604E6816F43D
:100D1000403F1CD04C4E376847F4804737603668F8
:100D200022F0030706F480460096484E07EB060CB7
:100D3000DCF8086897073F0F09FA07F826EA080663
:100D4000DFF80C81404503D14FF0000841E072E02C
:100D5000DFF80081404502D14FF0010839E0DFF8AB
:100D6000F880404502D14FF0020832E0DFF8EC8015
:100D7000404502D14FF003082BE0DFF8E480404506
:100D800002D14FF0040824E0DFF8D880404502D1BA
:100D90004FF005081DE0DFF8D080404502D14FF04C
:100DA000060816E0DFF8C480404502D14FF007087E
:100DB0000FE0DFF8BC80404502D14FF0080808E0A2
:100DC000DFF8B080404502D14FF0090801E04FF054
:100DD0000A0808FA07F848EA0608CCF80888DAF89A
:100DE00000605746D1F804C09E435FEACC2C00D582
:100DF0001E433E60DBF800605F46D1F804C09E43AE
:100E00005FEA8C2C00D51E433E60DEF8006077461A
:100E1000D1F804C09E435FEA8C3C00D51E433E607F
:100E2000084F083F3E68D1F804C09E435FEACC3CBF
:100E300000D51E433E60521C102AFFF411AFBDE8DE
:100E4000F88F0000083C0140443802400030014067
:100E5000000002400004024000080240000C024072
:100E6000001002400014024000180240001C024022
:100E700000200240002402400148806870470000C2
:100E80001800002002488168027811448160704790
:100E9000180000200B4810B5016841F40071016092
:100EA000016841F480610160016841F48071016072
:100EB000032000F099F80F2000F006F800F04AF83F
:100EC000002010BD003C024030B505461C4887B0EC
:100ED0000024016841F001010160006806A900F0EA
:100EE0000100009001A800F063F900F091F91549A4
:100EF0004000B0FBF1F11548134A491E026040F270
:100F0000E732C0E90324C0E90114846100F07AFBF0
:100F1000040012D10D4800F0A3FB04000DD11920EC
:100F200000F034F8102D07D200222946192000F0D5
:100F30003BF80748056000E0012407B0204630BDBB
:100F40004438024040420F0000000140640300208A
:100F50001C0000200C4882B0016841F4804101600F
:100F6000006800F4804000900748001F016841F0CD
:100F7000805101600068002200F0805000900F2135
:100F8000901E02B000F010B844380240002809DB7F
:100F900000F01F02012191404009800000F1E02093
:100FA000C0F8001170470000F0B40E4B1B680C46EF
:100FB000C3F30223C3F10705042D00D90425191D2D
:100FC000072901D2002300E0DB1E012606FA05F105
:100FD000491E214099409E40761E16403143F0BC88
:100FE00001F08FB90CED00E0064900F00702086837
:100FF0004FF6FF03184040EA0220034A10430860FE
:10100000704700000CED00E00000FA052DE9F84300
:101010001748016841F0805101600068154F00F0E9
:101020008050012600903E64FFF726FF05464FF4EE
:101030007A78114C05E000BFFFF71EFF401B4045CA
:101040000DD86068C003F7D57E64FFF715FF05462D
:10105000464607E0FFF710FF401BB04202D90320CD
:10106000BDE8F88360688003F4D50020F8E700004D
:101070004038024000000E42007000402DE9F04769
:101080000E46050065D0DFF81481D8F80000F7B2ED
:1010900000F00F00B04207D288F80070D8F80000C6
:1010A00000F00F00B04254D128683D4C810712D5A2
:1010B000400703D5206840F4E050206028780007FE
:1010C00003D5206840F4604020602068A96820F0C3
:1010D000F000084320602878C0072DD030496868A8
:1010E0000839012812D0022813D0032811D009682A
:1010F000890700292DDA216821F0030101432160CD
:10110000FFF7BAFE814641F2883A0EE0096889038A
:10111000EFE709688901ECE7FFF7AEFEA0EB0901F4
:10112000514502D90320BDE8F0872068696800F0C6
:101130000C00B0EB810FEFD1D8F80010404601F061
:101140000F01B14207D90770006800F00F00B042EC
:1011500001D00120E7E72878400705D52068E96835
:1011600020F4E050084320602878000706D5206866
:10117000296920F4604040EAC100206000F058F87E
:101180002168084AC1F30311515CC8400649086050
:1011900006480068FFF798FE0020C4E7003C0240C4
:1011A00008380240442E0008240000201C000020C3
:1011B0000F2202600C4A136803F0030343601368B4
:1011C00003F0F0038360136803F4E053C360126814
:1011D0004FF4E05303EAD20202610448006800F0D1
:1011E0000F0008607047000008380240003C0240D1
:1011F0000448054900680968044AC1F38221515C2A
:10120000C84070472400002008380240542E0008CF
:101210000448054900680968044AC1F34231515C39
:10122000C84070472400002008380240542E0008AF
:10123000154810B5006810F00C02144813D014497A
:10124000042A0FD0082A0ED10F4C241F22682368CD
:1012500002F03F025B0207D52068C0F38810A0FBB4
:10126000010106E0084610BD2168C1F38811A1FB09
:1012700000010023FFF76AF82168C1F30141491C0E
:101280004900B0FBF1F010BD083802400024F40022
:10129000001BB7002DE9F84F04006ED02078DFF86E
:1012A0004C93C007A9F104054AD009F10400016874
:1012B000C1F38101012908D00068C0F38100022830
:1012C0000AD1D9F80000400206D52868800337D536
:1012D00060680028E1D033E06068B0F5803F10D04E
:1012E000B0F5A02F286810D020F48030286028683E
:1012F00020F4802028606068A8B1FFF7BDFD064695
:101300000DE0286840F48030F4E740F48020286045
:10131000F7E700BFFFF7B0FD801B642873D828688B
:101320008003F7D50CE0FFF7A7FD064605E000BFF8
:10133000FFF7A2FD801B6428F0D828688003F7D44B
:101340002078DFF8AC8280074FF0000A3ED5A7482E
:10135000001D016811F00C0F08D00068C0F3810077
:1013600002280BD1D9F80000400207D42868800772
:1013700016D5E068012800D112E033E1E068B8B189
:101380000120C8F80000FFF777FD064605E000BF22
:10139000FFF772FD801B0228C0D828688007F7D5A8
:1013A0002868216920F0F80040EAC10028600DE0BB
:1013B000C8F800A0FFF760FD064604E0FFF75CFDFB
:1013C000801B02281FD828688007F7D420780007E0
:1013D00022D5864F87486169703771B1012101605C
:1013E000FFF74AFD064604E0FFF746FD801B022892
:1013F00009D838688007F7D50EE0C0F800A0FFF7DD
:101400003BFD064605E082E0FFF736FD801B022823
:101410007DD838688007F7D42078400768D5DFF892
:10142000CCB100270BF13C0BDBF80000C0000BD463
:10143000DBF8001041F08051CBF80010DBF8000021
:10144000012700F0805000906B4E3068C00510D42A
:10145000306840F480703060FFF70EFD009005E0CA
:10146000FFF70AFD0099401A022850D83068C005DD
:10147000F6D55E4EA0686C3601280FD0052830687E
:1014800010D020F001003060306820F0040030609F
:10149000A068B8B1FFF7F0FC00900FE0306840F0B2
:1014A0000100F4E740F004003060F7E7FFF7E4FCE8
:1014B0000099411A41F28830814266D8306880072D
:1014C000F4D50EE0FFF7D8FC009007E0FFF7D4FC5E
:1014D0000099411A41F28830814256D8306880071D
:1014E000F4D42FB1DBF8001021F08051CBF80010BC
:1014F000A069C8B33D49091D0968C1F381010229EA
:101500004AD00228504607D0C8F8600000E03CE00E
:10151000FFF7B2FC04463BE04746C8F86000FFF71F
:10152000ABFC064605E000BFFFF7A6FC801B0228C7
:101530002BD828688001F7D4D4E907010843A16AB1
:101540002E4A490802EB0141626A41EA82110843CE
:1015500094F82C1040EA0161C9F8001001203866A7
:10156000FFF78AFC044606E03EE000BFFFF784FC7C
:10157000001B022809D828688001F7D534E000BF95
:10158000FFF77AFC001B022802D90320BDE8F88F80
:1015900028688001F4D427E00128F7D0D9F80000AA
:1015A000E26900F4800191421CD1226A00F03F01FF
:1015B000914217D147F6C071626A0140B1EB821FB8
:1015C00010D1A26A4FF0FF3300F4403103EB520216
:1015D000B1EB024F06D194F82C1000F07060B0EB24
:1015E000016F01D00120D1E70020CFE7043802408D
:1015F00000004742800E4742007000400000FFFF9D
:101600007047704710B5040003D094F83D0010B146
:1016100007E0012010BD002084F83C00204600F0C7
:101620001EF8022084F83D00211D206800F08EFC89
:10163000012084F8460084F83E0084F83F0084F8D6
:10164000400084F8410084F8420084F8430084F8A4
:10165000440084F8450084F83D00002010BD704728
:1016600090F83D10012901D001207047022180F837
:101670003D100168CA6842F00102CA600068114961
:10168000884214D0B0F1804F11D00F4988420ED05B
:101690000E4988420BD00E49884208D00D49884235
:1016A00005D00D49884202D00C49884204D1816896
:1016B00001F00701062903D0016841F00101016032
:1016C0000020704700000140000400400008004076
:1016D000000C0040000401400040014000180040A0
:1016E000704770B50446006801694FF00005C943B2
:1016F000890715D4C168C943890711D4E91E01615E
:1017000001202077206880698007204602D0FFF7FB
:10171000E7FF04E000F098F8204600F096F82577FF
:1017200020680169C943490717D4C168C9434907FB
:1017300013D46FF0040101610220207720688069D2
:1017400010F4407F204602D0FFF7CAFF04E000F00B
:101750007BF8204600F079F8257720680169C943B5
:10176000090716D4C168C943090712D46FF00801EC
:101770000161042020772068C0698007204602D0DC
:10178000FFF7AEFF04E000F05FF8204600F05DF8E0
:10179000257720680169C943C90617D4C168C943C0
:1017A000C90613D46FF0100101610820207720686A
:1017B000C06910F4407F204602D0FFF791FF04E09B
:1017C00000F042F8204600F040F8257720680169D3
:1017D000C943C90708D1C168C943C90704D1891ED3
:1017E0000161204600F032F820680169C94309060A
:1017F00009D4C168C943090605D46FF080010161AD
:101800002046FFF7FDFE20680169C943490609D457
:10181000C168C943490605D46FF040010161204603
:1018200000F01EF820680169C94389060BD4C1681D
:10183000C943890607D46FF0200101612046BDE845
:101840007040FFF7DEBE70BD704770470068034907
:10185000884201D1FFF716BB70470000000001402D
:101860007047704770470000F8B501680446086883
:10187000CA684B6910F00F0F4FF0000559D003F004
:10188000010602F49077374365D0C10705D0D10532
:1018900003D5216C41F001012164410705D5D90729
:1018A00003D0216C41F002012164810705D5D907DD
:1018B00003D0216C41F004012164010707D502F037
:1018C0002001314303D0216C41F008012164216CD7
:1018D00000293AD0800604D5900602D5204600F0B3
:1018E000C8FB20684069216CC0F38010090700D450
:1018F00060B3204600F096FB20684069400621D581
:101900002068143050E8001F21F0400140E8001228
:10191000002AF5D1A06BA8B16C490165A06BFFF757
:101920007EF9002811D0A06B016D01B0BDE8F04038
:10193000084783060FD593060DD52046BDE8F8402D
:1019400000F097BB2046FFF78DFFF8BD2046FFF75C
:1019500089FF2564F8BD266B2023012E79D1C606A8
:1019600077D5D60675D5086848680090486940065E
:1019700040D5A16B086840680004000CEAD0A28D35
:101980008242E7D9E085C869B0F5807F2DD0206814
:101990000C3050E8001F21F4807140E80012002A4A
:1019A000F5D12068143050E8001F21F0010140E813
:1019B0000012002AF5D12068143050E8001F21F0F1
:1019C000400140E80012002AF5D184F83E3025633A
:1019D00020680C3050E8001F21F0100140E8001290
:1019E000002AF5D1A06BFFF7D1F8A08DE18D401A48
:1019F00081B229E0A08DE18D401A81B2E08D0028EE
:101A0000A8D00029A6D020680C3050E8002F22F47E
:101A1000907240E80026002EF5D12068143050E87E
:101A2000002F22F0010240E80026002EF5D184F8B4
:101A30003E30256320680C3050E8002F22F0100261
:101A400040E80023002BF5D12046FFF70AFFF8BD40
:101A5000FFE705062BD5150629D594F83D0021286A
:101A6000F5D1A068B0F5805F01D12069B0B1206ADE
:101A7000411C2162216800784860E08C401E00040F
:101A8000000CE084E3D12068C16821F08001C160CE
:101A90002068C16841F04001C160D8E7206A008831
:101AA000C0F308004860206A801C2062E5E7400619
:101AB000CDD55006CBD5CA68204622F04002CA6078
:101AC00084F83D3000F02FF9C1E700001520000830
:101AD00070B5040004D094F83D00002510B106E074
:101AE000012070BD84F83C50204600F023F82420EB
:101AF00084F83D002068C16821F40051C16020468F
:101B000000F018FB2068016921F490410161206810
:101B1000416921F02A0141612068C16841F4005106
:101B2000C1602564202084F83D0084F83E00002038
:101B300070BD000010B586B0044614216846FEF75B
:101B4000AEFC17492068884228D116480021026857
:101B500042F010020260006800F010000590114889
:101B60001438026842F002020260006800F00200CD
:101B70000590C02000900220CDE9010103200390D0
:101B80000720049069460848FFF75CF80022052109
:101B90002520FFF709FA2520FFF7F8F906B010BD58
:101BA00000100140443802400004024090F83E30EA
:101BB000202B0ED159B152B190F83C30012B08D0F6
:101BC000012380F83C300023036300F039BB01207F
:101BD0007047022070470000F0B424480146467860
:101BE0000B7800F110021D465B1CDCB28B780021E3
:101BF00026B1012E18D0032E26D001E0A52B0ED041
:101C00004170017000201154401CC0B20528FAD365
:101C1000F0BC16490122891C1548FFF7C7BF0121F6
:101C2000417053550470F3E753550470052C01D2ED
:101C30005A2BEDD102214170111911F8032D497869
:101C400002EB01218180E3E7531913F8013C5B2B80
:101C500008D04170017000201154401CC0B205280A
:101C6000FAD3D5E701704170D2E7000000000020F0
:101C7000200300202DE9F843044690F83D001F465C
:101C800016460D4620284CD1C5B1BEB194F83C0093
:101C9000012846D0012084F83C004FF00008C4F829
:101CA0004080212084F83D00FFF7E6F8A6848146B5
:101CB000E684A068B0F5805F03D004E00120BDE8B1
:101CC000F883206928B12E465FF0000584F83C8037
:101CD0000EE00026FAE78021204600F0CEFAA0B9F7
:101CE000AEB116F8010B21684860E08C401EE0841C
:101CF000E08C4B464FF0000200970028EBD14FF0EC
:101D00004001204600F0B9FA30B10320D7E735F89A
:101D1000020BC0F30800E6E7202084F83D00002015
:101D2000CDE70220CBE77047FEE700000D4810B575
:101D30000B4901601021416000218160C160016197
:101D40004161017641768176C17601774177FEF770
:101D500019FE002803D0BDE81040FEF730BC10BDCE
:101D600000640040F802002010B58EB01C220B4920
:101D70006846FEF762FB0021684600F0F8FA084C5E
:101D800006491C22A0601C3107A8FEF756FB002163
:101D900007A800F0ECFAE0600EB010BD0C2E0008B1
:101DA00000000020114808B5016841F002010160FF
:101DB000016801F002010091016841F00801016031
:101DC000016801F008010091016841F0040101601F
:101DD000016801F004010091016841F08001016097
:101DE000006800F08000009008BD0000303802401C
:101DF0000C4810B50A4901604FF4E13141600021FF
:101E000081600C22C160C0E904128161C161FFF7E9
:101E10005FFE002803D0BDE81040FEF7D0BB10BD28
:101E20000010014020030020FEE7FEE708B500F0A7
:101E300079FA4FF6FF740090234601226946034861
:101E4000FFF718FF012000F086FAF5E720030020D5
:101E500040F2062423461A4620461146FEF78AFB26
:101E6000012000F078FAF5E710B5502080F31188D2
:101E7000BFF34F8FBFF36F8F00F0FAFE18B1044924
:101E80004FF080500860002080F3118810BD0000E2
:101E900004ED00E030B593B030216846FEF7FFFA5C
:101EA00014210CA8FEF7FBFA1F480025016841F039
:101EB00080510160006800F0805011901B4801685B
:101EC00041F4404101600068022400F44040119058
:101ED00001200090000401908001CDE90640062019
:101EE0000890B420CDE9090404200B906846FFF760
:101EF000D1F908B172B6FEE7FFF788F808B172B6FB
:101F0000FEE70CA90F2081E831004FF4A0500F909C
:101F1000109005210CA8FFF7B1F8002801D072B687
:101F2000FEE713B030BD00004038024000700040B2
:101F30000248016841F470010160704788ED00E0DB
:101F40000148FFF7CEBB000064030020F0B5026833
:101F5000254C264D264E274F274B4FF0804CA04254
:101F600009D0604507D0A84205D0B04203D0B8429E
:101F700001D0984204D122F0700E4A6842EA0E0263
:101F8000A0421BD0604519D0A84217D0B04215D04E
:101F9000B84213D0984211D0184DA8420ED0184D17
:101FA000A8420BD0174DA84208D0174DA84205D023
:101FB000164DA84202D0164DA84203D122F4407516
:101FC000CA682A434D6922F080022A4302608A6867
:101FD000C2620A688262A04201D0984201D10969B6
:101FE000016301214161F0BD000001400004004097
:101FF00000080040000C0040000401400040014087
:10200000004401400048014000180040001C00400E
:102010000020004010B5806B0021C185C184FFF70E
:1020200021FC10BD01680C3151E8002F22F49072A0
:1020300041E80023002BF5D10168143151E8002F4D
:1020400022F0010241E80023002BF5D1016B0129A8
:1020500009D101680C3151E8002F22F0100241E84B
:102060000023002BF5D1202180F83E1000210163D0
:10207000704708B590F83E10222901D0022008BD13
:1020800082684FF480539A4201D1016921B1816A7B
:102090009A421BD04AB10AE00268816A5268C2F3D0
:1020A00008020A80816A891C08E0026972B102682C
:1020B000526802F07F020A70816A491C8162C18DF8
:1020C000491E0904090CC18503D019E00268526851
:1020D000F1E70168CA6822F02002CA600168CA6894
:1020E00022F48072CA6001684A6922F001024A61E2
:1020F000202180F83E10016B012903D0FFF76CFD11
:10210000002008BD0021016301680C3151E8002F57
:1021100022F0100241E80023002BF5D101680A6883
:10212000D20602D50A6849680091818DFFF799FBB4
:10213000E6E7000070B5044600680169E26821F432
:102140004051114301612169A068E2690843616956
:10215000114308432168CA6849F20C639A43024359
:10216000CA6020684169A26921F44071114341614C
:1021700031492068884202D03049884202D1FFF7B5
:1021800047F801E0FFF734F8E269002319216425DC
:102190003226B2F5004F626828D0A0FB0101930FF0
:1021A0009200FEF7D3F80146B0FBF5F06FF018028D
:1021B000504301EB800006EB0010B0FBF5F000F09F
:1021C000F002B1FBF5F002EB0012B1FBF5F06FF09D
:1021D0001803584301EB800006EB0010B0FBF5F04C
:1021E00000F00F0021681044886070BDA0FB010161
:1021F00092185B41FEF7AAF80146B0FBF5F0020128
:10220000B1FBF5F06FF01803584301EB800006EBCB
:10221000C000B0FBF5F000F0F80002EB4002B1FBAB
:10222000F5F0584301EB800006EBC000B0FBF5F081
:1022300000F00700D6E70000001001400014014044
:1022400081628285C28500210164222280F83E20BD
:1022500080F83C10016921B10168CA6842F48072BB
:10226000CA6001684A6942F001024A610068C168B7
:1022700041F02001C160002070472DE9F0419846EF
:1022800017460E460446069D27E0681C25D02DB152
:10229000FEF7F2FDA0EB0800A8421ED920680C3022
:1022A00050E8001F21F4D07140E80012002AF5D157
:1022B0002068143050E8001F21F0010140E80012AE
:1022C000002AF5D1202084F83D0084F83E0000204B
:1022D00084F83C000320BDE8F0812068006836EAFD
:1022E000000004D00020B842CFD00020F3E7012046
:1022F000F9E700000148FFF7B7BA0000200300200B
:10230000FEE70907090E002804DB00F1E02080F851
:102310000014704700F00F0000F1E02080F8141D59
:102320007047000000487047D8400020FEF7B2FD1B
:10233000FFF7B0FDFFF736FDFFF7F8FCFFF758FD9C
:10234000FFF712FD00F00EF8FEE701460020842999
:1023500000D0C81C704710B500B9012000F024FB64
:10236000002010BD10B500F045FB002010BD7FB56A
:102370000D4604464169B0F9080081B1A16971B107
:10238000FFF7E3FFD4E905128DE80700D4E9001058
:102390002B46226900F041FC039004B070BDFFF7AA
:1023A000D4FF03A9CDE90001208A2B4682B2D4E9EB
:1023B000001000F005FC012801D00020EDE7039893
:1023C000EBE700002DE9F041184C0F460546E668A2
:1023D0002068001D00F020FA38B9206890F82C1011
:1023E00001208840216981432161681C07D137B1F0
:1023F0002168BDE8F0410E48091D00F051BA20687F
:102400003544B5424560216805D2A06BBDE8F04176
:10241000091D00F02DBA606B091D00F029FAA06AB1
:10242000854200D2A562BDE8F081000028000020AE
:10243000880400202DE9F041054600F03DFA2E4CBD
:10244000A068401CA06020682C4F10B1606940B3A8
:102450002DE02560A068012829D1002606EB860022
:1024600007EB800000F0F6F9761C072EF6D3234820
:102470008C3000F0EFF92148A03000F0EBF91F4854
:10248000B43000F0E7F91D48C83000F0E3F91B480C
:10249000DC3000F0DFF919488C3060631430A06341
:1024A00005E02068E96AC06A884200D82560606A51
:1024B000401C6062E96A0120226988401043206163
:1024C00001EB810007EB8000291D00F0E9F900F025
:1024D00013FA606900280CD02068E96AC06A884253
:1024E00007D207494FF080500860BFF34F8FBFF30A
:1024F0006F8FBDE8F081000028000020AC030020B1
:1025000004ED00E010B5044690F8510058B10128E0
:102510000CD002280FD0502080F31188BFF34F8FCA
:10252000BFF36F8FFEE7206B00F0FAF92046BDE89D
:10253000104000F0F5B910BD10484FF4705142073B
:1025400006D0C01D0D4920F00700411AC1F5705199
:102550000B4A00230144C2E900030839183A21F06C
:10256000070111604B600B600B1AC0E90013936008
:102570004FF0004053605061704700009C04002001
:102580007C000020144E154CA6F1C8074FF080586F
:10259000DFF84C9012E000BF00F08EF9F068C568DB
:1025A000281D00F039F9A068401EA0606068401E38
:1025B000606000F0A1F92846FFF7A4FF60680028DA
:1025C000EAD138680128F9D9C9F80080BFF34F8FE4
:1025D000BFF36F8FF2E70000740400202800002092
:1025E00004ED00E02DE9F0479A46DDE909848146D3
:1025F0006FF00303206B03EB82021044089E20F06F
:102600000707780707D0502080F31188BFF34F8F5A
:10261000BFF36F8FFEE7002561B1002023180A5C2D
:1026200083F834200A5C12B1401C1028F6D384F8D9
:10263000435001E084F83450072E00D30626E662AA
:10264000C4E91165201D00F010F904F1180000F034
:102650000CF92461C6F107006462A061E56484F8A6
:10266000505052464946384600F0C0F82060B8F154
:10267000000F01D0C8F80040BDE8F08730B511491F
:1026800000E011460A688242FBD34B685C18844222
:1026900003D1406818444860084643681C189442B7
:1026A00009D1084C183C2468A24209D052681A4447
:1026B00042600A6812680260814200D0086030BD42
:1026C0000460F9E77C0000200648416B096829B1E5
:1026D000416BC968C9684968816270474FF0FF3132
:1026E000FAE700002800002008484068401C4FF02E
:1026F000500080F3118804D0BFF34F8FBFF36F8F6A
:10270000FEE7BFF34F8FBFF36F8FFEE7840000201B
:102710002DE9F0410546002700F0A2F9324E30685D
:1027200008B9FFF709FF706905424ED1C5B30835F6
:1027300068070ED005F00700C0F1080005446807DF
:1027400007D0502080F31188BFF34F8FBFF36F8FF6
:10275000FEE72DB37068854237D82348183001460C
:102760000C6801E020460C466168A94202D221684B
:102770000029F7D131688C4227D0076821680160B1
:1027800060680837411B10290FD96019420708D02B
:10279000502080F31188BFF34F8FBFF36F8FFEE798
:1027A00013E041606560FFF769FF61687068401A77
:1027B0007060B268904200D2B0607069014300203E
:1027C000C4E90001F068401CF06000F0B7FA780737
:1027D00007D0502080F31188BFF34F8FBFF36F8F66
:1027E000FEE73846BDE8F0816400002010B5031F05
:1027F0004FF080741C601B1F21F001011960191F2C
:10280000044B0B6014390A60091F6FF00202443850
:102810000A6010BDE9260008D0E9013201699A601A
:10282000D0E901235A604A68824201D182684A6035
:10283000002202610868401E0860086870470000B6
:10284000034B036003F15400086080201060704760
:10285000A400002000F108014FF0FF32C0E901128E
:10286000C160016100210160704700210161704772
:1028700030B50B685A1C02D000F1080202E0026970
:1028800004E02246546825689D42FAD953684B609B
:1028900099608A60516008610168491C016030BD1F
:1028A00042684A6093688B609368596091600861E0
:1028B0000168491C01607047502080F31188BFF304
:1028C0004F8FBFF36F8F0A494868401C486001284A
:1028D0000CD10848006810F0FF0F07D0502080F39B
:1028E0001188BFF34F8FBFF36F8FFEE77047000073
:1028F0008400002004ED00E00849486828B1401E2B
:10290000486001D180F311887047502080F311880E
:10291000BFF34F8FBFF36F8FFEE7000084000020EE
:1029200070B500282AD0164DA0F1080460686969C6
:10293000084207D1502080F31188BFF34F8FBFF3B7
:102940006F8FFEE722683AB1502080F31188BFF301
:102950004F8FBFF36F8FFEE78843606000F080F811
:1029600060686968084468602046FFF787FE286948
:10297000401C2861BDE8704000F0E0B970BD000067
:10298000640000204FF0E0200021016181610549D1
:102990004FF47A720968B1FBF2F1491E41610721D7
:1029A000016170472400002010B5020014D00F48C8
:1029B000006B38B1502080F31188BFF34F8FBFF305
:1029C0006F8FFEE700F04CF800211046FFF7FAFC8D
:1029D00000F0B4F9002807D105494FF08050086095
:1029E000BFF34F8FBFF36F8F10BD00002800002092
:1029F00004ED00E010B586B00024039405AA04A9F4
:102A000003A80494FFF71CFFDDE903010094CDE95E
:102A1000011000230EA11048059A00F0FEF80F499E
:102A20000028C86211D0502080F31188BFF34F8F67
:102A3000BFF36F8F4FF0FF30886201204861CC6098
:102A400006B0BDE8104000F041B806B010BD00006F
:102A500049444C450000000085250008280000205E
:102A60000248016B491C01637047000028000020E8
:102A70001448016B11B10121C16170470021C1618E
:102A80000169B1FA81F1C1F11F0101EB81020E4927
:102A900051F822306BB101EB820101F108034A6861
:102AA00052684A609A4201D152684A60D168016016
:102AB0007047502080F31188BFF34F8FBFF36F8FA3
:102AC000FEE7000028000020AC0300201CB53748BA
:102AD0000168374A914207D1502080F31188BFF333
:102AE0004F8FBFF36F8FFEE700683149491E884260
:102AF00007D1502080F31188BFF34F8FBFF36F8F42
:102B0000FEE72C4908780190FF20087008788DF8BE
:102B100000009DF800009DF8002000F0F0009042B9
:102B200007D0502080F31188BFF34F8FBFF36F8F12
:102B3000FEE79DF80000204C00F0500020700720B8
:102B4000A06005E09DF8002052008DF80020401E96
:102B50009DF800201206F5D4A060032807D050206D
:102B600080F31188BFF34F8FBFF36F8FFEE74FF4F1
:102B70004070A060019808700C482030016841F452
:102B800070010160016841F070410160FFF7FAFED9
:102B900000206060FDF77EFB0848016841F040417D
:102BA0000160FDF763FB00201CBD000000ED00E0AC
:102BB00071C20F4100E400E08400002034EF00E027
:102BC0002DE9FF5F8346DDE90E87994616468A4662
:102BD0009000FFF79DFD05001CD05420FFF798FDE5
:102BE000040014D00020256384F85100CDE9024090
:102BF000CDE900874B46324651465846FFF7F2FC76
:102C00002046FFF717FC012004B0BDE8F09F2846DE
:102C1000FFF786FE4FF0FF30F6E7F0B585B0DDE94F
:102C20000B640A9DA6B1DCB15427009726630226E7
:102C300084F85160002604AFCDE90246CDE9005783
:102C4000FFF7D0FC2046FFF7F5FB049805B0F0BD78
:102C5000502080F31188BFF34F8FBFF36F8FFEE7D3
:102C6000502080F31188BFF34F8FBFF36F8FFEE7C3
:102C70002DE9F0412F4C0026206B28B1A069401CA3
:102C8000A0613046BDE8F081E5686D1CE56013D1B8
:102C9000606B006838B1502080F31188BFF34F8F0C
:102CA000BFF36F8FFEE7606BA16B6163A063206A67
:102CB000401C2062FFF708FDA06ADFF87C80854297
:102CC00009D3606B0068A0B1606BC068C7687868A2
:102CD000854211D2A0622068C06A00EB800158F8DA
:102CE0002100012800D90126E0690028C9D0012669
:102CF000C7E74FF0FF30EDE7381DFFF78DFDB86AED
:102D000018B107F11800FFF787FDF96A0120226961
:102D100088401043206101EB810108EB8100391DDF
:102D2000FFF7BEFDF86A2168C96A8842C9D3012647
:102D3000C7E7000028000020AC0300202DE9F04781
:102D40002C4D00242746286B38B1FFF7B5FD286BC2
:102D5000401E2863286B40B146E0502080F3118864
:102D6000BFF34F8FBFF36F8FFEE7A968224E01209C
:102D7000D1B3A6F1B40980463068E8B1F068C46800
:102D800004F11800FFF748FD201DFFF745FDE06A3C
:102D90002A6908FA00F11143296100EB800109EB6F
:102DA0008100211DFFF77CFDE06A2968C96A88421D
:102DB000E2D3C5F81C80DFE70CB1FFF785FCAC69F6
:102DC00044B14646FFF754FF00B1EE61641EF9D1ED
:102DD0000020A861E86938B1084901273807086070
:102DE000BFF34F8FBFF36F8FFFF786FD3846BDE807
:102DF000F0870000280000206004002004ED00E0BF
:102E00004FF04070E1EE100A70470000682E000895
:102E10002D1E0008000000000000000080000000DF
:102E200000000000000000005C2E0008511E000899
:102E3000FDFF000000000000800000000000000016
:102E40000000000000000000000000000102030478
:102E50000607080900000000010203046D795461AF
:102E6000736B30320000000064656661756C7454E9
:102E700061736B00942E000800000020A400000085
:102E8000E8010008382F0008A4000020D446000004
:102E90000402000800000000000000000000000024
:102EA0000000000000000000000000000100000021
:102EB00010000000000000000024F40000000000EA
:102EC0000000000000000000000000000000000002
:102ED00000000000000000000000000000000000F2
:102EE00000000000000000000000000000000000E2
:102EF00000000000000000000000000000000000D2
:102F000000000000000000000000000000000000C1
:102F1000000000000000000000000000AAAAAAAA09
:102F200000000000000000000000000000000000A1
:082F3000000000000000000099
:04000005080001AD41
:00000001FF
