:020000040800F2
:10000000680A002035150008C5020008C70200086C
:10001000CB020008CF020008D30200080000000055
:10002000000000000000000000000000D7020008EF
:10003000D902000800000000DB020008DD02000811
:100040004F1500084F1500084F1500084F15000800
:100050004F1500084F1500084F1500084F150008F0
:100060004F1500084F1500084F1500084F150008E0
:100070004F1500084F1500084F1500084F150008D0
:100080004F1500084F1500084F1500084F150008C0
:100090004F1500084F1500084F1500084F150008B0
:1000A0004F1500084F1500084F1500084F150008A0
:1000B0004F1500084F1500084F1500084F15000890
:1000C0004F1500084F1500084F1500084F15000880
:1000D0004F150008570600084F150008790800085A
:1000E0004F1500084F1500084F15000800F002F8E2
:1000F00000F05FF80AA090E8000C82448344AAF163
:100100000107DA4501D100F054F8AFF2090EBAE860
:100110000F0013F0010F18BFFB1A43F0010318473B
:10012000D4310000F43100000A444FF0000C10F804
:10013000013B13F0070408BF10F8014B1D1108BF65
:1001400010F8015B641E05D010F8016B641E01F805
:10015000016BF9D113F0080F1EBF10F8014BAD1C55
:100160000C1B09D16D1E58BF01F801CBFAD505E073
:1001700014F8016B01F8016B6D1EF9D59142D6D3CD
:10018000704700000023002400250026103A28BFF5
:1001900078C1FBD8520728BF30C148BF0B607047F9
:1001A000642902F01B80002070471FB51FBD10B5E9
:1001B00010BD02F0F7F81146FFF7F7FF00F008F85E
:1001C00002F015F903B4FFF7F2FF03BC00F0F6F9F3
:1001D00000F076F900F0DEF94FF4165000F0FDF96A
:1001E0004FF4165000F0DAFA642000F0A6F91EA0D1
:1001F00000F031FB1EA000F02EFB642000F09DF902
:1002000020A000F028FB642000F097F94FF4E130C3
:1002100000F0C4FA00F064FA00F094FA01F0F7F884
:1002200000F07DFC1FE0322000F087F90C2318A2BB
:100230000221002000F04DFD0C2319A20421002012
:1002400000F047FD1948027804210C2000F09EFFC1
:100250001648017816A001F081FF18480068C043D5
:100260001749C1F8B801DEE741540D0A000000004B
:1002700041542B4E414D45647975426C697A0D0AA3
:100280000000000041542B42415544380D0A000043
:10029000426C7565746F6F74685F546573740000A9
:1002A000526563696576653A000000000000002031
:1002B000526563696576653A25640A00B801224291
:1002C00000002242704700BFFEE700BFFEE700BF0C
:1002D000FEE700BFFEE770477047704770470000B9
:1002E0000CB50020019000906C48006840F480300C
:1002F0006A49086000BF6948006800F40030009057
:100300000198401C0190009818B90198B0F5A06FB1
:10031000F1D16248006800F4003010B10120009073
:1003200001E0002000900098012843D15C4800685B
:1003300040F010005A4908600846006820F00300A9
:1003400008600846006840F00200086053484068B2
:10035000524948600846406848600846406840F492
:10036000806048600846406820F47C104860084679
:10037000406840F4E81048600846006840F080702B
:10038000086000BF4548006800F000700028F9D000
:100390004248406820F003004049486008464068F1
:1003A00040F00200486000BF3C48406800F00C008C
:1003B0000828F9D10CBD10B5FFF792FF10BD10B59C
:1003C0003648006840F0010034490860084640683B
:1003D00034490840314948600846006832490840BD
:1003E0002E4908600846006820F48020086008460E
:1003F000406820F4FE0048604FF41F008860FFF75B
:10040000DAFF4FF000602949086010BD10B50021E7
:1004100000200022214B5B6803F00C0121B104296C
:1004200006D0082928D107E0214B224C236027E081
:100430001F4B204C236023E0184B5B6803F47010C3
:10044000164B5B6803F48032022303EB904022B921
:10045000194B4343174C23600DE0104B5B6803F4CA
:10046000003323B1144B4343124C236003E0104B81
:100470004343104C236003E00D4B0E4C236000BF40
:1004800000BF064B5B68C3F303130C4CE15C094BE4
:100490001B68CB40074C236010BD000000100240D9
:1004A000002002400000FFF8FFFFF6FE08ED00E02C
:1004B00000127A000400002000093D00080000201E
:1004C00010B56FF0040001F0A4F82E4800682E4922
:1004D000B0FBF1F02D4908700846007800EB4001B0
:1004E000C1EBC0104FF6FF7101EAC0002849088037
:1004F00010BD0146254A12784A434FF0E0235A6165
:1005000000229A611A46126942F001021A6100BF84
:100510004FF0E022106900F001021AB100F48032BD
:10052000002AF5D04FF0E022126922F001024FF0CC
:10053000E0231A6100229A6170470146144A12882A
:100540004A434FF0E0235A6100229A611A46126929
:1005500042F001021A6100BF4FF0E022106900F082
:1005600001021AB100F48032002AF5D04FF0E022E7
:10057000126922F001024FF0E0231A6100229A6111
:10058000704700000400002000127A0018000020CC
:100590001A00002008B54FF4A06000F0EBFF272000
:1005A0008DF8000002208DF801008DF80200012076
:1005B0008DF80300684600F0E2FF08BD014600BF69
:1005C000704700BF424A128802F04002002AF9D068
:1005D000C2B23F4B1B1D1A80704710B586B004464F
:1005E000012144F2050001F04FFB4FF40070ADF81B
:1005F000140003208DF8160018208DF8170005A9A7
:10060000344801F085F84FF48060ADF81400042000
:100610008DF8170005A92F4801F07AF80194002001
:10062000ADF80800ADF80A00ADF80C00ADF8100008
:100630000C20ADF80E0001A9254801F0CCFB0122E9
:1006400040F22551224801F05EFC0121204801F0D2
:100650004EFC06B010BD10B540F225511C4801F00B
:1006600037FD10B31A4801F0B3FCC4B21A48007841
:1006700000F08000C8B91848007800F0400060B170
:100680000A2C03D000201449087020E0124800789A
:1006900040F080001049087019E00D2C06D10E487A
:1006A000007840F040000C49087010E00A480078DB
:1006B00000F03F0009490C5407480078401C0649E7
:1006C0000870084600783F2801DD0020087010BD42
:1006D000003801400008014020000020C403002031
:1006E00008B50121102001F0CFFA4FF48040ADF899
:1006F000000010208DF8030003208DF802006946E9
:100700000C4801F005F808BD18B900210A4A11602B
:100710000FE00A490968491C084A1160814208D162
:1007200005490968C943064AC2F8B8110021034ABD
:100730001160704700100140B801224224000020DF
:100740000000224208B50121102001F09DFA4FF46B
:100750000040ADF8000048208DF8030069460C48C1
:1007600000F0D6FF08BD0B48007838B10A48006891
:1007700020B900200749087001207047064800682A
:10078000012803D1034908700020F6E700BFF4E711
:1007900000100140280000203C01224210B586B024
:1007A00004460121082001F06FFA0121880401F0BC
:1007B00078FA4FF48060ADF8140003208DF816002D
:1007C00018208DF8170005A9514800F0A1FF4FF43B
:1007D0000060ADF8140004208DF8170005A94C48FE
:1007E00000F096FF01940020ADF80800ADF80A0073
:1007F000ADF80C00ADF810000C20ADF80E0001A90A
:10080000444801F0E8FA012240F22551414801F044
:100810007AFB01213F4801F06AFB06B010BD10B51C
:10082000044621463B4801F0CFFB00BF4021394838
:1008300001F038FC0128F9D110BD70B504460D4611
:10084000002605E014F8010BFFF7E9FF701C86B2E3
:10085000AE42F7DB70BD70B50446204601F0F8FCEF
:1008600086B2002505E014F8010BFFF7D8FF681CDD
:1008700085B2B542F7DB70BD10B540F22551254871
:1008800001F026FC002842D0224801F0A1FB2249B9
:1008900008600846006818B909202049087036E049
:1008A0001D480068012802D11C4908702FE01A4831
:1008B0000068022802D11949087028E0164800682B
:1008C000032802D11549087021E013480068042864
:1008D00002D1124908701AE00F480068052802D1B9
:1008E0000E49087013E00C480068062802D10B4935
:1008F00008700CE008480068072802D10749087012
:1009000005E005480068082801D10449087010BDB9
:10091000000C0140004800402C0000200000002096
:1009200010B54FF48071F84800F09FFF4FF400714C
:10093000F54800F09AFF4FF40071F34800F097FF7C
:100940004FF48071F04800F092FF10BD10B54FF4E5
:100950008071ED4800F089FF4FF40071EA4800F023
:1009600086FF4FF40071E84800F07FFF10BD10B51E
:100970004FF48071E44800F078FF4FF48071E24852
:1009800000F075FF10BD2DE9F04105462C464FF4EF
:100990008071DD4800F06BFF00261CE0274607F061
:1009A0008007802F04D1B900D74800F05EFF04E033
:1009B0004FF40071D44800F05AFF6006040E4FF463
:1009C0008071D14800F051FF4FF48071CE4800F0A3
:1009D0004EFF701CC6B2082EE0DBBDE8F08110B5FA
:1009E0000446FFF79DFF7820FFF7CDFFFFF7BFFF1D
:1009F0000020FFF7C8FFFFF7BAFF2046FFF7C3FF4D
:100A0000FFF7B5FFFFF7A2FF10BD10B50446FFF7D3
:100A100087FF7820FFF7B7FFFFF7A9FF4020FFF718
:100A2000B2FFFFF7A4FF2046FFF7ADFFFFF79FFFE0
:100A3000FFF78CFF10BD70B504460D461DB1E0B246
:100A4000FFF7E3FF02E0E0B2FFF7C9FF70BD70B54A
:100A50000646002418E004F1B0000021FFF7EBFF88
:100A600000210846FFF7E7FF00211020FFF7E3FF12
:100A7000002505E001213046FFF7DDFF681CC5B207
:100A8000802DF7DB601CC4B2082CE4DB70BD06E0EF
:100A900041F6650100E0491E0029FCD1401E0028F6
:100AA000F6D17047014605E0002001E0421CD0B2BB
:100AB0007B28FBDB0A00A1F10101F5D1704770B57D
:100AC00004460D4605F1B0000021FFF7B4FF1021E8
:100AD00041EA14100021FFF7AEFF04F00F000021DF
:100AE000FFF7A9FF70BD10B500218D20FFF7A3FF10
:100AF00000211420FFF79FFF0021AF20FFF79BFF8D
:100B000010BD10B500218D20FFF795FF00211020AA
:100B1000FFF791FF0021AE20FFF78DFF10BD70B5EC
:100B2000002418E004F1B0000021FFF784FF002149
:100B30000846FFF780FF00211020FFF77CFF00250B
:100B400005E001210020FFF776FF681CC5B2802D6B
:100B5000F7DB601CC4B2082CE4DB70BD70B5002468
:100B600018E004F1B0000021FFF765FF00210846FE
:100B7000FFF761FF00211020FFF75DFF002505E072
:100B800001210846FFF757FF681CC5B2802DF7DB2F
:100B9000601CC4B2082CE4DB70BD2DE9F0470746A9
:100BA0000E469046994600250024A8F12000C5B2C3
:100BB0007F2F02DD0027B01CC6B2B9F1100F24D17F
:100BC00031463846FFF77BFF002408E004EB0511AF
:100BD0004E4A505C0121FFF72EFF601CC4B2082C66
:100BE000F4DB701CC1B23846FFF769FF002409E04E
:100BF00004EB05110831454A505C0121FFF71BFF4A
:100C0000601CC4B2082CF3DB12E031463846FFF713
:100C100056FF00240AE005EB45013D4A02EB410185
:100C2000085D0121FFF707FF601CC4B2062CF2DB50
:100C3000BDE8F08710B50246012000E050430B00EC
:100C4000A1F10104E1B2F9D110BD2DE9FF5F074622
:100C500091461E460E9D4FF0000A002435E0301BE1
:100C6000401EC1B20A20FFF7E5FFB9FBF0F00A21F0
:100C7000B0FBF1F201FB1208BAF1000F14D1701EA3
:100C8000A04211DDB8F1000F0CD1AB4605EBDB71D2
:100C9000491001FB0471C8B22B4620220199FFF7CD
:100CA0007CFF10E04FF0010AAB4605EBDB71491009
:100CB00001FB0471C8B208F13001CAB22B46019998
:100CC000FFF76BFF00BF601CC4B2B442C7DBBDE8D6
:100CD000FF9F2DE9F04105460E4614461F460EE0E3
:100CE00022783B4631462846FFF757FF05F10800BA
:100CF000C5B2782D02DD0025B01CC6B2641C207878
:100D00000028EDD1BDE8F081000C0140042D000861
:100D1000DC2A00082DE9F04180460E4615460027E2
:100D200031464046FFF7CBFE00240AE0F74A02EBCB
:100D30008511085D0121FFF77EFE781CC7B2601C9B
:100D4000C4B2102CF2DB701CC1B24046FFF7B7FEF4
:100D500000240CE06900491CEC4A02EB4111085DDB
:100D60000121FFF768FE781CC7B2601CC4B2102CCA
:100D7000F0DBBDE8F0812DE9F05F06460F469046B6
:100D80001C46DDF828A04FF0000BE11704EB517171
:100D9000C910A4EBC10131B92046E11704EB517130
:100DA000C1F3C70506E02046E11704EB5171C910F5
:100DB000491CCDB23D4615E029463046FFF77FFE7F
:100DC000B1460BE059460BF1010B1AF80100012165
:100DD000FFF731FE09F1010000F0FF09C145F1DB29
:100DE000681CC5B2A542E7DBBDE8F09F2DE9FF5FB7
:100DF00086B014461D464FF0010A0020039004906F
:100E000005904FF00109002600BF834600221346DB
:100E10002046294601F032FC09D285F00040CDE998
:100E200000402046019901F0A1FB064604E020465F
:100E3000294601F09BFB0646304601F0F4FB2246B2
:100E40002B46CDE9000101F053FD074688460022FC
:100E5000AF4B3846414601F04DFCCDE9000101F0B1
:100E6000B5FB834607E009EB89004FEA40090AF128
:100E7000010000F0FF0A0A2096FBF0F090FBF9F069
:100E80000028F0D142F2107096FBF0F00A2190FB9E
:100E9000F1F201FB1200C0B28DF80C004FF47A7031
:100EA00096FBF0F090FBF1F201FB1200C0B28DF85E
:100EB0000D00642096FBF0F090FBF1F201FB1200B4
:100EC000C0B28DF80E000A2096FBF0F090FBF1F214
:100ED00001FB1200C0B28DF80F000A2096FBF0F162
:100EE00000FB1160C0B28DF810002E208DF81100AB
:100EF0004FF47A70BBFBF0F00A21B0FBF1F201FB7A
:100F000012008DF812006420BBFBF0F0B0FBF1F290
:100F100001FB12008DF813000A20BBFBF0F0B0FBC0
:100F2000F1F201FB12008DF814000A20BBFBF0F176
:100F300000FB11B08DF8150000211498801D03AA44
:100F40001154894608E003A810F80900303003A9BD
:100F500001F8090009F10109B9F10A0FF3DB0022D8
:100F600013462046294601F089FB08D20AF1010008
:100F700000F0FF0A2D20CAF1050103AA50542E20CB
:100F80008DF8110000211498801D03AA1154CAF194
:100F9000050003A942180C23DDE90610FFF799FEAE
:100FA0000AB0BDE8F09F2DE9F04F89B0824689462E
:100FB00017469846DDF84CB00120079000200490B9
:100FC000059006900124002500BF00264FEAC96065
:100FD0004FEA10693846414601F0C8FA05462846EE
:100FE00001F038FB3A464346CDE9000101F080FCB0
:100FF000CDE902010022464BDDE9020101F07AFB56
:10100000CDE9000101F0E2FA064606E004EB8400B7
:1010100044000798401CC0B207900A20B5FBF0F0CE
:10102000B0FBF4F00028F1D142F21070B5FBF0F003
:101030000A21B0FBF1F201FB12008DF810004FF411
:101040007A70B5FBF0F0B0FBF1F201FB12008DF805
:1010500011006420B5FBF0F0B0FBF1F201FB1200CF
:101060008DF812000A20B5FBF0F0B0FBF1F201FBA5
:1010700012008DF813002E208DF815004FF47A70B1
:10108000B6FBF0F0B0FBF1F201FB12008DF8160098
:101090006420B6FBF0F0B0FBF1F201FB12008DF81A
:1010A00017000A20B6FBF0F0B0FBF1F201FB1200D2
:1010B0008DF818000A20B6FBF0F100FB11608DF8E6
:1010C000190000210BF1060004AA1154002405E0C8
:1010D00004A8005D303004A90855641C0A2CF7DB15
:1010E0002E208DF8150000210BF1060004AA1154E2
:1010F0001298C0F1050004A942180C235146484635
:10110000FFF7E7FD09B0BDE8F08F000030000020D8
:101110000088C3402DE9F04105460F46164600BF42
:1011200005EB45014906080E3946FFF7C8FC0024C7
:101130000BE006F1100101EB4101FB4A02EB41011A
:10114000085D0121FFF777FC641C062CF1DBBDE88C
:10115000F0812DE9F04105460F46164600BF05EB2C
:1011600045014906080E3946FFF7A9FC002409E0AD
:1011700006EB4601EC4A02EB4101085D0121FFF755
:101180005AFC641C062CF3DBBDE8F0812DE9F04726
:101190000546894616463446002C22DA644264200D
:1011A00094FBF0F100FB11400A2190FBF1F0C7B273
:1011B0000A2094FBF0F100FB114000F0FF080D2223
:1011C00049462846FFF7C5FF691CC8B23A4649465A
:1011D000FFF7A0FFA91CC8B242464946FFF79AFF95
:1011E00020E0642094FBF0F100FB11400A2190FB09
:1011F000F1F0C7B20A2094FBF0F100FB114000F0BF
:10120000FF080B2249462846FFF7A3FF691CC8B216
:101210003A464946FFF77EFFA91CC8B242464946F6
:10122000FFF778FFBDE8F0872DE9F04705468A46CD
:1012300016463446002C2DDA64420D2251462846CB
:10124000FFF787FF0A2094FBF0F100FB1140C7B2C3
:101250000A2094FBF0F00A2190FBF1F201FB12004E
:1012600000F0FF08642094FBF0F000F0FF09E91C97
:10127000C8B23A465146FFF74DFFA91CC8B24246D4
:101280005146FFF747FF691CC8B24A465146FFF76F
:1012900041FF2BE00B2251462846FFF75AFF0A2058
:1012A00094FBF0F100FB1140C7B20A2094FBF0F070
:1012B0000A2190FBF1F201FB120000F0FF0864200C
:1012C00094FBF0F000F0FF09E91CC8B23A46514621
:1012D000FFF720FFA91CC8B242465146FFF71AFF8C
:1012E000691CC8B24A465146FFF714FFBDE8F087B3
:1012F0002DE9F05F05468B4616463446002C00DA91
:1013000064424FF47A7094FBF0F0C7B24FF47A70F5
:1013100094FBF0F100FB1140642190FBF1F000F030
:10132000FF08642094FBF0F100FB11400A2190FBC0
:10133000F1F000F0FF090A2094FBF0F100FB1140EE
:1013400000F0FF0A3A4659462846FFF7E3FE691CBB
:10135000C8B242465946FFF7DDFEA91CC8B24A464C
:101360005946FFF7D7FEE91CC8B252465946FFF767
:10137000D1FEBDE8F09F2DE9F05F05460E4614460C
:1013800042F21070B4FBF0F0C7B242F21070B4FB3E
:10139000F0F100FB11404FF47A71B0FBF1F000F076
:1013A000FF080846B4FBF0F100FB11406421B0FBDC
:1013B000F1F000F0FF096420B4FBF0F100FB1140F4
:1013C0000A21B0FBF1FA0A20B4FBF0F100FB114B4B
:1013D0003A4631462846FFF79DFE691CC8B2424690
:1013E0003146FFF797FEA91CC8B24A463146FFF7BF
:1013F00091FEE91CC8B252463146FFF78BFE291D0B
:10140000C8B25A463146FFF785FEBDE8F09F08B5E1
:101410000121092000F038FC0121444800F049FA7C
:101420004FF44070ADF8000010208DF80300032049
:101430008DF8020069463E4800F06AF94FF44071A9
:101440003B4800F012FA4FF44870FFF776F800219D
:10145000AE20FFF7F0FA00210846FFF7ECFA002172
:101460001020FFF7E8FA00214020FFF7E4FA0021FE
:10147000B020FFF7E0FA00218120FFF7DCFA00211D
:10148000FF20FFF7D8FA0021A120FFF7D4FA0021AE
:10149000A620FFF7D0FA0021A820FFF7CCFA002100
:1014A0003F20FFF7C8FA0021C820FFF7C4FA002147
:1014B000D320FFF7C0FA00210846FFF7BCFA00214D
:1014C000D520FFF7B8FA00218020FFF7B4FA0021F9
:1014D000D820FFF7B0FA00210520FFF7ACFA002171
:1014E000D920FFF7A8FA0021F120FFF7A4FA002184
:1014F000DA20FFF7A0FA00211220FFF79CFA002162
:10150000DB20FFF798FA00213020FFF794FA002142
:101510008D20FFF790FA00211420FFF78CFA0021AC
:10152000AF20FFF788FA08BDDC2A0008000230006F
:10153000000C01400948804709480047FEE7FEE7E4
:10154000FEE7FEE7FEE7FEE7FEE7FEE7FEE7FEE773
:1015500004480549054A064B70470000BF030008D0
:10156000ED00000868040020680A002068060020DA
:101570006806002031490143314A1160704770B557
:10158000002100230F22C47804B32D4C246804F4F6
:10159000E064C4F5E064210AC1F10403CA40447860
:1015A00004FA03F18478144021430901254C06789C
:1015B000A155047804F01F050124AC4005786D1195
:1015C000AD0005F1E025C5F8004109E0047804F01C
:1015D0001F050124AC401C4D0678761145F82640C5
:1015E00070BD1A4A0A400243154B1B1F1A60704710
:1015F00039B1134A121D12680243114B1B1D1A60A8
:1016000006E00F4A121D126882430D4B1B1D1A6023
:101610007047042808D14FF0E021096941F0040126
:101620004FF0E022116107E04FF0E021096921F05D
:1016300004014FF0E0221161704700000000FA053C
:101640000CED00E000E400E080E100E080FFFF1F1F
:1016500010B50446CC48844208D10121042000F092
:101660002DFB0021042000F029FB46E0C7488442FE
:1016700008D10121082000F021FB0021082000F002
:101680001DFB3AE0C248844208D10121102000F03D
:1016900015FB0021102000F011FB2EE0BD48844214
:1016A00008D10121202000F009FB0021202000F0BA
:1016B00005FB22E0B848844208D10121402000F017
:1016C000FDFA0021402000F0F9FA16E0B348844208
:1016D00008D10121802000F0F1FA0021802000F0E3
:1016E000EDFA0AE0AE48844207D10121801500F0EE
:1016F000E5FA0021A01500F0E1FA10BD10B50121B6
:10170000084600F0DBFA0021012000F0D7FA10BDF6
:101710002DE9F04102460025002600200023002488
:10172000002791F803C00CF00F0591F803C00CF0EE
:10173000100CBCF1000F03D091F802C04CEA050573
:1017400091F800C0BCF1000F31D0146800202BE0EC
:101750004FF0010C0CFA00F3B1F800C00CEA0306DC
:101760009E4220D183004FF00F0C0CFA03F7BC43CC
:1017700005FA03FC4CEA040491F803C0BCF1280FFD
:1017800006D14FF0010C0CFA00FCC2F814C00AE0BC
:1017900091F803C0BCF1480F05D14FF0010C0CFAD1
:1017A00000FCC2F810C0401C0828D1D31460B1F866
:1017B00000C0BCF1FF0F34DD546800202EE000F1C2
:1017C000080C4FF0010808FA0CF3B1F800C00CEA5D
:1017D00003069E4221D183004FF00F0C0CFA03F751
:1017E000BC4305FA03FC4CEA040491F803C0BCF1C5
:1017F000280F05D100F1080C08FA0CF8C2F8148083
:1018000091F803C0BCF1480F07D100F1080C4FF06C
:10181000010808FA0CF8C2F81080401C0828CED342
:101820005460BDE8F0814FF6FF71018002218170A4
:101830000421C17070470246002093680B400BB131
:10184000012000E0002070470146886880B27047A0
:1018500002460020D3680B400BB1012000E00020BD
:1018600070470146C86880B27047016170474161A6
:1018700070470AB1016100E041617047C160704783
:101880004FF480320A438261816182618269826998
:10189000704702460020434B18684FF6807318408B
:1018A00040EA021008433F4B186070473E49C86148
:1018B0007047F0B50A46002300240021002500F0FF
:1018C0000046B6F1004F02D1364EF16901E0354EC7
:1018D0007168C0F3034583B200F44016B6F5401FAB
:1018E00008D121F070612F4E766826F070662D4F7A
:1018F0007E6012E000F48016B6F5801F06D1032644
:1019000006FA05F4A14341F0706106E0460D360188
:1019100003FA06F6B14341F0706122B1460D36017B
:1019200003FA06F6314300F00046B6F1004F02D14B
:101930001C4EF16101E01B4E7160F0BD30B500221C
:101940008B071C0F0F2303FA04F2164B08338C107D
:1019500053F824309343134C08348D1044F8253049
:1019600023468C1053F824308C07240F00FA04F41B
:1019700023430C4C08348D1044F8253030BD0A49FF
:10198000DC3108607047000000080140000C014095
:10199000001001400014014000180140001C0140EB
:1019A000002001400000014000002042DF480068A4
:1019B00040F00100DD49086008464068DC49084005
:1019C000DA49486008460068DA490840D7490860A3
:1019D0000846006820F4802008600846406820F42B
:1019E000FE0048604FF41F0088607047CF490968C7
:1019F00021F48031CD4A11601146096821F480211B
:101A00001160B0F5803F03D0B0F5802F0ED106E015
:101A1000C649096841F48031C44A116007E0C349EE
:101A2000096841F4A021C14A116000E000BF00BF75
:101A3000704710B501460022002300204A11012AF8
:101A400002D1BA4C236806E0022A02D1B74C236ABD
:101A500001E0B64C636A01F01F02012494401C406F
:101A60000CB1012000E0002010BD38B5002000902E
:101A70000024002500BF3120FFF7DBFF054600985A
:101A8000401C00900098B0F5A06F01D0002DF2D05E
:101A90003120FFF7CEFF08B1012400E000242046EA
:101AA00038BD01460020A14A106820F0F80040EA45
:101AB000C10010607047A0490860704702460020CE
:101AC0009A4B586820F47C1042EA01031843974B64
:101AD0005860704798490866704701460020934A4D
:101AE000506820F003000843506070478F484068FA
:101AF00000F00C007047014600208C4A506820F02E
:101B0000F00008435060704701460020874A506843
:101B100020F4E06008435060704701460020834A8B
:101B2000506820F4605040EAC1005060704729B10D
:101B30007E4A527A02437D4B5A7204E07B4A527AC3
:101B400082437A4B5A7270477B49D831086070479C
:101B500001460020754A506820F440400843506018
:101B600070470021714A20321170704A82F82010AB
:101B7000012802D004280AD104E001216B4A203256
:101B8000117005E00521694A2032117000E000BFA4
:101B900000BF70476949086070476449096A01439A
:101BA000624A11627047654944390860704730B530
:101BB00000210022002400235C4D6D6805F00C011B
:101BC00021B1042905D0082923D105E05C4D056029
:101BD00022E05B4D05601FE0544D6D6805F4701206
:101BE000524D6D6805F48034022505EB92421CB914
:101BF000544D554305600BE04C4D6D6805F40035C0
:101C00001DB1504D5543056002E04D4D55430560F3
:101C100002E04B4D056000BF00BF444D6D6805F00C
:101C2000F0010909484D6B5C0568DD4045603F4D9A
:101C30006D6805F4E061090A434D6B5C4568DD4061
:101C400085603A4D6D6805F46051C90A3E4D6B5C84
:101C50004568DD40C560354D6D6805F44041890B30
:101C60003A4D6B5CC568B5FBF3F5056130BD29B134
:101C70002E4A526902432D4B5A6104E02B4A5269A5
:101C800082432A4B5A61704729B1284A926902431C
:101C9000264B9A6104E0254A92698243234B9A615C
:101CA000704729B1214AD2690243204BDA6104E02E
:101CB0001E4AD26982431D4BDA61704729B11B4A23
:101CC000D2680243194BDA6004E0184AD2688243B2
:101CD000164BDA60704729B1144A12690243134B5C
:101CE0001A6104E0114A12698243104B1A6170476D
:101CF00012494039086070470F49C86470470B4962
:101D0000C87170470948406A40F0807007494862CE
:101D1000704701460020054A92680A400AB1012036
:101D200000E00020704701498872704700100240AF
:101D30000000FFF8FFFFF6FE00004242800442422E
:101D400000127A0000093D00B0030020C00300200B
:101D500010B50446FB48844209D101218803FFF7EE
:101D6000ADFF00214FF48040FFF7A8FF32E0F648B6
:101D7000844209D101214804FFF7ADFF00214FF44F
:101D80000030FFF7A8FF25E0F048844209D1012187
:101D90008804FFF7A0FF00214FF48020FFF79BFF8E
:101DA00018E0EB48844209D10121C804FFF793FFF2
:101DB00000214FF40020FFF78EFF0BE0E54884423E
:101DC00008D101210805FFF786FF00214FF480109C
:101DD000FFF781FF10BD2DE9F04786B005460E469E
:101DE0000024A24600BFA1460027B08900B100BF71
:101DF0002F462C8A4CF6FF700440F08804432C8256
:101E0000AC894EF6F3100440B088318908437189DB
:101E100008430443AC81AC8A4FF6FF400440B089CC
:101E20000443AC8201A8FFF7C2FEC648874202D134
:101E3000DDF810A001E0DDF80CA0A88900F4004056
:101E400040B10AEBCA0000EB0A1031684900B0FB50
:101E5000F1F807E00AEBCA0000EB0A1031688900CC
:101E6000B0FBF1F86420B8FBF0F004012009642114
:101E700001FB1089A88900F4004040B1322000EB3A
:101E8000C900B0FBF1F000F00700044308E0322085
:101E900000EB09106421B0FBF1F000F00F000443E7
:101EA0002C8106B0BDE8F0874FF416510160002187
:101EB0008180C18001810C21418100218181704795
:101EC00010B502460020108A4FF2FF0318400B881D
:101ED0004C8823438C882343CC88234318431082A7
:101EE00010BD0021018041808180C180704721B1F7
:101EF000828942F40052828104E082894DF6FF73A8
:101F00001A4082817047F0B5034600240026002560
:101F1000002040F66A17B94200D100BF1846C1F34D
:101F2000421401F01F06012707FA06F5012C01D122
:101F30000C3004E0022C01D1103000E014301AB152
:101F400007682F43076002E00768AF430760F0BDF2
:101F50001AB1838A0B43838202E0838A8B43838294
:101F60007047028A4FF6F0731A400282028A0A43CF
:101F70000282704782894FF2FF731A408281828900
:101F80000A438281704721B1828942F00202828134
:101F900004E082894FF6FD731A4082817047028AFD
:101FA0004FF6DF731A400282028A0A4302827047A8
:101FB00021B1028A42F48042028204E0028A4BF696
:101FC000FF731A4002827047C1F308028280704793
:101FD00001468888C0F308007047818941F00101FB
:101FE00081817047028BD2B20283028B42EA0122C6
:101FF00002837047028B02F47F420283028B0A4302
:102000000283704721B1828A42F02002828204E07A
:10201000828A4FF6DF731A408282704721B1828A2A
:1020200042F01002828204E0828A4FF6EF731A4077
:102030008282704721B1828A42F00802828204E0E3
:10204000828A4FF6F7731A408282704721B18289E3
:1020500042F40042828103E08289C2F30E0282814F
:10206000704721B1828A42F40062828204E0828A4F
:102070004FF2FF731A4082827047828A4FF6FB73D9
:102080001A408282828A0A438282704721B1828A00
:1020900042F00202828204E0828A4FF6FD731A4007
:1020A0008282704702460020B1F5007F00D100BF58
:1020B00013880B400BB1012000E00020704701F4B1
:1020C0000072B2F5007F00D100BFCA4302807047A2
:1020D00070B50246002400230025002040F66A1651
:1020E000B14200D100BFC1F3421501F01F03012628
:1020F00006FA03F3012D02D19689334006E0022D42
:1021000002D1168A334001E0968A33400C12012630
:1021100006FA04F41688344013B10CB1012000E033
:10212000002070BD10B50022002340F66A14A142C1
:1021300000D100BF0A1201249440A3B2DC43048002
:1021400010BD00000038014000440040004800403D
:10215000004C004000500040704700000FB404499C
:1021600010B503AA029800F0EFF810BC5DF814FB5C
:102170001C0000202DE9F0410E460446002020629C
:102180002046E168884730B3252805D0D4E90121ED
:102190009047206A401CF2E7E16820460027884704
:1021A000050018D0A5F14100192802D820354FF4B8
:1021B00000673246294620462760FDF7F1FF40B10F
:1021C000012804D0F61D26F007060836D8E7361D8C
:1021D000D6E72846DAE7206ABDE8F0812DE9F0412C
:1021E0000646002410687529314615A510D0AFF3B6
:1021F0000080002802DA404212A507E031688A0711
:1022000001D511A502E0490704D510A5012401E07C
:10221000AFF3008000210A2306F1240707E0B0FB9A
:10222000F3F203FB1200303078541046491C0028AA
:10223000F5D123462A463046BDE8F04100F02BB8E0
:10224000000000002D0000002B0000002000000016
:1022500010B5431C02E010F8011B71B18107FAD1DF
:102260004FF0013202C88C1A8C4314EAC211F9D023
:10227000C01A0A0603D0C01E10BDC01A10BD0A0441
:1022800001D0801E10BD0902FCD0401E10BD704759
:102290007047704770472DE9F0470D4699469246C2
:1022A000044600F124080168880604D5E06921F09D
:1022B0001001216000E00120A84201DD471B00E081
:1022C0000027A1697A1902EB0900081AA061207899
:1022D000C00602D42046AFF30080002608E0D4E90F
:1022E00001211AF806009047206A401C761C2062E3
:1022F0004E45F4DB2078C0060AD52046AFF30080B7
:1023000006E0D4E9012130209047206A401C206279
:10231000381EA7F10107F4DC07E0D4E9012118F821
:1023200005009047206A401C2062281EA5F1010587
:10233000F3DC2046AFF300802078000602D50220AF
:10234000BDE8F0870120FBE7074B70B50D467B44E5
:1023500000F011F80446284600F020F810B14FF0C4
:10236000FF3070BD204670BD71E2FFFF01694A1C5D
:1023700002610878704700B58FB0CDE901310021C6
:10238000059105497944CDE9031011466846FFF7E8
:10239000F1FE0FB000BD0000E5FFFFFF007B00F085
:1023A00080007047754600F029F8AE460500694682
:1023B000534620F00700854618B020B5FFF7C8F84F
:1023C000BDE820404FF000064FF000074FF0000836
:1023D0004FF0000B21F00701AC46ACE8C009ACE8B7
:1023E000C009ACE8C009ACE8C0098D467047044696
:1023F000AFF300802046FDF7E5FE0000004870477F
:102400000404002010B591EA030F48BF83F0004395
:1024100000F18282841A71EB030C05D2121943EB8E
:102420000C03001B61EB0C01DFF824E14FEA1154AF
:10243000A4EB135C1EEA430F18BF9EEA445F73D0FF
:1024400023EA0E03DCF1200E21EA045143F4801349
:1024500032D322FA0CFE10EB0E0023FA0CFE41EBF5
:102460000E01CCF1200E03FA0EFE10EB0E0051F11E
:102470000001B1F5801FCCF1200E32D201EB0451E6
:1024800012FA0EF2BDE8104058BF7047401C38BF2A
:102490005FEA420218BF7047002814BF20F0010015
:1024A00041F100014FEA410313F5001F38BF7047A7
:1024B000A1F1C04100F016BA012A43EB0302ACF1CE
:1024C000200CDCF11F0E32BF4FF0000E23FA0CF38C
:1024D00010EB030041EB0451B4EB115FD0D0A1EB42
:1024E000045101F5801149085FEA300001EB045105
:1024F0000ED350F1000038BF12FA0EFE08D1BDE82D
:102500001040C9E7401C38BF5FEA4202CAD1C3E7A6
:10251000BDE810404FEA410313F5001F38BF704774
:10252000A1F1C04100F0DEB99EEA445F08D011EA93
:102530005E0FBDE8104004BF01F00041002070476D
:10254000BDE8104070B500F07FF900BF64FBBE3EEF
:102550000000E0FF491058BFC1F140415B1058BF77
:10256000C3F140438B42EFF3008070474FEA4103D1
:102570004FEA5353A3F58063D3F11E03C8BFD3F1D1
:10258000210C0CDD4FF0004242EAC12242EA5052D7
:1025900032FA03FC8CEAE17CACEBE1707047102B63
:1025A000C4BF0020704703F5787CBCF1FF3F04D026
:1025B0006FF0004282EA2100704770B500F044F9E4
:1025C0004992248000207047F2E700004FEA11533F
:1025D000A3F58063D3F11E03A8BFD3F1200C08DB61
:1025E0004FF0004242EAC12252EA505232FA03F05E
:1025F000704709420BD4102BC4BF0020704703F56D
:10260000787CBCF1FF3F05D04FF0FF3070474FF0B2
:102610000000704770B500F017F900BF49922480A0
:1026200000207047F0E710F0004248BF4042B0FA87
:1026300080F310FA03F10AD0C3F11D0303F58063A0
:102640004FEA415002EB035202EBD12170474FF0A9
:1026500000007047B0FA80F310FA03F10AD0C3F11A
:102660001D0303F580634FEA41504FEA035202EB2A
:10267000D12170474FF000007047000051EA030C71
:1026800017D41CF5801F58BFBCF5801F00F10680D1
:10269000994218BF704708BF9042704707D711F59D
:1026A000801F58BF13F5801F19D499427047894283
:1026B00070471CF5801F08D5BCF5801FF7D58B42ED
:1026C00018BF704708BF824270474FF4001C1CEBD4
:1026D000410F38BF1CEB430F01D28B42704770B5DE
:1026E00000F0B2F8922449004FF000514FF08053AF
:1026F000FFF730BFDFF848C170B51CEA111E1EBFDE
:102700001CEA13159EEA0C0F95EA0C0F00F06F807F
:1027100081EA030423EA4C134EEAD47E21EA4C11E9
:1027200041F4801143F48013AE44A1FB024CA0FBA2
:102730000365AEF17F7E361955EB0C05A1FB034C0A
:102740004CF10003A0FB021C16EB0C06654153F193
:102750000003094218BF46F0010613F4007F0BD1B5
:102760004FEA03314FEA0530340341EA155140EA9C
:1027700016506FF003020AE04FEAC3214FEAC5206A
:10278000F40241EA555140EA56506FF0020202EB62
:102790002E4201EB025585EACE710AD05FEA440C65
:1027A00018BF24F0004450F1000041F1000120EA7C
:1027B000D47040F2FE7C624500D270BDA84214BFC6
:1027C0004FF080444FF04044002E08BF0024BEF17B
:1027D000806FA8BFA1F1C041BDE8704080F2828047
:1027E0004FF0000001F1C04101F0004170479EEA46
:1027F0000C0F0CEA131518BF95EA0C0F06D04FF01A
:10280000000081EA030E0EF0004170BD00F01CF8DC
:102810008900013E00F007B800F009B84FEA430C08
:102820005FEA5C5C08D081EA030100F05BB84FEA24
:10283000410C5FEA5C5CF6D14FF000000149704743
:102840000000FF070000F87F0EF1020E2EF0030ECD
:102850005EF8046B364205D4012A43EB030515F5F7
:10286000001F12D8012841EB010C1CF5001F0CD8E9
:102870000ED14FEAD17C15F5001F0CEB4C0C0CF17E
:10288000020C08BF4CEBD37C04E04FF0080C01E0D5
:102890004FEAD37C0CEB4C0526FA05F606F007064A
:1028A000B6F1040C06D20EEB860CBDE870404CF07D
:1028B000010C6047DFE80CF0090B02024FF0004109
:1028C0004FF00000A1F5002170BD19461046012807
:1028D00051EB010418BFD4F5001484BF002001F0AF
:1028E000004170BD0808A0F500114FEA31017047A2
:1028F00091EA030F10B581F000413FF58BAD83F0F5
:10290000004300F009B8000010B591EA030F48BF7A
:1029100083F000433FF57EAD841A71EB030C07D2C0
:1029200012198CF0004C43EB0C03001B61EB0C0103
:10293000DFF8A4E14FEA1154A4EB135C1EEA430F45
:1029400018BF9EEA445F00F0B08023EA6E03524253
:1029500021EA0451C3EB6E0338BF5B1EDCF1200E8D
:1029600025D322FA0CFE10EB0E0043FA0CFE41EBCD
:102970000E01CCF1200E03FA0EFE10EB0E0051F109
:102980000001CCF1200E29D412FA0EF201EB045111
:10299000BDE8104058BF7047401C1CBFB2F1004F4B
:1029A000704700280CBF491C20F00100704712EB53
:1029B000020E43EB030218BF4FF0010E4EEA420233
:1029C000ACF1200CDCF11E0E54D943FA0CFE10EBD6
:1029D0000E0051F1FF31CCF11E0ED5D50EF1010ED6
:1029E00012FA0EFE404141EB010101EB445C5FEA4B
:1029F0005C5C10D910EBDE7001EB045138BFBEF106
:102A0000004FBDE8104018BF704700280CBF491C9C
:102A100020F00100704730D24FEAD42C11F500119C
:102A200024F400641BD0B1FA81F20B3AA41AA41E5C
:102A3000D2F12003914030FA03F31943904001EBA7
:102A4000CC71002C01EB0451BDE81040A8BF7047C9
:102A500001F1C0414FF0000001F000417047B0FAB1
:102A600080F310FA03F100D110BDE41A173C4805B9
:102A7000C90AE4E701EB045110BD491001EB045110
:102A8000BDE810404FEA300002E04FF0000170470F
:102A90004A0008BF0042F8D0B2F5001F28BF7047B7
:102AA00001F000414FF0000070479EEA445F07D0FC
:102AB00011EA5E0FBDE8104004BF002100207047FE
:102AC000BDE8104070B5FFF7BFFE00BF40DFF63E27
:102AD00083F00041104670470000E0FF0000000056
:102AE00000000000002F0000000007000700001495
:102AF0007F147F1400242A7F2A12006264081323A3
:102B000000364955225000000503000000001C2239
:102B10004100000041221C000014083E0814000877
:102B2000083E0808000000A0600000080808080827
:102B3000000060600000002010080402003E5149BF
:102B4000453E0000427F400000426151494600215D
:102B500041454B31001814127F1000274545453977
:102B6000003C4A49493000017109050300364949D2
:102B7000493600064949291E00003636000000008B
:102B800056360000000814224100001414141414D6
:102B9000000041221408000201510906003249597F
:102BA000513E007C1211127C007F49494936003E9B
:102BB00041414122007F4141221C007F4949494156
:102BC000007F09090901003E4149497A007F080850
:102BD000087F0000417F4100002040413F01007F0D
:102BE00008142241007F40404040007F020C027FD9
:102BF000007F0408107F003E4141413E007F0909EB
:102C00000906003E4151215E007F09192946004610
:102C1000494949310001017F0101003F4040403FE7
:102C2000001F2040201F003F4038403F0063140831
:102C3000146300070870080700615149454300000C
:102C40007F41410000552A552A55000041417F002F
:102C50000004020102040040404040400000010224
:102C60000400002054545478007F4844443800380D
:102C70004444442000384444487F00385454541895
:102C800000087E0901020018A4A4A47C007F0804A7
:102C900004780000447D4000004080847D00007F77
:102CA000102844000000417F4000007C0418047894
:102CB000007C0804047800384444443800FC242490
:102CC00024180018242418FC007C08040408004878
:102CD0005454542000043F444020003C4040207C99
:102CE000001C2040201C003C4030403C0044281088
:102CF0002844001CA0A0A07C004464544C4414143C
:102D00001414141400000000000000000000000073
:102D100000000000000000F8000000000000003388
:102D20003000000000100C06100C0600000000002F
:102D30000000000040C07840C0784000043F040418
:102D40003F040400007088FC08300000001820FFD9
:102D5000211E0000F008F000E018000000211C0314
:102D60001E211E0000F00888700000001E21232490
:102D70001927211010160E000000000000000000AE
:102D800000000000000000E018040200000000073E
:102D90001820400000020418E00000000040201845
:102DA00007000000404080F0804040000202010F18
:102DB00001020200000000F0000000000101011FFC
:102DC00001010100000000000000000080B0700060
:102DD00000000000000000000000000000010101F0
:102DE000010101010000000000000000003030007F
:102DF0000000000000000000806018040060180659
:102E00000100000000E010080810E000000F102092
:102E100020100F00001010F8000000000020203FDC
:102E20002020000000700808088870000030282466
:102E30002221300000300888884830000018202007
:102E400020110E000000C02010F80000000704242C
:102E5000243F240000F80888880808000019212071
:102E600020110E0000E0108888180000000F1120CB
:102E700020110E0000380808C83808000000003F84
:102E8000000000000070880808887000001C2221E3
:102E900021221C0000E010080810E0000000312290
:102EA00022110F00000000C0C00000000000003030
:102EB0003000000000000080000000000000806082
:102EC0000000000000008040201008000001020403
:102ED00008102000404040404040400004040404EA
:102EE00004040400000810204080000000201008A6
:102EF00004020100007048080808F00000000030DB
:102F000036010000C030C828E810E0000718272468
:102F100023140B000000C038E0000000203C230216
:102F20000227382008F8888888700000203F202079
:102F300020110E00C03008080808380007182020AB
:102F40002010080008F808080810E000203F2020A2
:102F500020100F0008F88888E8081000203F202083
:102F60002320180008F88888E8081000203F200077
:102F700003000000C03008080838000007182020AF
:102F8000221E020008F808000008F808203F21016E
:102F900001213F20000808F8080800000020203F19
:102FA0002020000000000808F8080800C080808089
:102FB0007F00000008F888C028180800203F200182
:102FC0002638200008F8080000000000203F2020DC
:102FD0002020300008F8F800F8F80800203F003FF3
:102FE000003F200008F830C00008F808203F20000B
:102FF00007183F00E01008080810E0000F1020201C
:1030000020100F0008F808080808F000203F2101F0
:1030100001010000E01008080810E0000F18242447
:1030200038504F0008F8888888887000203F2000BA
:10303000030C302000708808080838000038202170
:1030400021221C00180808F8080818000000203F7A
:103050002000000008F808000008F808001F2020E1
:1030600020201F000878880000C8380800000738B2
:103070000E010000F80800F80008F800033C070003
:10308000073C0300081868808068180820302C036B
:10309000032C30200838C800C83808000000203F42
:1030A0002000000010080808C83808002038262131
:1030B00020201800000000FE020202000000007F35
:1030C00040404000000C30C0000000000000000143
:1030D0000638C00000020202FE000000004040402E
:1030E0007F00000000000402020204000000000053
:1030F00000000000000000000000000080808080D0
:1031000080808080000202040000000000000000B7
:103110000000000000008080808000000019242250
:1031200022223F2008F8008080000000003F11208C
:1031300020110E000000008080800000000E112091
:1031400020201100000000808088F800000E11206F
:1031500020103F200000808080800000001F22227D
:1031600022221300008080F0888888180020203FE9
:10317000202000000000808080808000006B9494FC
:103180009493600008F8008080800000203F2100B8
:1031900000203F2000809898000000000020203F81
:1031A00020200000000000809898000000C080806F
:1031B000807F000008F8000080808000203F24020B
:1031C0002D302000000808F8000000000020203FFB
:1031D000202000008080808080808000203F2000B0
:1031E0003F20003F8080008080800000203F210041
:1031F00000203F200000808080800000001F2020F1
:1032000020201F00808000808000000080FFA1201F
:1032100020110E000000008080808000000E112030
:1032200020A0FF80808080008080800020203F21BF
:103230002000010000008080808080000033242472
:1032400024241900008080E0808000000000001F1E
:10325000202000008080000000808000001F2020CF
:1032600020103F20808080000080808000010E3090
:103270000806010080800080008080800F300C03F1
:103280000C300F0000808000808080000020312EF4
:103290000E312000808080000080808080818E70D0
:1032A0001806010000808080808080000021302C82
:1032B0002221300000000000807C0202000000009B
:1032C000003F404000000000FF0000000000000040
:1032D000FF0000000002027C800000000040403F30
:1032E00000000000000601010202040400000000CA
:1032F000000000001433000800000020C403000098
:1033000028010008A0340008C4030020A40600001F
:10331000840100085184A24A040009100102030438
:103320000607080992011BF010012AFF050215F09B
:103330001B0F04012AFF0502130F18094040405FCC
:1033400055555575041A5F0C091121080C11200FF1
:10335000094989790909090F201F112FFE02424AE4
:10336000CA4A0304134202FE000E14FF40504C43AD
:1033700040404F50505C40FF1BF888012AFF050277
:1033800015F81B1F08012A7F200B109F80E23B804D
:103390008201000916E2A2928A8682808004184087
:1033A000807F172424A4FEA3221B22CCAA0114157B
:1033B000080601FF2B0104010511FF020202580853
:1033C000101010FF109008C3021108080F100444D9
:1033D000827F01808040432C10284681A01809403C
:1033E00040484848C8784F060515484840400009FD
:1033F000150312122222528A063C106080BA190468
:103400000B11C030FB1E404043407F061C7F4241F1
:1034100006094FC02941080B1110D030FF30D012DF
:103420001C10101F3D080402019E0D11010204082A
:10343000211116FE222222FE0712FE828292A29EF5
:10344000100880601F0242827F0F11FF402F102C56
:10345000438011000B1490884C57A42454548C843E
:10346000180801018042221A07441D423E01018AC8
:10347000F9E1000D14E4242CB4252624B42C24E412
:1034800004180AFF02011E1212121E418601162D97
:1034900001020304040009000607080902040608E3
:04000005080000ED02
:00000001FF
